{
  "contractName": "_MakerMedianizer",
  "abi": [
    {
      "constant": true,
      "inputs": [],
      "name": "peek",
      "outputs": [
        {
          "internalType": "bytes32",
          "name": "",
          "type": "bytes32"
        },
        {
          "internalType": "bool",
          "name": "",
          "type": "bool"
        }
      ],
      "payable": false,
      "stateMutability": "view",
      "type": "function"
    },
    {
      "constant": true,
      "inputs": [],
      "name": "read",
      "outputs": [
        {
          "internalType": "bytes32",
          "name": "",
          "type": "bytes32"
        }
      ],
      "payable": false,
      "stateMutability": "view",
      "type": "function"
    },
    {
      "constant": false,
      "inputs": [
        {
          "internalType": "bytes32",
          "name": "wut",
          "type": "bytes32"
        }
      ],
      "name": "poke",
      "outputs": [],
      "payable": false,
      "stateMutability": "nonpayable",
      "type": "function"
    },
    {
      "constant": false,
      "inputs": [],
      "name": "void",
      "outputs": [],
      "payable": false,
      "stateMutability": "nonpayable",
      "type": "function"
    },
    {
      "constant": false,
      "inputs": [
        {
          "internalType": "uint256",
          "name": "amt",
          "type": "uint256"
        },
        {
          "internalType": "contract ERC20",
          "name": "tok",
          "type": "address"
        }
      ],
      "name": "push",
      "outputs": [],
      "payable": false,
      "stateMutability": "nonpayable",
      "type": "function"
    }
  ],
  "bytecode": "0x608060405234801561001057600080fd5b50610232806100206000396000f3fe608060405234801561001057600080fd5b50600436106100675760003560e01c806359e02dd71161005057806359e02dd7146100a5578063ac4c25b2146100c6578063c80fbe4e146100ce57610067565b80631504460f1461006c57806357de26a41461008b575b600080fd5b6100896004803603602081101561008257600080fd5b5035610107565b005b61009361011b565b60408051918252519081900360200190f35b6100ad610139565b6040805192835290151560208301528051918290030190f35b610089610146565b610089600480360360408110156100e457600080fd5b508035906020013573ffffffffffffffffffffffffffffffffffffffff16610152565b60019081556000805460ff19169091179055565b6000806000610128610139565b915091508061013357fe5b50905090565b60015460005460ff169091565b6000805460ff19169055565b604080517f23b872dd00000000000000000000000000000000000000000000000000000000815233600482015230602482015260448101849052905173ffffffffffffffffffffffffffffffffffffffff8316916323b872dd9160648083019260209291908290030181600087803b1580156101cd57600080fd5b505af11580156101e1573d6000803e3d6000fd5b505050506040513d60208110156101f757600080fd5b5050505056fea265627a7a723158208d7ac0c2345bdb5c9f80a18f593f3ac03a233453aa5e3d41d97e3544ea76e41364736f6c634300050c0032",
  "source": "import 'openzeppelin-solidity/contracts/token/ERC20/ERC20.sol';\n\npragma solidity ^0.5.8;\n\ncontract _MakerMedianizer {\n    bool    has;\n    bytes32 val;\n    function peek() public view returns (bytes32, bool) {\n        return (val,has);\n    }\n    function read() public view returns (bytes32) {\n        (bytes32 wut, bool has_) = peek();\n        assert(has_);\n        return wut;\n    }\n    function poke(bytes32 wut) public {\n        val = wut;\n        has = true;\n    }\n    function void() public { // unset the value\n        has = false;\n    }\n\n    function push(uint256 amt, ERC20 tok) public {\n        tok.transferFrom(msg.sender, address(this), amt);\n    }\n}\n",
  "sourcePath": "/Users/shain/repositories/insta-wealth/contracts/Compound/Oracles/_MakerMedianizer.sol",
  "compiler": {
    "name": "solc",
    "version": "0.5.12+commit.7709ece9.Emscripten.clang"
  },
  "schemaVersion": "3.0.16",
  "updatedAt": "2019-10-22T23:22:54.518Z",
  "devdoc": {
    "methods": {}
  },
  "userdoc": {
    "methods": {}
  }
}