{
  "contractName": "_PriceOracle",
  "abi": [
    {
      "inputs": [
        {
          "internalType": "address",
          "name": "_poster",
          "type": "address"
        },
        {
          "internalType": "address",
          "name": "addr0",
          "type": "address"
        },
        {
          "internalType": "address",
          "name": "reader0",
          "type": "address"
        },
        {
          "internalType": "address",
          "name": "addr1",
          "type": "address"
        },
        {
          "internalType": "address",
          "name": "reader1",
          "type": "address"
        }
      ],
      "payable": false,
      "stateMutability": "nonpayable",
      "type": "constructor"
    },
    {
      "anonymous": false,
      "inputs": [
        {
          "indexed": false,
          "internalType": "address",
          "name": "asset",
          "type": "address"
        },
        {
          "indexed": false,
          "internalType": "uint256",
          "name": "requestedPriceMantissa",
          "type": "uint256"
        },
        {
          "indexed": false,
          "internalType": "uint256",
          "name": "anchorPriceMantissa",
          "type": "uint256"
        },
        {
          "indexed": false,
          "internalType": "uint256",
          "name": "cappedPriceMantissa",
          "type": "uint256"
        }
      ],
      "name": "CappedPricePosted",
      "type": "event"
    },
    {
      "anonymous": false,
      "inputs": [
        {
          "indexed": false,
          "internalType": "uint256",
          "name": "error",
          "type": "uint256"
        },
        {
          "indexed": false,
          "internalType": "uint256",
          "name": "info",
          "type": "uint256"
        },
        {
          "indexed": false,
          "internalType": "uint256",
          "name": "detail",
          "type": "uint256"
        }
      ],
      "name": "Failure",
      "type": "event"
    },
    {
      "anonymous": false,
      "inputs": [
        {
          "indexed": false,
          "internalType": "address",
          "name": "oldAnchorAdmin",
          "type": "address"
        },
        {
          "indexed": false,
          "internalType": "address",
          "name": "newAnchorAdmin",
          "type": "address"
        }
      ],
      "name": "NewAnchorAdmin",
      "type": "event"
    },
    {
      "anonymous": false,
      "inputs": [
        {
          "indexed": false,
          "internalType": "address",
          "name": "anchorAdmin",
          "type": "address"
        },
        {
          "indexed": false,
          "internalType": "address",
          "name": "asset",
          "type": "address"
        },
        {
          "indexed": false,
          "internalType": "uint256",
          "name": "oldScaledPrice",
          "type": "uint256"
        },
        {
          "indexed": false,
          "internalType": "uint256",
          "name": "newScaledPrice",
          "type": "uint256"
        }
      ],
      "name": "NewPendingAnchor",
      "type": "event"
    },
    {
      "anonymous": false,
      "inputs": [
        {
          "indexed": false,
          "internalType": "address",
          "name": "oldPendingAnchorAdmin",
          "type": "address"
        },
        {
          "indexed": false,
          "internalType": "address",
          "name": "newPendingAnchorAdmin",
          "type": "address"
        }
      ],
      "name": "NewPendingAnchorAdmin",
      "type": "event"
    },
    {
      "anonymous": false,
      "inputs": [
        {
          "indexed": false,
          "internalType": "address",
          "name": "msgSender",
          "type": "address"
        },
        {
          "indexed": false,
          "internalType": "address",
          "name": "asset",
          "type": "address"
        },
        {
          "indexed": false,
          "internalType": "uint256",
          "name": "error",
          "type": "uint256"
        },
        {
          "indexed": false,
          "internalType": "uint256",
          "name": "info",
          "type": "uint256"
        },
        {
          "indexed": false,
          "internalType": "uint256",
          "name": "detail",
          "type": "uint256"
        }
      ],
      "name": "OracleFailure",
      "type": "event"
    },
    {
      "anonymous": false,
      "inputs": [
        {
          "indexed": false,
          "internalType": "address",
          "name": "asset",
          "type": "address"
        },
        {
          "indexed": false,
          "internalType": "uint256",
          "name": "previousPriceMantissa",
          "type": "uint256"
        },
        {
          "indexed": false,
          "internalType": "uint256",
          "name": "requestedPriceMantissa",
          "type": "uint256"
        },
        {
          "indexed": false,
          "internalType": "uint256",
          "name": "newPriceMantissa",
          "type": "uint256"
        }
      ],
      "name": "PricePosted",
      "type": "event"
    },
    {
      "anonymous": false,
      "inputs": [
        {
          "indexed": false,
          "internalType": "bool",
          "name": "newState",
          "type": "bool"
        }
      ],
      "name": "SetPaused",
      "type": "event"
    },
    {
      "payable": true,
      "stateMutability": "payable",
      "type": "fallback"
    },
    {
      "constant": true,
      "inputs": [
        {
          "internalType": "address",
          "name": "",
          "type": "address"
        }
      ],
      "name": "_assetPrices",
      "outputs": [
        {
          "internalType": "uint256",
          "name": "mantissa",
          "type": "uint256"
        }
      ],
      "payable": false,
      "stateMutability": "view",
      "type": "function"
    },
    {
      "constant": true,
      "inputs": [],
      "name": "anchorAdmin",
      "outputs": [
        {
          "internalType": "address",
          "name": "",
          "type": "address"
        }
      ],
      "payable": false,
      "stateMutability": "view",
      "type": "function"
    },
    {
      "constant": true,
      "inputs": [
        {
          "internalType": "address",
          "name": "",
          "type": "address"
        }
      ],
      "name": "anchors",
      "outputs": [
        {
          "internalType": "uint256",
          "name": "period",
          "type": "uint256"
        },
        {
          "internalType": "uint256",
          "name": "priceMantissa",
          "type": "uint256"
        }
      ],
      "payable": false,
      "stateMutability": "view",
      "type": "function"
    },
    {
      "constant": true,
      "inputs": [],
      "name": "maxSwing",
      "outputs": [
        {
          "internalType": "uint256",
          "name": "mantissa",
          "type": "uint256"
        }
      ],
      "payable": false,
      "stateMutability": "view",
      "type": "function"
    },
    {
      "constant": true,
      "inputs": [],
      "name": "maxSwingMantissa",
      "outputs": [
        {
          "internalType": "uint256",
          "name": "",
          "type": "uint256"
        }
      ],
      "payable": false,
      "stateMutability": "view",
      "type": "function"
    },
    {
      "constant": true,
      "inputs": [],
      "name": "numBlocksPerPeriod",
      "outputs": [
        {
          "internalType": "uint256",
          "name": "",
          "type": "uint256"
        }
      ],
      "payable": false,
      "stateMutability": "view",
      "type": "function"
    },
    {
      "constant": true,
      "inputs": [],
      "name": "paused",
      "outputs": [
        {
          "internalType": "bool",
          "name": "",
          "type": "bool"
        }
      ],
      "payable": false,
      "stateMutability": "view",
      "type": "function"
    },
    {
      "constant": true,
      "inputs": [],
      "name": "pendingAnchorAdmin",
      "outputs": [
        {
          "internalType": "address",
          "name": "",
          "type": "address"
        }
      ],
      "payable": false,
      "stateMutability": "view",
      "type": "function"
    },
    {
      "constant": true,
      "inputs": [
        {
          "internalType": "address",
          "name": "",
          "type": "address"
        }
      ],
      "name": "pendingAnchors",
      "outputs": [
        {
          "internalType": "uint256",
          "name": "",
          "type": "uint256"
        }
      ],
      "payable": false,
      "stateMutability": "view",
      "type": "function"
    },
    {
      "constant": true,
      "inputs": [],
      "name": "poster",
      "outputs": [
        {
          "internalType": "address",
          "name": "",
          "type": "address"
        }
      ],
      "payable": false,
      "stateMutability": "view",
      "type": "function"
    },
    {
      "constant": true,
      "inputs": [
        {
          "internalType": "address",
          "name": "",
          "type": "address"
        }
      ],
      "name": "readers",
      "outputs": [
        {
          "internalType": "contract _DSValue",
          "name": "",
          "type": "address"
        }
      ],
      "payable": false,
      "stateMutability": "view",
      "type": "function"
    },
    {
      "constant": false,
      "inputs": [
        {
          "internalType": "address",
          "name": "asset",
          "type": "address"
        },
        {
          "internalType": "uint256",
          "name": "newScaledPrice",
          "type": "uint256"
        }
      ],
      "name": "_setPendingAnchor",
      "outputs": [
        {
          "internalType": "uint256",
          "name": "",
          "type": "uint256"
        }
      ],
      "payable": false,
      "stateMutability": "nonpayable",
      "type": "function"
    },
    {
      "constant": false,
      "inputs": [
        {
          "internalType": "bool",
          "name": "requestedState",
          "type": "bool"
        }
      ],
      "name": "_setPaused",
      "outputs": [
        {
          "internalType": "uint256",
          "name": "",
          "type": "uint256"
        }
      ],
      "payable": false,
      "stateMutability": "nonpayable",
      "type": "function"
    },
    {
      "constant": false,
      "inputs": [
        {
          "internalType": "address",
          "name": "newPendingAnchorAdmin",
          "type": "address"
        }
      ],
      "name": "_setPendingAnchorAdmin",
      "outputs": [
        {
          "internalType": "uint256",
          "name": "",
          "type": "uint256"
        }
      ],
      "payable": false,
      "stateMutability": "nonpayable",
      "type": "function"
    },
    {
      "constant": false,
      "inputs": [],
      "name": "_acceptAnchorAdmin",
      "outputs": [
        {
          "internalType": "uint256",
          "name": "",
          "type": "uint256"
        }
      ],
      "payable": false,
      "stateMutability": "nonpayable",
      "type": "function"
    },
    {
      "constant": true,
      "inputs": [
        {
          "internalType": "address",
          "name": "asset",
          "type": "address"
        }
      ],
      "name": "assetPrices",
      "outputs": [
        {
          "internalType": "uint256",
          "name": "",
          "type": "uint256"
        }
      ],
      "payable": false,
      "stateMutability": "view",
      "type": "function"
    },
    {
      "constant": true,
      "inputs": [
        {
          "internalType": "address",
          "name": "asset",
          "type": "address"
        }
      ],
      "name": "getPrice",
      "outputs": [
        {
          "internalType": "uint256",
          "name": "",
          "type": "uint256"
        }
      ],
      "payable": false,
      "stateMutability": "view",
      "type": "function"
    },
    {
      "constant": false,
      "inputs": [
        {
          "internalType": "address",
          "name": "asset",
          "type": "address"
        },
        {
          "internalType": "uint256",
          "name": "requestedPriceMantissa",
          "type": "uint256"
        }
      ],
      "name": "setPrice",
      "outputs": [
        {
          "internalType": "uint256",
          "name": "",
          "type": "uint256"
        }
      ],
      "payable": false,
      "stateMutability": "nonpayable",
      "type": "function"
    },
    {
      "constant": false,
      "inputs": [
        {
          "internalType": "address[]",
          "name": "assets",
          "type": "address[]"
        },
        {
          "internalType": "uint256[]",
          "name": "requestedPriceMantissas",
          "type": "uint256[]"
        }
      ],
      "name": "setPrices",
      "outputs": [
        {
          "internalType": "uint256[]",
          "name": "",
          "type": "uint256[]"
        }
      ],
      "payable": false,
      "stateMutability": "nonpayable",
      "type": "function"
    }
  ],
  "bytecode": "0x60806040523480156200001157600080fd5b50604051620017b6380380620017b6833981810160405260a08110156200003757600080fd5b5080516020808301516040808501516060860151608090960151600380546001600160a01b03199081163317909155600580546001600160a01b03808a1691909316179055835195860190935267016345785d8a00009485905260069490945593949193929084161580620000be5750816001600160a01b0316846001600160a01b031614155b620000c557fe5b6001600160a01b038416156200011a576001600160a01b038316620000e657fe5b6001600160a01b03848116600090815260016020526040902080546001600160a01b0319169185169190911790556200012c565b6001600160a01b038316156200012c57fe5b6001600160a01b0382161562000181576001600160a01b0381166200014d57fe5b6001600160a01b03828116600090815260016020526040902080546001600160a01b03191691831691909117905562000193565b6001600160a01b038116156200019357fe5b505050505061160e80620001a86000396000f3fe6080604052600436106101435760003560e01c806351e59ffb116100c05780639964622c11610074578063c5faf1d511610059578063c5faf1d51461056f578063ccb13cbd14610584578063de9d0e851461059957610143565b80639964622c146105095780639e8c4d951461053c57610143565b80635e9a523c116100a55780635e9a523c14610475578063692374e3146104a857806380959721146104f457610143565b806351e59ffb146104195780635c975abb1461044c57610143565b806326617c28116101175780634352fa9f116100fc5780634352fa9f1461026b578063451b1e3a146103ef578063485feabe1461040457610143565b806326617c281461020c57806341976e091461023857610143565b8062e4768b1461014857806308f31857146101935780630c9c6301146101c4578063183f3444146101d9575b600080fd5b34801561015457600080fd5b506101816004803603604081101561016b57600080fd5b506001600160a01b0381351690602001356105d2565b60408051918252519081900360200190f35b34801561019f57600080fd5b506101a861060e565b604080516001600160a01b039092168252519081900360200190f35b3480156101d057600080fd5b5061018161061d565b3480156101e557600080fd5b50610181600480360360208110156101fc57600080fd5b50356001600160a01b0316610629565b34801561021857600080fd5b506101816004803603602081101561022f57600080fd5b5035151561063b565b34801561024457600080fd5b506101816004803603602081101561025b57600080fd5b50356001600160a01b03166106b3565b34801561027757600080fd5b5061039f6004803603604081101561028e57600080fd5b8101906020810181356401000000008111156102a957600080fd5b8201836020820111156102bb57600080fd5b803590602001918460208302840111640100000000831117156102dd57600080fd5b919080806020026020016040519081016040528093929190818152602001838360200280828437600092019190915250929594936020810193503591505064010000000081111561032d57600080fd5b82018360208201111561033f57600080fd5b8035906020019184602083028401116401000000008311171561036157600080fd5b9190808060200260200160405190810160405280939291908181526020018383602002808284376000920191909152509295506106be945050505050565b60408051602080825283518183015283519192839290830191858101910280838360005b838110156103db5781810151838201526020016103c3565b505050509050019250505060405180910390f35b3480156103fb57600080fd5b506101a86107fc565b34801561041057600080fd5b5061018161080b565b34801561042557600080fd5b506101a86004803603602081101561043c57600080fd5b50356001600160a01b0316610810565b34801561045857600080fd5b5061046161082b565b604080519115158252519081900360200190f35b34801561048157600080fd5b506101816004803603602081101561049857600080fd5b50356001600160a01b0316610834565b3480156104b457600080fd5b506104db600480360360208110156104cb57600080fd5b50356001600160a01b0316610986565b6040805192835260208301919091528051918290030190f35b34801561050057600080fd5b506101a861099f565b34801561051557600080fd5b506101816004803603602081101561052c57600080fd5b50356001600160a01b03166109ae565b34801561054857600080fd5b506101816004803603602081101561055f57600080fd5b50356001600160a01b0316610a46565b34801561057b57600080fd5b50610181610a58565b34801561059057600080fd5b50610181610a5e565b3480156105a557600080fd5b50610181600480360360408110156105bc57600080fd5b506001600160a01b038135169060200135610b05565b6005546000906001600160a01b031633146105fb576105f48360016008610b98565b9050610608565b6106058383610c21565b90505b92915050565b6003546001600160a01b031681565b67016345785d8a000081565b60026020526000908152604090205481565b6003546000906001600160a01b031633146106645761065d6000600180610b98565b90506106ae565b6000805483151560ff19909116811790915560408051918252517f3c70af01296aef045b2f5c9d3c30b05d4428fd257145b9c7fcd76418e65b59809181900360200190a160005b90505b919050565b60006106ab82610834565b81518151600554606092919083906001600160a01b0316331461072b576040805160018082528183019092529060208083019080388339019050509050610709600060016008610b98565b8160008151811061071657fe5b60209081029190910101529250610608915050565b8215806107385750828214155b1561076b57604080516001808252818301909252906020808301908038833901905050905061070960006002600a610b98565b82604051908082528060200260200182016040528015610795578160200160208202803883390190505b50905060005b838110156107f2576107d38782815181106107b257fe5b60200260200101518783815181106107c657fe5b6020026020010151610c21565b8282815181106107df57fe5b602090810291909101015260010161079b565b5095945050505050565b6004546001600160a01b031681565b60f081565b6001602052600090815260409020546001600160a01b031681565b60005460ff1681565b6000805460ff1615610848575060006106ae565b6001600160a01b038281166000908152600160205260409020541615610967576001600160a01b038083166000908152600160205260408082205481517f59e02dd70000000000000000000000000000000000000000000000000000000081528251939485949216926359e02dd792600480840193829003018186803b1580156108d157600080fd5b505afa1580156108e5573d6000803e3d6000fd5b505050506040513d60408110156108fb57600080fd5b5080516020909101519092509050801561095c57600061091961156d565b61092b670de0b6b3a764000085610f97565b9092509050600082601781111561093e57fe5b146109505760009450505050506106ae565b5193506106ae92505050565b6000925050506106ae565b506001600160a01b0381166000908152600260205260409020546106ae565b6007602052600090815260409020805460019091015482565b6005546001600160a01b031681565b6003546000906001600160a01b031633146109d15761065d600060016002610b98565b600480546001600160a01b0384811673ffffffffffffffffffffffffffffffffffffffff19831681179093556040805191909216808252602082019390935281517f6c773973d5bcf264b509f4194ceb99e891251f6aabb325523a863c282958b13e929181900390910190a160009392505050565b60086020526000908152604090205481565b60065481565b6004546000906001600160a01b03163314610a8857610a81600060016000610b98565b9050610b02565b600380546004805473ffffffffffffffffffffffffffffffffffffffff198084166001600160a01b03838116919091179095551690556040805192909116808352336020840152815190927fbef9248fe57ae972dd47833f68c43f0b3b2d14217612dfbc804a520a23730d4692908290030190a160009150505b90565b6003546000906001600160a01b03163314610b27576105f48360016003610b98565b6001600160a01b0383166000818152600860209081526040918290208054908690558251338152918201939093528082018390526060810185905290517ff0aa20c29c1f8e751bfe0a78bc49a520ed14f2dab274087d90d1341d8b76af5c9181900360800190a16000949350505050565b60007f96f29b65cebbd6816352fb242b6af7180b49e8a09e19e589225d35bc8444f0b73385856002811115610bc957fe5b85600b811115610bd557fe5b604080516001600160a01b0395861681529390941660208401528284019190915260608201526000608082015290519081900360a00190a1826002811115610c1957fe5b949350505050565b600080610c2c611580565b600160f04304810160808301526001600160a01b0386811660008181526008602090815260408083205460e0880152805180830182528a8152875292825293909352909120541615610c8e57610c85856002600b610b98565b92505050610608565b60e081015115610d3257600060608201526040805160208101825260e083015181529082018190528151610cc29190611049565b602083015291506000826017811115610cd757fe5b14610cf557610c858560026004856017811115610cf057fe5b6110ce565b6020808201516040805192830190526006548252610d1291611158565b15610d2d57610c8585600260068460200151600001516110ce565b610de9565b6001600160a01b038516600081815260076020818152604080842080546060880190815282518085018452969095529290915260019091015483528301919091525115610dd757610d8b8160400151826000015161115f565b8352151560a083015291506000826017811115610da457fe5b14610dbd57610c858560026005856017811115610cf057fe5b8060a0015115610d2d5760408101515160c0820152610de9565b60408051602081018252858152908201525b610df6816040015161131e565b15610e0857610c858560026007610b98565b8051610e139061131e565b15610e2557610c858560026009610b98565b6001600160a01b03851660009081526008602052604090205415610e5d576001600160a01b0385166000908152600860205260408120555b806060015181608001511115610ead576040805180820182526080830151815282515160208083019182526001600160a01b03891660009081526007909152929092209051815590516001909101555b6001600160a01b038516600090815260026020526040902054815151610ed4908790611323565b815151604080516001600160a01b0389168152602081018490528082018890526060810192909252517fdd71a1d19fcba687442a1d5c58578f1e409af71a79d10fd95a4d66efd8fa9ae79181900360800190a18160a0015115610f8b5760c0820151825151604080516001600160a01b038a16815260208101899052808201939093526060830191909152517f7221f7a2708437039cc63319145b6b873a40594b9782a3bee45b975e2f3b0f689181900360800190a15b60009695505050505050565b6000610fa161156d565b600080610fb686670de0b6b3a764000061134e565b90925090506000826017811115610fc957fe5b14610fe857506040805160208101909152600081529092509050611042565b600080610ff5838861138d565b9092509050600082601781111561100857fe5b1461102a57506040805160208101909152600081529094509250611042915050565b60408051602081019091529081526000955093505050505b9250929050565b600061105361156d565b61105b61156d565b60006110678686611158565b156110945761107686866113b8565b92509050600081601781111561108857fe5b1461108f57fe5b6110b7565b61109e85876113b8565b9250905060008160178111156110b057fe5b146110b757fe5b6110c182876113f2565b9350935050509250929050565b60007f96f29b65cebbd6816352fb242b6af7180b49e8a09e19e589225d35bc8444f0b733868660028111156110ff57fe5b86600b81111561110b57fe5b604080516001600160a01b0395861681529390941660208401528284019190915260608201526080810185905290519081900360a00190a183600281111561114f57fe5b95945050505050565b5190511190565b60008061116a61156d565b61117261156d565b506040805160208101909152670de0b6b3a7640000815261119161156d565b61119961156d565b6111a161156d565b6111a961156d565b604080516020810190915260065481526000906111c7908790611415565b9550905060008160178111156111d957fe5b1461120157604080516020810190915260008082529199509097509550611317945050505050565b61120b8b86611434565b93509050600081601781111561121d57fe5b1461124557604080516020810190915260008082529199509097509550611317945050505050565b61124f8a84611158565b1561126a576000600184985098509850505050505050611317565b604080516020810190915260065481526112859087906113b8565b94509050600081601781111561129757fe5b146112bf57604080516020810190915260008082529199509097509550611317945050505050565b6112c98b85611434565b9250905060008160178111156112db57fe5b146112e257fe5b6112ec8a8361151d565b156113065750600097506001965094506113179350505050565b6000808b9850985098505050505050505b9250925092565b511590565b60408051602080820183529281526001600160a01b0390931660009081526002909252902090519055565b6000808361136157506000905080611042565b8383028385828161136e57fe5b041461138257506003915060009050611042565b600092509050611042565b600080826113a15750600590506000611042565b60008385816113ac57fe5b04915091509250929050565b60006113c261156d565b6000806113d786600001518660000151611524565b60408051602081019091529081529097909650945050505050565b60006113fc61156d565b8351835161140a9190610f97565b915091509250929050565b600061141f61156d565b6000806113d786600001518660000151611547565b600061143e61156d565b6000806114538660000151866000015161134e565b9092509050600082601781111561146657fe5b1461148557506040805160208101909152600081529092509050611042565b60008061149a6706f05b59d3b2000084611547565b909250905060008260178111156114ad57fe5b146114cf57506040805160208101909152600081529094509250611042915050565b6000806114e483670de0b6b3a764000061138d565b909250905060008260178111156114f757fe5b146114fe57fe5b604080516020810190915290815260009a909950975050505050505050565b5190511090565b60008083831161153b575060009050818303611042565b50600490506000611042565b60008083830184811061155f57600092509050611042565b506003915060009050611042565b6040518060200160405280600081525090565b60405180610100016040528061159461156d565b81526020016115a161156d565b81526020016115ae61156d565b815260200160008152602001600081526020016000151581526020016000815260200160008152509056fea265627a7a72315820c9f2fbe14afbb81284e36235e810fc04295ec593ae183e6550ab78b0599a1ff964736f6c634300050c0032",
  "source": "import './_Exponential.sol';\nimport './_DSValue.sol';\n\npragma solidity ^0.5.8;\n\ncontract _PriceOracle is _Exponential {\n\n    /**\n      * @dev flag for whether or not contract is paused\n      *\n      */\n    bool public paused;\n\n    uint public constant numBlocksPerPeriod = 240; // approximately 1 hour: 60 seconds/minute * 60 minutes/hour * 1 block/15 seconds\n\n    uint public constant maxSwingMantissa = (10 ** 17); // 0.1\n\n    /**\n      * @dev Mapping of asset addresses to DSValue price oracle contracts. The price contracts\n      *      should be DSValue contracts whose value is the `eth:asset` price scaled by 1e18.\n      *      That is, 1 eth is worth how much of the asset (e.g. 1 eth = 100 USD). We want\n      *      to know the inverse, which is how much eth is one asset worth. This `asset:eth`\n      *      is the multiplicative inverse (in that example, 1/100). The math is a bit trickier\n      *      since we need to descale the number by 1e18, inverse, and then rescale the number.\n      *      We perform this operation to return the `asset:eth` price for these reader assets.\n      *\n      * map: assetAddress -> DSValue price oracle\n      */\n    mapping(address => _DSValue) public readers;\n\n    /**\n      * @dev Mapping of asset addresses and their corresponding price in terms of Eth-Wei\n      *      which is simply equal to AssetWeiPrice * 10e18. For instance, if OMG token was\n      *      worth 5x Eth then the price for OMG would be 5*10e18 or Exp({mantissa: 5000000000000000000}).\n      * map: assetAddress -> Exp\n      */\n    mapping(address => Exp) public _assetPrices;\n\n    constructor(address _poster, address addr0, address reader0, address addr1, address reader1) public {\n        anchorAdmin = msg.sender;\n        poster = _poster;\n        maxSwing = Exp({mantissa : maxSwingMantissa});\n\n        // Make sure the assets are zero or different\n        assert(addr0 == address(0) || (addr0 != addr1));\n\n        if (addr0 != address(0)) {\n            assert(reader0 != address(0));\n            readers[addr0] = _DSValue(reader0);\n        } else {\n            assert(reader0 == address(0));\n        }\n\n        if (addr1 != address(0)) {\n            assert(reader1 != address(0));\n            readers[addr1] = _DSValue(reader1);\n        } else {\n            assert(reader1 == address(0));\n        }\n    }\n\n    /**\n      * @notice Do not pay into PriceOracle\n      */\n    function() payable external {\n        revert();\n    }\n\n    enum OracleError {\n        NO_ERROR,\n        UNAUTHORIZED,\n        FAILED_TO_SET_PRICE\n    }\n\n    enum OracleFailureInfo {\n        ACCEPT_ANCHOR_ADMIN_PENDING_ANCHOR_ADMIN_CHECK,\n        SET_PAUSED_OWNER_CHECK,\n        SET_PENDING_ANCHOR_ADMIN_OWNER_CHECK,\n        SET_PENDING_ANCHOR_PERMISSION_CHECK,\n        SET_PRICE_CALCULATE_SWING,\n        SET_PRICE_CAP_TO_MAX,\n        SET_PRICE_MAX_SWING_CHECK,\n        SET_PRICE_NO_ANCHOR_PRICE_OR_INITIAL_PRICE_ZERO,\n        SET_PRICE_PERMISSION_CHECK,\n        SET_PRICE_ZERO_PRICE,\n        SET_PRICES_PARAM_VALIDATION,\n        SET_PRICE_IS_READER_ASSET\n    }\n\n    /**\n      * @dev `msgSender` is msg.sender; `error` corresponds to enum OracleError; `info` corresponds to enum OracleFailureInfo, and `detail` is an arbitrary\n      * contract-specific code that enables us to report opaque error codes from upgradeable contracts.\n      **/\n    event OracleFailure(address msgSender, address asset, uint error, uint info, uint detail);\n\n    /**\n      * @dev use this when reporting a known error from the price oracle or a non-upgradeable collaborator\n      *      Using Oracle in name because we already inherit a `fail` function from ErrorReporter.sol via Exponential.sol\n      */\n    function failOracle(address asset, OracleError err, OracleFailureInfo info) internal returns (uint) {\n        emit OracleFailure(msg.sender, asset, uint(err), uint(info), 0);\n\n        return uint(err);\n    }\n\n    /**\n      * @dev Use this when reporting an error from the money market. Give the money market result as `details`\n      */\n    function failOracleWithDetails(address asset, OracleError err, OracleFailureInfo info, uint details) internal returns (uint) {\n        emit OracleFailure(msg.sender, asset, uint(err), uint(info), details);\n\n        return uint(err);\n    }\n\n    /**\n      * @dev An administrator who can set the pending anchor value for assets.\n      *      Set in the constructor.\n      */\n    address public anchorAdmin;\n\n    /**\n      * @dev pending anchor administrator for this contract.\n      */\n    address public pendingAnchorAdmin;\n\n    /**\n      * @dev Address of the price poster.\n      *      Set in the constructor.\n      */\n    address public poster;\n\n    /**\n      * @dev maxSwing the maximum allowed percentage difference between a new price and the anchor's price\n      *      Set only in the constructor\n      */\n    Exp public maxSwing;\n\n    struct Anchor {\n        // floor(block.number / numBlocksPerPeriod) + 1\n        uint period;\n\n        // Price in ETH, scaled by 10**18\n        uint priceMantissa;\n    }\n\n    /**\n      * @dev anchors by asset\n      */\n    mapping(address => Anchor) public anchors;\n\n    /**\n      * @dev pending anchor prices by asset\n      */\n    mapping(address => uint) public pendingAnchors;\n\n    /**\n      * @dev emitted when a pending anchor is set\n      * @param asset Asset for which to set a pending anchor\n      * @param oldScaledPrice if an unused pending anchor was present, its value; otherwise 0.\n      * @param newScaledPrice the new scaled pending anchor price\n      */\n    event NewPendingAnchor(address anchorAdmin, address asset, uint oldScaledPrice, uint newScaledPrice);\n\n    /**\n      * @notice provides ability to override the anchor price for an asset\n      * @dev Admin function to set the anchor price for an asset\n      * @param asset Asset for which to override the anchor price\n      * @param newScaledPrice New anchor price\n      * @return uint 0=success, otherwise a failure (see enum OracleError for details)\n      */\n    function _setPendingAnchor(address asset, uint newScaledPrice) public returns (uint) {\n        // Check caller = anchorAdmin. Note: Deliberately not allowing admin. They can just change anchorAdmin if desired.\n        if (msg.sender != anchorAdmin) {\n            return failOracle(asset, OracleError.UNAUTHORIZED, OracleFailureInfo.SET_PENDING_ANCHOR_PERMISSION_CHECK);\n        }\n\n        uint oldScaledPrice = pendingAnchors[asset];\n        pendingAnchors[asset] = newScaledPrice;\n\n        emit NewPendingAnchor(msg.sender, asset, oldScaledPrice, newScaledPrice);\n\n        return uint(OracleError.NO_ERROR);\n    }\n\n    /**\n      * @dev emitted for all price changes\n      */\n    event PricePosted(address asset, uint previousPriceMantissa, uint requestedPriceMantissa, uint newPriceMantissa);\n\n    /**\n      * @dev emitted if this contract successfully posts a capped-to-max price to the money market\n      */\n    event CappedPricePosted(address asset, uint requestedPriceMantissa, uint anchorPriceMantissa, uint cappedPriceMantissa);\n\n    /**\n      * @dev emitted when admin either pauses or resumes the contract; newState is the resulting state\n      */\n    event SetPaused(bool newState);\n\n    /**\n      * @dev emitted when pendingAnchorAdmin is changed\n      */\n    event NewPendingAnchorAdmin(address oldPendingAnchorAdmin, address newPendingAnchorAdmin);\n\n    /**\n      * @dev emitted when pendingAnchorAdmin is accepted, which means anchor admin is updated\n      */\n    event NewAnchorAdmin(address oldAnchorAdmin, address newAnchorAdmin);\n\n    /**\n      * @notice set `paused` to the specified state\n      * @dev Admin function to pause or resume the market\n      * @param requestedState value to assign to `paused`\n      * @return uint 0=success, otherwise a failure\n      */\n    function _setPaused(bool requestedState) public returns (uint) {\n        // Check caller = anchorAdmin\n        if (msg.sender != anchorAdmin) {\n            return failOracle(address(0), OracleError.UNAUTHORIZED, OracleFailureInfo.SET_PAUSED_OWNER_CHECK);\n        }\n\n        paused = requestedState;\n        emit SetPaused(requestedState);\n\n        return uint(Error.NO_ERROR);\n    }\n\n    /**\n      * @notice Begins transfer of anchor admin rights. The newPendingAnchorAdmin must call `_acceptAnchorAdmin` to finalize the transfer.\n      * @dev Admin function to begin change of anchor admin. The newPendingAnchorAdmin must call `_acceptAnchorAdmin` to finalize the transfer.\n      * @param newPendingAnchorAdmin New pending anchor admin.\n      * @return uint 0=success, otherwise a failure\n      *\n      * TODO: Should we add a second arg to verify, like a checksum of `newAnchorAdmin` address?\n      */\n    function _setPendingAnchorAdmin(address newPendingAnchorAdmin) public returns (uint) {\n        // Check caller = anchorAdmin\n        if (msg.sender != anchorAdmin) {\n            return failOracle(address(0), OracleError.UNAUTHORIZED, OracleFailureInfo.SET_PENDING_ANCHOR_ADMIN_OWNER_CHECK);\n        }\n\n        // save current value, if any, for inclusion in log\n        address oldPendingAnchorAdmin = pendingAnchorAdmin;\n        // Store pendingAdmin = newPendingAdmin\n        pendingAnchorAdmin = newPendingAnchorAdmin;\n\n        emit NewPendingAnchorAdmin(oldPendingAnchorAdmin, newPendingAnchorAdmin);\n\n        return uint(Error.NO_ERROR);\n    }\n\n    /**\n      * @notice Accepts transfer of anchor admin rights. msg.sender must be pendingAnchorAdmin\n      * @dev Admin function for pending anchor admin to accept role and update anchor admin\n      * @return uint 0=success, otherwise a failure\n      */\n    function _acceptAnchorAdmin() public returns (uint) {\n        // Check caller = pendingAnchorAdmin\n        // msg.sender can't be zero\n        if (msg.sender != pendingAnchorAdmin) {\n            return failOracle(address(0), OracleError.UNAUTHORIZED, OracleFailureInfo.ACCEPT_ANCHOR_ADMIN_PENDING_ANCHOR_ADMIN_CHECK);\n        }\n\n        // Save current value for inclusion in log\n        address oldAnchorAdmin = anchorAdmin;\n        // Store admin = pendingAnchorAdmin\n        anchorAdmin = pendingAnchorAdmin;\n        // Clear the pending value\n        pendingAnchorAdmin = address(0);\n\n        emit NewAnchorAdmin(oldAnchorAdmin, msg.sender);\n\n        return uint(Error.NO_ERROR);\n    }\n\n    /**\n      * @notice retrieves price of an asset\n      * @dev function to get price for an asset\n      * @param asset Asset for which to get the price\n      * @return uint mantissa of asset price (scaled by 1e18) or zero if unset or contract paused\n      */\n    function assetPrices(address asset) public view returns (uint) {\n        // Note: zero is treated by the money market as an invalid\n        //       price and will cease operations with that asset\n        //       when zero.\n        //\n        // We get the price as:\n        //\n        //  1. If the contract is paused, return 0.\n        //  2. If the asset is a reader asset:\n        //    a. If the reader has a value set, invert it and return.\n        //    b. Else, return 0.\n        //  3. Return price in `_assetPrices`, which may be zero.\n\n        if (paused) {\n            return 0;\n        } else {\n            if (address(readers[asset]) != address(0)) {\n                (bytes32 readValue, bool foundValue) = readers[asset].peek();\n\n                if (foundValue) {\n                    (Error error, Exp memory invertedVal) = getExp(mantissaOne, uint256(readValue));\n\n                    if (error != Error.NO_ERROR) {\n                        return 0;\n                    }\n\n                    return invertedVal.mantissa;\n                } else {\n                    return 0;\n                }\n            } else {\n                return _assetPrices[asset].mantissa;\n            }\n        }\n    }\n\n    /**\n      * @notice retrieves price of an asset\n      * @dev function to get price for an asset\n      * @param asset Asset for which to get the price\n      * @return uint mantissa of asset price (scaled by 1e18) or zero if unset or contract paused\n      */\n    function getPrice(address asset) public view returns (uint) {\n        return assetPrices(asset);\n    }\n\n    struct SetPriceLocalVars {\n        Exp price;\n        Exp swing;\n        Exp anchorPrice;\n        uint anchorPeriod;\n        uint currentPeriod;\n        bool priceCapped;\n        uint cappingAnchorPriceMantissa;\n        uint pendingAnchorMantissa;\n    }\n\n    /**\n      * @notice entry point for updating prices\n      * @dev function to set price for an asset\n      * @param asset Asset for which to set the price\n      * @param requestedPriceMantissa requested new price, scaled by 10**18\n      * @return uint 0=success, otherwise a failure (see enum OracleError for details)\n      */\n    function setPrice(address asset, uint requestedPriceMantissa) public returns (uint) {\n        // Fail when msg.sender is not poster\n        if (msg.sender != poster) {\n            return failOracle(asset, OracleError.UNAUTHORIZED, OracleFailureInfo.SET_PRICE_PERMISSION_CHECK);\n        }\n\n        return setPriceInternal(asset, requestedPriceMantissa);\n    }\n\n    function setPriceInternal(address asset, uint requestedPriceMantissa) internal returns (uint) {\n        // re-used for intermediate errors\n        Error err;\n        SetPriceLocalVars memory localVars;\n        // We add 1 for currentPeriod so that it can never be zero and there's no ambiguity about an unset value.\n        // (It can be a problem in tests with low block numbers.)\n        localVars.currentPeriod = (block.number / numBlocksPerPeriod) + 1;\n        localVars.pendingAnchorMantissa = pendingAnchors[asset];\n        localVars.price = Exp({mantissa : requestedPriceMantissa});\n\n        if (address(readers[asset]) != address(0)) {\n            return failOracle(asset, OracleError.FAILED_TO_SET_PRICE, OracleFailureInfo.SET_PRICE_IS_READER_ASSET);\n        }\n\n        if (localVars.pendingAnchorMantissa != 0) {\n            // let's explicitly set to 0 rather than relying on default of declaration\n            localVars.anchorPeriod = 0;\n            localVars.anchorPrice = Exp({mantissa : localVars.pendingAnchorMantissa});\n\n            // Verify movement is within max swing of pending anchor (currently: 10%)\n            (err, localVars.swing) = calculateSwing(localVars.anchorPrice, localVars.price);\n            if (err != Error.NO_ERROR) {\n                return failOracleWithDetails(asset, OracleError.FAILED_TO_SET_PRICE, OracleFailureInfo.SET_PRICE_CALCULATE_SWING, uint(err));\n            }\n\n            // Fail when swing > maxSwing\n            if (greaterThanExp(localVars.swing, maxSwing)) {\n                return failOracleWithDetails(asset, OracleError.FAILED_TO_SET_PRICE, OracleFailureInfo.SET_PRICE_MAX_SWING_CHECK, localVars.swing.mantissa);\n            }\n        } else {\n            localVars.anchorPeriod = anchors[asset].period;\n            localVars.anchorPrice = Exp({mantissa : anchors[asset].priceMantissa});\n\n            if (localVars.anchorPeriod != 0) {\n                (err, localVars.priceCapped, localVars.price) = capToMax(localVars.anchorPrice, localVars.price);\n                if (err != Error.NO_ERROR) {\n                    return failOracleWithDetails(asset, OracleError.FAILED_TO_SET_PRICE, OracleFailureInfo.SET_PRICE_CAP_TO_MAX, uint(err));\n                }\n                if (localVars.priceCapped) {\n                    // save for use in log\n                    localVars.cappingAnchorPriceMantissa = localVars.anchorPrice.mantissa;\n                }\n            } else {\n                // Setting first price. Accept as is (already assigned above from requestedPriceMantissa) and use as anchor\n                localVars.anchorPrice = Exp({mantissa : requestedPriceMantissa});\n            }\n        }\n\n        // Fail if anchorPrice or price is zero.\n        // zero anchor represents an unexpected situation likely due to a problem in this contract\n        // zero price is more likely as the result of bad input from the caller of this function\n        if (isZeroExp(localVars.anchorPrice)) {\n            // If we get here price could also be zero, but it does not seem worthwhile to distinguish the 3rd case\n            return failOracle(asset, OracleError.FAILED_TO_SET_PRICE, OracleFailureInfo.SET_PRICE_NO_ANCHOR_PRICE_OR_INITIAL_PRICE_ZERO);\n        }\n\n        if (isZeroExp(localVars.price)) {\n            return failOracle(asset, OracleError.FAILED_TO_SET_PRICE, OracleFailureInfo.SET_PRICE_ZERO_PRICE);\n        }\n\n        // BEGIN SIDE EFFECTS\n\n        // Set pendingAnchor = Nothing\n        // Pending anchor is only used once.\n        if (pendingAnchors[asset] != 0) {\n            pendingAnchors[asset] = 0;\n        }\n\n        // If currentPeriod > anchorPeriod:\n        //  Set anchors[asset] = (currentPeriod, price)\n        //  The new anchor is if we're in a new period or we had a pending anchor, then we become the new anchor\n        if (localVars.currentPeriod > localVars.anchorPeriod) {\n            anchors[asset] = Anchor({period : localVars.currentPeriod, priceMantissa : localVars.price.mantissa});\n        }\n\n        uint previousPrice = _assetPrices[asset].mantissa;\n\n        setPriceStorageInternal(asset, localVars.price.mantissa);\n\n        emit PricePosted(asset, previousPrice, requestedPriceMantissa, localVars.price.mantissa);\n\n        if (localVars.priceCapped) {\n            // We have set a capped price. Log it so we can detect the situation and investigate.\n            emit CappedPricePosted(asset, requestedPriceMantissa, localVars.cappingAnchorPriceMantissa, localVars.price.mantissa);\n        }\n\n        return uint(OracleError.NO_ERROR);\n    }\n\n    // As a function to allow harness overrides\n    function setPriceStorageInternal(address asset, uint256 priceMantissa) internal {\n        _assetPrices[asset] = Exp({mantissa: priceMantissa});\n    }\n\n    // abs(price - anchorPrice) / anchorPrice\n    function calculateSwing(Exp memory anchorPrice, Exp memory price) pure internal returns (Error, Exp memory) {\n        Exp memory numerator;\n        Error err;\n\n        if (greaterThanExp(anchorPrice, price)) {\n            (err, numerator) = subExp(anchorPrice, price);\n            // can't underflow\n            assert(err == Error.NO_ERROR);\n        } else {\n            (err, numerator) = subExp(price, anchorPrice);\n            // Given greaterThan check above, price >= anchorPrice so can't underflow.\n            assert(err == Error.NO_ERROR);\n        }\n\n        return divExp(numerator, anchorPrice);\n    }\n\n    function capToMax(Exp memory anchorPrice, Exp memory price) view internal returns (Error, bool, Exp memory) {\n        Exp memory one = Exp({mantissa : mantissaOne});\n        Exp memory onePlusMaxSwing;\n        Exp memory oneMinusMaxSwing;\n        Exp memory max;\n        Exp memory min;\n        // re-used for intermediate errors\n        Error err;\n\n        (err, onePlusMaxSwing) = addExp(one, maxSwing);\n        if (err != Error.NO_ERROR) {\n            return (err, false, Exp({mantissa : 0}));\n        }\n\n        // max = anchorPrice * (1 + maxSwing)\n        (err, max) = mulExp(anchorPrice, onePlusMaxSwing);\n        if (err != Error.NO_ERROR) {\n            return (err, false, Exp({mantissa : 0}));\n        }\n\n        // If price > anchorPrice * (1 + maxSwing)\n        // Set price = anchorPrice * (1 + maxSwing)\n        if (greaterThanExp(price, max)) {\n            return (Error.NO_ERROR, true, max);\n        }\n\n        (err, oneMinusMaxSwing) = subExp(one, maxSwing);\n        if (err != Error.NO_ERROR) {\n            return (err, false, Exp({mantissa : 0}));\n        }\n\n        // min = anchorPrice * (1 - maxSwing)\n        (err, min) = mulExp(anchorPrice, oneMinusMaxSwing);\n        // We can't overflow here or we would have already overflowed above when calculating `max`\n        assert(err == Error.NO_ERROR);\n\n        // If  price < anchorPrice * (1 - maxSwing)\n        // Set price = anchorPrice * (1 - maxSwing)\n        if (lessThanExp(price, min)) {\n            return (Error.NO_ERROR, true, min);\n        }\n\n        return (Error.NO_ERROR, false, price);\n    }\n\n    /**\n      * @notice entry point for updating multiple prices\n      * @dev function to set prices for a variable number of assets.\n      * @param assets a list of up to assets for which to set a price. required: 0 < assets.length == requestedPriceMantissas.length\n      * @param requestedPriceMantissas requested new prices for the assets, scaled by 10**18. required: 0 < assets.length == requestedPriceMantissas.length\n      * @return uint values in same order as inputs. For each: 0=success, otherwise a failure (see enum OracleError for details)\n      */\n    function setPrices(address[] memory assets, uint[] memory requestedPriceMantissas) public returns (uint[] memory) {\n        uint numAssets = assets.length;\n        uint numPrices = requestedPriceMantissas.length;\n        uint[] memory result;\n\n        // Fail when msg.sender is not poster\n        if (msg.sender != poster) {\n            result = new uint[](1);\n            result[0] = failOracle(address(0), OracleError.UNAUTHORIZED, OracleFailureInfo.SET_PRICE_PERMISSION_CHECK);\n            return result;\n        }\n\n        if ((numAssets == 0) || (numPrices != numAssets)) {\n            result = new uint[](1);\n            result[0] = failOracle(address(0), OracleError.FAILED_TO_SET_PRICE, OracleFailureInfo.SET_PRICES_PARAM_VALIDATION);\n            return result;\n        }\n\n        result = new uint[](numAssets);\n\n        for (uint i = 0; i < numAssets; i++) {\n            result[i] = setPriceInternal(assets[i], requestedPriceMantissas[i]);\n        }\n\n        return result;\n    }\n}\n",
  "sourcePath": "/Users/shain/repositories/insta-wealth/contracts/Compound/Oracles/_PriceOracle.sol",
  "compiler": {
    "name": "solc",
    "version": "0.5.12+commit.7709ece9.Emscripten.clang"
  },
  "schemaVersion": "3.0.16",
  "updatedAt": "2019-10-22T23:22:54.502Z",
  "devdoc": {
    "methods": {
      "_acceptAnchorAdmin()": {
        "details": "Admin function for pending anchor admin to accept role and update anchor admin",
        "return": "uint 0=success, otherwise a failure"
      },
      "_setPaused(bool)": {
        "details": "Admin function to pause or resume the market",
        "params": {
          "requestedState": "value to assign to `paused`"
        },
        "return": "uint 0=success, otherwise a failure"
      },
      "_setPendingAnchor(address,uint256)": {
        "details": "Admin function to set the anchor price for an asset",
        "params": {
          "asset": "Asset for which to override the anchor price",
          "newScaledPrice": "New anchor price"
        },
        "return": "uint 0=success, otherwise a failure (see enum OracleError for details)"
      },
      "_setPendingAnchorAdmin(address)": {
        "details": "Admin function to begin change of anchor admin. The newPendingAnchorAdmin must call `_acceptAnchorAdmin` to finalize the transfer.",
        "params": {
          "newPendingAnchorAdmin": "New pending anchor admin."
        },
        "return": "uint 0=success, otherwise a failure      * TODO: Should we add a second arg to verify, like a checksum of `newAnchorAdmin` address?"
      },
      "assetPrices(address)": {
        "details": "function to get price for an asset",
        "params": {
          "asset": "Asset for which to get the price"
        },
        "return": "uint mantissa of asset price (scaled by 1e18) or zero if unset or contract paused"
      },
      "getPrice(address)": {
        "details": "function to get price for an asset",
        "params": {
          "asset": "Asset for which to get the price"
        },
        "return": "uint mantissa of asset price (scaled by 1e18) or zero if unset or contract paused"
      },
      "setPrice(address,uint256)": {
        "details": "function to set price for an asset",
        "params": {
          "asset": "Asset for which to set the price",
          "requestedPriceMantissa": "requested new price, scaled by 10**18"
        },
        "return": "uint 0=success, otherwise a failure (see enum OracleError for details)"
      },
      "setPrices(address[],uint256[])": {
        "details": "function to set prices for a variable number of assets.",
        "params": {
          "assets": "a list of up to assets for which to set a price. required: 0 < assets.length == requestedPriceMantissas.length",
          "requestedPriceMantissas": "requested new prices for the assets, scaled by 10**18. required: 0 < assets.length == requestedPriceMantissas.length"
        },
        "return": "uint values in same order as inputs. For each: 0=success, otherwise a failure (see enum OracleError for details)"
      }
    }
  },
  "userdoc": {
    "methods": {
      "_acceptAnchorAdmin()": {
        "notice": "Accepts transfer of anchor admin rights. msg.sender must be pendingAnchorAdmin"
      },
      "_setPaused(bool)": {
        "notice": "set `paused` to the specified state"
      },
      "_setPendingAnchor(address,uint256)": {
        "notice": "provides ability to override the anchor price for an asset"
      },
      "_setPendingAnchorAdmin(address)": {
        "notice": "Begins transfer of anchor admin rights. The newPendingAnchorAdmin must call `_acceptAnchorAdmin` to finalize the transfer."
      },
      "assetPrices(address)": {
        "notice": "retrieves price of an asset"
      },
      "getPrice(address)": {
        "notice": "retrieves price of an asset"
      },
      "setPrice(address,uint256)": {
        "notice": "entry point for updating prices"
      },
      "setPrices(address[],uint256[])": {
        "notice": "entry point for updating multiple prices"
      }
    }
  }
}