{
  "contractName": "CErc20",
  "abi": [
    {
      "inputs": [
        {
          "internalType": "address",
          "name": "underlying_",
          "type": "address"
        },
        {
          "internalType": "contract ComptrollerInterface",
          "name": "comptroller_",
          "type": "address"
        },
        {
          "internalType": "contract InterestRateModel",
          "name": "interestRateModel_",
          "type": "address"
        },
        {
          "internalType": "uint256",
          "name": "initialExchangeRateMantissa_",
          "type": "uint256"
        },
        {
          "internalType": "string",
          "name": "name_",
          "type": "string"
        },
        {
          "internalType": "string",
          "name": "symbol_",
          "type": "string"
        },
        {
          "internalType": "uint256",
          "name": "decimals_",
          "type": "uint256"
        }
      ],
      "payable": false,
      "stateMutability": "nonpayable",
      "type": "constructor"
    },
    {
      "anonymous": false,
      "inputs": [
        {
          "indexed": false,
          "internalType": "uint256",
          "name": "interestAccumulated",
          "type": "uint256"
        },
        {
          "indexed": false,
          "internalType": "uint256",
          "name": "borrowIndex",
          "type": "uint256"
        },
        {
          "indexed": false,
          "internalType": "uint256",
          "name": "totalBorrows",
          "type": "uint256"
        }
      ],
      "name": "AccrueInterest",
      "type": "event"
    },
    {
      "anonymous": false,
      "inputs": [
        {
          "indexed": true,
          "internalType": "address",
          "name": "owner",
          "type": "address"
        },
        {
          "indexed": true,
          "internalType": "address",
          "name": "spender",
          "type": "address"
        },
        {
          "indexed": false,
          "internalType": "uint256",
          "name": "amount",
          "type": "uint256"
        }
      ],
      "name": "Approval",
      "type": "event"
    },
    {
      "anonymous": false,
      "inputs": [
        {
          "indexed": false,
          "internalType": "address",
          "name": "borrower",
          "type": "address"
        },
        {
          "indexed": false,
          "internalType": "uint256",
          "name": "borrowAmount",
          "type": "uint256"
        },
        {
          "indexed": false,
          "internalType": "uint256",
          "name": "accountBorrows",
          "type": "uint256"
        },
        {
          "indexed": false,
          "internalType": "uint256",
          "name": "totalBorrows",
          "type": "uint256"
        }
      ],
      "name": "Borrow",
      "type": "event"
    },
    {
      "anonymous": false,
      "inputs": [
        {
          "indexed": false,
          "internalType": "uint256",
          "name": "error",
          "type": "uint256"
        },
        {
          "indexed": false,
          "internalType": "uint256",
          "name": "info",
          "type": "uint256"
        },
        {
          "indexed": false,
          "internalType": "uint256",
          "name": "detail",
          "type": "uint256"
        }
      ],
      "name": "Failure",
      "type": "event"
    },
    {
      "anonymous": false,
      "inputs": [
        {
          "indexed": false,
          "internalType": "address",
          "name": "liquidator",
          "type": "address"
        },
        {
          "indexed": false,
          "internalType": "address",
          "name": "borrower",
          "type": "address"
        },
        {
          "indexed": false,
          "internalType": "uint256",
          "name": "repayAmount",
          "type": "uint256"
        },
        {
          "indexed": false,
          "internalType": "address",
          "name": "cTokenCollateral",
          "type": "address"
        },
        {
          "indexed": false,
          "internalType": "uint256",
          "name": "seizeTokens",
          "type": "uint256"
        }
      ],
      "name": "LiquidateBorrow",
      "type": "event"
    },
    {
      "anonymous": false,
      "inputs": [
        {
          "indexed": false,
          "internalType": "address",
          "name": "minter",
          "type": "address"
        },
        {
          "indexed": false,
          "internalType": "uint256",
          "name": "mintAmount",
          "type": "uint256"
        },
        {
          "indexed": false,
          "internalType": "uint256",
          "name": "mintTokens",
          "type": "uint256"
        }
      ],
      "name": "Mint",
      "type": "event"
    },
    {
      "anonymous": false,
      "inputs": [
        {
          "indexed": false,
          "internalType": "address",
          "name": "oldAdmin",
          "type": "address"
        },
        {
          "indexed": false,
          "internalType": "address",
          "name": "newAdmin",
          "type": "address"
        }
      ],
      "name": "NewAdmin",
      "type": "event"
    },
    {
      "anonymous": false,
      "inputs": [
        {
          "indexed": false,
          "internalType": "contract ComptrollerInterface",
          "name": "oldComptroller",
          "type": "address"
        },
        {
          "indexed": false,
          "internalType": "contract ComptrollerInterface",
          "name": "newComptroller",
          "type": "address"
        }
      ],
      "name": "NewComptroller",
      "type": "event"
    },
    {
      "anonymous": false,
      "inputs": [
        {
          "indexed": false,
          "internalType": "contract InterestRateModel",
          "name": "oldInterestRateModel",
          "type": "address"
        },
        {
          "indexed": false,
          "internalType": "contract InterestRateModel",
          "name": "newInterestRateModel",
          "type": "address"
        }
      ],
      "name": "NewMarketInterestRateModel",
      "type": "event"
    },
    {
      "anonymous": false,
      "inputs": [
        {
          "indexed": false,
          "internalType": "address",
          "name": "oldPendingAdmin",
          "type": "address"
        },
        {
          "indexed": false,
          "internalType": "address",
          "name": "newPendingAdmin",
          "type": "address"
        }
      ],
      "name": "NewPendingAdmin",
      "type": "event"
    },
    {
      "anonymous": false,
      "inputs": [
        {
          "indexed": false,
          "internalType": "uint256",
          "name": "oldReserveFactorMantissa",
          "type": "uint256"
        },
        {
          "indexed": false,
          "internalType": "uint256",
          "name": "newReserveFactorMantissa",
          "type": "uint256"
        }
      ],
      "name": "NewReserveFactor",
      "type": "event"
    },
    {
      "anonymous": false,
      "inputs": [
        {
          "indexed": false,
          "internalType": "address",
          "name": "redeemer",
          "type": "address"
        },
        {
          "indexed": false,
          "internalType": "uint256",
          "name": "redeemAmount",
          "type": "uint256"
        },
        {
          "indexed": false,
          "internalType": "uint256",
          "name": "redeemTokens",
          "type": "uint256"
        }
      ],
      "name": "Redeem",
      "type": "event"
    },
    {
      "anonymous": false,
      "inputs": [
        {
          "indexed": false,
          "internalType": "address",
          "name": "payer",
          "type": "address"
        },
        {
          "indexed": false,
          "internalType": "address",
          "name": "borrower",
          "type": "address"
        },
        {
          "indexed": false,
          "internalType": "uint256",
          "name": "repayAmount",
          "type": "uint256"
        },
        {
          "indexed": false,
          "internalType": "uint256",
          "name": "accountBorrows",
          "type": "uint256"
        },
        {
          "indexed": false,
          "internalType": "uint256",
          "name": "totalBorrows",
          "type": "uint256"
        }
      ],
      "name": "RepayBorrow",
      "type": "event"
    },
    {
      "anonymous": false,
      "inputs": [
        {
          "indexed": false,
          "internalType": "address",
          "name": "admin",
          "type": "address"
        },
        {
          "indexed": false,
          "internalType": "uint256",
          "name": "reduceAmount",
          "type": "uint256"
        },
        {
          "indexed": false,
          "internalType": "uint256",
          "name": "newTotalReserves",
          "type": "uint256"
        }
      ],
      "name": "ReservesReduced",
      "type": "event"
    },
    {
      "anonymous": false,
      "inputs": [
        {
          "indexed": true,
          "internalType": "address",
          "name": "from",
          "type": "address"
        },
        {
          "indexed": true,
          "internalType": "address",
          "name": "to",
          "type": "address"
        },
        {
          "indexed": false,
          "internalType": "uint256",
          "name": "amount",
          "type": "uint256"
        }
      ],
      "name": "Transfer",
      "type": "event"
    },
    {
      "constant": false,
      "inputs": [],
      "name": "_acceptAdmin",
      "outputs": [
        {
          "internalType": "uint256",
          "name": "",
          "type": "uint256"
        }
      ],
      "payable": false,
      "stateMutability": "nonpayable",
      "type": "function"
    },
    {
      "constant": false,
      "inputs": [
        {
          "internalType": "uint256",
          "name": "reduceAmount",
          "type": "uint256"
        }
      ],
      "name": "_reduceReserves",
      "outputs": [
        {
          "internalType": "uint256",
          "name": "",
          "type": "uint256"
        }
      ],
      "payable": false,
      "stateMutability": "nonpayable",
      "type": "function"
    },
    {
      "constant": false,
      "inputs": [
        {
          "internalType": "contract ComptrollerInterface",
          "name": "newComptroller",
          "type": "address"
        }
      ],
      "name": "_setComptroller",
      "outputs": [
        {
          "internalType": "uint256",
          "name": "",
          "type": "uint256"
        }
      ],
      "payable": false,
      "stateMutability": "nonpayable",
      "type": "function"
    },
    {
      "constant": false,
      "inputs": [
        {
          "internalType": "contract InterestRateModel",
          "name": "newInterestRateModel",
          "type": "address"
        }
      ],
      "name": "_setInterestRateModel",
      "outputs": [
        {
          "internalType": "uint256",
          "name": "",
          "type": "uint256"
        }
      ],
      "payable": false,
      "stateMutability": "nonpayable",
      "type": "function"
    },
    {
      "constant": false,
      "inputs": [
        {
          "internalType": "address payable",
          "name": "newPendingAdmin",
          "type": "address"
        }
      ],
      "name": "_setPendingAdmin",
      "outputs": [
        {
          "internalType": "uint256",
          "name": "",
          "type": "uint256"
        }
      ],
      "payable": false,
      "stateMutability": "nonpayable",
      "type": "function"
    },
    {
      "constant": false,
      "inputs": [
        {
          "internalType": "uint256",
          "name": "newReserveFactorMantissa",
          "type": "uint256"
        }
      ],
      "name": "_setReserveFactor",
      "outputs": [
        {
          "internalType": "uint256",
          "name": "",
          "type": "uint256"
        }
      ],
      "payable": false,
      "stateMutability": "nonpayable",
      "type": "function"
    },
    {
      "constant": true,
      "inputs": [],
      "name": "accrualBlockNumber",
      "outputs": [
        {
          "internalType": "uint256",
          "name": "",
          "type": "uint256"
        }
      ],
      "payable": false,
      "stateMutability": "view",
      "type": "function"
    },
    {
      "constant": false,
      "inputs": [],
      "name": "accrueInterest",
      "outputs": [
        {
          "internalType": "uint256",
          "name": "",
          "type": "uint256"
        }
      ],
      "payable": false,
      "stateMutability": "nonpayable",
      "type": "function"
    },
    {
      "constant": true,
      "inputs": [],
      "name": "admin",
      "outputs": [
        {
          "internalType": "address payable",
          "name": "",
          "type": "address"
        }
      ],
      "payable": false,
      "stateMutability": "view",
      "type": "function"
    },
    {
      "constant": true,
      "inputs": [
        {
          "internalType": "address",
          "name": "owner",
          "type": "address"
        },
        {
          "internalType": "address",
          "name": "spender",
          "type": "address"
        }
      ],
      "name": "allowance",
      "outputs": [
        {
          "internalType": "uint256",
          "name": "",
          "type": "uint256"
        }
      ],
      "payable": false,
      "stateMutability": "view",
      "type": "function"
    },
    {
      "constant": false,
      "inputs": [
        {
          "internalType": "address",
          "name": "spender",
          "type": "address"
        },
        {
          "internalType": "uint256",
          "name": "amount",
          "type": "uint256"
        }
      ],
      "name": "approve",
      "outputs": [
        {
          "internalType": "bool",
          "name": "",
          "type": "bool"
        }
      ],
      "payable": false,
      "stateMutability": "nonpayable",
      "type": "function"
    },
    {
      "constant": true,
      "inputs": [
        {
          "internalType": "address",
          "name": "owner",
          "type": "address"
        }
      ],
      "name": "balanceOf",
      "outputs": [
        {
          "internalType": "uint256",
          "name": "",
          "type": "uint256"
        }
      ],
      "payable": false,
      "stateMutability": "view",
      "type": "function"
    },
    {
      "constant": false,
      "inputs": [
        {
          "internalType": "address",
          "name": "owner",
          "type": "address"
        }
      ],
      "name": "balanceOfUnderlying",
      "outputs": [
        {
          "internalType": "uint256",
          "name": "",
          "type": "uint256"
        }
      ],
      "payable": false,
      "stateMutability": "nonpayable",
      "type": "function"
    },
    {
      "constant": false,
      "inputs": [
        {
          "internalType": "address",
          "name": "account",
          "type": "address"
        }
      ],
      "name": "borrowBalanceCurrent",
      "outputs": [
        {
          "internalType": "uint256",
          "name": "",
          "type": "uint256"
        }
      ],
      "payable": false,
      "stateMutability": "nonpayable",
      "type": "function"
    },
    {
      "constant": true,
      "inputs": [
        {
          "internalType": "address",
          "name": "account",
          "type": "address"
        }
      ],
      "name": "borrowBalanceStored",
      "outputs": [
        {
          "internalType": "uint256",
          "name": "",
          "type": "uint256"
        }
      ],
      "payable": false,
      "stateMutability": "view",
      "type": "function"
    },
    {
      "constant": true,
      "inputs": [],
      "name": "borrowIndex",
      "outputs": [
        {
          "internalType": "uint256",
          "name": "",
          "type": "uint256"
        }
      ],
      "payable": false,
      "stateMutability": "view",
      "type": "function"
    },
    {
      "constant": true,
      "inputs": [],
      "name": "borrowRatePerBlock",
      "outputs": [
        {
          "internalType": "uint256",
          "name": "",
          "type": "uint256"
        }
      ],
      "payable": false,
      "stateMutability": "view",
      "type": "function"
    },
    {
      "constant": true,
      "inputs": [],
      "name": "comptroller",
      "outputs": [
        {
          "internalType": "contract ComptrollerInterface",
          "name": "",
          "type": "address"
        }
      ],
      "payable": false,
      "stateMutability": "view",
      "type": "function"
    },
    {
      "constant": true,
      "inputs": [],
      "name": "decimals",
      "outputs": [
        {
          "internalType": "uint256",
          "name": "",
          "type": "uint256"
        }
      ],
      "payable": false,
      "stateMutability": "view",
      "type": "function"
    },
    {
      "constant": false,
      "inputs": [],
      "name": "exchangeRateCurrent",
      "outputs": [
        {
          "internalType": "uint256",
          "name": "",
          "type": "uint256"
        }
      ],
      "payable": false,
      "stateMutability": "nonpayable",
      "type": "function"
    },
    {
      "constant": true,
      "inputs": [],
      "name": "exchangeRateStored",
      "outputs": [
        {
          "internalType": "uint256",
          "name": "",
          "type": "uint256"
        }
      ],
      "payable": false,
      "stateMutability": "view",
      "type": "function"
    },
    {
      "constant": true,
      "inputs": [
        {
          "internalType": "address",
          "name": "account",
          "type": "address"
        }
      ],
      "name": "getAccountSnapshot",
      "outputs": [
        {
          "internalType": "uint256",
          "name": "",
          "type": "uint256"
        },
        {
          "internalType": "uint256",
          "name": "",
          "type": "uint256"
        },
        {
          "internalType": "uint256",
          "name": "",
          "type": "uint256"
        },
        {
          "internalType": "uint256",
          "name": "",
          "type": "uint256"
        }
      ],
      "payable": false,
      "stateMutability": "view",
      "type": "function"
    },
    {
      "constant": true,
      "inputs": [],
      "name": "getCash",
      "outputs": [
        {
          "internalType": "uint256",
          "name": "",
          "type": "uint256"
        }
      ],
      "payable": false,
      "stateMutability": "view",
      "type": "function"
    },
    {
      "constant": true,
      "inputs": [],
      "name": "initialExchangeRateMantissa",
      "outputs": [
        {
          "internalType": "uint256",
          "name": "",
          "type": "uint256"
        }
      ],
      "payable": false,
      "stateMutability": "view",
      "type": "function"
    },
    {
      "constant": true,
      "inputs": [],
      "name": "interestRateModel",
      "outputs": [
        {
          "internalType": "contract InterestRateModel",
          "name": "",
          "type": "address"
        }
      ],
      "payable": false,
      "stateMutability": "view",
      "type": "function"
    },
    {
      "constant": true,
      "inputs": [],
      "name": "isCToken",
      "outputs": [
        {
          "internalType": "bool",
          "name": "",
          "type": "bool"
        }
      ],
      "payable": false,
      "stateMutability": "view",
      "type": "function"
    },
    {
      "constant": true,
      "inputs": [],
      "name": "name",
      "outputs": [
        {
          "internalType": "string",
          "name": "",
          "type": "string"
        }
      ],
      "payable": false,
      "stateMutability": "view",
      "type": "function"
    },
    {
      "constant": true,
      "inputs": [],
      "name": "pendingAdmin",
      "outputs": [
        {
          "internalType": "address payable",
          "name": "",
          "type": "address"
        }
      ],
      "payable": false,
      "stateMutability": "view",
      "type": "function"
    },
    {
      "constant": true,
      "inputs": [],
      "name": "reserveFactorMantissa",
      "outputs": [
        {
          "internalType": "uint256",
          "name": "",
          "type": "uint256"
        }
      ],
      "payable": false,
      "stateMutability": "view",
      "type": "function"
    },
    {
      "constant": false,
      "inputs": [
        {
          "internalType": "address",
          "name": "liquidator",
          "type": "address"
        },
        {
          "internalType": "address",
          "name": "borrower",
          "type": "address"
        },
        {
          "internalType": "uint256",
          "name": "seizeTokens",
          "type": "uint256"
        }
      ],
      "name": "seize",
      "outputs": [
        {
          "internalType": "uint256",
          "name": "",
          "type": "uint256"
        }
      ],
      "payable": false,
      "stateMutability": "nonpayable",
      "type": "function"
    },
    {
      "constant": true,
      "inputs": [],
      "name": "supplyRatePerBlock",
      "outputs": [
        {
          "internalType": "uint256",
          "name": "",
          "type": "uint256"
        }
      ],
      "payable": false,
      "stateMutability": "view",
      "type": "function"
    },
    {
      "constant": true,
      "inputs": [],
      "name": "symbol",
      "outputs": [
        {
          "internalType": "string",
          "name": "",
          "type": "string"
        }
      ],
      "payable": false,
      "stateMutability": "view",
      "type": "function"
    },
    {
      "constant": true,
      "inputs": [],
      "name": "totalBorrows",
      "outputs": [
        {
          "internalType": "uint256",
          "name": "",
          "type": "uint256"
        }
      ],
      "payable": false,
      "stateMutability": "view",
      "type": "function"
    },
    {
      "constant": false,
      "inputs": [],
      "name": "totalBorrowsCurrent",
      "outputs": [
        {
          "internalType": "uint256",
          "name": "",
          "type": "uint256"
        }
      ],
      "payable": false,
      "stateMutability": "nonpayable",
      "type": "function"
    },
    {
      "constant": true,
      "inputs": [],
      "name": "totalReserves",
      "outputs": [
        {
          "internalType": "uint256",
          "name": "",
          "type": "uint256"
        }
      ],
      "payable": false,
      "stateMutability": "view",
      "type": "function"
    },
    {
      "constant": true,
      "inputs": [],
      "name": "totalSupply",
      "outputs": [
        {
          "internalType": "uint256",
          "name": "",
          "type": "uint256"
        }
      ],
      "payable": false,
      "stateMutability": "view",
      "type": "function"
    },
    {
      "constant": false,
      "inputs": [
        {
          "internalType": "address",
          "name": "dst",
          "type": "address"
        },
        {
          "internalType": "uint256",
          "name": "amount",
          "type": "uint256"
        }
      ],
      "name": "transfer",
      "outputs": [
        {
          "internalType": "bool",
          "name": "",
          "type": "bool"
        }
      ],
      "payable": false,
      "stateMutability": "nonpayable",
      "type": "function"
    },
    {
      "constant": false,
      "inputs": [
        {
          "internalType": "address",
          "name": "src",
          "type": "address"
        },
        {
          "internalType": "address",
          "name": "dst",
          "type": "address"
        },
        {
          "internalType": "uint256",
          "name": "amount",
          "type": "uint256"
        }
      ],
      "name": "transferFrom",
      "outputs": [
        {
          "internalType": "bool",
          "name": "",
          "type": "bool"
        }
      ],
      "payable": false,
      "stateMutability": "nonpayable",
      "type": "function"
    },
    {
      "constant": true,
      "inputs": [],
      "name": "underlying",
      "outputs": [
        {
          "internalType": "address",
          "name": "",
          "type": "address"
        }
      ],
      "payable": false,
      "stateMutability": "view",
      "type": "function"
    },
    {
      "constant": false,
      "inputs": [
        {
          "internalType": "uint256",
          "name": "mintAmount",
          "type": "uint256"
        }
      ],
      "name": "mint",
      "outputs": [
        {
          "internalType": "uint256",
          "name": "",
          "type": "uint256"
        }
      ],
      "payable": false,
      "stateMutability": "nonpayable",
      "type": "function"
    },
    {
      "constant": false,
      "inputs": [
        {
          "internalType": "uint256",
          "name": "redeemTokens",
          "type": "uint256"
        }
      ],
      "name": "redeem",
      "outputs": [
        {
          "internalType": "uint256",
          "name": "",
          "type": "uint256"
        }
      ],
      "payable": false,
      "stateMutability": "nonpayable",
      "type": "function"
    },
    {
      "constant": false,
      "inputs": [
        {
          "internalType": "uint256",
          "name": "redeemAmount",
          "type": "uint256"
        }
      ],
      "name": "redeemUnderlying",
      "outputs": [
        {
          "internalType": "uint256",
          "name": "",
          "type": "uint256"
        }
      ],
      "payable": false,
      "stateMutability": "nonpayable",
      "type": "function"
    },
    {
      "constant": false,
      "inputs": [
        {
          "internalType": "uint256",
          "name": "borrowAmount",
          "type": "uint256"
        }
      ],
      "name": "borrow",
      "outputs": [
        {
          "internalType": "uint256",
          "name": "",
          "type": "uint256"
        }
      ],
      "payable": false,
      "stateMutability": "nonpayable",
      "type": "function"
    },
    {
      "constant": false,
      "inputs": [
        {
          "internalType": "uint256",
          "name": "repayAmount",
          "type": "uint256"
        }
      ],
      "name": "repayBorrow",
      "outputs": [
        {
          "internalType": "uint256",
          "name": "",
          "type": "uint256"
        }
      ],
      "payable": false,
      "stateMutability": "nonpayable",
      "type": "function"
    },
    {
      "constant": false,
      "inputs": [
        {
          "internalType": "address",
          "name": "borrower",
          "type": "address"
        },
        {
          "internalType": "uint256",
          "name": "repayAmount",
          "type": "uint256"
        }
      ],
      "name": "repayBorrowBehalf",
      "outputs": [
        {
          "internalType": "uint256",
          "name": "",
          "type": "uint256"
        }
      ],
      "payable": false,
      "stateMutability": "nonpayable",
      "type": "function"
    },
    {
      "constant": false,
      "inputs": [
        {
          "internalType": "address",
          "name": "borrower",
          "type": "address"
        },
        {
          "internalType": "uint256",
          "name": "repayAmount",
          "type": "uint256"
        },
        {
          "internalType": "contract CToken",
          "name": "cTokenCollateral",
          "type": "address"
        }
      ],
      "name": "liquidateBorrow",
      "outputs": [
        {
          "internalType": "uint256",
          "name": "",
          "type": "uint256"
        }
      ],
      "payable": false,
      "stateMutability": "nonpayable",
      "type": "function"
    }
  ],
  "bytecode": "0x60806040523480156200001157600080fd5b506040516200555738038062005557833981810160405260e08110156200003757600080fd5b81516020830151604080850151606086015160808701805193519597949692959194919392820192846401000000008211156200007357600080fd5b9083019060208201858111156200008957600080fd5b8251640100000000811182820188101715620000a457600080fd5b82525081516020918201929091019080838360005b83811015620000d3578181015183820152602001620000b9565b50505050905090810190601f168015620001015780820380516001836020036101000a031916815260200191505b50604052602001805160405193929190846401000000008211156200012557600080fd5b9083019060208201858111156200013b57600080fd5b82516401000000008111828201881017156200015657600080fd5b82525081516020918201929091019080838360005b83811015620001855781810151838201526020016200016b565b50505050905090810190601f168015620001b35780820380516001836020036101000a031916815260200191505b50604052602001516001600055600480546001600160a01b031916331790556008869055915086905085858585858362000239576040517f08c379a0000000000000000000000000000000000000000000000000000000008152600401808060200182810382526030815260200180620055276030913960400191505060405180910390fd5b60006200024f876001600160e01b036200043516565b90508015620002bf57604080517f08c379a000000000000000000000000000000000000000000000000000000000815260206004820152601a60248201527f53657474696e6720636f6d7074726f6c6c6572206661696c6564000000000000604482015290519081900360640190fd5b620002d26001600160e01b03620005cb16565b600a55670de0b6b3a7640000600b55620002f5866001600160e01b03620005d016565b9050801562000350576040517f08c379a0000000000000000000000000000000000000000000000000000000008152600401808060200182810382526022815260200180620055056022913960400191505060405180910390fd5b835162000365906001906020870190620007fb565b5082516200037b906002906020860190620007fb565b50506003555050601280546001600160a01b0319166001600160a01b038c81169190911791829055604080517f18160ddd00000000000000000000000000000000000000000000000000000000815290519290911694506318160ddd93506004808201935060209291829003018186803b158015620003f957600080fd5b505afa1580156200040e573d6000803e3d6000fd5b505050506040513d60208110156200042557600080fd5b506200089d975050505050505050565b6004546000906001600160a01b031633146200046a57620004626001603f6001600160e01b036200078b16565b9050620005c6565b600654604080517e7e3dd200000000000000000000000000000000000000000000000000000000815290516001600160a01b0392831692851691627e3dd2916004808301926020929190829003018186803b158015620004c957600080fd5b505afa158015620004de573d6000803e3d6000fd5b505050506040513d6020811015620004f557600080fd5b50516200056357604080517f08c379a000000000000000000000000000000000000000000000000000000000815260206004820152601c60248201527f6d61726b6572206d6574686f642072657475726e65642066616c736500000000604482015290519081900360640190fd5b600680546001600160a01b0319166001600160a01b03858116918217909255604080519284168352602083019190915280517f7ac369dbd14fa5ea3f473ed67cc9d598964a77501540ba6751eb0b3decf5870d9281900390910190a160005b9150505b919050565b435b90565b60045460009081906001600160a01b031633146200060857620005ff600160426001600160e01b036200078b16565b915050620005c6565b6200061b6001600160e01b03620005cb16565b600a54146200063b57620005ff600a60416001600160e01b036200078b16565b600760009054906101000a90046001600160a01b03169050826001600160a01b0316632191f92a6040518163ffffffff1660e01b815260040160206040518083038186803b1580156200068d57600080fd5b505afa158015620006a2573d6000803e3d6000fd5b505050506040513d6020811015620006b957600080fd5b50516200072757604080517f08c379a000000000000000000000000000000000000000000000000000000000815260206004820152601c60248201527f6d61726b6572206d6574686f642072657475726e65642066616c736500000000604482015290519081900360640190fd5b600780546001600160a01b0319166001600160a01b03858116918217909255604080519284168352602083019190915280517fedffc32e068c7c95dfd4bdfd5c4d939a084d6b11c4199eac8436ed234d72f9269281900390910190a16000620005c2565b60007f45b96fe442630264581b197e84bbada861235052c5a1aadfff9ea4e40a969aa0836010811115620007bb57fe5b83604d811115620007c857fe5b604080519283526020830191909152600082820152519081900360600190a1826010811115620007f457fe5b9392505050565b828054600181600116156101000203166002900490600052602060002090601f016020900481019282601f106200083e57805160ff19168380011785556200086e565b828001600101855582156200086e579182015b828111156200086e57825182559160200191906001019062000851565b506200087c92915062000880565b5090565b620005cd91905b808211156200087c576000815560010162000887565b614c5880620008ad6000396000f3fe608060405234801561001057600080fd5b506004361061030a5760003560e01c80638f840ddd1161019c578063c37f68e2116100ee578063f3fdb15a11610097578063f8f9da2811610071578063f8f9da28146107ce578063fca7820b146107d6578063fe9c44ae146107f35761030a565b8063f3fdb15a14610788578063f5e3c46214610790578063f851a440146107c65761030a565b8063dd62ed3e116100c8578063dd62ed3e1461072c578063e9c714f21461075a578063f2b3abbd146107625761030a565b8063c37f68e2146106a6578063c5ebeaec146106f2578063db006a751461070f5761030a565b8063a9059cbb11610150578063b2a02ff11161012a578063b2a02ff114610642578063b71d1a0c14610678578063bd6d894d1461069e5761030a565b8063a9059cbb14610606578063aa5af0fd14610632578063ae9d70b01461063a5761030a565b806395dd91931161018157806395dd9193146105bb578063a0712d68146105e1578063a6afed95146105fe5761030a565b80638f840ddd146105ab57806395d89b41146105b35761030a565b80633af9e66911610260578063675d972c1161020957806370a08231116101e357806370a082311461056057806373acee9814610586578063852a12e31461058e5761030a565b8063675d972c146105485780636c540baf146105505780636f307dc3146105585761030a565b806347bd37181161023a57806347bd37181461051b5780635fe3b56714610523578063601a0bf11461052b5761030a565b80633af9e669146104c75780633b1d21a2146104ed5780634576b5db146104f55761030a565b806318160ddd116102c25780632608f8181161029c5780632608f8181461046f578063267822471461049b578063313ce567146104bf5761030a565b806318160ddd14610429578063182df0f51461043157806323b872dd146104395761030a565b80630e752702116102f35780630e752702146103cc578063173b9904146103fb57806317bfdfbc146104035761030a565b806306fdde031461030f578063095ea7b31461038c575b600080fd5b6103176107fb565b6040805160208082528351818301528351919283929083019185019080838360005b83811015610351578181015183820152602001610339565b50505050905090810190601f16801561037e5780820380516001836020036101000a031916815260200191505b509250505060405180910390f35b6103b8600480360360408110156103a257600080fd5b506001600160a01b038135169060200135610888565b604080519115158252519081900360200190f35b6103e9600480360360208110156103e257600080fd5b50356108f5565b60408051918252519081900360200190f35b6103e9610908565b6103e96004803603602081101561041957600080fd5b50356001600160a01b031661090e565b6103e96109c8565b6103e96109ce565b6103b86004803603606081101561044f57600080fd5b506001600160a01b03813581169160208101359091169060400135610a31565b6103e96004803603604081101561048557600080fd5b506001600160a01b038135169060200135610a97565b6104a3610aaa565b604080516001600160a01b039092168252519081900360200190f35b6103e9610ab9565b6103e9600480360360208110156104dd57600080fd5b50356001600160a01b0316610abf565b6103e9610b2d565b6103e96004803603602081101561050b57600080fd5b50356001600160a01b0316610b3c565b6103e9610cb1565b6104a3610cb7565b6103e96004803603602081101561054157600080fd5b5035610cc6565b6103e9610d4e565b6103e9610d54565b6104a3610d5a565b6103e96004803603602081101561057657600080fd5b50356001600160a01b0316610d69565b6103e9610d84565b6103e9600480360360208110156105a457600080fd5b5035610e35565b6103e9610e40565b610317610e46565b6103e9600480360360208110156105d157600080fd5b50356001600160a01b0316610e9e565b6103e9600480360360208110156105f757600080fd5b5035610efb565b6103e9610f06565b6103b86004803603604081101561061c57600080fd5b506001600160a01b0381351690602001356112ff565b6103e9611364565b6103e961136a565b6103e96004803603606081101561065857600080fd5b506001600160a01b03813581169160208101359091169060400135611635565b6103e96004803603602081101561068e57600080fd5b50356001600160a01b031661192a565b6103e96119be565b6106cc600480360360208110156106bc57600080fd5b50356001600160a01b0316611a70565b604080519485526020850193909352838301919091526060830152519081900360800190f35b6103e96004803603602081101561070857600080fd5b5035611b05565b6103e96004803603602081101561072557600080fd5b5035611b10565b6103e96004803603604081101561074257600080fd5b506001600160a01b0381358116916020013516611b1b565b6103e9611b46565b6103e96004803603602081101561077857600080fd5b50356001600160a01b0316611c42565b6104a3611c7c565b6103e9600480360360608110156107a657600080fd5b506001600160a01b03813581169160208101359160409091013516611c8b565b6104a3611c98565b6103e9611ca7565b6103e9600480360360208110156107ec57600080fd5b5035611d83565b6103b8611dbd565b60018054604080516020600284861615610100026000190190941693909304601f810184900484028201840190925281815292918301828280156108805780601f1061085557610100808354040283529160200191610880565b820191906000526020600020905b81548152906001019060200180831161086357829003601f168201915b505050505081565b3360008181526010602090815260408083206001600160a01b03871680855290835281842086905581518681529151939493909284927f8c5be1e5ebec7d5bd14f71427d1e84f3dd0314c0f7b2291e5b200ac8c7c3b925929081900390910190a360019150505b92915050565b600061090082611dc2565b90505b919050565b60095481565b6000805460010180825581610921610f06565b14610973576040805162461bcd60e51b815260206004820152601660248201527f61636372756520696e746572657374206661696c656400000000000000000000604482015290519081900360640190fd5b61097c83610e9e565b91505b60005481146109c2576040805162461bcd60e51b815260206004820152600a6024820152691c994b595b9d195c995960b21b604482015290519081900360640190fd5b50919050565b600e5481565b60008060006109db611dfe565b909250905060008260038111156109ee57fe5b14610a2a5760405162461bcd60e51b8152600401808060200182810382526035815260200180614b976035913960400191505060405180910390fd5b9150505b90565b6000805460010180825581610a4833878787611eac565b1491505b6000548114610a8f576040805162461bcd60e51b815260206004820152600a6024820152691c994b595b9d195c995960b21b604482015290519081900360640190fd5b509392505050565b6000610aa383836121fe565b9392505050565b6005546001600160a01b031681565b60035481565b6000610ac9614910565b6040518060200160405280610adc6119be565b90526001600160a01b0384166000908152600f6020526040812054919250908190610b08908490612288565b90925090506000826003811115610b1b57fe5b14610b2557600080fd5b949350505050565b6000610b376122dc565b905090565b6004546000906001600160a01b03163314610b6457610b5d6001603f612375565b9050610903565b600654604080517e7e3dd200000000000000000000000000000000000000000000000000000000815290516001600160a01b0392831692851691627e3dd2916004808301926020929190829003018186803b158015610bc257600080fd5b505afa158015610bd6573d6000803e3d6000fd5b505050506040513d6020811015610bec57600080fd5b5051610c3f576040805162461bcd60e51b815260206004820152601c60248201527f6d61726b6572206d6574686f642072657475726e65642066616c736500000000604482015290519081900360640190fd5b6006805473ffffffffffffffffffffffffffffffffffffffff19166001600160a01b03858116918217909255604080519284168352602083019190915280517f7ac369dbd14fa5ea3f473ed67cc9d598964a77501540ba6751eb0b3decf5870d9281900390910190a160009392505050565b600c5481565b6006546001600160a01b031681565b6000805460010180825581610cd9610f06565b90508015610cff57610cf7816010811115610cf057fe5b6030612375565b92505061097f565b610d08846123db565b92505060005481146109c2576040805162461bcd60e51b815260206004820152600a6024820152691c994b595b9d195c995960b21b604482015290519081900360640190fd5b60085481565b600a5481565b6012546001600160a01b031681565b6001600160a01b03166000908152600f602052604090205490565b6000805460010180825581610d97610f06565b14610de9576040805162461bcd60e51b815260206004820152601660248201527f61636372756520696e746572657374206661696c656400000000000000000000604482015290519081900360640190fd5b600c5491506000548114610e31576040805162461bcd60e51b815260206004820152600a6024820152691c994b595b9d195c995960b21b604482015290519081900360640190fd5b5090565b600061090082612559565b600d5481565b6002805460408051602060018416156101000260001901909316849004601f810184900484028201840190925281815292918301828280156108805780601f1061085557610100808354040283529160200191610880565b6000806000610eac84612596565b90925090506000826003811115610ebf57fe5b14610aa35760405162461bcd60e51b8152600401808060200182810382526037815260200180614a8b6037913960400191505060405180910390fd5b60006109008261264a565b6000610f10614923565b6007546001600160a01b03166315f24053610f296122dc565b600c54600d546040518463ffffffff1660e01b8152600401808481526020018381526020018281526020019350505050604080518083038186803b158015610f7057600080fd5b505afa158015610f84573d6000803e3d6000fd5b505050506040513d6040811015610f9a57600080fd5b50805160209182015160408401819052918301526601c6bf526340001015611009576040805162461bcd60e51b815260206004820152601c60248201527f626f72726f772072617465206973206162737572646c79206869676800000000604482015290519081900360640190fd5b60208101511561102c57611024600560028360200151612685565b915050610a2e565b6110346126eb565b60608201819052600a5461104891906126ef565b608083018190528282600381111561105c57fe5b600381111561106757fe5b905250600090508151600381111561107b57fe5b1461108257fe5b6110a2604051806020016040528083604001518152508260800151612712565b60a08301819052828260038111156110b657fe5b60038111156110c157fe5b90525060009050815160038111156110d557fe5b146110f65761102460096006836000015160038111156110f157fe5b612685565b6111068160a00151600c54612288565b60c083018190528282600381111561111a57fe5b600381111561112557fe5b905250600090508151600381111561113957fe5b146111555761102460096001836000015160038111156110f157fe5b6111658160c00151600c5461277a565b60e083018190528282600381111561117957fe5b600381111561118457fe5b905250600090508151600381111561119857fe5b146111b45761102460096004836000015160038111156110f157fe5b6111d560405180602001604052806009548152508260c00151600d546127a0565b6101008301819052828260038111156111ea57fe5b60038111156111f557fe5b905250600090508151600381111561120957fe5b146112255761102460096005836000015160038111156110f157fe5b6112388160a00151600b54600b546127a0565b61012083018190528282600381111561124d57fe5b600381111561125857fe5b905250600090508151600381111561126c57fe5b146112885761102460096003836000015160038111156110f157fe5b606080820151600a55610120820151600b81905560e0830151600c819055610100840151600d5560c08401516040805191825260208201939093528083019190915290517f875352fb3fadeb8c0be7cbbe8ff761b308fa7033470cd0287f02f3436fd76cb9929181900390910190a1600091505090565b600080546001018082558161131633338787611eac565b1491505b600054811461135d576040805162461bcd60e51b815260206004820152600a6024820152691c994b595b9d195c995960b21b604482015290519081900360640190fd5b5092915050565b600b5481565b6000806113756109ce565b60075490915060009081906001600160a01b03166315f240536113966122dc565b600c54600d546040518463ffffffff1660e01b8152600401808481526020018381526020018281526020019350505050604080518083038186803b1580156113dd57600080fd5b505afa1580156113f1573d6000803e3d6000fd5b505050506040513d604081101561140757600080fd5b508051602090910151909250905081156114525760405162461bcd60e51b8152600401808060200182810382526031815260200180614b2a6031913960400191505060405180910390fd5b600061145c614910565b611476604051806020016040528087815250600e54612712565b9092509050600082600381111561148957fe5b146114c55760405162461bcd60e51b8152600401808060200182810382526031815260200180614ac26031913960400191505060405180910390fd5b60006114cf614910565b6114db600c54846127fc565b909250905060008260038111156114ee57fe5b1461152a5760405162461bcd60e51b8152600401808060200182810382526031815260200180614a066031913960400191505060405180910390fd5b6000611534614910565b6115646040518060200160405280670de0b6b3a7640000815250604051806020016040528060095481525061285b565b9092509050600082600381111561157757fe5b146115b35760405162461bcd60e51b815260040180806020018281038252603c815260200180614b5b603c913960400191505060405180910390fd5b60006115bd614910565b6115d660405180602001604052808b8152508487612895565b909250905060008260038111156115e957fe5b146116255760405162461bcd60e51b8152600401808060200182810382526031815260200180614a5a6031913960400191505060405180910390fd5b519a505050505050505050505090565b60008054600101808255600654604080517fd02f73510000000000000000000000000000000000000000000000000000000081523060048201523360248201526001600160a01b03888116604483015287811660648301526084820187905291518593929092169163d02f73519160a48082019260209290919082900301818787803b1580156116c457600080fd5b505af11580156116d8573d6000803e3d6000fd5b505050506040513d60208110156116ee57600080fd5b50519050801561170d576117056003601b83612685565b925050610a4c565b856001600160a01b0316856001600160a01b03161415611733576117056006601c612375565b6001600160a01b0385166000908152600f60205260408120548190819061175a90886126ef565b9093509150600083600381111561176d57fe5b14611790576117856009601a8560038111156110f157fe5b955050505050610a4c565b6001600160a01b0389166000908152600f60205260409020546117b3908861277a565b909350905060008360038111156117c657fe5b146117de57611785600960198560038111156110f157fe5b6001600160a01b038089166000818152600f60209081526040808320879055938d168083529184902085905583518b8152935191937fddf252ad1be2c89b69c2b068fc378daa952ba7f163c4a11628f55a4df523b3ef929081900390910190a3600654604080517f6d35bf910000000000000000000000000000000000000000000000000000000081523060048201523360248201526001600160a01b038c811660448301528b81166064830152608482018b905291519190921691636d35bf919160a480830192600092919082900301818387803b1580156118c057600080fd5b505af11580156118d4573d6000803e3d6000fd5b50600092506118e1915050565b9550505050506000548114610a8f576040805162461bcd60e51b815260206004820152600a6024820152691c994b595b9d195c995960b21b604482015290519081900360640190fd5b6004546000906001600160a01b0316331461194b57610b5d60016045612375565b600580546001600160a01b0384811673ffffffffffffffffffffffffffffffffffffffff19831681179093556040805191909216808252602082019390935281517fca4f2f25d0898edd99413412fb94012f9e54ec8142f9b093e7720646a95b16a9929181900390910190a16000610aa3565b60008054600101808255816119d1610f06565b14611a23576040805162461bcd60e51b815260206004820152601660248201527f61636372756520696e746572657374206661696c656400000000000000000000604482015290519081900360640190fd5b611a2b6109ce565b91506000548114610e31576040805162461bcd60e51b815260206004820152600a6024820152691c994b595b9d195c995960b21b604482015290519081900360640190fd5b6001600160a01b0381166000908152600f6020526040812054819081908190818080611a9b89612596565b935090506000816003811115611aad57fe5b14611acb5760095b975060009650869550859450611afe9350505050565b611ad3611dfe565b925090506000816003811115611ae557fe5b14611af1576009611ab5565b5060009650919450925090505b9193509193565b6000610900826128df565b60006109008261291a565b6001600160a01b03918216600090815260106020908152604080832093909416825291909152205490565b6005546000906001600160a01b031633141580611b61575033155b15611b7957611b7260016000612375565b9050610a2e565b60048054600580546001600160a01b0380821673ffffffffffffffffffffffffffffffffffffffff1980861682179687905590921690925560408051938316808552949092166020840152815190927ff9ffabca9c8276e99321725bcb43fb076a6c66a54b7f21c4e8146d8519b417dc92908290030190a1600554604080516001600160a01b038085168252909216602083015280517fca4f2f25d0898edd99413412fb94012f9e54ec8142f9b093e7720646a95b16a99281900390910190a160009250505090565b600080611c4d610f06565b90508015611c7357611c6b816010811115611c6457fe5b6040612375565b915050610903565b610aa383612950565b6007546001600160a01b031681565b6000610b25848484612acd565b6004546001600160a01b031681565b600754600090819081906001600160a01b03166315f24053611cc76122dc565b600c54600d546040518463ffffffff1660e01b8152600401808481526020018381526020018281526020019350505050604080518083038186803b158015611d0e57600080fd5b505afa158015611d22573d6000803e3d6000fd5b505050506040513d6040811015611d3857600080fd5b50805160209091015190925090508115610a2a5760405162461bcd60e51b8152600401808060200182810382526037815260200180614af36037913960400191505060405180910390fd5b6000805460010180825581611d96610f06565b90508015611db457610cf7816010811115611dad57fe5b6046612375565b610d0884612bd5565b600181565b6000805460010180825581611dd5610f06565b90508015611df357610cf7816010811115611dec57fe5b6036612375565b610d08333386612c78565b600080600e5460001415611e19575050600854600090611ea8565b6000611e236122dc565b90506000611e2f614910565b6000611e4084600c54600d546130fd565b935090506000816003811115611e5257fe5b14611e6657945060009350611ea892505050565b611e7283600e5461313b565b925090506000816003811115611e8457fe5b14611e9857945060009350611ea892505050565b5051600094509250611ea8915050565b9091565b600654604080517fbdcdc2580000000000000000000000000000000000000000000000000000000081523060048201526001600160a01b03868116602483015285811660448301526064820185905291516000938493169163bdcdc25891608480830192602092919082900301818787803b158015611f2a57600080fd5b505af1158015611f3e573d6000803e3d6000fd5b505050506040513d6020811015611f5457600080fd5b505190508015611f7357611f6b6003604a83612685565b915050610b25565b836001600160a01b0316856001600160a01b03161415611f9957611f6b6002604b612375565b60006001600160a01b038781169087161415611fb85750600019611fe0565b506001600160a01b038086166000908152601060209081526040808320938a16835292905220545b600080600080611ff085896126ef565b9094509250600084600381111561200357fe5b14612021576120146009604b612375565b9650505050505050610b25565b6001600160a01b038a166000908152600f602052604090205461204490896126ef565b9094509150600084600381111561205757fe5b14612068576120146009604c612375565b6001600160a01b0389166000908152600f602052604090205461208b908961277a565b9094509050600084600381111561209e57fe5b146120af576120146009604d612375565b6001600160a01b03808b166000908152600f6020526040808220859055918b168152208190556000198514612107576001600160a01b03808b166000908152601060209081526040808320938f168352929052208390555b886001600160a01b03168a6001600160a01b03167fddf252ad1be2c89b69c2b068fc378daa952ba7f163c4a11628f55a4df523b3ef8a6040518082815260200191505060405180910390a3600654604080517f6a56947e0000000000000000000000000000000000000000000000000000000081523060048201526001600160a01b038d811660248301528c81166044830152606482018c905291519190921691636a56947e91608480830192600092919082900301818387803b1580156121ce57600080fd5b505af11580156121e2573d6000803e3d6000fd5b50600092506121ef915050565b9b9a5050505050505050505050565b6000805460010180825581612211610f06565b905080156122375761222f81601081111561222857fe5b6035612375565b92505061131a565b612242338686612c78565b925050600054811461135d576040805162461bcd60e51b815260206004820152600a6024820152691c994b595b9d195c995960b21b604482015290519081900360640190fd5b6000806000612295614910565b61229f8686612712565b909250905060008260038111156122b257fe5b146122c357509150600090506122d5565b60006122ce826131eb565b9350935050505b9250929050565b601254604080517f70a0823100000000000000000000000000000000000000000000000000000000815230600482015290516000926001600160a01b03169182916370a0823191602480820192602092909190829003018186803b15801561234357600080fd5b505afa158015612357573d6000803e3d6000fd5b505050506040513d602081101561236d57600080fd5b505191505090565b60007f45b96fe442630264581b197e84bbada861235052c5a1aadfff9ea4e40a969aa08360108111156123a457fe5b83604d8111156123b057fe5b604080519283526020830191909152600082820152519081900360600190a1826010811115610aa357fe5b600454600090819081906001600160a01b031633146124095761240060016031612375565b92505050610903565b6124116126eb565b600a541461242557612400600a6033612375565b8361242e6122dc565b101561244057612400600e6032612375565b600d548411156124565761240060026034612375565b50600d548381039081111561249c5760405162461bcd60e51b8152600401808060200182810382526024815260200180614c006024913960400191505060405180910390fd5b600d8190556004546124b7906001600160a01b0316856131fa565b915060008260108111156124c757fe5b146125035760405162461bcd60e51b8152600401808060200182810382526023815260200180614a376023913960400191505060405180910390fd5b600454604080516001600160a01b03909216825260208201869052818101839052517f3bad0c59cf2f06e7314077049f48a93578cd16f5ef92329f1dab1420a99c177e9181900360600190a16000949350505050565b600080546001018082558161256c610f06565b9050801561258a57610cf781601081111561258357fe5b6027612375565b610d08336000866132cf565b6001600160a01b0381166000908152601160205260408120805482918291829182916125cd57506000945084935061264592505050565b6125dd8160000154600b5461381c565b909450925060008460038111156125f057fe5b14612605575091935060009250612645915050565b61261383826001015461385b565b9094509150600084600381111561262657fe5b1461263b575091935060009250612645915050565b5060009450925050505b915091565b600080546001018082558161265d610f06565b9050801561267b57610cf781601081111561267457fe5b601e612375565b610d083385613886565b60007f45b96fe442630264581b197e84bbada861235052c5a1aadfff9ea4e40a969aa08460108111156126b457fe5b84604d8111156126c057fe5b604080519283526020830191909152818101859052519081900360600190a1836010811115610b2557fe5b4390565b6000808383116127065750600090508183036122d5565b506003905060006122d5565b600061271c614910565b60008061272d86600001518661381c565b9092509050600082600381111561274057fe5b1461275f575060408051602081019091526000815290925090506122d5565b60408051602081019091529081526000969095509350505050565b600080838301848110612792576000925090506122d5565b5060029150600090506122d5565b60008060006127ad614910565b6127b78787612712565b909250905060008260038111156127ca57fe5b146127db57509150600090506127f4565b6127ed6127e7826131eb565b8661277a565b9350935050505b935093915050565b6000612806614910565b60008061281b670de0b6b3a76400008761381c565b9092509050600082600381111561282e57fe5b1461284d575060408051602081019091526000815290925090506122d5565b6122ce81866000015161313b565b6000612865614910565b60008061287a866000015186600001516126ef565b60408051602081019091529081529097909650945050505050565b600061289f614910565b60006128a9614910565b6128b38787613d12565b909250905060008260038111156128c657fe5b146128d55790925090506127f4565b6127ed8186613d12565b60008054600101808255816128f2610f06565b9050801561291057610cf781601081111561290957fe5b6008612375565b610d083385613dfb565b600080546001018082558161292d610f06565b9050801561294457610cf781601081111561258357fe5b610d08338560006132cf565b60045460009081906001600160a01b0316331461297357611c6b60016042612375565b61297b6126eb565b600a541461298f57611c6b600a6041612375565b600760009054906101000a90046001600160a01b03169050826001600160a01b0316632191f92a6040518163ffffffff1660e01b815260040160206040518083038186803b1580156129e057600080fd5b505afa1580156129f4573d6000803e3d6000fd5b505050506040513d6020811015612a0a57600080fd5b5051612a5d576040805162461bcd60e51b815260206004820152601c60248201527f6d61726b6572206d6574686f642072657475726e65642066616c736500000000604482015290519081900360640190fd5b6007805473ffffffffffffffffffffffffffffffffffffffff19166001600160a01b03858116918217909255604080519284168352602083019190915280517fedffc32e068c7c95dfd4bdfd5c4d939a084d6b11c4199eac8436ed234d72f9269281900390910190a16000610aa3565b6000805460010180825581612ae0610f06565b90508015612afe57611705816010811115612af757fe5b600f612375565b836001600160a01b031663a6afed956040518163ffffffff1660e01b8152600401602060405180830381600087803b158015612b3957600080fd5b505af1158015612b4d573d6000803e3d6000fd5b505050506040513d6020811015612b6357600080fd5b505190508015612b8357611705816010811115612b7c57fe5b6010612375565b612b8f33878787614193565b9250506000548114610a8f576040805162461bcd60e51b815260206004820152600a6024820152691c994b595b9d195c995960b21b604482015290519081900360640190fd5b6004546000906001600160a01b03163314612bf657610b5d60016047612375565b612bfe6126eb565b600a5414612c1257610b5d600a6048612375565b670de0b6b3a7640000821115612c2e57610b5d60026049612375565b6009805490839055604080518281526020810185905281517faaa68312e2ea9d50e16af5068410ab56e1a1fd06037b1a35664812c30f821460929181900390910190a16000610aa3565b600654604080517f24008a620000000000000000000000000000000000000000000000000000000081523060048201526001600160a01b0386811660248301528581166044830152606482018590529151600093849316916324008a6291608480830192602092919082900301818787803b158015612cf657600080fd5b505af1158015612d0a573d6000803e3d6000fd5b505050506040513d6020811015612d2057600080fd5b505190508015612d3f57612d376003603883612685565b915050610aa3565b612d476126eb565b600a5414612d5b57612d37600a6039612375565b612d6361497d565b6001600160a01b0385166000908152601160205260409020600101546060820152612d8d85612596565b6080830181905260208301826003811115612da457fe5b6003811115612daf57fe5b9052506000905081602001516003811115612dc657fe5b14612deb57612de260096037836020015160038111156110f157fe5b92505050610aa3565b600019841415612e045760808101516040820152612e0c565b604081018490525b612e1a8682604001516146dc565b81906010811115612e2757fe5b90816010811115612e3457fe5b905250600081516010811115612e4657fe5b14612e58578051612de290603c612375565b612e6a816080015182604001516126ef565b60a0830181905260208301826003811115612e8157fe5b6003811115612e8c57fe5b9052506000905081602001516003811115612ea357fe5b14612ebf57612de26009603a836020015160038111156110f157fe5b612ecf600c5482604001516126ef565b60c0830181905260208301826003811115612ee657fe5b6003811115612ef157fe5b9052506000905081602001516003811115612f0857fe5b14612f2457612de26009603b836020015160038111156110f157fe5b612f32868260400151614829565b81906010811115612f3f57fe5b90816010811115612f4c57fe5b905250600081516010811115612f5e57fe5b14612fb0576040805162461bcd60e51b815260206004820152601f60248201527f726570617920626f72726f77207472616e7366657220696e206661696c656400604482015290519081900360640190fd5b60a080820180516001600160a01b03808916600081815260116020908152604091829020948555600b5460019095019490945560c0870151600c8190558188015195518251948e16855294840192909252828101949094526060820192909252608081019190915290517f1a2a22cb034d26d1854bdc6666a5b91fe25efbbb5dcad3b0355478d6f5c362a1929181900390910190a1600654604080830151606084015182517f1ededc910000000000000000000000000000000000000000000000000000000081523060048201526001600160a01b038b811660248301528a81166044830152606482019390935260848101919091529151921691631ededc919160a48082019260009290919082900301818387803b1580156130d257600080fd5b505af11580156130e6573d6000803e3d6000fd5b50600092506130f3915050565b9695505050505050565b60008060008061310d878761277a565b9092509050600082600381111561312057fe5b1461313157509150600090506127f4565b6127ed81866126ef565b6000613145614910565b60008061315a86670de0b6b3a764000061381c565b9092509050600082600381111561316d57fe5b1461318c575060408051602081019091526000815290925090506122d5565b600080613199838861385b565b909250905060008260038111156131ac57fe5b146131ce575060408051602081019091526000815290945092506122d5915050565b604080516020810190915290815260009890975095505050505050565b51670de0b6b3a7640000900490565b601254604080517fa9059cbb0000000000000000000000000000000000000000000000000000000081526001600160a01b03858116600483015260248201859052915160009392909216918391839163a9059cbb91604480820192869290919082900301818387803b15801561326f57600080fd5b505af1158015613283573d6000803e3d6000fd5b505050503d6000811461329d57602081146132a757600080fd5b60001991506132b3565b60206000803e60005191505b50806132c4576010925050506108ef565b506000949350505050565b60008215806132dc575081155b6133175760405162461bcd60e51b8152600401808060200182810382526034815260200180614bcc6034913960400191505060405180910390fd5b61331f61497d565b613327611dfe565b604083018190526020830182600381111561333e57fe5b600381111561334957fe5b905250600090508160200151600381111561336057fe5b1461337c57612d376009602b836020015160038111156110f157fe5b83156133fd5760608101849052604080516020810182529082015181526133a39085612288565b60808301819052602083018260038111156133ba57fe5b60038111156133c557fe5b90525060009050816020015160038111156133dc57fe5b146133f857612d3760096029836020015160038111156110f157fe5b613476565b61341983604051806020016040528084604001518152506148f9565b606083018190526020830182600381111561343057fe5b600381111561343b57fe5b905250600090508160200151600381111561345257fe5b1461346e57612d376009602a836020015160038111156110f157fe5b608081018390525b6006546060820151604080517feabe7d910000000000000000000000000000000000000000000000000000000081523060048201526001600160a01b03898116602483015260448201939093529051600093929092169163eabe7d919160648082019260209290919082900301818787803b1580156134f457600080fd5b505af1158015613508573d6000803e3d6000fd5b505050506040513d602081101561351e57600080fd5b50519050801561353557612de26003602883612685565b61353d6126eb565b600a541461355157612de2600a602c612375565b613561600e5483606001516126ef565b60a084018190526020840182600381111561357857fe5b600381111561358357fe5b905250600090508260200151600381111561359a57fe5b146135b657612de26009602e846020015160038111156110f157fe5b6001600160a01b0386166000908152600f602052604090205460608301516135de91906126ef565b60c08401819052602084018260038111156135f557fe5b600381111561360057fe5b905250600090508260200151600381111561361757fe5b1461363357612de26009602d846020015160038111156110f157fe5b81608001516136406122dc565b101561365257612de2600e602f612375565b6136608683608001516131fa565b8290601081111561366d57fe5b9081601081111561367a57fe5b90525060008251601081111561368c57fe5b146136de576040805162461bcd60e51b815260206004820152601a60248201527f72656465656d207472616e73666572206f7574206661696c6564000000000000604482015290519081900360640190fd5b60a0820151600e5560c08201516001600160a01b0387166000818152600f60209081526040918290209390935560608501518151908152905130937fddf252ad1be2c89b69c2b068fc378daa952ba7f163c4a11628f55a4df523b3ef928290030190a36080820151606080840151604080516001600160a01b038b168152602081019490945283810191909152517fe5b754fb1abb7f01b499791d0b820ae3b6af3424ac1c59768edb53f4ec31a9299281900390910190a160065460808301516060840151604080517f51dff9890000000000000000000000000000000000000000000000000000000081523060048201526001600160a01b038b81166024830152604482019490945260648101929092525191909216916351dff98991608480830192600092919082900301818387803b1580156130d257600080fd5b6000808361382f575060009050806122d5565b8383028385828161383c57fe5b0414613850575060029150600090506122d5565b6000925090506122d5565b6000808261386f57506001905060006122d5565b600083858161387a57fe5b04915091509250929050565b600654604080517f4ef4c3e10000000000000000000000000000000000000000000000000000000081523060048201526001600160a01b03858116602483015260448201859052915160009384931691634ef4c3e191606480830192602092919082900301818787803b1580156138fc57600080fd5b505af1158015613910573d6000803e3d6000fd5b505050506040513d602081101561392657600080fd5b5051905080156139455761393d6003601f83612685565b9150506108ef565b61394d6126eb565b600a54146139615761393d600a6022612375565b6139696149bb565b61397385856146dc565b8190601081111561398057fe5b9081601081111561398d57fe5b90525060008151601081111561399f57fe5b146139ba5780516139b1906026612375565b925050506108ef565b6139c2611dfe565b60408301819052602083018260038111156139d957fe5b60038111156139e457fe5b90525060009050816020015160038111156139fb57fe5b14613a17576139b160096021836020015160038111156110f157fe5b613a3384604051806020016040528084604001518152506148f9565b6060830181905260208301826003811115613a4a57fe5b6003811115613a5557fe5b9052506000905081602001516003811115613a6c57fe5b14613a88576139b160096020836020015160038111156110f157fe5b613a98600e54826060015161277a565b6080830181905260208301826003811115613aaf57fe5b6003811115613aba57fe5b9052506000905081602001516003811115613ad157fe5b14613aed576139b160096024836020015160038111156110f157fe5b6001600160a01b0385166000908152600f60205260409020546060820151613b15919061277a565b60a0830181905260208301826003811115613b2c57fe5b6003811115613b3757fe5b9052506000905081602001516003811115613b4e57fe5b14613b6a576139b160096023836020015160038111156110f157fe5b613b748585614829565b81906010811115613b8157fe5b90816010811115613b8e57fe5b905250600081516010811115613ba057fe5b14613bb25780516139b1906025612375565b6080810151600e5560a08101516001600160a01b0386166000818152600f602090815260409182902093909355606080850151825193845293830188905282820193909352517f4c209b5fc8ad50758f13e2e1088ba56a560dff690a1c6fef26394f4c03821c4f929181900390910190a1606081015160408051918252516001600160a01b0387169130917fddf252ad1be2c89b69c2b068fc378daa952ba7f163c4a11628f55a4df523b3ef9181900360200190a36006546060820151604080517f41c728b90000000000000000000000000000000000000000000000000000000081523060048201526001600160a01b038981166024830152604482018990526064820193909352905191909216916341c728b991608480830192600092919082900301818387803b158015613ce857600080fd5b505af1158015613cfc573d6000803e3d6000fd5b5060009250613d09915050565b95945050505050565b6000613d1c614910565b600080613d318660000151866000015161381c565b90925090506000826003811115613d4457fe5b14613d63575060408051602081019091526000815290925090506122d5565b600080613d786706f05b59d3b200008461277a565b90925090506000826003811115613d8b57fe5b14613dad575060408051602081019091526000815290945092506122d5915050565b600080613dc283670de0b6b3a764000061385b565b90925090506000826003811115613dd557fe5b14613ddc57fe5b604080516020810190915290815260009a909950975050505050505050565b600654604080517fda3d454c0000000000000000000000000000000000000000000000000000000081523060048201526001600160a01b0385811660248301526044820185905291516000938493169163da3d454c91606480830192602092919082900301818787803b158015613e7157600080fd5b505af1158015613e85573d6000803e3d6000fd5b505050506040513d6020811015613e9b57600080fd5b505190508015613eb25761393d6003600e83612685565b613eba6126eb565b600a5414613ecd5761393d600a80612375565b82613ed66122dc565b1015613ee85761393d600e6009612375565b613ef06149d5565b613ef985612596565b6040830181905260208301826003811115613f1057fe5b6003811115613f1b57fe5b9052506000905081602001516003811115613f3257fe5b14613f4e576139b160096007836020015160038111156110f157fe5b613f5c81604001518561277a565b6060830181905260208301826003811115613f7357fe5b6003811115613f7e57fe5b9052506000905081602001516003811115613f9557fe5b14613fb1576139b16009600c836020015160038111156110f157fe5b613fbd600c548561277a565b6080830181905260208301826003811115613fd457fe5b6003811115613fdf57fe5b9052506000905081602001516003811115613ff657fe5b14614012576139b16009600b836020015160038111156110f157fe5b61401c85856131fa565b8190601081111561402957fe5b9081601081111561403657fe5b90525060008151601081111561404857fe5b1461409a576040805162461bcd60e51b815260206004820152601a60248201527f626f72726f77207472616e73666572206f7574206661696c6564000000000000604482015290519081900360640190fd5b606080820180516001600160a01b038816600081815260116020908152604091829020938455600b54600190940193909355608080870151600c819055945182519384529383018a9052828201939093529381019290925291517f13ed6866d4e1ee6da46f845c46d7e54120883d75c5ea9a2dacc1c4ca8984ab80929181900390910190a1600654604080517f5c7786050000000000000000000000000000000000000000000000000000000081523060048201526001600160a01b0388811660248301526044820188905291519190921691635c77860591606480830192600092919082900301818387803b158015613ce857600080fd5b600654604080517f5fc7e71e0000000000000000000000000000000000000000000000000000000081523060048201526001600160a01b0384811660248301528781166044830152868116606483015260848201869052915160009384931691635fc7e71e9160a480830192602092919082900301818787803b15801561421957600080fd5b505af115801561422d573d6000803e3d6000fd5b505050506040513d602081101561424357600080fd5b50519050801561425a57611f6b6003601283612685565b6142626126eb565b600a541461427657611f6b600a6016612375565b61427e6126eb565b836001600160a01b0316636c540baf6040518163ffffffff1660e01b815260040160206040518083038186803b1580156142b757600080fd5b505afa1580156142cb573d6000803e3d6000fd5b505050506040513d60208110156142e157600080fd5b5051146142f457611f6b600a6011612375565b856001600160a01b0316856001600160a01b0316141561431a57611f6b60066017612375565b8361432b57611f6b60076015612375565b60001984141561434157611f6b60076014612375565b600654604080517fc488847b0000000000000000000000000000000000000000000000000000000081523060048201526001600160a01b038681166024830152604482018890528251600094859492169263c488847b926064808301939192829003018186803b1580156143b457600080fd5b505afa1580156143c8573d6000803e3d6000fd5b505050506040513d60408110156143de57600080fd5b50805160209091015190925090508115614409576143ff6004601384612685565b9350505050610b25565b846001600160a01b03166370a08231886040518263ffffffff1660e01b815260040180826001600160a01b03166001600160a01b0316815260200191505060206040518083038186803b15801561445f57600080fd5b505afa158015614473573d6000803e3d6000fd5b505050506040513d602081101561448957600080fd5b505181111561449e576143ff600d601d612375565b60006144ab898989612c78565b905080156144d4576144c98160108111156144c257fe5b6018612375565b945050505050610b25565b604080517fb2a02ff10000000000000000000000000000000000000000000000000000000081526001600160a01b038b811660048301528a8116602483015260448201859052915160009289169163b2a02ff191606480830192602092919082900301818787803b15801561454857600080fd5b505af115801561455c573d6000803e3d6000fd5b505050506040513d602081101561457257600080fd5b5051905080156145c9576040805162461bcd60e51b815260206004820152601460248201527f746f6b656e207365697a757265206661696c6564000000000000000000000000604482015290519081900360640190fd5b604080516001600160a01b03808d168252808c1660208301528183018b9052891660608201526080810185905290517f298637f684da70674f26509b10f07ec2fbc77a335ab1e7d6215a4b2484d8bb529181900360a00190a1600654604080517f47ef3b3b0000000000000000000000000000000000000000000000000000000081523060048201526001600160a01b038a811660248301528d811660448301528c81166064830152608482018c905260a48201879052915191909216916347ef3b3b9160c480830192600092919082900301818387803b1580156146ad57600080fd5b505af11580156146c1573d6000803e3d6000fd5b50600092506146ce915050565b9a9950505050505050505050565b601254604080517fdd62ed3e0000000000000000000000000000000000000000000000000000000081526001600160a01b038581166004830152306024830152915160009392909216918491839163dd62ed3e91604480820192602092909190829003018186803b15801561475057600080fd5b505afa158015614764573d6000803e3d6000fd5b505050506040513d602081101561477a57600080fd5b5051101561478c57600c9150506108ef565b82816001600160a01b03166370a08231866040518263ffffffff1660e01b815260040180826001600160a01b03166001600160a01b0316815260200191505060206040518083038186803b1580156147e357600080fd5b505afa1580156147f7573d6000803e3d6000fd5b505050506040513d602081101561480d57600080fd5b5051101561481f57600d9150506108ef565b5060009392505050565b601254604080517f23b872dd0000000000000000000000000000000000000000000000000000000081526001600160a01b0385811660048301523060248301526044820185905291516000939290921691839183916323b872dd91606480820192869290919082900301818387803b1580156148a457600080fd5b505af11580156148b8573d6000803e3d6000fd5b505050503d600081146148d257602081146148dc57600080fd5b60001991506148e8565b60206000803e60005191505b50806132c457600f925050506108ef565b6000806000614906614910565b61229f86866127fc565b6040518060200160405280600081525090565b60408051610140810190915280600081526020016000815260200160008152602001600081526020016000815260200161495b614910565b8152602001600081526020016000815260200160008152602001600081525090565b6040805160e0810190915280600081526020016000815260200160008152602001600081526020016000815260200160008152602001600081525090565b6040805160c081019091528060008152602001600061495b565b6040805160a08101909152806000815260200160008152602001600081526020016000815260200160008152509056fe737570706c7952617465506572426c6f636b3a2063616c63756c6174696e6720626f72726f7773506572206661696c6564726564756365207265736572766573207472616e73666572206f7574206661696c6564737570706c7952617465506572426c6f636b3a2063616c63756c6174696e6720737570706c7952617465206661696c6564626f72726f7742616c616e636553746f7265643a20626f72726f7742616c616e636553746f726564496e7465726e616c206661696c6564737570706c7952617465506572426c6f636b3a2063616c63756c6174696e6720756e6465726c79696e67206661696c6564626f72726f7752617465506572426c6f636b3a20696e746572657374526174654d6f64656c2e626f72726f7752617465206661696c6564737570706c7952617465506572426c6f636b3a2063616c63756c6174696e6720626f72726f7752617465206661696c6564737570706c7952617465506572426c6f636b3a2063616c63756c6174696e67206f6e654d696e757352657365727665466163746f72206661696c656465786368616e67655261746553746f7265643a2065786368616e67655261746553746f726564496e7465726e616c206661696c65646f6e65206f662072656465656d546f6b656e73496e206f722072656465656d416d6f756e74496e206d757374206265207a65726f72656475636520726573657276657320756e657870656374656420756e646572666c6f77a265627a7a72315820e6c01522a26adf232cb20cb450128b03e609201254dfdc27f8af22318e7384ee64736f6c634300050c003253657474696e6720696e7465726573742072617465206d6f64656c206661696c6564496e697469616c2065786368616e67652072617465206d7573742062652067726561746572207468616e207a65726f2e",
  "source": "import './CToken.sol';\nimport './EIP20NonStandardInterface.sol';\n\npragma solidity ^0.5.8;\n\n\n/**\n * @title Compound's CErc20 Contract\n * @notice CTokens which wrap an EIP-20 underlying\n * @author Compound\n */\ncontract CErc20 is CToken {\n\n    /**\n     * @notice Underlying asset for this CToken\n     */\n    address public underlying;\n\n    /**\n     * @notice Construct a new money market\n     * @param underlying_ The address of the underlying asset\n     * @param comptroller_ The address of the Comptroller\n     * @param interestRateModel_ The address of the interest rate model\n     * @param initialExchangeRateMantissa_ The initial exchange rate, scaled by 1e18\n     * @param name_ ERC-20 name of this token\n     * @param symbol_ ERC-20 symbol of this token\n     * @param decimals_ ERC-20 decimal precision of this token\n     */\n    constructor(address underlying_,\n                ComptrollerInterface comptroller_,\n                InterestRateModel interestRateModel_,\n                uint initialExchangeRateMantissa_,\n                string memory name_,\n                string memory symbol_,\n                uint decimals_) public\n    CToken(comptroller_, interestRateModel_, initialExchangeRateMantissa_, name_, symbol_, decimals_) {\n        // Set underlying\n        underlying = underlying_;\n        EIP20Interface(underlying).totalSupply(); // Sanity check the underlying\n    }\n\n    /*** User Interface ***/\n\n    /**\n     * @notice Sender supplies assets into the market and receives cTokens in exchange\n     * @dev Accrues interest whether or not the operation succeeds, unless reverted\n     * @param mintAmount The amount of the underlying asset to supply\n     * @return uint 0=success, otherwise a failure (see ErrorReporter.sol for details)\n     */\n    function mint(uint mintAmount) external returns (uint) {\n        return mintInternal(mintAmount);\n    }\n\n    /**\n     * @notice Sender redeems cTokens in exchange for the underlying asset\n     * @dev Accrues interest whether or not the operation succeeds, unless reverted\n     * @param redeemTokens The number of cTokens to redeem into underlying\n     * @return uint 0=success, otherwise a failure (see ErrorReporter.sol for details)\n     */\n    function redeem(uint redeemTokens) external returns (uint) {\n        return redeemInternal(redeemTokens);\n    }\n\n    /**\n     * @notice Sender redeems cTokens in exchange for a specified amount of underlying asset\n     * @dev Accrues interest whether or not the operation succeeds, unless reverted\n     * @param redeemAmount The amount of underlying to redeem\n     * @return uint 0=success, otherwise a failure (see ErrorReporter.sol for details)\n     */\n    function redeemUnderlying(uint redeemAmount) external returns (uint) {\n        return redeemUnderlyingInternal(redeemAmount);\n    }\n\n    /**\n      * @notice Sender borrows assets from the protocol to their own address\n      * @param borrowAmount The amount of the underlying asset to borrow\n      * @return uint 0=success, otherwise a failure (see ErrorReporter.sol for details)\n      */\n    function borrow(uint borrowAmount) external returns (uint) {\n        return borrowInternal(borrowAmount);\n    }\n\n    /**\n     * @notice Sender repays their own borrow\n     * @param repayAmount The amount to repay\n     * @return uint 0=success, otherwise a failure (see ErrorReporter.sol for details)\n     */\n    function repayBorrow(uint repayAmount) external returns (uint) {\n        return repayBorrowInternal(repayAmount);\n    }\n\n    /**\n     * @notice Sender repays a borrow belonging to borrower\n     * @param borrower the account with the debt being payed off\n     * @param repayAmount The amount to repay\n     * @return uint 0=success, otherwise a failure (see ErrorReporter.sol for details)\n     */\n    function repayBorrowBehalf(address borrower, uint repayAmount) external returns (uint) {\n        return repayBorrowBehalfInternal(borrower, repayAmount);\n    }\n\n    /**\n     * @notice The sender liquidates the borrowers collateral.\n     *  The collateral seized is transferred to the liquidator.\n     * @param borrower The borrower of this cToken to be liquidated\n     * @param cTokenCollateral The market in which to seize collateral from the borrower\n     * @param repayAmount The amount of the underlying borrowed asset to repay\n     * @return uint 0=success, otherwise a failure (see ErrorReporter.sol for details)\n     */\n    function liquidateBorrow(address borrower, uint repayAmount, CToken cTokenCollateral) external returns (uint) {\n        return liquidateBorrowInternal(borrower, repayAmount, cTokenCollateral);\n    }\n\n    /*** Safe Token ***/\n\n    /**\n     * @notice Gets balance of this contract in terms of the underlying\n     * @dev This excludes the value of the current message, if any\n     * @return The quantity of underlying tokens owned by this contract\n     */\n    function getCashPrior() internal view returns (uint) {\n        EIP20Interface token = EIP20Interface(underlying);\n        return token.balanceOf(address(this));\n    }\n\n    /**\n     * @dev Checks whether or not there is sufficient allowance for this contract to move amount from `from` and\n     *      whether or not `from` has a balance of at least `amount`. Does NOT do a transfer.\n     */\n    function checkTransferIn(address from, uint amount) internal view returns (Error) {\n        EIP20Interface token = EIP20Interface(underlying);\n\n        if (token.allowance(from, address(this)) < amount) {\n            return Error.TOKEN_INSUFFICIENT_ALLOWANCE;\n        }\n\n        if (token.balanceOf(from) < amount) {\n            return Error.TOKEN_INSUFFICIENT_BALANCE;\n        }\n\n        return Error.NO_ERROR;\n    }\n\n    /**\n     * @dev Similar to EIP20 transfer, except it handles a False result from `transferFrom` and returns an explanatory\n     *      error code rather than reverting.  If caller has not called `checkTransferIn`, this may revert due to\n     *      insufficient balance or insufficient allowance. If caller has called `checkTransferIn` prior to this call,\n     *      and it returned Error.NO_ERROR, this should not revert in normal conditions.\n     *\n     *      Note: This wrapper safely handles non-standard ERC-20 tokens that do not return a value.\n     *            See here: https://medium.com/coinmonks/missing-return-value-bug-at-least-130-tokens-affected-d67bf08521ca\n     */\n    function doTransferIn(address from, uint amount) internal returns (Error) {\n        EIP20NonStandardInterface token = EIP20NonStandardInterface(underlying);\n        bool result;\n\n        token.transferFrom(from, address(this), amount);\n\n        // solium-disable-next-line security/no-inline-assembly\n        assembly {\n            switch returndatasize()\n                case 0 {                      // This is a non-standard ERC-20\n                    result := not(0)          // set result to true\n                }\n                case 32 {                     // This is a complaint ERC-20\n                    returndatacopy(0, 0, 32)\n                    result := mload(0)        // Set `result = returndata` of external call\n                }\n                default {                     // This is an excessively non-compliant ERC-20, revert.\n                    revert(0, 0)\n                }\n        }\n\n        if (!result) {\n            return Error.TOKEN_TRANSFER_IN_FAILED;\n        }\n\n        return Error.NO_ERROR;\n    }\n\n    /**\n     * @dev Similar to EIP20 transfer, except it handles a False result from `transfer` and returns an explanatory\n     *      error code rather than reverting. If caller has not called checked protocol's balance, this may revert due to\n     *      insufficient cash held in this contract. If caller has checked protocol's balance prior to this call, and verified\n     *      it is >= amount, this should not revert in normal conditions.\n     *\n     *      Note: This wrapper safely handles non-standard ERC-20 tokens that do not return a value.\n     *            See here: https://medium.com/coinmonks/missing-return-value-bug-at-least-130-tokens-affected-d67bf08521ca\n     */\n    function doTransferOut(address payable to, uint amount) internal returns (Error) {\n        EIP20NonStandardInterface token = EIP20NonStandardInterface(underlying);\n        bool result;\n\n        token.transfer(to, amount);\n\n        // solium-disable-next-line security/no-inline-assembly\n        assembly {\n            switch returndatasize()\n                case 0 {                      // This is a non-standard ERC-20\n                    result := not(0)          // set result to true\n                }\n                case 32 {                     // This is a complaint ERC-20\n                    returndatacopy(0, 0, 32)\n                    result := mload(0)        // Set `result = returndata` of external call\n                }\n                default {                     // This is an excessively non-compliant ERC-20, revert.\n                    revert(0, 0)\n                }\n        }\n\n        if (!result) {\n            return Error.TOKEN_TRANSFER_OUT_FAILED;\n        }\n\n        return Error.NO_ERROR;\n    }\n}\n",
  "sourcePath": "/Users/shain/repositories/insta-wealth/contracts/Compound/CErc20.sol",
  "compiler": {
    "name": "solc",
    "version": "0.5.12+commit.7709ece9.Emscripten.clang"
  },
  "schemaVersion": "3.0.16",
  "updatedAt": "2019-10-22T23:22:54.469Z",
  "devdoc": {
    "author": "Compound",
    "methods": {
      "_acceptAdmin()": {
        "details": "Admin function for pending admin to accept role and update admin",
        "return": "uint 0=success, otherwise a failure (see ErrorReporter.sol for details)"
      },
      "_reduceReserves(uint256)": {
        "params": {
          "reduceAmount": "Amount of reduction to reserves"
        },
        "return": "uint 0=success, otherwise a failure (see ErrorReporter.sol for details)"
      },
      "_setComptroller(address)": {
        "details": "Admin function to set a new comptroller",
        "return": "uint 0=success, otherwise a failure (see ErrorReporter.sol for details)"
      },
      "_setInterestRateModel(address)": {
        "details": "Admin function to accrue interest and update the interest rate model",
        "params": {
          "newInterestRateModel": "the new interest rate model to use"
        },
        "return": "uint 0=success, otherwise a failure (see ErrorReporter.sol for details)"
      },
      "_setPendingAdmin(address)": {
        "details": "Admin function to begin change of admin. The newPendingAdmin must call `_acceptAdmin` to finalize the transfer.",
        "params": {
          "newPendingAdmin": "New pending admin."
        },
        "return": "uint 0=success, otherwise a failure (see ErrorReporter.sol for details)      * TODO: Should we add a second arg to verify, like a checksum of `newAdmin` address?"
      },
      "_setReserveFactor(uint256)": {
        "details": "Admin function to accrue interest and set a new reserve factor",
        "return": "uint 0=success, otherwise a failure (see ErrorReporter.sol for details)"
      },
      "accrueInterest()": {
        "details": "This calculates interest accrued from the last checkpointed block     up to the current block and writes new checkpoint to storage."
      },
      "allowance(address,address)": {
        "params": {
          "owner": "The address of the account which owns the tokens to be spent",
          "spender": "The address of the account which may transfer tokens"
        },
        "return": "The number of tokens allowed to be spent (-1 means infinite)"
      },
      "approve(address,uint256)": {
        "details": "This will overwrite the approval amount for `spender` and is subject to issues noted [here](https://eips.ethereum.org/EIPS/eip-20#approve)",
        "params": {
          "amount": "The number of tokens that are approved (-1 means infinite)",
          "spender": "The address of the account which may transfer tokens"
        },
        "return": "Whether or not the approval succeeded"
      },
      "balanceOf(address)": {
        "params": {
          "owner": "The address of the account to query"
        },
        "return": "The number of tokens owned by `owner`"
      },
      "balanceOfUnderlying(address)": {
        "details": "This also accrues interest in a transaction",
        "params": {
          "owner": "The address of the account to query"
        },
        "return": "The amount of underlying owned by `owner`"
      },
      "borrow(uint256)": {
        "params": {
          "borrowAmount": "The amount of the underlying asset to borrow"
        },
        "return": "uint 0=success, otherwise a failure (see ErrorReporter.sol for details)"
      },
      "borrowBalanceCurrent(address)": {
        "params": {
          "account": "The address whose balance should be calculated after updating borrowIndex"
        },
        "return": "The calculated balance"
      },
      "borrowBalanceStored(address)": {
        "params": {
          "account": "The address whose balance should be calculated"
        },
        "return": "The calculated balance"
      },
      "borrowRatePerBlock()": {
        "return": "The borrow interest rate per block, scaled by 1e18"
      },
      "constructor": {
        "params": {
          "comptroller_": "The address of the Comptroller",
          "decimals_": "ERC-20 decimal precision of this token",
          "initialExchangeRateMantissa_": "The initial exchange rate, scaled by 1e18",
          "interestRateModel_": "The address of the interest rate model",
          "name_": "ERC-20 name of this token",
          "symbol_": "ERC-20 symbol of this token",
          "underlying_": "The address of the underlying asset"
        }
      },
      "exchangeRateCurrent()": {
        "return": "Calculated exchange rate scaled by 1e18"
      },
      "exchangeRateStored()": {
        "details": "This function does not accrue interest before calculating the exchange rate",
        "return": "Calculated exchange rate scaled by 1e18"
      },
      "getAccountSnapshot(address)": {
        "details": "This is used by comptroller to more efficiently perform liquidity checks.",
        "params": {
          "account": "Address of the account to snapshot"
        },
        "return": "(possible error, token balance, borrow balance, exchange rate mantissa)"
      },
      "getCash()": {
        "return": "The quantity of underlying asset owned by this contract"
      },
      "liquidateBorrow(address,uint256,address)": {
        "params": {
          "borrower": "The borrower of this cToken to be liquidated",
          "cTokenCollateral": "The market in which to seize collateral from the borrower",
          "repayAmount": "The amount of the underlying borrowed asset to repay"
        },
        "return": "uint 0=success, otherwise a failure (see ErrorReporter.sol for details)"
      },
      "mint(uint256)": {
        "details": "Accrues interest whether or not the operation succeeds, unless reverted",
        "params": {
          "mintAmount": "The amount of the underlying asset to supply"
        },
        "return": "uint 0=success, otherwise a failure (see ErrorReporter.sol for details)"
      },
      "redeem(uint256)": {
        "details": "Accrues interest whether or not the operation succeeds, unless reverted",
        "params": {
          "redeemTokens": "The number of cTokens to redeem into underlying"
        },
        "return": "uint 0=success, otherwise a failure (see ErrorReporter.sol for details)"
      },
      "redeemUnderlying(uint256)": {
        "details": "Accrues interest whether or not the operation succeeds, unless reverted",
        "params": {
          "redeemAmount": "The amount of underlying to redeem"
        },
        "return": "uint 0=success, otherwise a failure (see ErrorReporter.sol for details)"
      },
      "repayBorrow(uint256)": {
        "params": {
          "repayAmount": "The amount to repay"
        },
        "return": "uint 0=success, otherwise a failure (see ErrorReporter.sol for details)"
      },
      "repayBorrowBehalf(address,uint256)": {
        "params": {
          "borrower": "the account with the debt being payed off",
          "repayAmount": "The amount to repay"
        },
        "return": "uint 0=success, otherwise a failure (see ErrorReporter.sol for details)"
      },
      "seize(address,address,uint256)": {
        "details": "Will fail unless called by another cToken during the process of liquidation. Its absolutely critical to use msg.sender as the borrowed cToken and not a parameter.",
        "params": {
          "borrower": "The account having collateral seized",
          "liquidator": "The account receiving seized collateral",
          "seizeTokens": "The number of cTokens to seize"
        },
        "return": "uint 0=success, otherwise a failure (see ErrorReporter.sol for details)"
      },
      "supplyRatePerBlock()": {
        "return": "The supply interest rate per block, scaled by 1e18"
      },
      "totalBorrowsCurrent()": {
        "return": "The total borrows with interest"
      },
      "transfer(address,uint256)": {
        "params": {
          "amount": "The number of tokens to transfer",
          "dst": "The address of the destination account"
        },
        "return": "Whether or not the transfer succeeded"
      },
      "transferFrom(address,address,uint256)": {
        "params": {
          "amount": "The number of tokens to transfer",
          "dst": "The address of the destination account",
          "src": "The address of the source account"
        },
        "return": "Whether or not the transfer succeeded"
      }
    },
    "title": "Compound's CErc20 Contract"
  },
  "userdoc": {
    "methods": {
      "_acceptAdmin()": {
        "notice": "Accepts transfer of admin rights. msg.sender must be pendingAdmin"
      },
      "_reduceReserves(uint256)": {
        "notice": "Accrues interest and reduces reserves by transferring to admin"
      },
      "_setComptroller(address)": {
        "notice": "Sets a new comptroller for the market"
      },
      "_setInterestRateModel(address)": {
        "notice": "accrues interest and updates the interest rate model using _setInterestRateModelFresh"
      },
      "_setPendingAdmin(address)": {
        "notice": "Begins transfer of admin rights. The newPendingAdmin must call `_acceptAdmin` to finalize the transfer."
      },
      "_setReserveFactor(uint256)": {
        "notice": "accrues interest and sets a new reserve factor for the protocol using _setReserveFactorFresh"
      },
      "accrueInterest()": {
        "notice": "Applies accrued interest to total borrows and reserves."
      },
      "allowance(address,address)": {
        "notice": "Get the current allowance from `owner` for `spender`"
      },
      "approve(address,uint256)": {
        "notice": "Approve `spender` to transfer up to `amount` from `src`"
      },
      "balanceOf(address)": {
        "notice": "Get the token balance of the `owner`"
      },
      "balanceOfUnderlying(address)": {
        "notice": "Get the underlying balance of the `owner`"
      },
      "borrow(uint256)": {
        "notice": "Sender borrows assets from the protocol to their own address"
      },
      "borrowBalanceCurrent(address)": {
        "notice": "Accrue interest to updated borrowIndex and then calculate account's borrow balance using the updated borrowIndex"
      },
      "borrowBalanceStored(address)": {
        "notice": "Return the borrow balance of account based on stored data"
      },
      "borrowRatePerBlock()": {
        "notice": "Returns the current per-block borrow interest rate for this cToken"
      },
      "constructor": "Construct a new money market",
      "exchangeRateCurrent()": {
        "notice": "Accrue interest then return the up-to-date exchange rate"
      },
      "exchangeRateStored()": {
        "notice": "Calculates the exchange rate from the underlying to the CToken"
      },
      "getAccountSnapshot(address)": {
        "notice": "Get a snapshot of the account's balances, and the cached exchange rate"
      },
      "getCash()": {
        "notice": "Get cash balance of this cToken in the underlying asset"
      },
      "liquidateBorrow(address,uint256,address)": {
        "notice": "The sender liquidates the borrowers collateral. The collateral seized is transferred to the liquidator."
      },
      "mint(uint256)": {
        "notice": "Sender supplies assets into the market and receives cTokens in exchange"
      },
      "redeem(uint256)": {
        "notice": "Sender redeems cTokens in exchange for the underlying asset"
      },
      "redeemUnderlying(uint256)": {
        "notice": "Sender redeems cTokens in exchange for a specified amount of underlying asset"
      },
      "repayBorrow(uint256)": {
        "notice": "Sender repays their own borrow"
      },
      "repayBorrowBehalf(address,uint256)": {
        "notice": "Sender repays a borrow belonging to borrower"
      },
      "seize(address,address,uint256)": {
        "notice": "Transfers collateral tokens (this market) to the liquidator."
      },
      "supplyRatePerBlock()": {
        "notice": "Returns the current per-block supply interest rate for this cToken"
      },
      "totalBorrowsCurrent()": {
        "notice": "Returns the current total borrows plus accrued interest"
      },
      "transfer(address,uint256)": {
        "notice": "Transfer `amount` tokens from `msg.sender` to `dst`"
      },
      "transferFrom(address,address,uint256)": {
        "notice": "Transfer `amount` tokens from `src` to `dst`"
      }
    },
    "notice": "CTokens which wrap an EIP-20 underlying"
  }
}