{
  "contractName": "CEther",
  "abi": [
    {
      "inputs": [
        {
          "internalType": "contract ComptrollerInterface",
          "name": "comptroller_",
          "type": "address"
        },
        {
          "internalType": "contract InterestRateModel",
          "name": "interestRateModel_",
          "type": "address"
        },
        {
          "internalType": "uint256",
          "name": "initialExchangeRateMantissa_",
          "type": "uint256"
        },
        {
          "internalType": "string",
          "name": "name_",
          "type": "string"
        },
        {
          "internalType": "string",
          "name": "symbol_",
          "type": "string"
        },
        {
          "internalType": "uint256",
          "name": "decimals_",
          "type": "uint256"
        }
      ],
      "payable": false,
      "stateMutability": "nonpayable",
      "type": "constructor"
    },
    {
      "anonymous": false,
      "inputs": [
        {
          "indexed": false,
          "internalType": "uint256",
          "name": "interestAccumulated",
          "type": "uint256"
        },
        {
          "indexed": false,
          "internalType": "uint256",
          "name": "borrowIndex",
          "type": "uint256"
        },
        {
          "indexed": false,
          "internalType": "uint256",
          "name": "totalBorrows",
          "type": "uint256"
        }
      ],
      "name": "AccrueInterest",
      "type": "event"
    },
    {
      "anonymous": false,
      "inputs": [
        {
          "indexed": true,
          "internalType": "address",
          "name": "owner",
          "type": "address"
        },
        {
          "indexed": true,
          "internalType": "address",
          "name": "spender",
          "type": "address"
        },
        {
          "indexed": false,
          "internalType": "uint256",
          "name": "amount",
          "type": "uint256"
        }
      ],
      "name": "Approval",
      "type": "event"
    },
    {
      "anonymous": false,
      "inputs": [
        {
          "indexed": false,
          "internalType": "address",
          "name": "borrower",
          "type": "address"
        },
        {
          "indexed": false,
          "internalType": "uint256",
          "name": "borrowAmount",
          "type": "uint256"
        },
        {
          "indexed": false,
          "internalType": "uint256",
          "name": "accountBorrows",
          "type": "uint256"
        },
        {
          "indexed": false,
          "internalType": "uint256",
          "name": "totalBorrows",
          "type": "uint256"
        }
      ],
      "name": "Borrow",
      "type": "event"
    },
    {
      "anonymous": false,
      "inputs": [
        {
          "indexed": false,
          "internalType": "uint256",
          "name": "error",
          "type": "uint256"
        },
        {
          "indexed": false,
          "internalType": "uint256",
          "name": "info",
          "type": "uint256"
        },
        {
          "indexed": false,
          "internalType": "uint256",
          "name": "detail",
          "type": "uint256"
        }
      ],
      "name": "Failure",
      "type": "event"
    },
    {
      "anonymous": false,
      "inputs": [
        {
          "indexed": false,
          "internalType": "address",
          "name": "liquidator",
          "type": "address"
        },
        {
          "indexed": false,
          "internalType": "address",
          "name": "borrower",
          "type": "address"
        },
        {
          "indexed": false,
          "internalType": "uint256",
          "name": "repayAmount",
          "type": "uint256"
        },
        {
          "indexed": false,
          "internalType": "address",
          "name": "cTokenCollateral",
          "type": "address"
        },
        {
          "indexed": false,
          "internalType": "uint256",
          "name": "seizeTokens",
          "type": "uint256"
        }
      ],
      "name": "LiquidateBorrow",
      "type": "event"
    },
    {
      "anonymous": false,
      "inputs": [
        {
          "indexed": false,
          "internalType": "address",
          "name": "minter",
          "type": "address"
        },
        {
          "indexed": false,
          "internalType": "uint256",
          "name": "mintAmount",
          "type": "uint256"
        },
        {
          "indexed": false,
          "internalType": "uint256",
          "name": "mintTokens",
          "type": "uint256"
        }
      ],
      "name": "Mint",
      "type": "event"
    },
    {
      "anonymous": false,
      "inputs": [
        {
          "indexed": false,
          "internalType": "address",
          "name": "oldAdmin",
          "type": "address"
        },
        {
          "indexed": false,
          "internalType": "address",
          "name": "newAdmin",
          "type": "address"
        }
      ],
      "name": "NewAdmin",
      "type": "event"
    },
    {
      "anonymous": false,
      "inputs": [
        {
          "indexed": false,
          "internalType": "contract ComptrollerInterface",
          "name": "oldComptroller",
          "type": "address"
        },
        {
          "indexed": false,
          "internalType": "contract ComptrollerInterface",
          "name": "newComptroller",
          "type": "address"
        }
      ],
      "name": "NewComptroller",
      "type": "event"
    },
    {
      "anonymous": false,
      "inputs": [
        {
          "indexed": false,
          "internalType": "contract InterestRateModel",
          "name": "oldInterestRateModel",
          "type": "address"
        },
        {
          "indexed": false,
          "internalType": "contract InterestRateModel",
          "name": "newInterestRateModel",
          "type": "address"
        }
      ],
      "name": "NewMarketInterestRateModel",
      "type": "event"
    },
    {
      "anonymous": false,
      "inputs": [
        {
          "indexed": false,
          "internalType": "address",
          "name": "oldPendingAdmin",
          "type": "address"
        },
        {
          "indexed": false,
          "internalType": "address",
          "name": "newPendingAdmin",
          "type": "address"
        }
      ],
      "name": "NewPendingAdmin",
      "type": "event"
    },
    {
      "anonymous": false,
      "inputs": [
        {
          "indexed": false,
          "internalType": "uint256",
          "name": "oldReserveFactorMantissa",
          "type": "uint256"
        },
        {
          "indexed": false,
          "internalType": "uint256",
          "name": "newReserveFactorMantissa",
          "type": "uint256"
        }
      ],
      "name": "NewReserveFactor",
      "type": "event"
    },
    {
      "anonymous": false,
      "inputs": [
        {
          "indexed": false,
          "internalType": "address",
          "name": "redeemer",
          "type": "address"
        },
        {
          "indexed": false,
          "internalType": "uint256",
          "name": "redeemAmount",
          "type": "uint256"
        },
        {
          "indexed": false,
          "internalType": "uint256",
          "name": "redeemTokens",
          "type": "uint256"
        }
      ],
      "name": "Redeem",
      "type": "event"
    },
    {
      "anonymous": false,
      "inputs": [
        {
          "indexed": false,
          "internalType": "address",
          "name": "payer",
          "type": "address"
        },
        {
          "indexed": false,
          "internalType": "address",
          "name": "borrower",
          "type": "address"
        },
        {
          "indexed": false,
          "internalType": "uint256",
          "name": "repayAmount",
          "type": "uint256"
        },
        {
          "indexed": false,
          "internalType": "uint256",
          "name": "accountBorrows",
          "type": "uint256"
        },
        {
          "indexed": false,
          "internalType": "uint256",
          "name": "totalBorrows",
          "type": "uint256"
        }
      ],
      "name": "RepayBorrow",
      "type": "event"
    },
    {
      "anonymous": false,
      "inputs": [
        {
          "indexed": false,
          "internalType": "address",
          "name": "admin",
          "type": "address"
        },
        {
          "indexed": false,
          "internalType": "uint256",
          "name": "reduceAmount",
          "type": "uint256"
        },
        {
          "indexed": false,
          "internalType": "uint256",
          "name": "newTotalReserves",
          "type": "uint256"
        }
      ],
      "name": "ReservesReduced",
      "type": "event"
    },
    {
      "anonymous": false,
      "inputs": [
        {
          "indexed": true,
          "internalType": "address",
          "name": "from",
          "type": "address"
        },
        {
          "indexed": true,
          "internalType": "address",
          "name": "to",
          "type": "address"
        },
        {
          "indexed": false,
          "internalType": "uint256",
          "name": "amount",
          "type": "uint256"
        }
      ],
      "name": "Transfer",
      "type": "event"
    },
    {
      "payable": true,
      "stateMutability": "payable",
      "type": "fallback"
    },
    {
      "constant": false,
      "inputs": [],
      "name": "_acceptAdmin",
      "outputs": [
        {
          "internalType": "uint256",
          "name": "",
          "type": "uint256"
        }
      ],
      "payable": false,
      "stateMutability": "nonpayable",
      "type": "function"
    },
    {
      "constant": false,
      "inputs": [
        {
          "internalType": "uint256",
          "name": "reduceAmount",
          "type": "uint256"
        }
      ],
      "name": "_reduceReserves",
      "outputs": [
        {
          "internalType": "uint256",
          "name": "",
          "type": "uint256"
        }
      ],
      "payable": false,
      "stateMutability": "nonpayable",
      "type": "function"
    },
    {
      "constant": false,
      "inputs": [
        {
          "internalType": "contract ComptrollerInterface",
          "name": "newComptroller",
          "type": "address"
        }
      ],
      "name": "_setComptroller",
      "outputs": [
        {
          "internalType": "uint256",
          "name": "",
          "type": "uint256"
        }
      ],
      "payable": false,
      "stateMutability": "nonpayable",
      "type": "function"
    },
    {
      "constant": false,
      "inputs": [
        {
          "internalType": "contract InterestRateModel",
          "name": "newInterestRateModel",
          "type": "address"
        }
      ],
      "name": "_setInterestRateModel",
      "outputs": [
        {
          "internalType": "uint256",
          "name": "",
          "type": "uint256"
        }
      ],
      "payable": false,
      "stateMutability": "nonpayable",
      "type": "function"
    },
    {
      "constant": false,
      "inputs": [
        {
          "internalType": "address payable",
          "name": "newPendingAdmin",
          "type": "address"
        }
      ],
      "name": "_setPendingAdmin",
      "outputs": [
        {
          "internalType": "uint256",
          "name": "",
          "type": "uint256"
        }
      ],
      "payable": false,
      "stateMutability": "nonpayable",
      "type": "function"
    },
    {
      "constant": false,
      "inputs": [
        {
          "internalType": "uint256",
          "name": "newReserveFactorMantissa",
          "type": "uint256"
        }
      ],
      "name": "_setReserveFactor",
      "outputs": [
        {
          "internalType": "uint256",
          "name": "",
          "type": "uint256"
        }
      ],
      "payable": false,
      "stateMutability": "nonpayable",
      "type": "function"
    },
    {
      "constant": true,
      "inputs": [],
      "name": "accrualBlockNumber",
      "outputs": [
        {
          "internalType": "uint256",
          "name": "",
          "type": "uint256"
        }
      ],
      "payable": false,
      "stateMutability": "view",
      "type": "function"
    },
    {
      "constant": false,
      "inputs": [],
      "name": "accrueInterest",
      "outputs": [
        {
          "internalType": "uint256",
          "name": "",
          "type": "uint256"
        }
      ],
      "payable": false,
      "stateMutability": "nonpayable",
      "type": "function"
    },
    {
      "constant": true,
      "inputs": [],
      "name": "admin",
      "outputs": [
        {
          "internalType": "address payable",
          "name": "",
          "type": "address"
        }
      ],
      "payable": false,
      "stateMutability": "view",
      "type": "function"
    },
    {
      "constant": true,
      "inputs": [
        {
          "internalType": "address",
          "name": "owner",
          "type": "address"
        },
        {
          "internalType": "address",
          "name": "spender",
          "type": "address"
        }
      ],
      "name": "allowance",
      "outputs": [
        {
          "internalType": "uint256",
          "name": "",
          "type": "uint256"
        }
      ],
      "payable": false,
      "stateMutability": "view",
      "type": "function"
    },
    {
      "constant": false,
      "inputs": [
        {
          "internalType": "address",
          "name": "spender",
          "type": "address"
        },
        {
          "internalType": "uint256",
          "name": "amount",
          "type": "uint256"
        }
      ],
      "name": "approve",
      "outputs": [
        {
          "internalType": "bool",
          "name": "",
          "type": "bool"
        }
      ],
      "payable": false,
      "stateMutability": "nonpayable",
      "type": "function"
    },
    {
      "constant": true,
      "inputs": [
        {
          "internalType": "address",
          "name": "owner",
          "type": "address"
        }
      ],
      "name": "balanceOf",
      "outputs": [
        {
          "internalType": "uint256",
          "name": "",
          "type": "uint256"
        }
      ],
      "payable": false,
      "stateMutability": "view",
      "type": "function"
    },
    {
      "constant": false,
      "inputs": [
        {
          "internalType": "address",
          "name": "owner",
          "type": "address"
        }
      ],
      "name": "balanceOfUnderlying",
      "outputs": [
        {
          "internalType": "uint256",
          "name": "",
          "type": "uint256"
        }
      ],
      "payable": false,
      "stateMutability": "nonpayable",
      "type": "function"
    },
    {
      "constant": false,
      "inputs": [
        {
          "internalType": "address",
          "name": "account",
          "type": "address"
        }
      ],
      "name": "borrowBalanceCurrent",
      "outputs": [
        {
          "internalType": "uint256",
          "name": "",
          "type": "uint256"
        }
      ],
      "payable": false,
      "stateMutability": "nonpayable",
      "type": "function"
    },
    {
      "constant": true,
      "inputs": [
        {
          "internalType": "address",
          "name": "account",
          "type": "address"
        }
      ],
      "name": "borrowBalanceStored",
      "outputs": [
        {
          "internalType": "uint256",
          "name": "",
          "type": "uint256"
        }
      ],
      "payable": false,
      "stateMutability": "view",
      "type": "function"
    },
    {
      "constant": true,
      "inputs": [],
      "name": "borrowIndex",
      "outputs": [
        {
          "internalType": "uint256",
          "name": "",
          "type": "uint256"
        }
      ],
      "payable": false,
      "stateMutability": "view",
      "type": "function"
    },
    {
      "constant": true,
      "inputs": [],
      "name": "borrowRatePerBlock",
      "outputs": [
        {
          "internalType": "uint256",
          "name": "",
          "type": "uint256"
        }
      ],
      "payable": false,
      "stateMutability": "view",
      "type": "function"
    },
    {
      "constant": true,
      "inputs": [],
      "name": "comptroller",
      "outputs": [
        {
          "internalType": "contract ComptrollerInterface",
          "name": "",
          "type": "address"
        }
      ],
      "payable": false,
      "stateMutability": "view",
      "type": "function"
    },
    {
      "constant": true,
      "inputs": [],
      "name": "decimals",
      "outputs": [
        {
          "internalType": "uint256",
          "name": "",
          "type": "uint256"
        }
      ],
      "payable": false,
      "stateMutability": "view",
      "type": "function"
    },
    {
      "constant": false,
      "inputs": [],
      "name": "exchangeRateCurrent",
      "outputs": [
        {
          "internalType": "uint256",
          "name": "",
          "type": "uint256"
        }
      ],
      "payable": false,
      "stateMutability": "nonpayable",
      "type": "function"
    },
    {
      "constant": true,
      "inputs": [],
      "name": "exchangeRateStored",
      "outputs": [
        {
          "internalType": "uint256",
          "name": "",
          "type": "uint256"
        }
      ],
      "payable": false,
      "stateMutability": "view",
      "type": "function"
    },
    {
      "constant": true,
      "inputs": [
        {
          "internalType": "address",
          "name": "account",
          "type": "address"
        }
      ],
      "name": "getAccountSnapshot",
      "outputs": [
        {
          "internalType": "uint256",
          "name": "",
          "type": "uint256"
        },
        {
          "internalType": "uint256",
          "name": "",
          "type": "uint256"
        },
        {
          "internalType": "uint256",
          "name": "",
          "type": "uint256"
        },
        {
          "internalType": "uint256",
          "name": "",
          "type": "uint256"
        }
      ],
      "payable": false,
      "stateMutability": "view",
      "type": "function"
    },
    {
      "constant": true,
      "inputs": [],
      "name": "getCash",
      "outputs": [
        {
          "internalType": "uint256",
          "name": "",
          "type": "uint256"
        }
      ],
      "payable": false,
      "stateMutability": "view",
      "type": "function"
    },
    {
      "constant": true,
      "inputs": [],
      "name": "initialExchangeRateMantissa",
      "outputs": [
        {
          "internalType": "uint256",
          "name": "",
          "type": "uint256"
        }
      ],
      "payable": false,
      "stateMutability": "view",
      "type": "function"
    },
    {
      "constant": true,
      "inputs": [],
      "name": "interestRateModel",
      "outputs": [
        {
          "internalType": "contract InterestRateModel",
          "name": "",
          "type": "address"
        }
      ],
      "payable": false,
      "stateMutability": "view",
      "type": "function"
    },
    {
      "constant": true,
      "inputs": [],
      "name": "isCToken",
      "outputs": [
        {
          "internalType": "bool",
          "name": "",
          "type": "bool"
        }
      ],
      "payable": false,
      "stateMutability": "view",
      "type": "function"
    },
    {
      "constant": true,
      "inputs": [],
      "name": "name",
      "outputs": [
        {
          "internalType": "string",
          "name": "",
          "type": "string"
        }
      ],
      "payable": false,
      "stateMutability": "view",
      "type": "function"
    },
    {
      "constant": true,
      "inputs": [],
      "name": "pendingAdmin",
      "outputs": [
        {
          "internalType": "address payable",
          "name": "",
          "type": "address"
        }
      ],
      "payable": false,
      "stateMutability": "view",
      "type": "function"
    },
    {
      "constant": true,
      "inputs": [],
      "name": "reserveFactorMantissa",
      "outputs": [
        {
          "internalType": "uint256",
          "name": "",
          "type": "uint256"
        }
      ],
      "payable": false,
      "stateMutability": "view",
      "type": "function"
    },
    {
      "constant": false,
      "inputs": [
        {
          "internalType": "address",
          "name": "liquidator",
          "type": "address"
        },
        {
          "internalType": "address",
          "name": "borrower",
          "type": "address"
        },
        {
          "internalType": "uint256",
          "name": "seizeTokens",
          "type": "uint256"
        }
      ],
      "name": "seize",
      "outputs": [
        {
          "internalType": "uint256",
          "name": "",
          "type": "uint256"
        }
      ],
      "payable": false,
      "stateMutability": "nonpayable",
      "type": "function"
    },
    {
      "constant": true,
      "inputs": [],
      "name": "supplyRatePerBlock",
      "outputs": [
        {
          "internalType": "uint256",
          "name": "",
          "type": "uint256"
        }
      ],
      "payable": false,
      "stateMutability": "view",
      "type": "function"
    },
    {
      "constant": true,
      "inputs": [],
      "name": "symbol",
      "outputs": [
        {
          "internalType": "string",
          "name": "",
          "type": "string"
        }
      ],
      "payable": false,
      "stateMutability": "view",
      "type": "function"
    },
    {
      "constant": true,
      "inputs": [],
      "name": "totalBorrows",
      "outputs": [
        {
          "internalType": "uint256",
          "name": "",
          "type": "uint256"
        }
      ],
      "payable": false,
      "stateMutability": "view",
      "type": "function"
    },
    {
      "constant": false,
      "inputs": [],
      "name": "totalBorrowsCurrent",
      "outputs": [
        {
          "internalType": "uint256",
          "name": "",
          "type": "uint256"
        }
      ],
      "payable": false,
      "stateMutability": "nonpayable",
      "type": "function"
    },
    {
      "constant": true,
      "inputs": [],
      "name": "totalReserves",
      "outputs": [
        {
          "internalType": "uint256",
          "name": "",
          "type": "uint256"
        }
      ],
      "payable": false,
      "stateMutability": "view",
      "type": "function"
    },
    {
      "constant": true,
      "inputs": [],
      "name": "totalSupply",
      "outputs": [
        {
          "internalType": "uint256",
          "name": "",
          "type": "uint256"
        }
      ],
      "payable": false,
      "stateMutability": "view",
      "type": "function"
    },
    {
      "constant": false,
      "inputs": [
        {
          "internalType": "address",
          "name": "dst",
          "type": "address"
        },
        {
          "internalType": "uint256",
          "name": "amount",
          "type": "uint256"
        }
      ],
      "name": "transfer",
      "outputs": [
        {
          "internalType": "bool",
          "name": "",
          "type": "bool"
        }
      ],
      "payable": false,
      "stateMutability": "nonpayable",
      "type": "function"
    },
    {
      "constant": false,
      "inputs": [
        {
          "internalType": "address",
          "name": "src",
          "type": "address"
        },
        {
          "internalType": "address",
          "name": "dst",
          "type": "address"
        },
        {
          "internalType": "uint256",
          "name": "amount",
          "type": "uint256"
        }
      ],
      "name": "transferFrom",
      "outputs": [
        {
          "internalType": "bool",
          "name": "",
          "type": "bool"
        }
      ],
      "payable": false,
      "stateMutability": "nonpayable",
      "type": "function"
    },
    {
      "constant": false,
      "inputs": [],
      "name": "mint",
      "outputs": [],
      "payable": true,
      "stateMutability": "payable",
      "type": "function"
    },
    {
      "constant": false,
      "inputs": [
        {
          "internalType": "uint256",
          "name": "redeemTokens",
          "type": "uint256"
        }
      ],
      "name": "redeem",
      "outputs": [
        {
          "internalType": "uint256",
          "name": "",
          "type": "uint256"
        }
      ],
      "payable": false,
      "stateMutability": "nonpayable",
      "type": "function"
    },
    {
      "constant": false,
      "inputs": [
        {
          "internalType": "uint256",
          "name": "redeemAmount",
          "type": "uint256"
        }
      ],
      "name": "redeemUnderlying",
      "outputs": [
        {
          "internalType": "uint256",
          "name": "",
          "type": "uint256"
        }
      ],
      "payable": false,
      "stateMutability": "nonpayable",
      "type": "function"
    },
    {
      "constant": false,
      "inputs": [
        {
          "internalType": "uint256",
          "name": "borrowAmount",
          "type": "uint256"
        }
      ],
      "name": "borrow",
      "outputs": [
        {
          "internalType": "uint256",
          "name": "",
          "type": "uint256"
        }
      ],
      "payable": false,
      "stateMutability": "nonpayable",
      "type": "function"
    },
    {
      "constant": false,
      "inputs": [],
      "name": "repayBorrow",
      "outputs": [],
      "payable": true,
      "stateMutability": "payable",
      "type": "function"
    },
    {
      "constant": false,
      "inputs": [
        {
          "internalType": "address",
          "name": "borrower",
          "type": "address"
        }
      ],
      "name": "repayBorrowBehalf",
      "outputs": [],
      "payable": true,
      "stateMutability": "payable",
      "type": "function"
    },
    {
      "constant": false,
      "inputs": [
        {
          "internalType": "address",
          "name": "borrower",
          "type": "address"
        },
        {
          "internalType": "contract CToken",
          "name": "cTokenCollateral",
          "type": "address"
        }
      ],
      "name": "liquidateBorrow",
      "outputs": [],
      "payable": true,
      "stateMutability": "payable",
      "type": "function"
    }
  ],
  "bytecode": "0x60806040523480156200001157600080fd5b506040516200570938038062005709833981810160405260c08110156200003757600080fd5b8151602083015160408085015160608601805192519496939591949391820192846401000000008211156200006b57600080fd5b9083019060208201858111156200008157600080fd5b82516401000000008111828201881017156200009c57600080fd5b82525081516020918201929091019080838360005b83811015620000cb578181015183820152602001620000b1565b50505050905090810190601f168015620000f95780820380516001836020036101000a031916815260200191505b50604052602001805160405193929190846401000000008211156200011d57600080fd5b9083019060208201858111156200013357600080fd5b82516401000000008111828201881017156200014e57600080fd5b82525081516020918201929091019080838360005b838110156200017d57818101518382015260200162000163565b50505050905090810190601f168015620001ab5780820380516001836020036101000a031916815260200191505b50604052602001516001600055600480546001600160a01b031916331790556008869055915086905085858585858362000231576040517f08c379a0000000000000000000000000000000000000000000000000000000008152600401808060200182810382526030815260200180620056d96030913960400191505060405180910390fd5b600062000247876001600160e01b036200038a16565b90508015620002b757604080517f08c379a000000000000000000000000000000000000000000000000000000000815260206004820152601a60248201527f53657474696e6720636f6d7074726f6c6c6572206661696c6564000000000000604482015290519081900360640190fd5b620002ca6001600160e01b036200052016565b600a55670de0b6b3a7640000600b55620002ed866001600160e01b036200052516565b9050801562000348576040517f08c379a0000000000000000000000000000000000000000000000000000000008152600401808060200182810382526022815260200180620056b76022913960400191505060405180910390fd5b83516200035d90600190602087019062000750565b5082516200037390600290602086019062000750565b505060035550620007f29950505050505050505050565b6004546000906001600160a01b03163314620003bf57620003b76001603f6001600160e01b03620006e016565b90506200051b565b600654604080517e7e3dd200000000000000000000000000000000000000000000000000000000815290516001600160a01b0392831692851691627e3dd2916004808301926020929190829003018186803b1580156200041e57600080fd5b505afa15801562000433573d6000803e3d6000fd5b505050506040513d60208110156200044a57600080fd5b5051620004b857604080517f08c379a000000000000000000000000000000000000000000000000000000000815260206004820152601c60248201527f6d61726b6572206d6574686f642072657475726e65642066616c736500000000604482015290519081900360640190fd5b600680546001600160a01b0319166001600160a01b03858116918217909255604080519284168352602083019190915280517f7ac369dbd14fa5ea3f473ed67cc9d598964a77501540ba6751eb0b3decf5870d9281900390910190a160005b9150505b919050565b435b90565b60045460009081906001600160a01b031633146200055d5762000554600160426001600160e01b03620006e016565b9150506200051b565b620005706001600160e01b036200052016565b600a5414620005905762000554600a60416001600160e01b03620006e016565b600760009054906101000a90046001600160a01b03169050826001600160a01b0316632191f92a6040518163ffffffff1660e01b815260040160206040518083038186803b158015620005e257600080fd5b505afa158015620005f7573d6000803e3d6000fd5b505050506040513d60208110156200060e57600080fd5b50516200067c57604080517f08c379a000000000000000000000000000000000000000000000000000000000815260206004820152601c60248201527f6d61726b6572206d6574686f642072657475726e65642066616c736500000000604482015290519081900360640190fd5b600780546001600160a01b0319166001600160a01b03858116918217909255604080519284168352602083019190915280517fedffc32e068c7c95dfd4bdfd5c4d939a084d6b11c4199eac8436ed234d72f9269281900390910190a1600062000517565b60007f45b96fe442630264581b197e84bbada861235052c5a1aadfff9ea4e40a969aa08360108111156200071057fe5b83604d8111156200071d57fe5b604080519283526020830191909152600082820152519081900360600190a18260108111156200074957fe5b9392505050565b828054600181600116156101000203166002900490600052602060002090601f016020900481019282601f106200079357805160ff1916838001178555620007c3565b82800160010185558215620007c3579182015b82811115620007c3578251825591602001919060010190620007a6565b50620007d1929150620007d5565b5090565b6200052291905b80821115620007d15760008155600101620007dc565b614eb580620008026000396000f3fe6080604052600436106102f25760003560e01c80638f840ddd1161018f578063c37f68e2116100e1578063f2b3abbd1161008a578063f8f9da2811610064578063f8f9da28146109a8578063fca7820b146109bd578063fe9c44ae146109e7576102f2565b8063f2b3abbd1461094b578063f3fdb15a1461097e578063f851a44014610993576102f2565b8063dd62ed3e116100bb578063dd62ed3e146108d5578063e597461914610910578063e9c714f214610936576102f2565b8063c37f68e214610828578063c5ebeaec14610881578063db006a75146108ab576102f2565b8063aa5af0fd11610143578063b2a02ff11161011d578063b2a02ff11461079d578063b71d1a0c146107e0578063bd6d894d14610813576102f2565b8063aa5af0fd14610745578063aae40a2a1461075a578063ae9d70b014610788576102f2565b806395dd91931161017457806395dd9193146106c4578063a6afed95146106f7578063a9059cbb1461070c576102f2565b80638f840ddd1461069a57806395d89b41146106af576102f2565b80633b1d21a211610248578063601a0bf1116101fc57806370a08231116101d657806370a082311461062857806373acee981461065b578063852a12e314610670576102f2565b8063601a0bf1146105d4578063675d972c146105fe5780636c540baf14610613576102f2565b806347bd37181161022d57806347bd3718146105a25780634e4d9fea146105b75780635fe3b567146105bf576102f2565b80633b1d21a21461055a5780634576b5db1461056f576102f2565b806318160ddd116102aa578063267822471161028457806326782247146104e1578063313ce567146105125780633af9e66914610527576102f2565b806318160ddd14610474578063182df0f51461048957806323b872dd1461049e576102f2565b80631249c58b116102db5780631249c58b14610412578063173b99041461041a57806317bfdfbc14610441576102f2565b806306fdde031461033b578063095ea7b3146103c5575b6103396102fe346109fc565b6040518060400160405280600b81526020017f6d696e74206661696c6564000000000000000000000000000000000000000000815250610a8c565b005b34801561034757600080fd5b50610350610ca8565b6040805160208082528351818301528351919283929083019185019080838360005b8381101561038a578181015183820152602001610372565b50505050905090810190601f1680156103b75780820380516001836020036101000a031916815260200191505b509250505060405180910390f35b3480156103d157600080fd5b506103fe600480360360408110156103e857600080fd5b506001600160a01b038135169060200135610d35565b604080519115158252519081900360200190f35b610339610da2565b34801561042657600080fd5b5061042f610db0565b60408051918252519081900360200190f35b34801561044d57600080fd5b5061042f6004803603602081101561046457600080fd5b50356001600160a01b0316610db6565b34801561048057600080fd5b5061042f610e69565b34801561049557600080fd5b5061042f610e6f565b3480156104aa57600080fd5b506103fe600480360360608110156104c157600080fd5b506001600160a01b03813581169160208101359091169060400135610ed2565b3480156104ed57600080fd5b506104f6610f38565b604080516001600160a01b039092168252519081900360200190f35b34801561051e57600080fd5b5061042f610f47565b34801561053357600080fd5b5061042f6004803603602081101561054a57600080fd5b50356001600160a01b0316610f4d565b34801561056657600080fd5b5061042f610fbd565b34801561057b57600080fd5b5061042f6004803603602081101561059257600080fd5b50356001600160a01b0316610fcc565b3480156105ae57600080fd5b5061042f611142565b610339611148565b3480156105cb57600080fd5b506104f661118f565b3480156105e057600080fd5b5061042f600480360360208110156105f757600080fd5b503561119e565b34801561060a57600080fd5b5061042f6111d8565b34801561061f57600080fd5b5061042f6111de565b34801561063457600080fd5b5061042f6004803603602081101561064b57600080fd5b50356001600160a01b03166111e4565b34801561066757600080fd5b5061042f6111ff565b34801561067c57600080fd5b5061042f6004803603602081101561069357600080fd5b50356112b0565b3480156106a657600080fd5b5061042f6112bb565b3480156106bb57600080fd5b506103506112c1565b3480156106d057600080fd5b5061042f600480360360208110156106e757600080fd5b50356001600160a01b0316611319565b34801561070357600080fd5b5061042f611376565b34801561071857600080fd5b506103fe6004803603604081101561072f57600080fd5b506001600160a01b03813516906020013561176f565b34801561075157600080fd5b5061042f6117d4565b6103396004803603604081101561077057600080fd5b506001600160a01b03813581169160200135166117da565b34801561079457600080fd5b5061042f611823565b3480156107a957600080fd5b5061042f600480360360608110156107c057600080fd5b506001600160a01b03813581169160208101359091169060400135611aee565b3480156107ec57600080fd5b5061042f6004803603602081101561080357600080fd5b50356001600160a01b0316611de3565b34801561081f57600080fd5b5061042f611e77565b34801561083457600080fd5b5061085b6004803603602081101561084b57600080fd5b50356001600160a01b0316611f29565b604080519485526020850193909352838301919091526060830152519081900360800190f35b34801561088d57600080fd5b5061042f600480360360208110156108a457600080fd5b5035611fbe565b3480156108b757600080fd5b5061042f600480360360208110156108ce57600080fd5b5035611fc9565b3480156108e157600080fd5b5061042f600480360360408110156108f857600080fd5b506001600160a01b0381358116916020013516611fd4565b6103396004803603602081101561092657600080fd5b50356001600160a01b0316611fff565b34801561094257600080fd5b5061042f61204a565b34801561095757600080fd5b5061042f6004803603602081101561096e57600080fd5b50356001600160a01b0316612146565b34801561098a57600080fd5b506104f6612180565b34801561099f57600080fd5b506104f661218f565b3480156109b457600080fd5b5061042f61219e565b3480156109c957600080fd5b5061042f600480360360208110156109e057600080fd5b503561227a565b3480156109f357600080fd5b506103fe6122b4565b6000805460010180825581610a0f611376565b90508015610a3557610a2d816010811115610a2657fe5b601e6122b9565b925050610a43565b610a3f338561231f565b9250505b6000548114610a86576040805162461bcd60e51b815260206004820152600a6024820152691c994b595b9d195c995960b21b604482015290519081900360640190fd5b50919050565b81610a9657610ca4565b606081516005016040519080825280601f01601f191660200182016040528015610ac7576020820181803883390190505b50905060005b8251811015610b1857828181518110610ae257fe5b602001015160f81c60f81b828281518110610af957fe5b60200101906001600160f81b031916908160001a905350600101610acd565b81517f200000000000000000000000000000000000000000000000000000000000000090839083908110610b4857fe5b60200101906001600160f81b031916908160001a905350602860f81b828260010181518110610b7357fe5b60200101906001600160f81b031916908160001a905350600a840460300160f81b828260020181518110610ba357fe5b60200101906001600160f81b031916908160001a905350600a840660300160f81b828260030181518110610bd357fe5b60200101906001600160f81b031916908160001a905350602960f81b828260040181518110610bfe57fe5b60200101906001600160f81b031916908160001a905350818415610ca05760405162461bcd60e51b81526004018080602001828103825283818151815260200191508051906020019080838360005b83811015610c65578181015183820152602001610c4d565b50505050905090810190601f168015610c925780820380516001836020036101000a031916815260200191505b509250505060405180910390fd5b5050505b5050565b60018054604080516020600284861615610100026000190190941693909304601f81018490048402820184019092528181529291830182828015610d2d5780601f10610d0257610100808354040283529160200191610d2d565b820191906000526020600020905b815481529060010190602001808311610d1057829003601f168201915b505050505081565b3360008181526010602090815260408083206001600160a01b03871680855290835281842086905581518681529151939493909284927f8c5be1e5ebec7d5bd14f71427d1e84f3dd0314c0f7b2291e5b200ac8c7c3b925929081900390910190a360019150505b92915050565b610dae6102fe346109fc565b565b60095481565b6000805460010180825581610dc9611376565b14610e1b576040805162461bcd60e51b815260206004820152601660248201527f61636372756520696e746572657374206661696c656400000000000000000000604482015290519081900360640190fd5b610e2483611319565b91506000548114610a86576040805162461bcd60e51b815260206004820152600a6024820152691c994b595b9d195c995960b21b604482015290519081900360640190fd5b600e5481565b6000806000610e7c6127ab565b90925090506000826003811115610e8f57fe5b14610ecb5760405162461bcd60e51b8152600401808060200182810382526035815260200180614df46035913960400191505060405180910390fd5b9150505b90565b6000805460010180825581610ee933878787612859565b1491505b6000548114610f30576040805162461bcd60e51b815260206004820152600a6024820152691c994b595b9d195c995960b21b604482015290519081900360640190fd5b509392505050565b6005546001600160a01b031681565b60035481565b6000610f57614b6d565b6040518060200160405280610f6a611e77565b90526001600160a01b0384166000908152600f6020526040812054919250908190610f96908490612bad565b90925090506000826003811115610fa957fe5b14610fb357600080fd5b925050505b919050565b6000610fc7612c01565b905090565b6004546000906001600160a01b03163314610ff457610fed6001603f6122b9565b9050610fb8565b600654604080517e7e3dd200000000000000000000000000000000000000000000000000000000815290516001600160a01b0392831692851691627e3dd2916004808301926020929190829003018186803b15801561105257600080fd5b505afa158015611066573d6000803e3d6000fd5b505050506040513d602081101561107c57600080fd5b50516110cf576040805162461bcd60e51b815260206004820152601c60248201527f6d61726b6572206d6574686f642072657475726e65642066616c736500000000604482015290519081900360640190fd5b6006805473ffffffffffffffffffffffffffffffffffffffff19166001600160a01b03858116918217909255604080519284168352602083019190915280517f7ac369dbd14fa5ea3f473ed67cc9d598964a77501540ba6751eb0b3decf5870d9281900390910190a160005b9392505050565b600c5481565b610dae61115434612c2d565b6040518060400160405280601281526020017f7265706179426f72726f77206661696c65640000000000000000000000000000815250610a8c565b6006546001600160a01b031681565b60008054600101808255816111b1611376565b905080156111cf57610a2d8160108111156111c857fe5b60306122b9565b610a3f84612c69565b60085481565b600a5481565b6001600160a01b03166000908152600f602052604090205490565b6000805460010180825581611212611376565b14611264576040805162461bcd60e51b815260206004820152601660248201527f61636372756520696e746572657374206661696c656400000000000000000000604482015290519081900360640190fd5b600c54915060005481146112ac576040805162461bcd60e51b815260206004820152600a6024820152691c994b595b9d195c995960b21b604482015290519081900360640190fd5b5090565b6000610d9c82612de7565b600d5481565b6002805460408051602060018416156101000260001901909316849004601f81018490048402820184019092528181529291830182828015610d2d5780601f10610d0257610100808354040283529160200191610d2d565b600080600061132784612e24565b9092509050600082600381111561133a57fe5b1461113b5760405162461bcd60e51b8152600401808060200182810382526037815260200180614ce86037913960400191505060405180910390fd5b6000611380614b80565b6007546001600160a01b03166315f24053611399612c01565b600c54600d546040518463ffffffff1660e01b8152600401808481526020018381526020018281526020019350505050604080518083038186803b1580156113e057600080fd5b505afa1580156113f4573d6000803e3d6000fd5b505050506040513d604081101561140a57600080fd5b50805160209182015160408401819052918301526601c6bf526340001015611479576040805162461bcd60e51b815260206004820152601c60248201527f626f72726f772072617465206973206162737572646c79206869676800000000604482015290519081900360640190fd5b60208101511561149c57611494600560028360200151612ed8565b915050610ecf565b6114a4612f3e565b60608201819052600a546114b89190612f42565b60808301819052828260038111156114cc57fe5b60038111156114d757fe5b90525060009050815160038111156114eb57fe5b146114f257fe5b611512604051806020016040528083604001518152508260800151612f65565b60a083018190528282600381111561152657fe5b600381111561153157fe5b905250600090508151600381111561154557fe5b1461156657611494600960068360000151600381111561156157fe5b612ed8565b6115768160a00151600c54612bad565b60c083018190528282600381111561158a57fe5b600381111561159557fe5b90525060009050815160038111156115a957fe5b146115c557611494600960018360000151600381111561156157fe5b6115d58160c00151600c54612fcd565b60e08301819052828260038111156115e957fe5b60038111156115f457fe5b905250600090508151600381111561160857fe5b1461162457611494600960048360000151600381111561156157fe5b61164560405180602001604052806009548152508260c00151600d54612ff3565b61010083018190528282600381111561165a57fe5b600381111561166557fe5b905250600090508151600381111561167957fe5b1461169557611494600960058360000151600381111561156157fe5b6116a88160a00151600b54600b54612ff3565b6101208301819052828260038111156116bd57fe5b60038111156116c857fe5b90525060009050815160038111156116dc57fe5b146116f857611494600960038360000151600381111561156157fe5b606080820151600a55610120820151600b81905560e0830151600c819055610100840151600d5560c08401516040805191825260208201939093528083019190915290517f875352fb3fadeb8c0be7cbbe8ff761b308fa7033470cd0287f02f3436fd76cb9929181900390910190a1600091505090565b600080546001018082558161178633338787612859565b1491505b60005481146117cd576040805162461bcd60e51b815260206004820152600a6024820152691c994b595b9d195c995960b21b604482015290519081900360640190fd5b5092915050565b600b5481565b610ca46117e883348461304f565b6040518060400160405280601681526020017f6c6971756964617465426f72726f77206661696c656400000000000000000000815250610a8c565b60008061182e610e6f565b60075490915060009081906001600160a01b03166315f2405361184f612c01565b600c54600d546040518463ffffffff1660e01b8152600401808481526020018381526020018281526020019350505050604080518083038186803b15801561189657600080fd5b505afa1580156118aa573d6000803e3d6000fd5b505050506040513d60408110156118c057600080fd5b5080516020909101519092509050811561190b5760405162461bcd60e51b8152600401808060200182810382526031815260200180614d876031913960400191505060405180910390fd5b6000611915614b6d565b61192f604051806020016040528087815250600e54612f65565b9092509050600082600381111561194257fe5b1461197e5760405162461bcd60e51b8152600401808060200182810382526031815260200180614d1f6031913960400191505060405180910390fd5b6000611988614b6d565b611994600c5484613157565b909250905060008260038111156119a757fe5b146119e35760405162461bcd60e51b8152600401808060200182810382526031815260200180614c636031913960400191505060405180910390fd5b60006119ed614b6d565b611a1d6040518060200160405280670de0b6b3a764000081525060405180602001604052806009548152506131b6565b90925090506000826003811115611a3057fe5b14611a6c5760405162461bcd60e51b815260040180806020018281038252603c815260200180614db8603c913960400191505060405180910390fd5b6000611a76614b6d565b611a8f60405180602001604052808b81525084876131f0565b90925090506000826003811115611aa257fe5b14611ade5760405162461bcd60e51b8152600401808060200182810382526031815260200180614cb76031913960400191505060405180910390fd5b519a505050505050505050505090565b60008054600101808255600654604080517fd02f73510000000000000000000000000000000000000000000000000000000081523060048201523360248201526001600160a01b03888116604483015287811660648301526084820187905291518593929092169163d02f73519160a48082019260209290919082900301818787803b158015611b7d57600080fd5b505af1158015611b91573d6000803e3d6000fd5b505050506040513d6020811015611ba757600080fd5b505190508015611bc657611bbe6003601b83612ed8565b925050610eed565b856001600160a01b0316856001600160a01b03161415611bec57611bbe6006601c6122b9565b6001600160a01b0385166000908152600f602052604081205481908190611c139088612f42565b90935091506000836003811115611c2657fe5b14611c4957611c3e6009601a85600381111561156157fe5b955050505050610eed565b6001600160a01b0389166000908152600f6020526040902054611c6c9088612fcd565b90935090506000836003811115611c7f57fe5b14611c9757611c3e6009601985600381111561156157fe5b6001600160a01b038089166000818152600f60209081526040808320879055938d168083529184902085905583518b8152935191937fddf252ad1be2c89b69c2b068fc378daa952ba7f163c4a11628f55a4df523b3ef929081900390910190a3600654604080517f6d35bf910000000000000000000000000000000000000000000000000000000081523060048201523360248201526001600160a01b038c811660448301528b81166064830152608482018b905291519190921691636d35bf919160a480830192600092919082900301818387803b158015611d7957600080fd5b505af1158015611d8d573d6000803e3d6000fd5b5060009250611d9a915050565b9550505050506000548114610f30576040805162461bcd60e51b815260206004820152600a6024820152691c994b595b9d195c995960b21b604482015290519081900360640190fd5b6004546000906001600160a01b03163314611e0457610fed600160456122b9565b600580546001600160a01b0384811673ffffffffffffffffffffffffffffffffffffffff19831681179093556040805191909216808252602082019390935281517fca4f2f25d0898edd99413412fb94012f9e54ec8142f9b093e7720646a95b16a9929181900390910190a1600061113b565b6000805460010180825581611e8a611376565b14611edc576040805162461bcd60e51b815260206004820152601660248201527f61636372756520696e746572657374206661696c656400000000000000000000604482015290519081900360640190fd5b611ee4610e6f565b915060005481146112ac576040805162461bcd60e51b815260206004820152600a6024820152691c994b595b9d195c995960b21b604482015290519081900360640190fd5b6001600160a01b0381166000908152600f6020526040812054819081908190818080611f5489612e24565b935090506000816003811115611f6657fe5b14611f845760095b975060009650869550859450611fb79350505050565b611f8c6127ab565b925090506000816003811115611f9e57fe5b14611faa576009611f6e565b5060009650919450925090505b9193509193565b6000610d9c8261323a565b6000610d9c82613275565b6001600160a01b03918216600090815260106020908152604080832093909416825291909152205490565b61204761200c82346132ab565b6040518060400160405280601881526020017f7265706179426f72726f77426568616c66206661696c65640000000000000000815250610a8c565b50565b6005546000906001600160a01b031633141580612065575033155b1561207d57612076600160006122b9565b9050610ecf565b60048054600580546001600160a01b0380821673ffffffffffffffffffffffffffffffffffffffff1980861682179687905590921690925560408051938316808552949092166020840152815190927ff9ffabca9c8276e99321725bcb43fb076a6c66a54b7f21c4e8146d8519b417dc92908290030190a1600554604080516001600160a01b038085168252909216602083015280517fca4f2f25d0898edd99413412fb94012f9e54ec8142f9b093e7720646a95b16a99281900390910190a160009250505090565b600080612151611376565b905080156121775761216f81601081111561216857fe5b60406122b9565b915050610fb8565b61113b83613335565b6007546001600160a01b031681565b6004546001600160a01b031681565b600754600090819081906001600160a01b03166315f240536121be612c01565b600c54600d546040518463ffffffff1660e01b8152600401808481526020018381526020018281526020019350505050604080518083038186803b15801561220557600080fd5b505afa158015612219573d6000803e3d6000fd5b505050506040513d604081101561222f57600080fd5b50805160209091015190925090508115610ecb5760405162461bcd60e51b8152600401808060200182810382526037815260200180614d506037913960400191505060405180910390fd5b600080546001018082558161228d611376565b905080156122ab57610a2d8160108111156122a457fe5b60466122b9565b610a3f846134b2565b600181565b60007f45b96fe442630264581b197e84bbada861235052c5a1aadfff9ea4e40a969aa08360108111156122e857fe5b83604d8111156122f457fe5b604080519283526020830191909152600082820152519081900360600190a182601081111561113b57fe5b600654604080517f4ef4c3e10000000000000000000000000000000000000000000000000000000081523060048201526001600160a01b03858116602483015260448201859052915160009384931691634ef4c3e191606480830192602092919082900301818787803b15801561239557600080fd5b505af11580156123a9573d6000803e3d6000fd5b505050506040513d60208110156123bf57600080fd5b5051905080156123de576123d66003601f83612ed8565b915050610d9c565b6123e6612f3e565b600a54146123fa576123d6600a60226122b9565b612402614bda565b61240c8585613555565b8190601081111561241957fe5b9081601081111561242657fe5b90525060008151601081111561243857fe5b1461245357805161244a9060266122b9565b92505050610d9c565b61245b6127ab565b604083018190526020830182600381111561247257fe5b600381111561247d57fe5b905250600090508160200151600381111561249457fe5b146124b05761244a600960218360200151600381111561156157fe5b6124cc8460405180602001604052808460400151815250613611565b60608301819052602083018260038111156124e357fe5b60038111156124ee57fe5b905250600090508160200151600381111561250557fe5b146125215761244a600960208360200151600381111561156157fe5b612531600e548260600151612fcd565b608083018190526020830182600381111561254857fe5b600381111561255357fe5b905250600090508160200151600381111561256a57fe5b146125865761244a600960248360200151600381111561156157fe5b6001600160a01b0385166000908152600f602052604090205460608201516125ae9190612fcd565b60a08301819052602083018260038111156125c557fe5b60038111156125d057fe5b90525060009050816020015160038111156125e757fe5b146126035761244a600960238360200151600381111561156157fe5b61260d8585613555565b8190601081111561261a57fe5b9081601081111561262757fe5b90525060008151601081111561263957fe5b1461264b57805161244a9060256122b9565b6080810151600e5560a08101516001600160a01b0386166000818152600f602090815260409182902093909355606080850151825193845293830188905282820193909352517f4c209b5fc8ad50758f13e2e1088ba56a560dff690a1c6fef26394f4c03821c4f929181900390910190a1606081015160408051918252516001600160a01b0387169130917fddf252ad1be2c89b69c2b068fc378daa952ba7f163c4a11628f55a4df523b3ef9181900360200190a36006546060820151604080517f41c728b90000000000000000000000000000000000000000000000000000000081523060048201526001600160a01b038981166024830152604482018990526064820193909352905191909216916341c728b991608480830192600092919082900301818387803b15801561278157600080fd5b505af1158015612795573d6000803e3d6000fd5b50600092506127a2915050565b95945050505050565b600080600e54600014156127c6575050600854600090612855565b60006127d0612c01565b905060006127dc614b6d565b60006127ed84600c54600d54613628565b9350905060008160038111156127ff57fe5b146128135794506000935061285592505050565b61281f83600e54613666565b92509050600081600381111561283157fe5b146128455794506000935061285592505050565b5051600094509250612855915050565b9091565b600654604080517fbdcdc2580000000000000000000000000000000000000000000000000000000081523060048201526001600160a01b03868116602483015285811660448301526064820185905291516000938493169163bdcdc25891608480830192602092919082900301818787803b1580156128d757600080fd5b505af11580156128eb573d6000803e3d6000fd5b505050506040513d602081101561290157600080fd5b505190508015612920576129186003604a83612ed8565b915050612ba5565b836001600160a01b0316856001600160a01b03161415612946576129186002604b6122b9565b60006001600160a01b038781169087161415612965575060001961298d565b506001600160a01b038086166000908152601060209081526040808320938a16835292905220545b60008060008061299d8589612f42565b909450925060008460038111156129b057fe5b146129ce576129c16009604b6122b9565b9650505050505050612ba5565b6001600160a01b038a166000908152600f60205260409020546129f19089612f42565b90945091506000846003811115612a0457fe5b14612a15576129c16009604c6122b9565b6001600160a01b0389166000908152600f6020526040902054612a389089612fcd565b90945090506000846003811115612a4b57fe5b14612a5c576129c16009604d6122b9565b6001600160a01b03808b166000908152600f6020526040808220859055918b168152208190556000198514612ab4576001600160a01b03808b166000908152601060209081526040808320938f168352929052208390555b886001600160a01b03168a6001600160a01b03167fddf252ad1be2c89b69c2b068fc378daa952ba7f163c4a11628f55a4df523b3ef8a6040518082815260200191505060405180910390a3600654604080517f6a56947e0000000000000000000000000000000000000000000000000000000081523060048201526001600160a01b038d811660248301528c81166044830152606482018c905291519190921691636a56947e91608480830192600092919082900301818387803b158015612b7b57600080fd5b505af1158015612b8f573d6000803e3d6000fd5b5060009250612b9c915050565b96505050505050505b949350505050565b6000806000612bba614b6d565b612bc48686612f65565b90925090506000826003811115612bd757fe5b14612be85750915060009050612bfa565b6000612bf382613716565b9350935050505b9250929050565b60008080612c10303134612f42565b90925090506000826003811115612c2357fe5b14610ecb57600080fd5b6000805460010180825581612c40611376565b90508015612c5e57610a2d816010811115612c5757fe5b60366122b9565b610a3f333386613725565b600454600090819081906001600160a01b03163314612c9757612c8e600160316122b9565b92505050610fb8565b612c9f612f3e565b600a5414612cb357612c8e600a60336122b9565b83612cbc612c01565b1015612cce57612c8e600e60326122b9565b600d54841115612ce457612c8e600260346122b9565b50600d5483810390811115612d2a5760405162461bcd60e51b8152600401808060200182810382526024815260200180614e5d6024913960400191505060405180910390fd5b600d819055600454612d45906001600160a01b031685613baa565b91506000826010811115612d5557fe5b14612d915760405162461bcd60e51b8152600401808060200182810382526023815260200180614c946023913960400191505060405180910390fd5b600454604080516001600160a01b03909216825260208201869052818101839052517f3bad0c59cf2f06e7314077049f48a93578cd16f5ef92329f1dab1420a99c177e9181900360600190a16000949350505050565b6000805460010180825581612dfa611376565b90508015612e1857610a2d816010811115612e1157fe5b60276122b9565b610a3f33600086613bec565b6001600160a01b038116600090815260116020526040812080548291829182918291612e5b575060009450849350612ed392505050565b612e6b8160000154600b54614139565b90945092506000846003811115612e7e57fe5b14612e93575091935060009250612ed3915050565b612ea1838260010154614178565b90945091506000846003811115612eb457fe5b14612ec9575091935060009250612ed3915050565b5060009450925050505b915091565b60007f45b96fe442630264581b197e84bbada861235052c5a1aadfff9ea4e40a969aa0846010811115612f0757fe5b84604d811115612f1357fe5b604080519283526020830191909152818101859052519081900360600190a1836010811115612ba557fe5b4390565b600080838311612f59575060009050818303612bfa565b50600390506000612bfa565b6000612f6f614b6d565b600080612f80866000015186614139565b90925090506000826003811115612f9357fe5b14612fb257506040805160208101909152600081529092509050612bfa565b60408051602081019091529081526000969095509350505050565b600080838301848110612fe557600092509050612bfa565b506002915060009050612bfa565b6000806000613000614b6d565b61300a8787612f65565b9092509050600082600381111561301d57fe5b1461302e5750915060009050613047565b61304061303a82613716565b86612fcd565b9350935050505b935093915050565b6000805460010180825581613062611376565b9050801561308057611bbe81601081111561307957fe5b600f6122b9565b836001600160a01b031663a6afed956040518163ffffffff1660e01b8152600401602060405180830381600087803b1580156130bb57600080fd5b505af11580156130cf573d6000803e3d6000fd5b505050506040513d60208110156130e557600080fd5b50519050801561310557611bbe8160108111156130fe57fe5b60106122b9565b613111338787876141a3565b9250506000548114610f30576040805162461bcd60e51b815260206004820152600a6024820152691c994b595b9d195c995960b21b604482015290519081900360640190fd5b6000613161614b6d565b600080613176670de0b6b3a764000087614139565b9092509050600082600381111561318957fe5b146131a857506040805160208101909152600081529092509050612bfa565b612bf3818660000151613666565b60006131c0614b6d565b6000806131d586600001518660000151612f42565b60408051602081019091529081529097909650945050505050565b60006131fa614b6d565b6000613204614b6d565b61320e87876146ec565b9092509050600082600381111561322157fe5b14613230579092509050613047565b61304081866146ec565b600080546001018082558161324d611376565b9050801561326b57610a2d81601081111561326457fe5b60086122b9565b610a3f33856147d5565b6000805460010180825581613288611376565b9050801561329f57610a2d816010811115612e1157fe5b610a3f33856000613bec565b60008054600101808255816132be611376565b905080156132e4576132dc8160108111156132d557fe5b60356122b9565b92505061178a565b6132ef338686613725565b92505060005481146117cd576040805162461bcd60e51b815260206004820152600a6024820152691c994b595b9d195c995960b21b604482015290519081900360640190fd5b60045460009081906001600160a01b031633146133585761216f600160426122b9565b613360612f3e565b600a54146133745761216f600a60416122b9565b600760009054906101000a90046001600160a01b03169050826001600160a01b0316632191f92a6040518163ffffffff1660e01b815260040160206040518083038186803b1580156133c557600080fd5b505afa1580156133d9573d6000803e3d6000fd5b505050506040513d60208110156133ef57600080fd5b5051613442576040805162461bcd60e51b815260206004820152601c60248201527f6d61726b6572206d6574686f642072657475726e65642066616c736500000000604482015290519081900360640190fd5b6007805473ffffffffffffffffffffffffffffffffffffffff19166001600160a01b03858116918217909255604080519284168352602083019190915280517fedffc32e068c7c95dfd4bdfd5c4d939a084d6b11c4199eac8436ed234d72f9269281900390910190a1600061113b565b6004546000906001600160a01b031633146134d357610fed600160476122b9565b6134db612f3e565b600a54146134ef57610fed600a60486122b9565b670de0b6b3a764000082111561350b57610fed600260496122b9565b6009805490839055604080518281526020810185905281517faaa68312e2ea9d50e16af5068410ab56e1a1fd06037b1a35664812c30f821460929181900390910190a1600061113b565b6000336001600160a01b038416146135b4576040805162461bcd60e51b815260206004820152600f60248201527f73656e646572206d69736d617463680000000000000000000000000000000000604482015290519081900360640190fd5b813414613608576040805162461bcd60e51b815260206004820152600e60248201527f76616c7565206d69736d61746368000000000000000000000000000000000000604482015290519081900360640190fd5b50600092915050565b600080600061361e614b6d565b612bc48686613157565b6000806000806136388787612fcd565b9092509050600082600381111561364b57fe5b1461365c5750915060009050613047565b6130408186612f42565b6000613670614b6d565b60008061368586670de0b6b3a7640000614139565b9092509050600082600381111561369857fe5b146136b757506040805160208101909152600081529092509050612bfa565b6000806136c48388614178565b909250905060008260038111156136d757fe5b146136f957506040805160208101909152600081529094509250612bfa915050565b604080516020810190915290815260009890975095505050505050565b51670de0b6b3a7640000900490565b600654604080517f24008a620000000000000000000000000000000000000000000000000000000081523060048201526001600160a01b0386811660248301528581166044830152606482018590529151600093849316916324008a6291608480830192602092919082900301818787803b1580156137a357600080fd5b505af11580156137b7573d6000803e3d6000fd5b505050506040513d60208110156137cd57600080fd5b5051905080156137ec576137e46003603883612ed8565b91505061113b565b6137f4612f3e565b600a5414613808576137e4600a60396122b9565b613810614bf4565b6001600160a01b038516600090815260116020526040902060010154606082015261383a85612e24565b608083018190526020830182600381111561385157fe5b600381111561385c57fe5b905250600090508160200151600381111561387357fe5b146138985761388f600960378360200151600381111561156157fe5b9250505061113b565b6000198414156138b157608081015160408201526138b9565b604081018490525b6138c7868260400151613555565b819060108111156138d457fe5b908160108111156138e157fe5b9052506000815160108111156138f357fe5b1461390557805161388f90603c6122b9565b61391781608001518260400151612f42565b60a083018190526020830182600381111561392e57fe5b600381111561393957fe5b905250600090508160200151600381111561395057fe5b1461396c5761388f6009603a8360200151600381111561156157fe5b61397c600c548260400151612f42565b60c083018190526020830182600381111561399357fe5b600381111561399e57fe5b90525060009050816020015160038111156139b557fe5b146139d15761388f6009603b8360200151600381111561156157fe5b6139df868260400151613555565b819060108111156139ec57fe5b908160108111156139f957fe5b905250600081516010811115613a0b57fe5b14613a5d576040805162461bcd60e51b815260206004820152601f60248201527f726570617920626f72726f77207472616e7366657220696e206661696c656400604482015290519081900360640190fd5b60a080820180516001600160a01b03808916600081815260116020908152604091829020948555600b5460019095019490945560c0870151600c8190558188015195518251948e16855294840192909252828101949094526060820192909252608081019190915290517f1a2a22cb034d26d1854bdc6666a5b91fe25efbbb5dcad3b0355478d6f5c362a1929181900390910190a1600654604080830151606084015182517f1ededc910000000000000000000000000000000000000000000000000000000081523060048201526001600160a01b038b811660248301528a81166044830152606482019390935260848101919091529151921691631ededc919160a48082019260009290919082900301818387803b158015613b7f57600080fd5b505af1158015613b93573d6000803e3d6000fd5b5060009250613ba0915050565b9695505050505050565b6040516000906001600160a01b0384169083156108fc0290849084818181858888f19350505050158015613be2573d6000803e3d6000fd5b5060009392505050565b6000821580613bf9575081155b613c345760405162461bcd60e51b8152600401808060200182810382526034815260200180614e296034913960400191505060405180910390fd5b613c3c614bf4565b613c446127ab565b6040830181905260208301826003811115613c5b57fe5b6003811115613c6657fe5b9052506000905081602001516003811115613c7d57fe5b14613c99576137e46009602b8360200151600381111561156157fe5b8315613d1a576060810184905260408051602081018252908201518152613cc09085612bad565b6080830181905260208301826003811115613cd757fe5b6003811115613ce257fe5b9052506000905081602001516003811115613cf957fe5b14613d15576137e4600960298360200151600381111561156157fe5b613d93565b613d368360405180602001604052808460400151815250613611565b6060830181905260208301826003811115613d4d57fe5b6003811115613d5857fe5b9052506000905081602001516003811115613d6f57fe5b14613d8b576137e46009602a8360200151600381111561156157fe5b608081018390525b6006546060820151604080517feabe7d910000000000000000000000000000000000000000000000000000000081523060048201526001600160a01b03898116602483015260448201939093529051600093929092169163eabe7d919160648082019260209290919082900301818787803b158015613e1157600080fd5b505af1158015613e25573d6000803e3d6000fd5b505050506040513d6020811015613e3b57600080fd5b505190508015613e525761388f6003602883612ed8565b613e5a612f3e565b600a5414613e6e5761388f600a602c6122b9565b613e7e600e548360600151612f42565b60a0840181905260208401826003811115613e9557fe5b6003811115613ea057fe5b9052506000905082602001516003811115613eb757fe5b14613ed35761388f6009602e8460200151600381111561156157fe5b6001600160a01b0386166000908152600f60205260409020546060830151613efb9190612f42565b60c0840181905260208401826003811115613f1257fe5b6003811115613f1d57fe5b9052506000905082602001516003811115613f3457fe5b14613f505761388f6009602d8460200151600381111561156157fe5b8160800151613f5d612c01565b1015613f6f5761388f600e602f6122b9565b613f7d868360800151613baa565b82906010811115613f8a57fe5b90816010811115613f9757fe5b905250600082516010811115613fa957fe5b14613ffb576040805162461bcd60e51b815260206004820152601a60248201527f72656465656d207472616e73666572206f7574206661696c6564000000000000604482015290519081900360640190fd5b60a0820151600e5560c08201516001600160a01b0387166000818152600f60209081526040918290209390935560608501518151908152905130937fddf252ad1be2c89b69c2b068fc378daa952ba7f163c4a11628f55a4df523b3ef928290030190a36080820151606080840151604080516001600160a01b038b168152602081019490945283810191909152517fe5b754fb1abb7f01b499791d0b820ae3b6af3424ac1c59768edb53f4ec31a9299281900390910190a160065460808301516060840151604080517f51dff9890000000000000000000000000000000000000000000000000000000081523060048201526001600160a01b038b81166024830152604482019490945260648101929092525191909216916351dff98991608480830192600092919082900301818387803b158015613b7f57600080fd5b6000808361414c57506000905080612bfa565b8383028385828161415957fe5b041461416d57506002915060009050612bfa565b600092509050612bfa565b6000808261418c5750600190506000612bfa565b600083858161419757fe5b04915091509250929050565b600654604080517f5fc7e71e0000000000000000000000000000000000000000000000000000000081523060048201526001600160a01b0384811660248301528781166044830152868116606483015260848201869052915160009384931691635fc7e71e9160a480830192602092919082900301818787803b15801561422957600080fd5b505af115801561423d573d6000803e3d6000fd5b505050506040513d602081101561425357600080fd5b50519050801561426a576129186003601283612ed8565b614272612f3e565b600a541461428657612918600a60166122b9565b61428e612f3e565b836001600160a01b0316636c540baf6040518163ffffffff1660e01b815260040160206040518083038186803b1580156142c757600080fd5b505afa1580156142db573d6000803e3d6000fd5b505050506040513d60208110156142f157600080fd5b50511461430457612918600a60116122b9565b856001600160a01b0316856001600160a01b0316141561432a57612918600660176122b9565b8361433b57612918600760156122b9565b60001984141561435157612918600760146122b9565b600654604080517fc488847b0000000000000000000000000000000000000000000000000000000081523060048201526001600160a01b038681166024830152604482018890528251600094859492169263c488847b926064808301939192829003018186803b1580156143c457600080fd5b505afa1580156143d8573d6000803e3d6000fd5b505050506040513d60408110156143ee57600080fd5b508051602090910151909250905081156144195761440f6004601384612ed8565b9350505050612ba5565b846001600160a01b03166370a08231886040518263ffffffff1660e01b815260040180826001600160a01b03166001600160a01b0316815260200191505060206040518083038186803b15801561446f57600080fd5b505afa158015614483573d6000803e3d6000fd5b505050506040513d602081101561449957600080fd5b50518111156144ae5761440f600d601d6122b9565b60006144bb898989613725565b905080156144e4576144d98160108111156144d257fe5b60186122b9565b945050505050612ba5565b604080517fb2a02ff10000000000000000000000000000000000000000000000000000000081526001600160a01b038b811660048301528a8116602483015260448201859052915160009289169163b2a02ff191606480830192602092919082900301818787803b15801561455857600080fd5b505af115801561456c573d6000803e3d6000fd5b505050506040513d602081101561458257600080fd5b5051905080156145d9576040805162461bcd60e51b815260206004820152601460248201527f746f6b656e207365697a757265206661696c6564000000000000000000000000604482015290519081900360640190fd5b604080516001600160a01b03808d168252808c1660208301528183018b9052891660608201526080810185905290517f298637f684da70674f26509b10f07ec2fbc77a335ab1e7d6215a4b2484d8bb529181900360a00190a1600654604080517f47ef3b3b0000000000000000000000000000000000000000000000000000000081523060048201526001600160a01b038a811660248301528d811660448301528c81166064830152608482018c905260a48201879052915191909216916347ef3b3b9160c480830192600092919082900301818387803b1580156146bd57600080fd5b505af11580156146d1573d6000803e3d6000fd5b50600092506146de915050565b9a9950505050505050505050565b60006146f6614b6d565b60008061470b86600001518660000151614139565b9092509050600082600381111561471e57fe5b1461473d57506040805160208101909152600081529092509050612bfa565b6000806147526706f05b59d3b2000084612fcd565b9092509050600082600381111561476557fe5b1461478757506040805160208101909152600081529094509250612bfa915050565b60008061479c83670de0b6b3a7640000614178565b909250905060008260038111156147af57fe5b146147b657fe5b604080516020810190915290815260009a909950975050505050505050565b600654604080517fda3d454c0000000000000000000000000000000000000000000000000000000081523060048201526001600160a01b0385811660248301526044820185905291516000938493169163da3d454c91606480830192602092919082900301818787803b15801561484b57600080fd5b505af115801561485f573d6000803e3d6000fd5b505050506040513d602081101561487557600080fd5b50519050801561488c576123d66003600e83612ed8565b614894612f3e565b600a54146148a7576123d6600a806122b9565b826148b0612c01565b10156148c2576123d6600e60096122b9565b6148ca614c32565b6148d385612e24565b60408301819052602083018260038111156148ea57fe5b60038111156148f557fe5b905250600090508160200151600381111561490c57fe5b146149285761244a600960078360200151600381111561156157fe5b614936816040015185612fcd565b606083018190526020830182600381111561494d57fe5b600381111561495857fe5b905250600090508160200151600381111561496f57fe5b1461498b5761244a6009600c8360200151600381111561156157fe5b614997600c5485612fcd565b60808301819052602083018260038111156149ae57fe5b60038111156149b957fe5b90525060009050816020015160038111156149d057fe5b146149ec5761244a6009600b8360200151600381111561156157fe5b6149f68585613baa565b81906010811115614a0357fe5b90816010811115614a1057fe5b905250600081516010811115614a2257fe5b14614a74576040805162461bcd60e51b815260206004820152601a60248201527f626f72726f77207472616e73666572206f7574206661696c6564000000000000604482015290519081900360640190fd5b606080820180516001600160a01b038816600081815260116020908152604091829020938455600b54600190940193909355608080870151600c819055945182519384529383018a9052828201939093529381019290925291517f13ed6866d4e1ee6da46f845c46d7e54120883d75c5ea9a2dacc1c4ca8984ab80929181900390910190a1600654604080517f5c7786050000000000000000000000000000000000000000000000000000000081523060048201526001600160a01b0388811660248301526044820188905291519190921691635c77860591606480830192600092919082900301818387803b15801561278157600080fd5b6040518060200160405280600081525090565b604080516101408101909152806000815260200160008152602001600081526020016000815260200160008152602001614bb8614b6d565b8152602001600081526020016000815260200160008152602001600081525090565b6040805160c0810190915280600081526020016000614bb8565b6040805160e0810190915280600081526020016000815260200160008152602001600081526020016000815260200160008152602001600081525090565b6040805160a08101909152806000815260200160008152602001600081526020016000815260200160008152509056fe737570706c7952617465506572426c6f636b3a2063616c63756c6174696e6720626f72726f7773506572206661696c6564726564756365207265736572766573207472616e73666572206f7574206661696c6564737570706c7952617465506572426c6f636b3a2063616c63756c6174696e6720737570706c7952617465206661696c6564626f72726f7742616c616e636553746f7265643a20626f72726f7742616c616e636553746f726564496e7465726e616c206661696c6564737570706c7952617465506572426c6f636b3a2063616c63756c6174696e6720756e6465726c79696e67206661696c6564626f72726f7752617465506572426c6f636b3a20696e746572657374526174654d6f64656c2e626f72726f7752617465206661696c6564737570706c7952617465506572426c6f636b3a2063616c63756c6174696e6720626f72726f7752617465206661696c6564737570706c7952617465506572426c6f636b3a2063616c63756c6174696e67206f6e654d696e757352657365727665466163746f72206661696c656465786368616e67655261746553746f7265643a2065786368616e67655261746553746f726564496e7465726e616c206661696c65646f6e65206f662072656465656d546f6b656e73496e206f722072656465656d416d6f756e74496e206d757374206265207a65726f72656475636520726573657276657320756e657870656374656420756e646572666c6f77a265627a7a72315820bfa507974676a47a9a6fb60185acac112dd7567ca71c19c13ec245e13fbb177564736f6c634300050c003253657474696e6720696e7465726573742072617465206d6f64656c206661696c6564496e697469616c2065786368616e67652072617465206d7573742062652067726561746572207468616e207a65726f2e",
  "source": "import './CToken.sol';\nimport './EIP20NonStandardInterface.sol';\n\npragma solidity ^0.5.8;\n\n\n/**\n * @title Compound's CEther Contract\n * @notice CToken which wraps Ether\n * @author Compound\n */\ncontract CEther is CToken {\n    /**\n     * @notice Construct a new CEther money market\n     * @param comptroller_ The address of the Comptroller\n     * @param interestRateModel_ The address of the interest rate model\n     * @param initialExchangeRateMantissa_ The initial exchange rate, scaled by 1e18\n     * @param name_ ERC-20 name of this token\n     * @param symbol_ ERC-20 symbol of this token\n     * @param decimals_ ERC-20 decimal precision of this token\n     */\n    constructor(ComptrollerInterface comptroller_,\n                InterestRateModel interestRateModel_,\n                uint initialExchangeRateMantissa_,\n                string memory name_,\n                string memory symbol_,\n                uint decimals_) public\n    CToken(comptroller_, interestRateModel_, initialExchangeRateMantissa_, name_, symbol_, decimals_) {}\n\n    /*** User Interface ***/\n\n    /**\n     * @notice Sender supplies assets into the market and receives cTokens in exchange\n     * @dev Reverts upon any failure\n     */\n    function mint() external payable {\n        requireNoError(mintInternal(msg.value), \"mint failed\");\n    }\n\n    /**\n     * @notice Sender redeems cTokens in exchange for the underlying asset\n     * @dev Accrues interest whether or not the operation succeeds, unless reverted\n     * @param redeemTokens The number of cTokens to redeem into underlying\n     * @return uint 0=success, otherwise a failure (see ErrorReporter.sol for details)\n     */\n    function redeem(uint redeemTokens) external returns (uint) {\n        return redeemInternal(redeemTokens);\n    }\n\n    /**\n     * @notice Sender redeems cTokens in exchange for a specified amount of underlying asset\n     * @dev Accrues interest whether or not the operation succeeds, unless reverted\n     * @param redeemAmount The amount of underlying to redeem\n     * @return uint 0=success, otherwise a failure (see ErrorReporter.sol for details)\n     */\n    function redeemUnderlying(uint redeemAmount) external returns (uint) {\n        return redeemUnderlyingInternal(redeemAmount);\n    }\n\n    /**\n      * @notice Sender borrows assets from the protocol to their own address\n      * @param borrowAmount The amount of the underlying asset to borrow\n      * @return uint 0=success, otherwise a failure (see ErrorReporter.sol for details)\n      */\n    function borrow(uint borrowAmount) external returns (uint) {\n        return borrowInternal(borrowAmount);\n    }\n\n    /**\n     * @notice Sender repays their own borrow\n     * @dev Reverts upon any failure\n     */\n    function repayBorrow() external payable {\n        requireNoError(repayBorrowInternal(msg.value), \"repayBorrow failed\");\n    }\n\n    /**\n     * @notice Sender repays a borrow belonging to borrower\n     * @dev Reverts upon any failure\n     * @param borrower the account with the debt being payed off\n     */\n    function repayBorrowBehalf(address borrower) external payable {\n        requireNoError(repayBorrowBehalfInternal(borrower, msg.value), \"repayBorrowBehalf failed\");\n    }\n\n    /**\n     * @notice The sender liquidates the borrowers collateral.\n     *  The collateral seized is transferred to the liquidator.\n     * @dev Reverts upon any failure\n     * @param borrower The borrower of this cToken to be liquidated\n     * @param cTokenCollateral The market in which to seize collateral from the borrower\n     */\n    function liquidateBorrow(address borrower, CToken cTokenCollateral) external payable {\n        requireNoError(liquidateBorrowInternal(borrower, msg.value, cTokenCollateral), \"liquidateBorrow failed\");\n    }\n\n    /**\n     * @notice Send Ether to CEther to mint\n     */\n    function () external payable {\n        requireNoError(mintInternal(msg.value), \"mint failed\");\n    }\n\n    /*** Safe Token ***/\n\n    /**\n     * @notice Gets balance of this contract in terms of Ether, before this message\n     * @dev This excludes the value of the current message, if any\n     * @return The quantity of Ether owned by this contract\n     */\n    function getCashPrior() internal view returns (uint) {\n        (MathError err, uint startingBalance) = subUInt(address(this).balance, msg.value);\n        require(err == MathError.NO_ERROR);\n        return startingBalance;\n    }\n\n    /**\n     * @notice Checks whether the requested transfer matches the `msg`\n     * @dev Does NOT do a transfer\n     * @param from Address sending the Ether\n     * @param amount Amount of Ether being sent\n     * @return Whether or not the transfer checks out\n     */\n    function checkTransferIn(address from, uint amount) internal view returns (Error) {\n        // Sanity checks\n        require(msg.sender == from, \"sender mismatch\");\n        require(msg.value == amount, \"value mismatch\");\n        return Error.NO_ERROR;\n    }\n\n    /**\n     * @notice Perform the actual transfer in, which is a no-op\n     * @param from Address sending the Ether\n     * @param amount Amount of Ether being sent\n     * @return Success\n     */\n    function doTransferIn(address from, uint amount) internal returns (Error) {\n        // Sanity checks\n        require(msg.sender == from, \"sender mismatch\");\n        require(msg.value == amount, \"value mismatch\");\n        return Error.NO_ERROR;\n    }\n\n    function doTransferOut(address payable to, uint amount) internal returns (Error) {\n        /* Send the Ether, with minimal gas and revert on failure */\n        to.transfer(amount);\n        return Error.NO_ERROR;\n    }\n\n    function requireNoError(uint errCode, string memory message) internal pure {\n        if (errCode == uint(Error.NO_ERROR)) {\n            return;\n        }\n\n        bytes memory fullMessage = new bytes(bytes(message).length + 5);\n        uint i;\n\n        for (i = 0; i < bytes(message).length; i++) {\n            fullMessage[i] = bytes(message)[i];\n        }\n\n        fullMessage[i+0] = byte(uint8(32));\n        fullMessage[i+1] = byte(uint8(40));\n        fullMessage[i+2] = byte(uint8(48 + ( errCode / 10 )));\n        fullMessage[i+3] = byte(uint8(48 + ( errCode % 10 )));\n        fullMessage[i+4] = byte(uint8(41));\n\n        require(errCode == uint(Error.NO_ERROR), string(fullMessage));\n    }\n}",
  "sourcePath": "/Users/shain/repositories/insta-wealth/contracts/Compound/CEther.sol",
  "compiler": {
    "name": "solc",
    "version": "0.5.12+commit.7709ece9.Emscripten.clang"
  },
  "schemaVersion": "3.0.16",
  "updatedAt": "2019-10-22T23:22:54.480Z",
  "devdoc": {
    "author": "Compound",
    "methods": {
      "_acceptAdmin()": {
        "details": "Admin function for pending admin to accept role and update admin",
        "return": "uint 0=success, otherwise a failure (see ErrorReporter.sol for details)"
      },
      "_reduceReserves(uint256)": {
        "params": {
          "reduceAmount": "Amount of reduction to reserves"
        },
        "return": "uint 0=success, otherwise a failure (see ErrorReporter.sol for details)"
      },
      "_setComptroller(address)": {
        "details": "Admin function to set a new comptroller",
        "return": "uint 0=success, otherwise a failure (see ErrorReporter.sol for details)"
      },
      "_setInterestRateModel(address)": {
        "details": "Admin function to accrue interest and update the interest rate model",
        "params": {
          "newInterestRateModel": "the new interest rate model to use"
        },
        "return": "uint 0=success, otherwise a failure (see ErrorReporter.sol for details)"
      },
      "_setPendingAdmin(address)": {
        "details": "Admin function to begin change of admin. The newPendingAdmin must call `_acceptAdmin` to finalize the transfer.",
        "params": {
          "newPendingAdmin": "New pending admin."
        },
        "return": "uint 0=success, otherwise a failure (see ErrorReporter.sol for details)      * TODO: Should we add a second arg to verify, like a checksum of `newAdmin` address?"
      },
      "_setReserveFactor(uint256)": {
        "details": "Admin function to accrue interest and set a new reserve factor",
        "return": "uint 0=success, otherwise a failure (see ErrorReporter.sol for details)"
      },
      "accrueInterest()": {
        "details": "This calculates interest accrued from the last checkpointed block     up to the current block and writes new checkpoint to storage."
      },
      "allowance(address,address)": {
        "params": {
          "owner": "The address of the account which owns the tokens to be spent",
          "spender": "The address of the account which may transfer tokens"
        },
        "return": "The number of tokens allowed to be spent (-1 means infinite)"
      },
      "approve(address,uint256)": {
        "details": "This will overwrite the approval amount for `spender` and is subject to issues noted [here](https://eips.ethereum.org/EIPS/eip-20#approve)",
        "params": {
          "amount": "The number of tokens that are approved (-1 means infinite)",
          "spender": "The address of the account which may transfer tokens"
        },
        "return": "Whether or not the approval succeeded"
      },
      "balanceOf(address)": {
        "params": {
          "owner": "The address of the account to query"
        },
        "return": "The number of tokens owned by `owner`"
      },
      "balanceOfUnderlying(address)": {
        "details": "This also accrues interest in a transaction",
        "params": {
          "owner": "The address of the account to query"
        },
        "return": "The amount of underlying owned by `owner`"
      },
      "borrow(uint256)": {
        "params": {
          "borrowAmount": "The amount of the underlying asset to borrow"
        },
        "return": "uint 0=success, otherwise a failure (see ErrorReporter.sol for details)"
      },
      "borrowBalanceCurrent(address)": {
        "params": {
          "account": "The address whose balance should be calculated after updating borrowIndex"
        },
        "return": "The calculated balance"
      },
      "borrowBalanceStored(address)": {
        "params": {
          "account": "The address whose balance should be calculated"
        },
        "return": "The calculated balance"
      },
      "borrowRatePerBlock()": {
        "return": "The borrow interest rate per block, scaled by 1e18"
      },
      "constructor": {
        "params": {
          "comptroller_": "The address of the Comptroller",
          "decimals_": "ERC-20 decimal precision of this token",
          "initialExchangeRateMantissa_": "The initial exchange rate, scaled by 1e18",
          "interestRateModel_": "The address of the interest rate model",
          "name_": "ERC-20 name of this token",
          "symbol_": "ERC-20 symbol of this token"
        }
      },
      "exchangeRateCurrent()": {
        "return": "Calculated exchange rate scaled by 1e18"
      },
      "exchangeRateStored()": {
        "details": "This function does not accrue interest before calculating the exchange rate",
        "return": "Calculated exchange rate scaled by 1e18"
      },
      "getAccountSnapshot(address)": {
        "details": "This is used by comptroller to more efficiently perform liquidity checks.",
        "params": {
          "account": "Address of the account to snapshot"
        },
        "return": "(possible error, token balance, borrow balance, exchange rate mantissa)"
      },
      "getCash()": {
        "return": "The quantity of underlying asset owned by this contract"
      },
      "liquidateBorrow(address,address)": {
        "details": "Reverts upon any failure",
        "params": {
          "borrower": "The borrower of this cToken to be liquidated",
          "cTokenCollateral": "The market in which to seize collateral from the borrower"
        }
      },
      "mint()": {
        "details": "Reverts upon any failure"
      },
      "redeem(uint256)": {
        "details": "Accrues interest whether or not the operation succeeds, unless reverted",
        "params": {
          "redeemTokens": "The number of cTokens to redeem into underlying"
        },
        "return": "uint 0=success, otherwise a failure (see ErrorReporter.sol for details)"
      },
      "redeemUnderlying(uint256)": {
        "details": "Accrues interest whether or not the operation succeeds, unless reverted",
        "params": {
          "redeemAmount": "The amount of underlying to redeem"
        },
        "return": "uint 0=success, otherwise a failure (see ErrorReporter.sol for details)"
      },
      "repayBorrow()": {
        "details": "Reverts upon any failure"
      },
      "repayBorrowBehalf(address)": {
        "details": "Reverts upon any failure",
        "params": {
          "borrower": "the account with the debt being payed off"
        }
      },
      "seize(address,address,uint256)": {
        "details": "Will fail unless called by another cToken during the process of liquidation. Its absolutely critical to use msg.sender as the borrowed cToken and not a parameter.",
        "params": {
          "borrower": "The account having collateral seized",
          "liquidator": "The account receiving seized collateral",
          "seizeTokens": "The number of cTokens to seize"
        },
        "return": "uint 0=success, otherwise a failure (see ErrorReporter.sol for details)"
      },
      "supplyRatePerBlock()": {
        "return": "The supply interest rate per block, scaled by 1e18"
      },
      "totalBorrowsCurrent()": {
        "return": "The total borrows with interest"
      },
      "transfer(address,uint256)": {
        "params": {
          "amount": "The number of tokens to transfer",
          "dst": "The address of the destination account"
        },
        "return": "Whether or not the transfer succeeded"
      },
      "transferFrom(address,address,uint256)": {
        "params": {
          "amount": "The number of tokens to transfer",
          "dst": "The address of the destination account",
          "src": "The address of the source account"
        },
        "return": "Whether or not the transfer succeeded"
      }
    },
    "title": "Compound's CEther Contract"
  },
  "userdoc": {
    "methods": {
      "_acceptAdmin()": {
        "notice": "Accepts transfer of admin rights. msg.sender must be pendingAdmin"
      },
      "_reduceReserves(uint256)": {
        "notice": "Accrues interest and reduces reserves by transferring to admin"
      },
      "_setComptroller(address)": {
        "notice": "Sets a new comptroller for the market"
      },
      "_setInterestRateModel(address)": {
        "notice": "accrues interest and updates the interest rate model using _setInterestRateModelFresh"
      },
      "_setPendingAdmin(address)": {
        "notice": "Begins transfer of admin rights. The newPendingAdmin must call `_acceptAdmin` to finalize the transfer."
      },
      "_setReserveFactor(uint256)": {
        "notice": "accrues interest and sets a new reserve factor for the protocol using _setReserveFactorFresh"
      },
      "accrueInterest()": {
        "notice": "Applies accrued interest to total borrows and reserves."
      },
      "allowance(address,address)": {
        "notice": "Get the current allowance from `owner` for `spender`"
      },
      "approve(address,uint256)": {
        "notice": "Approve `spender` to transfer up to `amount` from `src`"
      },
      "balanceOf(address)": {
        "notice": "Get the token balance of the `owner`"
      },
      "balanceOfUnderlying(address)": {
        "notice": "Get the underlying balance of the `owner`"
      },
      "borrow(uint256)": {
        "notice": "Sender borrows assets from the protocol to their own address"
      },
      "borrowBalanceCurrent(address)": {
        "notice": "Accrue interest to updated borrowIndex and then calculate account's borrow balance using the updated borrowIndex"
      },
      "borrowBalanceStored(address)": {
        "notice": "Return the borrow balance of account based on stored data"
      },
      "borrowRatePerBlock()": {
        "notice": "Returns the current per-block borrow interest rate for this cToken"
      },
      "constructor": "Construct a new CEther money market",
      "exchangeRateCurrent()": {
        "notice": "Accrue interest then return the up-to-date exchange rate"
      },
      "exchangeRateStored()": {
        "notice": "Calculates the exchange rate from the underlying to the CToken"
      },
      "getAccountSnapshot(address)": {
        "notice": "Get a snapshot of the account's balances, and the cached exchange rate"
      },
      "getCash()": {
        "notice": "Get cash balance of this cToken in the underlying asset"
      },
      "liquidateBorrow(address,address)": {
        "notice": "The sender liquidates the borrowers collateral. The collateral seized is transferred to the liquidator."
      },
      "mint()": {
        "notice": "Sender supplies assets into the market and receives cTokens in exchange"
      },
      "redeem(uint256)": {
        "notice": "Sender redeems cTokens in exchange for the underlying asset"
      },
      "redeemUnderlying(uint256)": {
        "notice": "Sender redeems cTokens in exchange for a specified amount of underlying asset"
      },
      "repayBorrow()": {
        "notice": "Sender repays their own borrow"
      },
      "repayBorrowBehalf(address)": {
        "notice": "Sender repays a borrow belonging to borrower"
      },
      "seize(address,address,uint256)": {
        "notice": "Transfers collateral tokens (this market) to the liquidator."
      },
      "supplyRatePerBlock()": {
        "notice": "Returns the current per-block supply interest rate for this cToken"
      },
      "totalBorrowsCurrent()": {
        "notice": "Returns the current total borrows plus accrued interest"
      },
      "transfer(address,uint256)": {
        "notice": "Transfer `amount` tokens from `msg.sender` to `dst`"
      },
      "transferFrom(address,address,uint256)": {
        "notice": "Transfer `amount` tokens from `src` to `dst`"
      }
    },
    "notice": "CToken which wraps Ether"
  }
}