{
  "contractName": "DSMath",
  "abi": [
    {
      "constant": true,
      "inputs": [
        {
          "internalType": "uint256",
          "name": "x",
          "type": "uint256"
        },
        {
          "internalType": "uint256",
          "name": "y",
          "type": "uint256"
        }
      ],
      "name": "cmul",
      "outputs": [
        {
          "internalType": "uint256",
          "name": "z",
          "type": "uint256"
        }
      ],
      "payable": false,
      "stateMutability": "pure",
      "type": "function"
    }
  ],
  "bytecode": "0x608060405234801561001057600080fd5b5060f28061001f6000396000f3fe6080604052348015600f57600080fd5b506004361060285760003560e01c8063f7837eb714602d575b600080fd5b604d60048036036040811015604157600080fd5b5080359060200135605f565b60408051918252519081900360200190f35b60006305f5e1006079607085856087565b6302faf08060ae565b81607f57fe5b049392505050565b600081158060a057505080820282828281609d57fe5b04145b60a857600080fd5b92915050565b8082018281101560a857600080fdfea265627a7a723158209ea255c2ab0964bfb2fcbcaddccce538caf3fed1a90e646a449a7760b3ff42fd64736f6c634300050c0032",
  "source": "pragma solidity ^0.5.8;\n\ncontract DSMath {\n    function add(uint x, uint y) internal pure returns (uint z) {\n        require((z = x + y) >= x);\n    }\n    function sub(uint x, uint y) internal pure returns (uint z) {\n        require((z = x - y) <= x);\n    }\n    function mul(uint x, uint y) internal pure returns (uint z) {\n        require(y == 0 || (z = x * y) / y == x);\n    }\n    function div(uint a, uint b) internal pure returns (uint c) {\n        require(b > 0);\n        c = a / b;\n    }\n\n    function min(uint x, uint y) internal pure returns (uint z) {\n        return x <= y ? x : y;\n    }\n    function max(uint x, uint y) internal pure returns (uint z) {\n        return x >= y ? x : y;\n    }\n    function imin(int x, int y) internal pure returns (int z) {\n        return x <= y ? x : y;\n    }\n    function imax(int x, int y) internal pure returns (int z) {\n        return x >= y ? x : y;\n    }\n\n    uint constant COL  = 10 ** 8;\n    uint constant WAD  = 10 ** 18;\n    uint constant RAY  = 10 ** 27;\n\n    function cmul(uint x, uint y) public pure returns (uint z) {\n        z = add(mul(x, y), COL / 2) / COL;\n    }\n    function wmul(uint x, uint y) internal pure returns (uint z) {\n        z = add(mul(x, y), WAD / 2) / WAD;\n    }\n    function rmul(uint x, uint y) internal pure returns (uint z) {\n        z = add(mul(x, y), RAY / 2) / RAY;\n    }\n    function cdiv(uint x, uint y) internal pure returns (uint z) {\n        z = add(mul(x, COL), y / 2) / y;\n    }\n    function wdiv(uint x, uint y) internal pure returns (uint z) {\n        z = add(mul(x, WAD), y / 2) / y;\n    }\n    function rdiv(uint x, uint y) internal pure returns (uint z) {\n        z = add(mul(x, RAY), y / 2) / y;\n    }\n\n    // This famous algorithm is called \"exponentiation by squaring\"\n    // and calculates x^n with x as fixed-point and n as regular unsigned.\n    //\n    // It's O(log n), instead of O(n) for naive repeated multiplication.\n    //\n    // These facts are why it works:\n    //\n    //  If n is even, then x^n = (x^2)^(n/2).\n    //  If n is odd,  then x^n = x * x^(n-1),\n    //   and applying the equation for even x gives\n    //    x^n = x * (x^2)^((n-1) / 2).\n    //\n    //  Also, EVM division is flooring and\n    //    floor[(n-1) / 2] = floor[n / 2].\n    //\n    function rpow(uint x, uint n) internal pure returns (uint z) {\n        z = n % 2 != 0 ? x : RAY;\n\n        for (n /= 2; n != 0; n /= 2) {\n            x = rmul(x, x);\n\n            if (n % 2 != 0) {\n                z = rmul(z, x);\n            }\n        }\n    }\n}\n",
  "sourcePath": "/Users/shain/repositories/insta-wealth/contracts/DSMath.sol",
  "compiler": {
    "name": "solc",
    "version": "0.5.12+commit.7709ece9.Emscripten.clang"
  },
  "schemaVersion": "3.0.16",
  "updatedAt": "2019-10-22T23:17:09.163Z",
  "devdoc": {
    "methods": {}
  },
  "userdoc": {
    "methods": {}
  }
}