{
  "contractName": "FakeCEther",
  "abi": [
    {
      "constant": true,
      "inputs": [],
      "name": "name",
      "outputs": [
        {
          "name": "",
          "type": "string"
        }
      ],
      "payable": false,
      "stateMutability": "view",
      "type": "function"
    },
    {
      "constant": false,
      "inputs": [
        {
          "name": "spender",
          "type": "address"
        },
        {
          "name": "amount",
          "type": "uint256"
        }
      ],
      "name": "approve",
      "outputs": [
        {
          "name": "",
          "type": "bool"
        }
      ],
      "payable": false,
      "stateMutability": "nonpayable",
      "type": "function"
    },
    {
      "constant": false,
      "inputs": [],
      "name": "mint",
      "outputs": [],
      "payable": true,
      "stateMutability": "payable",
      "type": "function"
    },
    {
      "constant": true,
      "inputs": [],
      "name": "reserveFactorMantissa",
      "outputs": [
        {
          "name": "",
          "type": "uint256"
        }
      ],
      "payable": false,
      "stateMutability": "view",
      "type": "function"
    },
    {
      "constant": false,
      "inputs": [
        {
          "name": "account",
          "type": "address"
        }
      ],
      "name": "borrowBalanceCurrent",
      "outputs": [
        {
          "name": "",
          "type": "uint256"
        }
      ],
      "payable": false,
      "stateMutability": "nonpayable",
      "type": "function"
    },
    {
      "constant": true,
      "inputs": [],
      "name": "totalSupply",
      "outputs": [
        {
          "name": "",
          "type": "uint256"
        }
      ],
      "payable": false,
      "stateMutability": "view",
      "type": "function"
    },
    {
      "constant": true,
      "inputs": [],
      "name": "exchangeRateStored",
      "outputs": [
        {
          "name": "",
          "type": "uint256"
        }
      ],
      "payable": false,
      "stateMutability": "view",
      "type": "function"
    },
    {
      "constant": false,
      "inputs": [
        {
          "name": "src",
          "type": "address"
        },
        {
          "name": "dst",
          "type": "address"
        },
        {
          "name": "amount",
          "type": "uint256"
        }
      ],
      "name": "transferFrom",
      "outputs": [
        {
          "name": "",
          "type": "bool"
        }
      ],
      "payable": false,
      "stateMutability": "nonpayable",
      "type": "function"
    },
    {
      "constant": true,
      "inputs": [],
      "name": "pendingAdmin",
      "outputs": [
        {
          "name": "",
          "type": "address"
        }
      ],
      "payable": false,
      "stateMutability": "view",
      "type": "function"
    },
    {
      "constant": true,
      "inputs": [],
      "name": "decimals",
      "outputs": [
        {
          "name": "",
          "type": "uint256"
        }
      ],
      "payable": false,
      "stateMutability": "view",
      "type": "function"
    },
    {
      "constant": false,
      "inputs": [
        {
          "name": "owner",
          "type": "address"
        }
      ],
      "name": "balanceOfUnderlying",
      "outputs": [
        {
          "name": "",
          "type": "uint256"
        }
      ],
      "payable": false,
      "stateMutability": "nonpayable",
      "type": "function"
    },
    {
      "constant": true,
      "inputs": [],
      "name": "getCash",
      "outputs": [
        {
          "name": "",
          "type": "uint256"
        }
      ],
      "payable": false,
      "stateMutability": "view",
      "type": "function"
    },
    {
      "constant": false,
      "inputs": [
        {
          "name": "newComptroller",
          "type": "address"
        }
      ],
      "name": "_setComptroller",
      "outputs": [
        {
          "name": "",
          "type": "uint256"
        }
      ],
      "payable": false,
      "stateMutability": "nonpayable",
      "type": "function"
    },
    {
      "constant": true,
      "inputs": [],
      "name": "totalBorrows",
      "outputs": [
        {
          "name": "",
          "type": "uint256"
        }
      ],
      "payable": false,
      "stateMutability": "view",
      "type": "function"
    },
    {
      "constant": false,
      "inputs": [],
      "name": "repayBorrow",
      "outputs": [],
      "payable": true,
      "stateMutability": "payable",
      "type": "function"
    },
    {
      "constant": true,
      "inputs": [],
      "name": "comptroller",
      "outputs": [
        {
          "name": "",
          "type": "address"
        }
      ],
      "payable": false,
      "stateMutability": "view",
      "type": "function"
    },
    {
      "constant": false,
      "inputs": [
        {
          "name": "reduceAmount",
          "type": "uint256"
        }
      ],
      "name": "_reduceReserves",
      "outputs": [
        {
          "name": "",
          "type": "uint256"
        }
      ],
      "payable": false,
      "stateMutability": "nonpayable",
      "type": "function"
    },
    {
      "constant": true,
      "inputs": [],
      "name": "initialExchangeRateMantissa",
      "outputs": [
        {
          "name": "",
          "type": "uint256"
        }
      ],
      "payable": false,
      "stateMutability": "view",
      "type": "function"
    },
    {
      "constant": true,
      "inputs": [],
      "name": "accrualBlockNumber",
      "outputs": [
        {
          "name": "",
          "type": "uint256"
        }
      ],
      "payable": false,
      "stateMutability": "view",
      "type": "function"
    },
    {
      "constant": true,
      "inputs": [
        {
          "name": "owner",
          "type": "address"
        }
      ],
      "name": "balanceOf",
      "outputs": [
        {
          "name": "",
          "type": "uint256"
        }
      ],
      "payable": false,
      "stateMutability": "view",
      "type": "function"
    },
    {
      "constant": false,
      "inputs": [],
      "name": "totalBorrowsCurrent",
      "outputs": [
        {
          "name": "",
          "type": "uint256"
        }
      ],
      "payable": false,
      "stateMutability": "nonpayable",
      "type": "function"
    },
    {
      "constant": false,
      "inputs": [
        {
          "name": "redeemAmount",
          "type": "uint256"
        }
      ],
      "name": "redeemUnderlying",
      "outputs": [
        {
          "name": "",
          "type": "uint256"
        }
      ],
      "payable": false,
      "stateMutability": "nonpayable",
      "type": "function"
    },
    {
      "constant": true,
      "inputs": [],
      "name": "totalReserves",
      "outputs": [
        {
          "name": "",
          "type": "uint256"
        }
      ],
      "payable": false,
      "stateMutability": "view",
      "type": "function"
    },
    {
      "constant": true,
      "inputs": [],
      "name": "symbol",
      "outputs": [
        {
          "name": "",
          "type": "string"
        }
      ],
      "payable": false,
      "stateMutability": "view",
      "type": "function"
    },
    {
      "constant": true,
      "inputs": [
        {
          "name": "account",
          "type": "address"
        }
      ],
      "name": "borrowBalanceStored",
      "outputs": [
        {
          "name": "",
          "type": "uint256"
        }
      ],
      "payable": false,
      "stateMutability": "view",
      "type": "function"
    },
    {
      "constant": false,
      "inputs": [],
      "name": "accrueInterest",
      "outputs": [
        {
          "name": "",
          "type": "uint256"
        }
      ],
      "payable": false,
      "stateMutability": "nonpayable",
      "type": "function"
    },
    {
      "constant": false,
      "inputs": [
        {
          "name": "dst",
          "type": "address"
        },
        {
          "name": "amount",
          "type": "uint256"
        }
      ],
      "name": "transfer",
      "outputs": [
        {
          "name": "",
          "type": "bool"
        }
      ],
      "payable": false,
      "stateMutability": "nonpayable",
      "type": "function"
    },
    {
      "constant": true,
      "inputs": [],
      "name": "borrowIndex",
      "outputs": [
        {
          "name": "",
          "type": "uint256"
        }
      ],
      "payable": false,
      "stateMutability": "view",
      "type": "function"
    },
    {
      "constant": false,
      "inputs": [
        {
          "name": "borrower",
          "type": "address"
        },
        {
          "name": "cTokenCollateral",
          "type": "address"
        }
      ],
      "name": "liquidateBorrow",
      "outputs": [],
      "payable": true,
      "stateMutability": "payable",
      "type": "function"
    },
    {
      "constant": true,
      "inputs": [],
      "name": "supplyRatePerBlock",
      "outputs": [
        {
          "name": "",
          "type": "uint256"
        }
      ],
      "payable": false,
      "stateMutability": "view",
      "type": "function"
    },
    {
      "constant": false,
      "inputs": [
        {
          "name": "liquidator",
          "type": "address"
        },
        {
          "name": "borrower",
          "type": "address"
        },
        {
          "name": "seizeTokens",
          "type": "uint256"
        }
      ],
      "name": "seize",
      "outputs": [
        {
          "name": "",
          "type": "uint256"
        }
      ],
      "payable": false,
      "stateMutability": "nonpayable",
      "type": "function"
    },
    {
      "constant": false,
      "inputs": [
        {
          "name": "newPendingAdmin",
          "type": "address"
        }
      ],
      "name": "_setPendingAdmin",
      "outputs": [
        {
          "name": "",
          "type": "uint256"
        }
      ],
      "payable": false,
      "stateMutability": "nonpayable",
      "type": "function"
    },
    {
      "constant": false,
      "inputs": [],
      "name": "exchangeRateCurrent",
      "outputs": [
        {
          "name": "",
          "type": "uint256"
        }
      ],
      "payable": false,
      "stateMutability": "nonpayable",
      "type": "function"
    },
    {
      "constant": true,
      "inputs": [
        {
          "name": "account",
          "type": "address"
        }
      ],
      "name": "getAccountSnapshot",
      "outputs": [
        {
          "name": "",
          "type": "uint256"
        },
        {
          "name": "",
          "type": "uint256"
        },
        {
          "name": "",
          "type": "uint256"
        },
        {
          "name": "",
          "type": "uint256"
        }
      ],
      "payable": false,
      "stateMutability": "view",
      "type": "function"
    },
    {
      "constant": false,
      "inputs": [
        {
          "name": "borrowAmount",
          "type": "uint256"
        }
      ],
      "name": "borrow",
      "outputs": [
        {
          "name": "",
          "type": "uint256"
        }
      ],
      "payable": false,
      "stateMutability": "nonpayable",
      "type": "function"
    },
    {
      "constant": false,
      "inputs": [
        {
          "name": "redeemTokens",
          "type": "uint256"
        }
      ],
      "name": "redeem",
      "outputs": [
        {
          "name": "",
          "type": "uint256"
        }
      ],
      "payable": false,
      "stateMutability": "nonpayable",
      "type": "function"
    },
    {
      "constant": true,
      "inputs": [
        {
          "name": "owner",
          "type": "address"
        },
        {
          "name": "spender",
          "type": "address"
        }
      ],
      "name": "allowance",
      "outputs": [
        {
          "name": "",
          "type": "uint256"
        }
      ],
      "payable": false,
      "stateMutability": "view",
      "type": "function"
    },
    {
      "constant": false,
      "inputs": [
        {
          "name": "borrower",
          "type": "address"
        }
      ],
      "name": "repayBorrowBehalf",
      "outputs": [],
      "payable": true,
      "stateMutability": "payable",
      "type": "function"
    },
    {
      "constant": false,
      "inputs": [],
      "name": "_acceptAdmin",
      "outputs": [
        {
          "name": "",
          "type": "uint256"
        }
      ],
      "payable": false,
      "stateMutability": "nonpayable",
      "type": "function"
    },
    {
      "constant": false,
      "inputs": [
        {
          "name": "newInterestRateModel",
          "type": "address"
        }
      ],
      "name": "_setInterestRateModel",
      "outputs": [
        {
          "name": "",
          "type": "uint256"
        }
      ],
      "payable": false,
      "stateMutability": "nonpayable",
      "type": "function"
    },
    {
      "constant": true,
      "inputs": [],
      "name": "interestRateModel",
      "outputs": [
        {
          "name": "",
          "type": "address"
        }
      ],
      "payable": false,
      "stateMutability": "view",
      "type": "function"
    },
    {
      "constant": true,
      "inputs": [],
      "name": "admin",
      "outputs": [
        {
          "name": "",
          "type": "address"
        }
      ],
      "payable": false,
      "stateMutability": "view",
      "type": "function"
    },
    {
      "constant": true,
      "inputs": [],
      "name": "borrowRatePerBlock",
      "outputs": [
        {
          "name": "",
          "type": "uint256"
        }
      ],
      "payable": false,
      "stateMutability": "view",
      "type": "function"
    },
    {
      "constant": false,
      "inputs": [
        {
          "name": "newReserveFactorMantissa",
          "type": "uint256"
        }
      ],
      "name": "_setReserveFactor",
      "outputs": [
        {
          "name": "",
          "type": "uint256"
        }
      ],
      "payable": false,
      "stateMutability": "nonpayable",
      "type": "function"
    },
    {
      "constant": true,
      "inputs": [],
      "name": "isCToken",
      "outputs": [
        {
          "name": "",
          "type": "bool"
        }
      ],
      "payable": false,
      "stateMutability": "view",
      "type": "function"
    },
    {
      "inputs": [
        {
          "name": "_comptroller",
          "type": "address"
        },
        {
          "name": "_interestRateModel",
          "type": "address"
        }
      ],
      "payable": false,
      "stateMutability": "nonpayable",
      "type": "constructor"
    },
    {
      "payable": true,
      "stateMutability": "payable",
      "type": "fallback"
    },
    {
      "anonymous": false,
      "inputs": [
        {
          "indexed": false,
          "name": "interestAccumulated",
          "type": "uint256"
        },
        {
          "indexed": false,
          "name": "borrowIndex",
          "type": "uint256"
        },
        {
          "indexed": false,
          "name": "totalBorrows",
          "type": "uint256"
        }
      ],
      "name": "AccrueInterest",
      "type": "event"
    },
    {
      "anonymous": false,
      "inputs": [
        {
          "indexed": false,
          "name": "minter",
          "type": "address"
        },
        {
          "indexed": false,
          "name": "mintAmount",
          "type": "uint256"
        },
        {
          "indexed": false,
          "name": "mintTokens",
          "type": "uint256"
        }
      ],
      "name": "Mint",
      "type": "event"
    },
    {
      "anonymous": false,
      "inputs": [
        {
          "indexed": false,
          "name": "redeemer",
          "type": "address"
        },
        {
          "indexed": false,
          "name": "redeemAmount",
          "type": "uint256"
        },
        {
          "indexed": false,
          "name": "redeemTokens",
          "type": "uint256"
        }
      ],
      "name": "Redeem",
      "type": "event"
    },
    {
      "anonymous": false,
      "inputs": [
        {
          "indexed": false,
          "name": "borrower",
          "type": "address"
        },
        {
          "indexed": false,
          "name": "borrowAmount",
          "type": "uint256"
        },
        {
          "indexed": false,
          "name": "accountBorrows",
          "type": "uint256"
        },
        {
          "indexed": false,
          "name": "totalBorrows",
          "type": "uint256"
        }
      ],
      "name": "Borrow",
      "type": "event"
    },
    {
      "anonymous": false,
      "inputs": [
        {
          "indexed": false,
          "name": "payer",
          "type": "address"
        },
        {
          "indexed": false,
          "name": "borrower",
          "type": "address"
        },
        {
          "indexed": false,
          "name": "repayAmount",
          "type": "uint256"
        },
        {
          "indexed": false,
          "name": "accountBorrows",
          "type": "uint256"
        },
        {
          "indexed": false,
          "name": "totalBorrows",
          "type": "uint256"
        }
      ],
      "name": "RepayBorrow",
      "type": "event"
    },
    {
      "anonymous": false,
      "inputs": [
        {
          "indexed": false,
          "name": "liquidator",
          "type": "address"
        },
        {
          "indexed": false,
          "name": "borrower",
          "type": "address"
        },
        {
          "indexed": false,
          "name": "repayAmount",
          "type": "uint256"
        },
        {
          "indexed": false,
          "name": "cTokenCollateral",
          "type": "address"
        },
        {
          "indexed": false,
          "name": "seizeTokens",
          "type": "uint256"
        }
      ],
      "name": "LiquidateBorrow",
      "type": "event"
    },
    {
      "anonymous": false,
      "inputs": [
        {
          "indexed": false,
          "name": "oldPendingAdmin",
          "type": "address"
        },
        {
          "indexed": false,
          "name": "newPendingAdmin",
          "type": "address"
        }
      ],
      "name": "NewPendingAdmin",
      "type": "event"
    },
    {
      "anonymous": false,
      "inputs": [
        {
          "indexed": false,
          "name": "oldAdmin",
          "type": "address"
        },
        {
          "indexed": false,
          "name": "newAdmin",
          "type": "address"
        }
      ],
      "name": "NewAdmin",
      "type": "event"
    },
    {
      "anonymous": false,
      "inputs": [
        {
          "indexed": false,
          "name": "oldComptroller",
          "type": "address"
        },
        {
          "indexed": false,
          "name": "newComptroller",
          "type": "address"
        }
      ],
      "name": "NewComptroller",
      "type": "event"
    },
    {
      "anonymous": false,
      "inputs": [
        {
          "indexed": false,
          "name": "oldInterestRateModel",
          "type": "address"
        },
        {
          "indexed": false,
          "name": "newInterestRateModel",
          "type": "address"
        }
      ],
      "name": "NewMarketInterestRateModel",
      "type": "event"
    },
    {
      "anonymous": false,
      "inputs": [
        {
          "indexed": false,
          "name": "oldReserveFactorMantissa",
          "type": "uint256"
        },
        {
          "indexed": false,
          "name": "newReserveFactorMantissa",
          "type": "uint256"
        }
      ],
      "name": "NewReserveFactor",
      "type": "event"
    },
    {
      "anonymous": false,
      "inputs": [
        {
          "indexed": false,
          "name": "admin",
          "type": "address"
        },
        {
          "indexed": false,
          "name": "reduceAmount",
          "type": "uint256"
        },
        {
          "indexed": false,
          "name": "newTotalReserves",
          "type": "uint256"
        }
      ],
      "name": "ReservesReduced",
      "type": "event"
    },
    {
      "anonymous": false,
      "inputs": [
        {
          "indexed": false,
          "name": "error",
          "type": "uint256"
        },
        {
          "indexed": false,
          "name": "info",
          "type": "uint256"
        },
        {
          "indexed": false,
          "name": "detail",
          "type": "uint256"
        }
      ],
      "name": "Failure",
      "type": "event"
    },
    {
      "anonymous": false,
      "inputs": [
        {
          "indexed": true,
          "name": "from",
          "type": "address"
        },
        {
          "indexed": true,
          "name": "to",
          "type": "address"
        },
        {
          "indexed": false,
          "name": "amount",
          "type": "uint256"
        }
      ],
      "name": "Transfer",
      "type": "event"
    },
    {
      "anonymous": false,
      "inputs": [
        {
          "indexed": true,
          "name": "owner",
          "type": "address"
        },
        {
          "indexed": true,
          "name": "spender",
          "type": "address"
        },
        {
          "indexed": false,
          "name": "amount",
          "type": "uint256"
        }
      ],
      "name": "Approval",
      "type": "event"
    }
  ],
  "bytecode": "0x60806040523480156200001157600080fd5b50604051604080620055e5833981018060405260408110156200003357600080fd5b508051602091820151604080518082018252601381527f46616b6520436f6d706f756e642045746865720000000000000000000000000081860152815180830190925260048083527f634554480000000000000000000000000000000000000000000000000000000095830195909552600160005584546001600160a01b03191633179094556aa56fa5b99019a5c80000006008818155939492938593859390918585858585856000620000ed876200022d60201b60201c565b905080156200015d57604080517f08c379a000000000000000000000000000000000000000000000000000000000815260206004820152601a60248201527f53657474696e6720636f6d7074726f6c6c6572206661696c6564000000000000604482015290519081900360640190fd5b6200016d620003c060201b60201c565b600a55670de0b6b3a7640000600b556200018e86620003c5602090811b901c565b90508015620001e9576040517f08c379a0000000000000000000000000000000000000000000000000000000008152600401808060200182810382526022815260200180620055c36022913960400191505060405180910390fd5b8351620001fe906001906020870190620005e7565b50825162000214906002906020860190620005e7565b505060035550620006899b505050505050505050505050565b6004546000906001600160a01b031633146200025f57620002576001603f6200057760201b60201c565b9050620003bb565b600654604080517e7e3dd200000000000000000000000000000000000000000000000000000000815290516001600160a01b0392831692851691627e3dd2916004808301926020929190829003018186803b158015620002be57600080fd5b505afa158015620002d3573d6000803e3d6000fd5b505050506040513d6020811015620002ea57600080fd5b50516200035857604080517f08c379a000000000000000000000000000000000000000000000000000000000815260206004820152601c60248201527f6d61726b6572206d6574686f642072657475726e65642066616c736500000000604482015290519081900360640190fd5b600680546001600160a01b0319166001600160a01b03858116918217909255604080519284168352602083019190915280517f7ac369dbd14fa5ea3f473ed67cc9d598964a77501540ba6751eb0b3decf5870d9281900390910190a160005b9150505b919050565b435b90565b60045460009081906001600160a01b03163314620003fa57620003f1600160426200057760201b60201c565b915050620003bb565b6200040a620003c060201b60201c565b600a54146200042757620003f1600a60416200057760201b60201c565b600760009054906101000a90046001600160a01b03169050826001600160a01b0316632191f92a6040518163ffffffff1660e01b815260040160206040518083038186803b1580156200047957600080fd5b505afa1580156200048e573d6000803e3d6000fd5b505050506040513d6020811015620004a557600080fd5b50516200051357604080517f08c379a000000000000000000000000000000000000000000000000000000000815260206004820152601c60248201527f6d61726b6572206d6574686f642072657475726e65642066616c736500000000604482015290519081900360640190fd5b600780546001600160a01b0319166001600160a01b03858116918217909255604080519284168352602083019190915280517fedffc32e068c7c95dfd4bdfd5c4d939a084d6b11c4199eac8436ed234d72f9269281900390910190a16000620003b7565b60007f45b96fe442630264581b197e84bbada861235052c5a1aadfff9ea4e40a969aa0836010811115620005a757fe5b83604d811115620005b457fe5b604080519283526020830191909152600082820152519081900360600190a1826010811115620005e057fe5b9392505050565b828054600181600116156101000203166002900490600052602060002090601f016020900481019282601f106200062a57805160ff19168380011785556200065a565b828001600101855582156200065a579182015b828111156200065a5782518255916020019190600101906200063d565b50620006689291506200066c565b5090565b620003c291905b8082111562000668576000815560010162000673565b614f2a80620006996000396000f3fe6080604052600436106102f25760003560e01c80638f840ddd1161018f578063c37f68e2116100e1578063f2b3abbd1161008a578063f8f9da2811610064578063f8f9da28146109a8578063fca7820b146109bd578063fe9c44ae146109e7576102f2565b8063f2b3abbd1461094b578063f3fdb15a1461097e578063f851a44014610993576102f2565b8063dd62ed3e116100bb578063dd62ed3e146108d5578063e597461914610910578063e9c714f214610936576102f2565b8063c37f68e214610828578063c5ebeaec14610881578063db006a75146108ab576102f2565b8063aa5af0fd11610143578063b2a02ff11161011d578063b2a02ff11461079d578063b71d1a0c146107e0578063bd6d894d14610813576102f2565b8063aa5af0fd14610745578063aae40a2a1461075a578063ae9d70b014610788576102f2565b806395dd91931161017457806395dd9193146106c4578063a6afed95146106f7578063a9059cbb1461070c576102f2565b80638f840ddd1461069a57806395d89b41146106af576102f2565b80633b1d21a211610248578063601a0bf1116101fc57806370a08231116101d657806370a082311461062857806373acee981461065b578063852a12e314610670576102f2565b8063601a0bf1146105d4578063675d972c146105fe5780636c540baf14610613576102f2565b806347bd37181161022d57806347bd3718146105a25780634e4d9fea146105b75780635fe3b567146105bf576102f2565b80633b1d21a21461055a5780634576b5db1461056f576102f2565b806318160ddd116102aa578063267822471161028457806326782247146104e1578063313ce567146105125780633af9e66914610527576102f2565b806318160ddd14610474578063182df0f51461048957806323b872dd1461049e576102f2565b80631249c58b116102db5780631249c58b14610412578063173b99041461041a57806317bfdfbc14610441576102f2565b806306fdde031461033b578063095ea7b3146103c5575b6103396102fe346109fc565b6040518060400160405280600b81526020017f6d696e74206661696c6564000000000000000000000000000000000000000000815250610a92565b005b34801561034757600080fd5b50610350610cb1565b6040805160208082528351818301528351919283929083019185019080838360005b8381101561038a578181015183820152602001610372565b50505050905090810190601f1680156103b75780820380516001836020036101000a031916815260200191505b509250505060405180910390f35b3480156103d157600080fd5b506103fe600480360360408110156103e857600080fd5b506001600160a01b038135169060200135610d3e565b604080519115158252519081900360200190f35b610339610dab565b34801561042657600080fd5b5061042f610db9565b60408051918252519081900360200190f35b34801561044d57600080fd5b5061042f6004803603602081101561046457600080fd5b50356001600160a01b0316610dbf565b34801561048057600080fd5b5061042f610e7b565b34801561049557600080fd5b5061042f610e81565b3480156104aa57600080fd5b506103fe600480360360608110156104c157600080fd5b506001600160a01b03813581169160208101359091169060400135610ee7565b3480156104ed57600080fd5b506104f6610f53565b604080516001600160a01b039092168252519081900360200190f35b34801561051e57600080fd5b5061042f610f62565b34801561053357600080fd5b5061042f6004803603602081101561054a57600080fd5b50356001600160a01b0316610f68565b34801561056657600080fd5b5061042f610fd8565b34801561057b57600080fd5b5061042f6004803603602081101561059257600080fd5b50356001600160a01b0316610fe7565b3480156105ae57600080fd5b5061042f611160565b610339611166565b3480156105cb57600080fd5b506104f66111ad565b3480156105e057600080fd5b5061042f600480360360208110156105f757600080fd5b50356111bc565b34801561060a57600080fd5b5061042f6111f6565b34801561061f57600080fd5b5061042f6111fc565b34801561063457600080fd5b5061042f6004803603602081101561064b57600080fd5b50356001600160a01b0316611202565b34801561066757600080fd5b5061042f61121d565b34801561067c57600080fd5b5061042f6004803603602081101561069357600080fd5b50356112d7565b3480156106a657600080fd5b5061042f6112e2565b3480156106bb57600080fd5b506103506112e8565b3480156106d057600080fd5b5061042f600480360360208110156106e757600080fd5b50356001600160a01b0316611340565b34801561070357600080fd5b5061042f6113a0565b34801561071857600080fd5b506103fe6004803603604081101561072f57600080fd5b506001600160a01b03813516906020013561179c565b34801561075157600080fd5b5061042f611807565b6103396004803603604081101561077057600080fd5b506001600160a01b038135811691602001351661180d565b34801561079457600080fd5b5061042f611856565b3480156107a957600080fd5b5061042f600480360360608110156107c057600080fd5b506001600160a01b03813581169160208101359091169060400135611b30565b3480156107ec57600080fd5b5061042f6004803603602081101561080357600080fd5b50356001600160a01b0316611e2b565b34801561081f57600080fd5b5061042f611ebf565b34801561083457600080fd5b5061085b6004803603602081101561084b57600080fd5b50356001600160a01b0316611f7a565b604080519485526020850193909352838301919091526060830152519081900360800190f35b34801561088d57600080fd5b5061042f600480360360208110156108a457600080fd5b503561200f565b3480156108b757600080fd5b5061042f600480360360208110156108ce57600080fd5b503561201a565b3480156108e157600080fd5b5061042f600480360360408110156108f857600080fd5b506001600160a01b0381358116916020013516612025565b6103396004803603602081101561092657600080fd5b50356001600160a01b0316612050565b34801561094257600080fd5b5061042f61209b565b34801561095757600080fd5b5061042f6004803603602081101561096e57600080fd5b50356001600160a01b0316612197565b34801561098a57600080fd5b506104f66121d1565b34801561099f57600080fd5b506104f66121e0565b3480156109b457600080fd5b5061042f6121ef565b3480156109c957600080fd5b5061042f600480360360208110156109e057600080fd5b50356122ce565b3480156109f357600080fd5b506103fe612308565b6000805460010180825581610a0f6113a0565b90508015610a3557610a2d816010811115610a2657fe5b601e61230d565b925050610a43565b610a3f3385612373565b9250505b6000548114610a8c5760408051600160e51b62461bcd02815260206004820152600a6024820152600160b21b691c994b595b9d195c995902604482015290519081900360640190fd5b50919050565b81610a9c57610cad565b606081516005016040519080825280601f01601f191660200182016040528015610acd576020820181803883390190505b50905060005b8251811015610b1e57828181518110610ae857fe5b602001015160f81c60f81b828281518110610aff57fe5b60200101906001600160f81b031916908160001a905350600101610ad3565b81517f200000000000000000000000000000000000000000000000000000000000000090839083908110610b4e57fe5b60200101906001600160f81b031916908160001a905350602860f81b828260010181518110610b7957fe5b60200101906001600160f81b031916908160001a905350600a840460300160f81b828260020181518110610ba957fe5b60200101906001600160f81b031916908160001a905350600a840660300160f81b828260030181518110610bd957fe5b60200101906001600160f81b031916908160001a905350602960f81b828260040181518110610c0457fe5b60200101906001600160f81b031916908160001a905350818415610ca957604051600160e51b62461bcd0281526004018080602001828103825283818151815260200191508051906020019080838360005b83811015610c6e578181015183820152602001610c56565b50505050905090810190601f168015610c9b5780820380516001836020036101000a031916815260200191505b509250505060405180910390fd5b5050505b5050565b60018054604080516020600284861615610100026000190190941693909304601f81018490048402820184019092528181529291830182828015610d365780601f10610d0b57610100808354040283529160200191610d36565b820191906000526020600020905b815481529060010190602001808311610d1957829003601f168201915b505050505081565b3360008181526010602090815260408083206001600160a01b03871680855290835281842086905581518681529151939493909284927f8c5be1e5ebec7d5bd14f71427d1e84f3dd0314c0f7b2291e5b200ac8c7c3b925929081900390910190a360019150505b92915050565b610db76102fe346109fc565b565b60095481565b6000805460010180825581610dd26113a0565b14610e275760408051600160e51b62461bcd02815260206004820152601660248201527f61636372756520696e746572657374206661696c656400000000000000000000604482015290519081900360640190fd5b610e3083611340565b91506000548114610a8c5760408051600160e51b62461bcd02815260206004820152600a6024820152600160b21b691c994b595b9d195c995902604482015290519081900360640190fd5b600e5481565b6000806000610e8e6127ff565b90925090506000826003811115610ea157fe5b14610ee057604051600160e51b62461bcd028152600401808060200182810382526035815260200180614e726035913960400191505060405180910390fd5b9150505b90565b6000805460010180825581610efe338787876128ad565b1491505b6000548114610f4b5760408051600160e51b62461bcd02815260206004820152600a6024820152600160b21b691c994b595b9d195c995902604482015290519081900360640190fd5b509392505050565b6005546001600160a01b031681565b60035481565b6000610f72614beb565b6040518060200160405280610f85611ebf565b90526001600160a01b0384166000908152600f6020526040812054919250908190610fb1908490612c01565b90925090506000826003811115610fc457fe5b14610fce57600080fd5b925050505b919050565b6000610fe2612c55565b905090565b6004546000906001600160a01b0316331461100f576110086001603f61230d565b9050610fd3565b600654604080517e7e3dd200000000000000000000000000000000000000000000000000000000815290516001600160a01b0392831692851691627e3dd2916004808301926020929190829003018186803b15801561106d57600080fd5b505afa158015611081573d6000803e3d6000fd5b505050506040513d602081101561109757600080fd5b50516110ed5760408051600160e51b62461bcd02815260206004820152601c60248201527f6d61726b6572206d6574686f642072657475726e65642066616c736500000000604482015290519081900360640190fd5b6006805473ffffffffffffffffffffffffffffffffffffffff19166001600160a01b03858116918217909255604080519284168352602083019190915280517f7ac369dbd14fa5ea3f473ed67cc9d598964a77501540ba6751eb0b3decf5870d9281900390910190a160005b9392505050565b600c5481565b610db761117234612c81565b6040518060400160405280601281526020017f7265706179426f72726f77206661696c65640000000000000000000000000000815250610a92565b6006546001600160a01b031681565b60008054600101808255816111cf6113a0565b905080156111ed57610a2d8160108111156111e657fe5b603061230d565b610a3f84612cbd565b60085481565b600a5481565b6001600160a01b03166000908152600f602052604090205490565b60008054600101808255816112306113a0565b146112855760408051600160e51b62461bcd02815260206004820152601660248201527f61636372756520696e746572657374206661696c656400000000000000000000604482015290519081900360640190fd5b600c54915060005481146112d35760408051600160e51b62461bcd02815260206004820152600a6024820152600160b21b691c994b595b9d195c995902604482015290519081900360640190fd5b5090565b6000610da582612e41565b600d5481565b6002805460408051602060018416156101000260001901909316849004601f81018490048402820184019092528181529291830182828015610d365780601f10610d0b57610100808354040283529160200191610d36565b600080600061134e84612e7e565b9092509050600082600381111561136157fe5b1461115957604051600160e51b62461bcd028152600401808060200182810382526037815260200180614d666037913960400191505060405180910390fd5b60006113aa614bfe565b6007546001600160a01b03166315f240536113c3612c55565b600c54600d546040518463ffffffff1660e01b8152600401808481526020018381526020018281526020019350505050604080518083038186803b15801561140a57600080fd5b505afa15801561141e573d6000803e3d6000fd5b505050506040513d604081101561143457600080fd5b50805160209182015160408401819052918301526601c6bf5263400010156114a65760408051600160e51b62461bcd02815260206004820152601c60248201527f626f72726f772072617465206973206162737572646c79206869676800000000604482015290519081900360640190fd5b6020810151156114c9576114c1600560028360200151612f32565b915050610ee4565b6114d1612f98565b60608201819052600a546114e59190612f9c565b60808301819052828260038111156114f957fe5b600381111561150457fe5b905250600090508151600381111561151857fe5b1461151f57fe5b61153f604051806020016040528083604001518152508260800151612fbf565b60a083018190528282600381111561155357fe5b600381111561155e57fe5b905250600090508151600381111561157257fe5b14611593576114c1600960068360000151600381111561158e57fe5b612f32565b6115a38160a00151600c54612c01565b60c08301819052828260038111156115b757fe5b60038111156115c257fe5b90525060009050815160038111156115d657fe5b146115f2576114c1600960018360000151600381111561158e57fe5b6116028160c00151600c54613027565b60e083018190528282600381111561161657fe5b600381111561162157fe5b905250600090508151600381111561163557fe5b14611651576114c1600960048360000151600381111561158e57fe5b61167260405180602001604052806009548152508260c00151600d5461304d565b61010083018190528282600381111561168757fe5b600381111561169257fe5b90525060009050815160038111156116a657fe5b146116c2576114c1600960058360000151600381111561158e57fe5b6116d58160a00151600b54600b5461304d565b6101208301819052828260038111156116ea57fe5b60038111156116f557fe5b905250600090508151600381111561170957fe5b14611725576114c1600960038360000151600381111561158e57fe5b606080820151600a55610120820151600b81905560e0830151600c819055610100840151600d5560c08401516040805191825260208201939093528083019190915290517f875352fb3fadeb8c0be7cbbe8ff761b308fa7033470cd0287f02f3436fd76cb9929181900390910190a1600091505090565b60008054600101808255816117b3333387876128ad565b1491505b60005481146118005760408051600160e51b62461bcd02815260206004820152600a6024820152600160b21b691c994b595b9d195c995902604482015290519081900360640190fd5b5092915050565b600b5481565b610cad61181b8334846130a9565b6040518060400160405280601681526020017f6c6971756964617465426f72726f77206661696c656400000000000000000000815250610a92565b600080611861610e81565b60075490915060009081906001600160a01b03166315f24053611882612c55565b600c54600d546040518463ffffffff1660e01b8152600401808481526020018381526020018281526020019350505050604080518083038186803b1580156118c957600080fd5b505afa1580156118dd573d6000803e3d6000fd5b505050506040513d60408110156118f357600080fd5b5080516020909101519092509050811561194157604051600160e51b62461bcd028152600401808060200182810382526031815260200180614e056031913960400191505060405180910390fd5b600061194b614beb565b611965604051806020016040528087815250600e54612fbf565b9092509050600082600381111561197857fe5b146119b757604051600160e51b62461bcd028152600401808060200182810382526031815260200180614d9d6031913960400191505060405180910390fd5b60006119c1614beb565b6119cd600c54846131b7565b909250905060008260038111156119e057fe5b14611a1f57604051600160e51b62461bcd028152600401808060200182810382526031815260200180614ce16031913960400191505060405180910390fd5b6000611a29614beb565b611a596040518060200160405280670de0b6b3a76400008152506040518060200160405280600954815250613216565b90925090506000826003811115611a6c57fe5b14611aab57604051600160e51b62461bcd02815260040180806020018281038252603c815260200180614e36603c913960400191505060405180910390fd5b6000611ab5614beb565b611ace60405180602001604052808b8152508487613250565b90925090506000826003811115611ae157fe5b14611b2057604051600160e51b62461bcd028152600401808060200182810382526031815260200180614d356031913960400191505060405180910390fd5b519a505050505050505050505090565b60008054600101808255600654604080517fd02f73510000000000000000000000000000000000000000000000000000000081523060048201523360248201526001600160a01b03888116604483015287811660648301526084820187905291518593929092169163d02f73519160a48082019260209290919082900301818787803b158015611bbf57600080fd5b505af1158015611bd3573d6000803e3d6000fd5b505050506040513d6020811015611be957600080fd5b505190508015611c0857611c006003601b83612f32565b925050610f02565b856001600160a01b0316856001600160a01b03161415611c2e57611c006006601c61230d565b6001600160a01b0385166000908152600f602052604081205481908190611c559088612f9c565b90935091506000836003811115611c6857fe5b14611c8b57611c806009601a85600381111561158e57fe5b955050505050610f02565b6001600160a01b0389166000908152600f6020526040902054611cae9088613027565b90935090506000836003811115611cc157fe5b14611cd957611c806009601985600381111561158e57fe5b6001600160a01b038089166000818152600f60209081526040808320879055938d168083529184902085905583518b8152935191937fddf252ad1be2c89b69c2b068fc378daa952ba7f163c4a11628f55a4df523b3ef929081900390910190a3600654604080517f6d35bf910000000000000000000000000000000000000000000000000000000081523060048201523360248201526001600160a01b038c811660448301528b81166064830152608482018b905291519190921691636d35bf919160a480830192600092919082900301818387803b158015611dbb57600080fd5b505af1158015611dcf573d6000803e3d6000fd5b5060009250611ddc915050565b9550505050506000548114610f4b5760408051600160e51b62461bcd02815260206004820152600a6024820152600160b21b691c994b595b9d195c995902604482015290519081900360640190fd5b6004546000906001600160a01b03163314611e4c576110086001604561230d565b600580546001600160a01b0384811673ffffffffffffffffffffffffffffffffffffffff19831681179093556040805191909216808252602082019390935281517fca4f2f25d0898edd99413412fb94012f9e54ec8142f9b093e7720646a95b16a9929181900390910190a16000611159565b6000805460010180825581611ed26113a0565b14611f275760408051600160e51b62461bcd02815260206004820152601660248201527f61636372756520696e746572657374206661696c656400000000000000000000604482015290519081900360640190fd5b611f2f610e81565b915060005481146112d35760408051600160e51b62461bcd02815260206004820152600a6024820152600160b21b691c994b595b9d195c995902604482015290519081900360640190fd5b6001600160a01b0381166000908152600f6020526040812054819081908190818080611fa589612e7e565b935090506000816003811115611fb757fe5b14611fd55760095b9750600096508695508594506120089350505050565b611fdd6127ff565b925090506000816003811115611fef57fe5b14611ffb576009611fbf565b5060009650919450925090505b9193509193565b6000610da58261329a565b6000610da5826132d5565b6001600160a01b03918216600090815260106020908152604080832093909416825291909152205490565b61209861205d823461330b565b6040518060400160405280601881526020017f7265706179426f72726f77426568616c66206661696c65640000000000000000815250610a92565b50565b6005546000906001600160a01b0316331415806120b6575033155b156120ce576120c76001600061230d565b9050610ee4565b60048054600580546001600160a01b0380821673ffffffffffffffffffffffffffffffffffffffff1980861682179687905590921690925560408051938316808552949092166020840152815190927ff9ffabca9c8276e99321725bcb43fb076a6c66a54b7f21c4e8146d8519b417dc92908290030190a1600554604080516001600160a01b038085168252909216602083015280517fca4f2f25d0898edd99413412fb94012f9e54ec8142f9b093e7720646a95b16a99281900390910190a160009250505090565b6000806121a26113a0565b905080156121c8576121c08160108111156121b957fe5b604061230d565b915050610fd3565b6111598361339b565b6007546001600160a01b031681565b6004546001600160a01b031681565b600754600090819081906001600160a01b03166315f2405361220f612c55565b600c54600d546040518463ffffffff1660e01b8152600401808481526020018381526020018281526020019350505050604080518083038186803b15801561225657600080fd5b505afa15801561226a573d6000803e3d6000fd5b505050506040513d604081101561228057600080fd5b50805160209091015190925090508115610ee057604051600160e51b62461bcd028152600401808060200182810382526037815260200180614dce6037913960400191505060405180910390fd5b60008054600101808255816122e16113a0565b905080156122ff57610a2d8160108111156122f857fe5b604661230d565b610a3f8461351b565b600181565b60007f45b96fe442630264581b197e84bbada861235052c5a1aadfff9ea4e40a969aa083601081111561233c57fe5b83604d81111561234857fe5b604080519283526020830191909152600082820152519081900360600190a182601081111561115957fe5b600654604080517f4ef4c3e10000000000000000000000000000000000000000000000000000000081523060048201526001600160a01b03858116602483015260448201859052915160009384931691634ef4c3e191606480830192602092919082900301818787803b1580156123e957600080fd5b505af11580156123fd573d6000803e3d6000fd5b505050506040513d602081101561241357600080fd5b5051905080156124325761242a6003601f83612f32565b915050610da5565b61243a612f98565b600a541461244e5761242a600a602261230d565b612456614c58565b61246085856135be565b8190601081111561246d57fe5b9081601081111561247a57fe5b90525060008151601081111561248c57fe5b146124a757805161249e90602661230d565b92505050610da5565b6124af6127ff565b60408301819052602083018260038111156124c657fe5b60038111156124d157fe5b90525060009050816020015160038111156124e857fe5b146125045761249e600960218360200151600381111561158e57fe5b6125208460405180602001604052808460400151815250613680565b606083018190526020830182600381111561253757fe5b600381111561254257fe5b905250600090508160200151600381111561255957fe5b146125755761249e600960208360200151600381111561158e57fe5b612585600e548260600151613027565b608083018190526020830182600381111561259c57fe5b60038111156125a757fe5b90525060009050816020015160038111156125be57fe5b146125da5761249e600960248360200151600381111561158e57fe5b6001600160a01b0385166000908152600f602052604090205460608201516126029190613027565b60a083018190526020830182600381111561261957fe5b600381111561262457fe5b905250600090508160200151600381111561263b57fe5b146126575761249e600960238360200151600381111561158e57fe5b61266185856135be565b8190601081111561266e57fe5b9081601081111561267b57fe5b90525060008151601081111561268d57fe5b1461269f57805161249e90602561230d565b6080810151600e5560a08101516001600160a01b0386166000818152600f602090815260409182902093909355606080850151825193845293830188905282820193909352517f4c209b5fc8ad50758f13e2e1088ba56a560dff690a1c6fef26394f4c03821c4f929181900390910190a1606081015160408051918252516001600160a01b0387169130917fddf252ad1be2c89b69c2b068fc378daa952ba7f163c4a11628f55a4df523b3ef9181900360200190a36006546060820151604080517f41c728b90000000000000000000000000000000000000000000000000000000081523060048201526001600160a01b038981166024830152604482018990526064820193909352905191909216916341c728b991608480830192600092919082900301818387803b1580156127d557600080fd5b505af11580156127e9573d6000803e3d6000fd5b50600092506127f6915050565b95945050505050565b600080600e546000141561281a5750506008546000906128a9565b6000612824612c55565b90506000612830614beb565b600061284184600c54600d54613697565b93509050600081600381111561285357fe5b14612867579450600093506128a992505050565b61287383600e546136d5565b92509050600081600381111561288557fe5b14612899579450600093506128a992505050565b50516000945092506128a9915050565b9091565b600654604080517fbdcdc2580000000000000000000000000000000000000000000000000000000081523060048201526001600160a01b03868116602483015285811660448301526064820185905291516000938493169163bdcdc25891608480830192602092919082900301818787803b15801561292b57600080fd5b505af115801561293f573d6000803e3d6000fd5b505050506040513d602081101561295557600080fd5b5051905080156129745761296c6003604a83612f32565b915050612bf9565b836001600160a01b0316856001600160a01b0316141561299a5761296c6002604b61230d565b60006001600160a01b0387811690871614156129b957506000196129e1565b506001600160a01b038086166000908152601060209081526040808320938a16835292905220545b6000806000806129f18589612f9c565b90945092506000846003811115612a0457fe5b14612a2257612a156009604b61230d565b9650505050505050612bf9565b6001600160a01b038a166000908152600f6020526040902054612a459089612f9c565b90945091506000846003811115612a5857fe5b14612a6957612a156009604c61230d565b6001600160a01b0389166000908152600f6020526040902054612a8c9089613027565b90945090506000846003811115612a9f57fe5b14612ab057612a156009604d61230d565b6001600160a01b03808b166000908152600f6020526040808220859055918b168152208190556000198514612b08576001600160a01b03808b166000908152601060209081526040808320938f168352929052208390555b886001600160a01b03168a6001600160a01b03167fddf252ad1be2c89b69c2b068fc378daa952ba7f163c4a11628f55a4df523b3ef8a6040518082815260200191505060405180910390a3600654604080517f6a56947e0000000000000000000000000000000000000000000000000000000081523060048201526001600160a01b038d811660248301528c81166044830152606482018c905291519190921691636a56947e91608480830192600092919082900301818387803b158015612bcf57600080fd5b505af1158015612be3573d6000803e3d6000fd5b5060009250612bf0915050565b96505050505050505b949350505050565b6000806000612c0e614beb565b612c188686612fbf565b90925090506000826003811115612c2b57fe5b14612c3c5750915060009050612c4e565b6000612c4782613785565b9350935050505b9250929050565b60008080612c64303134612f9c565b90925090506000826003811115612c7757fe5b14610ee057600080fd5b6000805460010180825581612c946113a0565b90508015612cb257610a2d816010811115612cab57fe5b603661230d565b610a3f333386613794565b600454600090819081906001600160a01b03163314612ceb57612ce26001603161230d565b92505050610fd3565b612cf3612f98565b600a5414612d0757612ce2600a603361230d565b83612d10612c55565b1015612d2257612ce2600e603261230d565b600d54841115612d3857612ce26002603461230d565b50600d5483810390811115612d8157604051600160e51b62461bcd028152600401808060200182810382526024815260200180614edb6024913960400191505060405180910390fd5b600d819055600454612d9c906001600160a01b031685613c1c565b91506000826010811115612dac57fe5b14612deb57604051600160e51b62461bcd028152600401808060200182810382526023815260200180614d126023913960400191505060405180910390fd5b600454604080516001600160a01b03909216825260208201869052818101839052517f3bad0c59cf2f06e7314077049f48a93578cd16f5ef92329f1dab1420a99c177e9181900360600190a16000949350505050565b6000805460010180825581612e546113a0565b90508015612e7257610a2d816010811115612e6b57fe5b602761230d565b610a3f33600086613c5e565b6001600160a01b038116600090815260116020526040812080548291829182918291612eb5575060009450849350612f2d92505050565b612ec58160000154600b546141b1565b90945092506000846003811115612ed857fe5b14612eed575091935060009250612f2d915050565b612efb8382600101546141f0565b90945091506000846003811115612f0e57fe5b14612f23575091935060009250612f2d915050565b5060009450925050505b915091565b60007f45b96fe442630264581b197e84bbada861235052c5a1aadfff9ea4e40a969aa0846010811115612f6157fe5b84604d811115612f6d57fe5b604080519283526020830191909152818101859052519081900360600190a1836010811115612bf957fe5b4390565b600080838311612fb3575060009050818303612c4e565b50600390506000612c4e565b6000612fc9614beb565b600080612fda8660000151866141b1565b90925090506000826003811115612fed57fe5b1461300c57506040805160208101909152600081529092509050612c4e565b60408051602081019091529081526000969095509350505050565b60008083830184811061303f57600092509050612c4e565b506002915060009050612c4e565b600080600061305a614beb565b6130648787612fbf565b9092509050600082600381111561307757fe5b1461308857509150600090506130a1565b61309a61309482613785565b86613027565b9350935050505b935093915050565b60008054600101808255816130bc6113a0565b905080156130da57611c008160108111156130d357fe5b600f61230d565b836001600160a01b031663a6afed956040518163ffffffff1660e01b8152600401602060405180830381600087803b15801561311557600080fd5b505af1158015613129573d6000803e3d6000fd5b505050506040513d602081101561313f57600080fd5b50519050801561315f57611c0081601081111561315857fe5b601061230d565b61316b3387878761421b565b9250506000548114610f4b5760408051600160e51b62461bcd02815260206004820152600a6024820152600160b21b691c994b595b9d195c995902604482015290519081900360640190fd5b60006131c1614beb565b6000806131d6670de0b6b3a7640000876141b1565b909250905060008260038111156131e957fe5b1461320857506040805160208101909152600081529092509050612c4e565b612c478186600001516136d5565b6000613220614beb565b60008061323586600001518660000151612f9c565b60408051602081019091529081529097909650945050505050565b600061325a614beb565b6000613264614beb565b61326e8787614767565b9092509050600082600381111561328157fe5b146132905790925090506130a1565b61309a8186614767565b60008054600101808255816132ad6113a0565b905080156132cb57610a2d8160108111156132c457fe5b600861230d565b610a3f3385614850565b60008054600101808255816132e86113a0565b905080156132ff57610a2d816010811115612e6b57fe5b610a3f33856000613c5e565b600080546001018082558161331e6113a0565b905080156133445761333c81601081111561333557fe5b603561230d565b9250506117b7565b61334f338686613794565b92505060005481146118005760408051600160e51b62461bcd02815260206004820152600a6024820152600160b21b691c994b595b9d195c995902604482015290519081900360640190fd5b60045460009081906001600160a01b031633146133be576121c06001604261230d565b6133c6612f98565b600a54146133da576121c0600a604161230d565b600760009054906101000a90046001600160a01b03169050826001600160a01b0316632191f92a6040518163ffffffff1660e01b815260040160206040518083038186803b15801561342b57600080fd5b505afa15801561343f573d6000803e3d6000fd5b505050506040513d602081101561345557600080fd5b50516134ab5760408051600160e51b62461bcd02815260206004820152601c60248201527f6d61726b6572206d6574686f642072657475726e65642066616c736500000000604482015290519081900360640190fd5b6007805473ffffffffffffffffffffffffffffffffffffffff19166001600160a01b03858116918217909255604080519284168352602083019190915280517fedffc32e068c7c95dfd4bdfd5c4d939a084d6b11c4199eac8436ed234d72f9269281900390910190a16000611159565b6004546000906001600160a01b0316331461353c576110086001604761230d565b613544612f98565b600a541461355857611008600a604861230d565b670de0b6b3a7640000821115613574576110086002604961230d565b6009805490839055604080518281526020810185905281517faaa68312e2ea9d50e16af5068410ab56e1a1fd06037b1a35664812c30f821460929181900390910190a16000611159565b6000336001600160a01b038416146136205760408051600160e51b62461bcd02815260206004820152600f60248201527f73656e646572206d69736d617463680000000000000000000000000000000000604482015290519081900360640190fd5b8134146136775760408051600160e51b62461bcd02815260206004820152600e60248201527f76616c7565206d69736d61746368000000000000000000000000000000000000604482015290519081900360640190fd5b50600092915050565b600080600061368d614beb565b612c1886866131b7565b6000806000806136a78787613027565b909250905060008260038111156136ba57fe5b146136cb57509150600090506130a1565b61309a8186612f9c565b60006136df614beb565b6000806136f486670de0b6b3a76400006141b1565b9092509050600082600381111561370757fe5b1461372657506040805160208101909152600081529092509050612c4e565b60008061373383886141f0565b9092509050600082600381111561374657fe5b1461376857506040805160208101909152600081529094509250612c4e915050565b604080516020810190915290815260009890975095505050505050565b51670de0b6b3a7640000900490565b600654604080517f24008a620000000000000000000000000000000000000000000000000000000081523060048201526001600160a01b0386811660248301528581166044830152606482018590529151600093849316916324008a6291608480830192602092919082900301818787803b15801561381257600080fd5b505af1158015613826573d6000803e3d6000fd5b505050506040513d602081101561383c57600080fd5b50519050801561385b576138536003603883612f32565b915050611159565b613863612f98565b600a541461387757613853600a603961230d565b61387f614c72565b6001600160a01b03851660009081526011602052604090206001015460608201526138a985612e7e565b60808301819052602083018260038111156138c057fe5b60038111156138cb57fe5b90525060009050816020015160038111156138e257fe5b14613907576138fe600960378360200151600381111561158e57fe5b92505050611159565b6000198414156139205760808101516040820152613928565b604081018490525b6139368682604001516135be565b8190601081111561394357fe5b9081601081111561395057fe5b90525060008151601081111561396257fe5b146139745780516138fe90603c61230d565b61398681608001518260400151612f9c565b60a083018190526020830182600381111561399d57fe5b60038111156139a857fe5b90525060009050816020015160038111156139bf57fe5b146139db576138fe6009603a8360200151600381111561158e57fe5b6139eb600c548260400151612f9c565b60c0830181905260208301826003811115613a0257fe5b6003811115613a0d57fe5b9052506000905081602001516003811115613a2457fe5b14613a40576138fe6009603b8360200151600381111561158e57fe5b613a4e8682604001516135be565b81906010811115613a5b57fe5b90816010811115613a6857fe5b905250600081516010811115613a7a57fe5b14613acf5760408051600160e51b62461bcd02815260206004820152601f60248201527f726570617920626f72726f77207472616e7366657220696e206661696c656400604482015290519081900360640190fd5b60a080820180516001600160a01b03808916600081815260116020908152604091829020948555600b5460019095019490945560c0870151600c8190558188015195518251948e16855294840192909252828101949094526060820192909252608081019190915290517f1a2a22cb034d26d1854bdc6666a5b91fe25efbbb5dcad3b0355478d6f5c362a1929181900390910190a1600654604080830151606084015182517f1ededc910000000000000000000000000000000000000000000000000000000081523060048201526001600160a01b038b811660248301528a81166044830152606482019390935260848101919091529151921691631ededc919160a48082019260009290919082900301818387803b158015613bf157600080fd5b505af1158015613c05573d6000803e3d6000fd5b5060009250613c12915050565b9695505050505050565b6040516000906001600160a01b0384169083156108fc0290849084818181858888f19350505050158015613c54573d6000803e3d6000fd5b5060009392505050565b6000821580613c6b575081155b613ca957604051600160e51b62461bcd028152600401808060200182810382526034815260200180614ea76034913960400191505060405180910390fd5b613cb1614c72565b613cb96127ff565b6040830181905260208301826003811115613cd057fe5b6003811115613cdb57fe5b9052506000905081602001516003811115613cf257fe5b14613d0e576138536009602b8360200151600381111561158e57fe5b8315613d8f576060810184905260408051602081018252908201518152613d359085612c01565b6080830181905260208301826003811115613d4c57fe5b6003811115613d5757fe5b9052506000905081602001516003811115613d6e57fe5b14613d8a57613853600960298360200151600381111561158e57fe5b613e08565b613dab8360405180602001604052808460400151815250613680565b6060830181905260208301826003811115613dc257fe5b6003811115613dcd57fe5b9052506000905081602001516003811115613de457fe5b14613e00576138536009602a8360200151600381111561158e57fe5b608081018390525b6006546060820151604080517feabe7d910000000000000000000000000000000000000000000000000000000081523060048201526001600160a01b03898116602483015260448201939093529051600093929092169163eabe7d919160648082019260209290919082900301818787803b158015613e8657600080fd5b505af1158015613e9a573d6000803e3d6000fd5b505050506040513d6020811015613eb057600080fd5b505190508015613ec7576138fe6003602883612f32565b613ecf612f98565b600a5414613ee3576138fe600a602c61230d565b613ef3600e548360600151612f9c565b60a0840181905260208401826003811115613f0a57fe5b6003811115613f1557fe5b9052506000905082602001516003811115613f2c57fe5b14613f48576138fe6009602e8460200151600381111561158e57fe5b6001600160a01b0386166000908152600f60205260409020546060830151613f709190612f9c565b60c0840181905260208401826003811115613f8757fe5b6003811115613f9257fe5b9052506000905082602001516003811115613fa957fe5b14613fc5576138fe6009602d8460200151600381111561158e57fe5b8160800151613fd2612c55565b1015613fe4576138fe600e602f61230d565b613ff2868360800151613c1c565b82906010811115613fff57fe5b9081601081111561400c57fe5b90525060008251601081111561401e57fe5b146140735760408051600160e51b62461bcd02815260206004820152601a60248201527f72656465656d207472616e73666572206f7574206661696c6564000000000000604482015290519081900360640190fd5b60a0820151600e5560c08201516001600160a01b0387166000818152600f60209081526040918290209390935560608501518151908152905130937fddf252ad1be2c89b69c2b068fc378daa952ba7f163c4a11628f55a4df523b3ef928290030190a36080820151606080840151604080516001600160a01b038b168152602081019490945283810191909152517fe5b754fb1abb7f01b499791d0b820ae3b6af3424ac1c59768edb53f4ec31a9299281900390910190a160065460808301516060840151604080517f51dff9890000000000000000000000000000000000000000000000000000000081523060048201526001600160a01b038b81166024830152604482019490945260648101929092525191909216916351dff98991608480830192600092919082900301818387803b158015613bf157600080fd5b600080836141c457506000905080612c4e565b838302838582816141d157fe5b04146141e557506002915060009050612c4e565b600092509050612c4e565b600080826142045750600190506000612c4e565b600083858161420f57fe5b04915091509250929050565b600654604080517f5fc7e71e0000000000000000000000000000000000000000000000000000000081523060048201526001600160a01b0384811660248301528781166044830152868116606483015260848201869052915160009384931691635fc7e71e9160a480830192602092919082900301818787803b1580156142a157600080fd5b505af11580156142b5573d6000803e3d6000fd5b505050506040513d60208110156142cb57600080fd5b5051905080156142e25761296c6003601283612f32565b6142ea612f98565b600a54146142fe5761296c600a601661230d565b614306612f98565b836001600160a01b0316636c540baf6040518163ffffffff1660e01b815260040160206040518083038186803b15801561433f57600080fd5b505afa158015614353573d6000803e3d6000fd5b505050506040513d602081101561436957600080fd5b50511461437c5761296c600a601161230d565b856001600160a01b0316856001600160a01b031614156143a25761296c6006601761230d565b836143b35761296c6007601561230d565b6000198414156143c95761296c6007601461230d565b600654604080517fc488847b0000000000000000000000000000000000000000000000000000000081523060048201526001600160a01b038681166024830152604482018890528251600094859492169263c488847b926064808301939192829003018186803b15801561443c57600080fd5b505afa158015614450573d6000803e3d6000fd5b505050506040513d604081101561446657600080fd5b50805160209091015190925090508115614491576144876004601384612f32565b9350505050612bf9565b846001600160a01b03166370a08231886040518263ffffffff1660e01b815260040180826001600160a01b03166001600160a01b0316815260200191505060206040518083038186803b1580156144e757600080fd5b505afa1580156144fb573d6000803e3d6000fd5b505050506040513d602081101561451157600080fd5b505181111561452657614487600d601d61230d565b6000614533898989613794565b9050801561455c5761455181601081111561454a57fe5b601861230d565b945050505050612bf9565b604080517fb2a02ff10000000000000000000000000000000000000000000000000000000081526001600160a01b038b811660048301528a8116602483015260448201859052915160009289169163b2a02ff191606480830192602092919082900301818787803b1580156145d057600080fd5b505af11580156145e4573d6000803e3d6000fd5b505050506040513d60208110156145fa57600080fd5b5051905080156146545760408051600160e51b62461bcd02815260206004820152601460248201527f746f6b656e207365697a757265206661696c6564000000000000000000000000604482015290519081900360640190fd5b604080516001600160a01b03808d168252808c1660208301528183018b9052891660608201526080810185905290517f298637f684da70674f26509b10f07ec2fbc77a335ab1e7d6215a4b2484d8bb529181900360a00190a1600654604080517f47ef3b3b0000000000000000000000000000000000000000000000000000000081523060048201526001600160a01b038a811660248301528d811660448301528c81166064830152608482018c905260a48201879052915191909216916347ef3b3b9160c480830192600092919082900301818387803b15801561473857600080fd5b505af115801561474c573d6000803e3d6000fd5b5060009250614759915050565b9a9950505050505050505050565b6000614771614beb565b600080614786866000015186600001516141b1565b9092509050600082600381111561479957fe5b146147b857506040805160208101909152600081529092509050612c4e565b6000806147cd6706f05b59d3b2000084613027565b909250905060008260038111156147e057fe5b1461480257506040805160208101909152600081529094509250612c4e915050565b60008061481783670de0b6b3a76400006141f0565b9092509050600082600381111561482a57fe5b1461483157fe5b604080516020810190915290815260009a909950975050505050505050565b600654604080517fda3d454c0000000000000000000000000000000000000000000000000000000081523060048201526001600160a01b0385811660248301526044820185905291516000938493169163da3d454c91606480830192602092919082900301818787803b1580156148c657600080fd5b505af11580156148da573d6000803e3d6000fd5b505050506040513d60208110156148f057600080fd5b5051905080156149075761242a6003600e83612f32565b61490f612f98565b600a54146149225761242a600a8061230d565b8261492b612c55565b101561493d5761242a600e600961230d565b614945614cb0565b61494e85612e7e565b604083018190526020830182600381111561496557fe5b600381111561497057fe5b905250600090508160200151600381111561498757fe5b146149a35761249e600960078360200151600381111561158e57fe5b6149b1816040015185613027565b60608301819052602083018260038111156149c857fe5b60038111156149d357fe5b90525060009050816020015160038111156149ea57fe5b14614a065761249e6009600c8360200151600381111561158e57fe5b614a12600c5485613027565b6080830181905260208301826003811115614a2957fe5b6003811115614a3457fe5b9052506000905081602001516003811115614a4b57fe5b14614a675761249e6009600b8360200151600381111561158e57fe5b614a718585613c1c565b81906010811115614a7e57fe5b90816010811115614a8b57fe5b905250600081516010811115614a9d57fe5b14614af25760408051600160e51b62461bcd02815260206004820152601a60248201527f626f72726f77207472616e73666572206f7574206661696c6564000000000000604482015290519081900360640190fd5b606080820180516001600160a01b038816600081815260116020908152604091829020938455600b54600190940193909355608080870151600c819055945182519384529383018a9052828201939093529381019290925291517f13ed6866d4e1ee6da46f845c46d7e54120883d75c5ea9a2dacc1c4ca8984ab80929181900390910190a1600654604080517f5c7786050000000000000000000000000000000000000000000000000000000081523060048201526001600160a01b0388811660248301526044820188905291519190921691635c77860591606480830192600092919082900301818387803b1580156127d557600080fd5b6040518060200160405280600081525090565b604080516101408101909152806000815260200160008152602001600081526020016000815260200160008152602001614c36614beb565b8152602001600081526020016000815260200160008152602001600081525090565b6040805160c0810190915280600081526020016000614c36565b6040805160e0810190915280600081526020016000815260200160008152602001600081526020016000815260200160008152602001600081525090565b6040805160a08101909152806000815260200160008152602001600081526020016000815260200160008152509056fe737570706c7952617465506572426c6f636b3a2063616c63756c6174696e6720626f72726f7773506572206661696c6564726564756365207265736572766573207472616e73666572206f7574206661696c6564737570706c7952617465506572426c6f636b3a2063616c63756c6174696e6720737570706c7952617465206661696c6564626f72726f7742616c616e636553746f7265643a20626f72726f7742616c616e636553746f726564496e7465726e616c206661696c6564737570706c7952617465506572426c6f636b3a2063616c63756c6174696e6720756e6465726c79696e67206661696c6564626f72726f7752617465506572426c6f636b3a20696e746572657374526174654d6f64656c2e626f72726f7752617465206661696c6564737570706c7952617465506572426c6f636b3a2063616c63756c6174696e6720626f72726f7752617465206661696c6564737570706c7952617465506572426c6f636b3a2063616c63756c6174696e67206f6e654d696e757352657365727665466163746f72206661696c656465786368616e67655261746553746f7265643a2065786368616e67655261746553746f726564496e7465726e616c206661696c65646f6e65206f662072656465656d546f6b656e73496e206f722072656465656d416d6f756e74496e206d757374206265207a65726f72656475636520726573657276657320756e657870656374656420756e646572666c6f77a165627a7a72305820462676bc46f7f90a7c9965d605db565034536410158f8b95ecf5b5d50c9cb03c002953657474696e6720696e7465726573742072617465206d6f64656c206661696c6564",
  "source": "pragma solidity ^0.5.8;\n\nimport \"./src/CEther.sol\";\n\ncontract FakeCEther is CEther {\n    constructor(\n      ComptrollerInterface _comptroller,\n      InterestRateModel _interestRateModel\n    )\n    CEther(\n      _comptroller,\n      _interestRateModel,\n      200000000 * (10 ** 18),\n      \"Fake Compound Ether\",\n      \"cETH\",\n      8\n    )\n    public\n    {}\n}\n",
  "sourcePath": "/Users/shain/repositories/insta-wealth/compound/contracts/development/Compound/FakeCEther.sol",
  "compiler": {
    "name": "solc",
    "version": "0.5.8+commit.23d335f2.Emscripten.clang"
  },
  "schemaVersion": "3.0.16",
  "updatedAt": "2019-10-21T05:59:28.397Z",
  "devdoc": {
    "methods": {
      "_acceptAdmin()": {
        "details": "Admin function for pending admin to accept role and update admin",
        "return": "uint 0=success, otherwise a failure (see ErrorReporter.sol for details)"
      },
      "_reduceReserves(uint256)": {
        "params": {
          "reduceAmount": "Amount of reduction to reserves"
        },
        "return": "uint 0=success, otherwise a failure (see ErrorReporter.sol for details)"
      },
      "_setComptroller(address)": {
        "details": "Admin function to set a new comptroller",
        "return": "uint 0=success, otherwise a failure (see ErrorReporter.sol for details)"
      },
      "_setInterestRateModel(address)": {
        "details": "Admin function to accrue interest and update the interest rate model",
        "params": {
          "newInterestRateModel": "the new interest rate model to use"
        },
        "return": "uint 0=success, otherwise a failure (see ErrorReporter.sol for details)"
      },
      "_setPendingAdmin(address)": {
        "details": "Admin function to begin change of admin. The newPendingAdmin must call `_acceptAdmin` to finalize the transfer.",
        "params": {
          "newPendingAdmin": "New pending admin."
        },
        "return": "uint 0=success, otherwise a failure (see ErrorReporter.sol for details)      * TODO: Should we add a second arg to verify, like a checksum of `newAdmin` address?"
      },
      "_setReserveFactor(uint256)": {
        "details": "Admin function to accrue interest and set a new reserve factor",
        "return": "uint 0=success, otherwise a failure (see ErrorReporter.sol for details)"
      },
      "accrueInterest()": {
        "details": "This calculates interest accrued from the last checkpointed block     up to the current block and writes new checkpoint to storage."
      },
      "allowance(address,address)": {
        "params": {
          "owner": "The address of the account which owns the tokens to be spent",
          "spender": "The address of the account which may transfer tokens"
        },
        "return": "The number of tokens allowed to be spent (-1 means infinite)"
      },
      "approve(address,uint256)": {
        "details": "This will overwrite the approval amount for `spender` and is subject to issues noted [here](https://eips.ethereum.org/EIPS/eip-20#approve)",
        "params": {
          "amount": "The number of tokens that are approved (-1 means infinite)",
          "spender": "The address of the account which may transfer tokens"
        },
        "return": "Whether or not the approval succeeded"
      },
      "balanceOf(address)": {
        "params": {
          "owner": "The address of the account to query"
        },
        "return": "The number of tokens owned by `owner`"
      },
      "balanceOfUnderlying(address)": {
        "details": "This also accrues interest in a transaction",
        "params": {
          "owner": "The address of the account to query"
        },
        "return": "The amount of underlying owned by `owner`"
      },
      "borrow(uint256)": {
        "params": {
          "borrowAmount": "The amount of the underlying asset to borrow"
        },
        "return": "uint 0=success, otherwise a failure (see ErrorReporter.sol for details)"
      },
      "borrowBalanceCurrent(address)": {
        "params": {
          "account": "The address whose balance should be calculated after updating borrowIndex"
        },
        "return": "The calculated balance"
      },
      "borrowBalanceStored(address)": {
        "params": {
          "account": "The address whose balance should be calculated"
        },
        "return": "The calculated balance"
      },
      "borrowRatePerBlock()": {
        "return": "The borrow interest rate per block, scaled by 1e18"
      },
      "exchangeRateCurrent()": {
        "return": "Calculated exchange rate scaled by 1e18"
      },
      "exchangeRateStored()": {
        "details": "This function does not accrue interest before calculating the exchange rate",
        "return": "Calculated exchange rate scaled by 1e18"
      },
      "getAccountSnapshot(address)": {
        "details": "This is used by comptroller to more efficiently perform liquidity checks.",
        "params": {
          "account": "Address of the account to snapshot"
        },
        "return": "(possible error, token balance, borrow balance, exchange rate mantissa)"
      },
      "getCash()": {
        "return": "The quantity of underlying asset owned by this contract"
      },
      "liquidateBorrow(address,address)": {
        "details": "Reverts upon any failure",
        "params": {
          "borrower": "The borrower of this cToken to be liquidated",
          "cTokenCollateral": "The market in which to seize collateral from the borrower"
        }
      },
      "mint()": {
        "details": "Reverts upon any failure"
      },
      "redeem(uint256)": {
        "details": "Accrues interest whether or not the operation succeeds, unless reverted",
        "params": {
          "redeemTokens": "The number of cTokens to redeem into underlying"
        },
        "return": "uint 0=success, otherwise a failure (see ErrorReporter.sol for details)"
      },
      "redeemUnderlying(uint256)": {
        "details": "Accrues interest whether or not the operation succeeds, unless reverted",
        "params": {
          "redeemAmount": "The amount of underlying to redeem"
        },
        "return": "uint 0=success, otherwise a failure (see ErrorReporter.sol for details)"
      },
      "repayBorrow()": {
        "details": "Reverts upon any failure"
      },
      "repayBorrowBehalf(address)": {
        "details": "Reverts upon any failure",
        "params": {
          "borrower": "the account with the debt being payed off"
        }
      },
      "seize(address,address,uint256)": {
        "details": "Will fail unless called by another cToken during the process of liquidation. Its absolutely critical to use msg.sender as the borrowed cToken and not a parameter.",
        "params": {
          "borrower": "The account having collateral seized",
          "liquidator": "The account receiving seized collateral",
          "seizeTokens": "The number of cTokens to seize"
        },
        "return": "uint 0=success, otherwise a failure (see ErrorReporter.sol for details)"
      },
      "supplyRatePerBlock()": {
        "return": "The supply interest rate per block, scaled by 1e18"
      },
      "totalBorrowsCurrent()": {
        "return": "The total borrows with interest"
      },
      "transfer(address,uint256)": {
        "params": {
          "amount": "The number of tokens to transfer",
          "dst": "The address of the destination account"
        },
        "return": "Whether or not the transfer succeeded"
      },
      "transferFrom(address,address,uint256)": {
        "params": {
          "amount": "The number of tokens to transfer",
          "dst": "The address of the destination account",
          "src": "The address of the source account"
        },
        "return": "Whether or not the transfer succeeded"
      }
    }
  },
  "userdoc": {
    "methods": {
      "_acceptAdmin()": {
        "notice": "Accepts transfer of admin rights. msg.sender must be pendingAdmin"
      },
      "_reduceReserves(uint256)": {
        "notice": "Accrues interest and reduces reserves by transferring to admin"
      },
      "_setComptroller(address)": {
        "notice": "Sets a new comptroller for the market"
      },
      "_setInterestRateModel(address)": {
        "notice": "accrues interest and updates the interest rate model using _setInterestRateModelFresh"
      },
      "_setPendingAdmin(address)": {
        "notice": "Begins transfer of admin rights. The newPendingAdmin must call `_acceptAdmin` to finalize the transfer."
      },
      "_setReserveFactor(uint256)": {
        "notice": "accrues interest and sets a new reserve factor for the protocol using _setReserveFactorFresh"
      },
      "accrueInterest()": {
        "notice": "Applies accrued interest to total borrows and reserves."
      },
      "allowance(address,address)": {
        "notice": "Get the current allowance from `owner` for `spender`"
      },
      "approve(address,uint256)": {
        "notice": "Approve `spender` to transfer up to `amount` from `src`"
      },
      "balanceOf(address)": {
        "notice": "Get the token balance of the `owner`"
      },
      "balanceOfUnderlying(address)": {
        "notice": "Get the underlying balance of the `owner`"
      },
      "borrow(uint256)": {
        "notice": "Sender borrows assets from the protocol to their own address"
      },
      "borrowBalanceCurrent(address)": {
        "notice": "Accrue interest to updated borrowIndex and then calculate account's borrow balance using the updated borrowIndex"
      },
      "borrowBalanceStored(address)": {
        "notice": "Return the borrow balance of account based on stored data"
      },
      "borrowRatePerBlock()": {
        "notice": "Returns the current per-block borrow interest rate for this cToken"
      },
      "exchangeRateCurrent()": {
        "notice": "Accrue interest then return the up-to-date exchange rate"
      },
      "exchangeRateStored()": {
        "notice": "Calculates the exchange rate from the underlying to the CToken"
      },
      "getAccountSnapshot(address)": {
        "notice": "Get a snapshot of the account's balances, and the cached exchange rate"
      },
      "getCash()": {
        "notice": "Get cash balance of this cToken in the underlying asset"
      },
      "liquidateBorrow(address,address)": {
        "notice": "The sender liquidates the borrowers collateral. The collateral seized is transferred to the liquidator."
      },
      "mint()": {
        "notice": "Sender supplies assets into the market and receives cTokens in exchange"
      },
      "redeem(uint256)": {
        "notice": "Sender redeems cTokens in exchange for the underlying asset"
      },
      "redeemUnderlying(uint256)": {
        "notice": "Sender redeems cTokens in exchange for a specified amount of underlying asset"
      },
      "repayBorrow()": {
        "notice": "Sender repays their own borrow"
      },
      "repayBorrowBehalf(address)": {
        "notice": "Sender repays a borrow belonging to borrower"
      },
      "seize(address,address,uint256)": {
        "notice": "Transfers collateral tokens (this market) to the liquidator."
      },
      "supplyRatePerBlock()": {
        "notice": "Returns the current per-block supply interest rate for this cToken"
      },
      "totalBorrowsCurrent()": {
        "notice": "Returns the current total borrows plus accrued interest"
      },
      "transfer(address,uint256)": {
        "notice": "Transfer `amount` tokens from `msg.sender` to `dst`"
      },
      "transferFrom(address,address,uint256)": {
        "notice": "Transfer `amount` tokens from `src` to `dst`"
      }
    }
  }
}