{
  "contractName": "FakeCDai",
  "abi": [
    {
      "constant": true,
      "inputs": [],
      "name": "name",
      "outputs": [
        {
          "name": "",
          "type": "string"
        }
      ],
      "payable": false,
      "stateMutability": "view",
      "type": "function"
    },
    {
      "constant": false,
      "inputs": [
        {
          "name": "spender",
          "type": "address"
        },
        {
          "name": "amount",
          "type": "uint256"
        }
      ],
      "name": "approve",
      "outputs": [
        {
          "name": "",
          "type": "bool"
        }
      ],
      "payable": false,
      "stateMutability": "nonpayable",
      "type": "function"
    },
    {
      "constant": false,
      "inputs": [
        {
          "name": "repayAmount",
          "type": "uint256"
        }
      ],
      "name": "repayBorrow",
      "outputs": [
        {
          "name": "",
          "type": "uint256"
        }
      ],
      "payable": false,
      "stateMutability": "nonpayable",
      "type": "function"
    },
    {
      "constant": true,
      "inputs": [],
      "name": "reserveFactorMantissa",
      "outputs": [
        {
          "name": "",
          "type": "uint256"
        }
      ],
      "payable": false,
      "stateMutability": "view",
      "type": "function"
    },
    {
      "constant": false,
      "inputs": [
        {
          "name": "account",
          "type": "address"
        }
      ],
      "name": "borrowBalanceCurrent",
      "outputs": [
        {
          "name": "",
          "type": "uint256"
        }
      ],
      "payable": false,
      "stateMutability": "nonpayable",
      "type": "function"
    },
    {
      "constant": true,
      "inputs": [],
      "name": "totalSupply",
      "outputs": [
        {
          "name": "",
          "type": "uint256"
        }
      ],
      "payable": false,
      "stateMutability": "view",
      "type": "function"
    },
    {
      "constant": true,
      "inputs": [],
      "name": "exchangeRateStored",
      "outputs": [
        {
          "name": "",
          "type": "uint256"
        }
      ],
      "payable": false,
      "stateMutability": "view",
      "type": "function"
    },
    {
      "constant": false,
      "inputs": [
        {
          "name": "src",
          "type": "address"
        },
        {
          "name": "dst",
          "type": "address"
        },
        {
          "name": "amount",
          "type": "uint256"
        }
      ],
      "name": "transferFrom",
      "outputs": [
        {
          "name": "",
          "type": "bool"
        }
      ],
      "payable": false,
      "stateMutability": "nonpayable",
      "type": "function"
    },
    {
      "constant": false,
      "inputs": [
        {
          "name": "borrower",
          "type": "address"
        },
        {
          "name": "repayAmount",
          "type": "uint256"
        }
      ],
      "name": "repayBorrowBehalf",
      "outputs": [
        {
          "name": "",
          "type": "uint256"
        }
      ],
      "payable": false,
      "stateMutability": "nonpayable",
      "type": "function"
    },
    {
      "constant": true,
      "inputs": [],
      "name": "pendingAdmin",
      "outputs": [
        {
          "name": "",
          "type": "address"
        }
      ],
      "payable": false,
      "stateMutability": "view",
      "type": "function"
    },
    {
      "constant": true,
      "inputs": [],
      "name": "decimals",
      "outputs": [
        {
          "name": "",
          "type": "uint256"
        }
      ],
      "payable": false,
      "stateMutability": "view",
      "type": "function"
    },
    {
      "constant": false,
      "inputs": [
        {
          "name": "owner",
          "type": "address"
        }
      ],
      "name": "balanceOfUnderlying",
      "outputs": [
        {
          "name": "",
          "type": "uint256"
        }
      ],
      "payable": false,
      "stateMutability": "nonpayable",
      "type": "function"
    },
    {
      "constant": true,
      "inputs": [],
      "name": "getCash",
      "outputs": [
        {
          "name": "",
          "type": "uint256"
        }
      ],
      "payable": false,
      "stateMutability": "view",
      "type": "function"
    },
    {
      "constant": false,
      "inputs": [
        {
          "name": "newComptroller",
          "type": "address"
        }
      ],
      "name": "_setComptroller",
      "outputs": [
        {
          "name": "",
          "type": "uint256"
        }
      ],
      "payable": false,
      "stateMutability": "nonpayable",
      "type": "function"
    },
    {
      "constant": true,
      "inputs": [],
      "name": "totalBorrows",
      "outputs": [
        {
          "name": "",
          "type": "uint256"
        }
      ],
      "payable": false,
      "stateMutability": "view",
      "type": "function"
    },
    {
      "constant": true,
      "inputs": [],
      "name": "comptroller",
      "outputs": [
        {
          "name": "",
          "type": "address"
        }
      ],
      "payable": false,
      "stateMutability": "view",
      "type": "function"
    },
    {
      "constant": false,
      "inputs": [
        {
          "name": "reduceAmount",
          "type": "uint256"
        }
      ],
      "name": "_reduceReserves",
      "outputs": [
        {
          "name": "",
          "type": "uint256"
        }
      ],
      "payable": false,
      "stateMutability": "nonpayable",
      "type": "function"
    },
    {
      "constant": true,
      "inputs": [],
      "name": "initialExchangeRateMantissa",
      "outputs": [
        {
          "name": "",
          "type": "uint256"
        }
      ],
      "payable": false,
      "stateMutability": "view",
      "type": "function"
    },
    {
      "constant": true,
      "inputs": [],
      "name": "accrualBlockNumber",
      "outputs": [
        {
          "name": "",
          "type": "uint256"
        }
      ],
      "payable": false,
      "stateMutability": "view",
      "type": "function"
    },
    {
      "constant": true,
      "inputs": [],
      "name": "underlying",
      "outputs": [
        {
          "name": "",
          "type": "address"
        }
      ],
      "payable": false,
      "stateMutability": "view",
      "type": "function"
    },
    {
      "constant": true,
      "inputs": [
        {
          "name": "owner",
          "type": "address"
        }
      ],
      "name": "balanceOf",
      "outputs": [
        {
          "name": "",
          "type": "uint256"
        }
      ],
      "payable": false,
      "stateMutability": "view",
      "type": "function"
    },
    {
      "constant": false,
      "inputs": [],
      "name": "totalBorrowsCurrent",
      "outputs": [
        {
          "name": "",
          "type": "uint256"
        }
      ],
      "payable": false,
      "stateMutability": "nonpayable",
      "type": "function"
    },
    {
      "constant": false,
      "inputs": [
        {
          "name": "redeemAmount",
          "type": "uint256"
        }
      ],
      "name": "redeemUnderlying",
      "outputs": [
        {
          "name": "",
          "type": "uint256"
        }
      ],
      "payable": false,
      "stateMutability": "nonpayable",
      "type": "function"
    },
    {
      "constant": true,
      "inputs": [],
      "name": "totalReserves",
      "outputs": [
        {
          "name": "",
          "type": "uint256"
        }
      ],
      "payable": false,
      "stateMutability": "view",
      "type": "function"
    },
    {
      "constant": true,
      "inputs": [],
      "name": "symbol",
      "outputs": [
        {
          "name": "",
          "type": "string"
        }
      ],
      "payable": false,
      "stateMutability": "view",
      "type": "function"
    },
    {
      "constant": true,
      "inputs": [
        {
          "name": "account",
          "type": "address"
        }
      ],
      "name": "borrowBalanceStored",
      "outputs": [
        {
          "name": "",
          "type": "uint256"
        }
      ],
      "payable": false,
      "stateMutability": "view",
      "type": "function"
    },
    {
      "constant": false,
      "inputs": [
        {
          "name": "mintAmount",
          "type": "uint256"
        }
      ],
      "name": "mint",
      "outputs": [
        {
          "name": "",
          "type": "uint256"
        }
      ],
      "payable": false,
      "stateMutability": "nonpayable",
      "type": "function"
    },
    {
      "constant": false,
      "inputs": [],
      "name": "accrueInterest",
      "outputs": [
        {
          "name": "",
          "type": "uint256"
        }
      ],
      "payable": false,
      "stateMutability": "nonpayable",
      "type": "function"
    },
    {
      "constant": false,
      "inputs": [
        {
          "name": "dst",
          "type": "address"
        },
        {
          "name": "amount",
          "type": "uint256"
        }
      ],
      "name": "transfer",
      "outputs": [
        {
          "name": "",
          "type": "bool"
        }
      ],
      "payable": false,
      "stateMutability": "nonpayable",
      "type": "function"
    },
    {
      "constant": true,
      "inputs": [],
      "name": "borrowIndex",
      "outputs": [
        {
          "name": "",
          "type": "uint256"
        }
      ],
      "payable": false,
      "stateMutability": "view",
      "type": "function"
    },
    {
      "constant": true,
      "inputs": [],
      "name": "supplyRatePerBlock",
      "outputs": [
        {
          "name": "",
          "type": "uint256"
        }
      ],
      "payable": false,
      "stateMutability": "view",
      "type": "function"
    },
    {
      "constant": false,
      "inputs": [
        {
          "name": "liquidator",
          "type": "address"
        },
        {
          "name": "borrower",
          "type": "address"
        },
        {
          "name": "seizeTokens",
          "type": "uint256"
        }
      ],
      "name": "seize",
      "outputs": [
        {
          "name": "",
          "type": "uint256"
        }
      ],
      "payable": false,
      "stateMutability": "nonpayable",
      "type": "function"
    },
    {
      "constant": false,
      "inputs": [
        {
          "name": "newPendingAdmin",
          "type": "address"
        }
      ],
      "name": "_setPendingAdmin",
      "outputs": [
        {
          "name": "",
          "type": "uint256"
        }
      ],
      "payable": false,
      "stateMutability": "nonpayable",
      "type": "function"
    },
    {
      "constant": false,
      "inputs": [],
      "name": "exchangeRateCurrent",
      "outputs": [
        {
          "name": "",
          "type": "uint256"
        }
      ],
      "payable": false,
      "stateMutability": "nonpayable",
      "type": "function"
    },
    {
      "constant": true,
      "inputs": [
        {
          "name": "account",
          "type": "address"
        }
      ],
      "name": "getAccountSnapshot",
      "outputs": [
        {
          "name": "",
          "type": "uint256"
        },
        {
          "name": "",
          "type": "uint256"
        },
        {
          "name": "",
          "type": "uint256"
        },
        {
          "name": "",
          "type": "uint256"
        }
      ],
      "payable": false,
      "stateMutability": "view",
      "type": "function"
    },
    {
      "constant": false,
      "inputs": [
        {
          "name": "borrowAmount",
          "type": "uint256"
        }
      ],
      "name": "borrow",
      "outputs": [
        {
          "name": "",
          "type": "uint256"
        }
      ],
      "payable": false,
      "stateMutability": "nonpayable",
      "type": "function"
    },
    {
      "constant": false,
      "inputs": [
        {
          "name": "redeemTokens",
          "type": "uint256"
        }
      ],
      "name": "redeem",
      "outputs": [
        {
          "name": "",
          "type": "uint256"
        }
      ],
      "payable": false,
      "stateMutability": "nonpayable",
      "type": "function"
    },
    {
      "constant": true,
      "inputs": [
        {
          "name": "owner",
          "type": "address"
        },
        {
          "name": "spender",
          "type": "address"
        }
      ],
      "name": "allowance",
      "outputs": [
        {
          "name": "",
          "type": "uint256"
        }
      ],
      "payable": false,
      "stateMutability": "view",
      "type": "function"
    },
    {
      "constant": false,
      "inputs": [],
      "name": "_acceptAdmin",
      "outputs": [
        {
          "name": "",
          "type": "uint256"
        }
      ],
      "payable": false,
      "stateMutability": "nonpayable",
      "type": "function"
    },
    {
      "constant": false,
      "inputs": [
        {
          "name": "newInterestRateModel",
          "type": "address"
        }
      ],
      "name": "_setInterestRateModel",
      "outputs": [
        {
          "name": "",
          "type": "uint256"
        }
      ],
      "payable": false,
      "stateMutability": "nonpayable",
      "type": "function"
    },
    {
      "constant": true,
      "inputs": [],
      "name": "interestRateModel",
      "outputs": [
        {
          "name": "",
          "type": "address"
        }
      ],
      "payable": false,
      "stateMutability": "view",
      "type": "function"
    },
    {
      "constant": false,
      "inputs": [
        {
          "name": "borrower",
          "type": "address"
        },
        {
          "name": "repayAmount",
          "type": "uint256"
        },
        {
          "name": "cTokenCollateral",
          "type": "address"
        }
      ],
      "name": "liquidateBorrow",
      "outputs": [
        {
          "name": "",
          "type": "uint256"
        }
      ],
      "payable": false,
      "stateMutability": "nonpayable",
      "type": "function"
    },
    {
      "constant": true,
      "inputs": [],
      "name": "admin",
      "outputs": [
        {
          "name": "",
          "type": "address"
        }
      ],
      "payable": false,
      "stateMutability": "view",
      "type": "function"
    },
    {
      "constant": true,
      "inputs": [],
      "name": "borrowRatePerBlock",
      "outputs": [
        {
          "name": "",
          "type": "uint256"
        }
      ],
      "payable": false,
      "stateMutability": "view",
      "type": "function"
    },
    {
      "constant": false,
      "inputs": [
        {
          "name": "newReserveFactorMantissa",
          "type": "uint256"
        }
      ],
      "name": "_setReserveFactor",
      "outputs": [
        {
          "name": "",
          "type": "uint256"
        }
      ],
      "payable": false,
      "stateMutability": "nonpayable",
      "type": "function"
    },
    {
      "constant": true,
      "inputs": [],
      "name": "isCToken",
      "outputs": [
        {
          "name": "",
          "type": "bool"
        }
      ],
      "payable": false,
      "stateMutability": "view",
      "type": "function"
    },
    {
      "inputs": [
        {
          "name": "_token",
          "type": "address"
        },
        {
          "name": "_comptroller",
          "type": "address"
        },
        {
          "name": "_interestRateModel",
          "type": "address"
        }
      ],
      "payable": false,
      "stateMutability": "nonpayable",
      "type": "constructor"
    },
    {
      "anonymous": false,
      "inputs": [
        {
          "indexed": false,
          "name": "interestAccumulated",
          "type": "uint256"
        },
        {
          "indexed": false,
          "name": "borrowIndex",
          "type": "uint256"
        },
        {
          "indexed": false,
          "name": "totalBorrows",
          "type": "uint256"
        }
      ],
      "name": "AccrueInterest",
      "type": "event"
    },
    {
      "anonymous": false,
      "inputs": [
        {
          "indexed": false,
          "name": "minter",
          "type": "address"
        },
        {
          "indexed": false,
          "name": "mintAmount",
          "type": "uint256"
        },
        {
          "indexed": false,
          "name": "mintTokens",
          "type": "uint256"
        }
      ],
      "name": "Mint",
      "type": "event"
    },
    {
      "anonymous": false,
      "inputs": [
        {
          "indexed": false,
          "name": "redeemer",
          "type": "address"
        },
        {
          "indexed": false,
          "name": "redeemAmount",
          "type": "uint256"
        },
        {
          "indexed": false,
          "name": "redeemTokens",
          "type": "uint256"
        }
      ],
      "name": "Redeem",
      "type": "event"
    },
    {
      "anonymous": false,
      "inputs": [
        {
          "indexed": false,
          "name": "borrower",
          "type": "address"
        },
        {
          "indexed": false,
          "name": "borrowAmount",
          "type": "uint256"
        },
        {
          "indexed": false,
          "name": "accountBorrows",
          "type": "uint256"
        },
        {
          "indexed": false,
          "name": "totalBorrows",
          "type": "uint256"
        }
      ],
      "name": "Borrow",
      "type": "event"
    },
    {
      "anonymous": false,
      "inputs": [
        {
          "indexed": false,
          "name": "payer",
          "type": "address"
        },
        {
          "indexed": false,
          "name": "borrower",
          "type": "address"
        },
        {
          "indexed": false,
          "name": "repayAmount",
          "type": "uint256"
        },
        {
          "indexed": false,
          "name": "accountBorrows",
          "type": "uint256"
        },
        {
          "indexed": false,
          "name": "totalBorrows",
          "type": "uint256"
        }
      ],
      "name": "RepayBorrow",
      "type": "event"
    },
    {
      "anonymous": false,
      "inputs": [
        {
          "indexed": false,
          "name": "liquidator",
          "type": "address"
        },
        {
          "indexed": false,
          "name": "borrower",
          "type": "address"
        },
        {
          "indexed": false,
          "name": "repayAmount",
          "type": "uint256"
        },
        {
          "indexed": false,
          "name": "cTokenCollateral",
          "type": "address"
        },
        {
          "indexed": false,
          "name": "seizeTokens",
          "type": "uint256"
        }
      ],
      "name": "LiquidateBorrow",
      "type": "event"
    },
    {
      "anonymous": false,
      "inputs": [
        {
          "indexed": false,
          "name": "oldPendingAdmin",
          "type": "address"
        },
        {
          "indexed": false,
          "name": "newPendingAdmin",
          "type": "address"
        }
      ],
      "name": "NewPendingAdmin",
      "type": "event"
    },
    {
      "anonymous": false,
      "inputs": [
        {
          "indexed": false,
          "name": "oldAdmin",
          "type": "address"
        },
        {
          "indexed": false,
          "name": "newAdmin",
          "type": "address"
        }
      ],
      "name": "NewAdmin",
      "type": "event"
    },
    {
      "anonymous": false,
      "inputs": [
        {
          "indexed": false,
          "name": "oldComptroller",
          "type": "address"
        },
        {
          "indexed": false,
          "name": "newComptroller",
          "type": "address"
        }
      ],
      "name": "NewComptroller",
      "type": "event"
    },
    {
      "anonymous": false,
      "inputs": [
        {
          "indexed": false,
          "name": "oldInterestRateModel",
          "type": "address"
        },
        {
          "indexed": false,
          "name": "newInterestRateModel",
          "type": "address"
        }
      ],
      "name": "NewMarketInterestRateModel",
      "type": "event"
    },
    {
      "anonymous": false,
      "inputs": [
        {
          "indexed": false,
          "name": "oldReserveFactorMantissa",
          "type": "uint256"
        },
        {
          "indexed": false,
          "name": "newReserveFactorMantissa",
          "type": "uint256"
        }
      ],
      "name": "NewReserveFactor",
      "type": "event"
    },
    {
      "anonymous": false,
      "inputs": [
        {
          "indexed": false,
          "name": "admin",
          "type": "address"
        },
        {
          "indexed": false,
          "name": "reduceAmount",
          "type": "uint256"
        },
        {
          "indexed": false,
          "name": "newTotalReserves",
          "type": "uint256"
        }
      ],
      "name": "ReservesReduced",
      "type": "event"
    },
    {
      "anonymous": false,
      "inputs": [
        {
          "indexed": false,
          "name": "error",
          "type": "uint256"
        },
        {
          "indexed": false,
          "name": "info",
          "type": "uint256"
        },
        {
          "indexed": false,
          "name": "detail",
          "type": "uint256"
        }
      ],
      "name": "Failure",
      "type": "event"
    },
    {
      "anonymous": false,
      "inputs": [
        {
          "indexed": true,
          "name": "from",
          "type": "address"
        },
        {
          "indexed": true,
          "name": "to",
          "type": "address"
        },
        {
          "indexed": false,
          "name": "amount",
          "type": "uint256"
        }
      ],
      "name": "Transfer",
      "type": "event"
    },
    {
      "anonymous": false,
      "inputs": [
        {
          "indexed": true,
          "name": "owner",
          "type": "address"
        },
        {
          "indexed": true,
          "name": "spender",
          "type": "address"
        },
        {
          "indexed": false,
          "name": "amount",
          "type": "uint256"
        }
      ],
      "name": "Approval",
      "type": "event"
    }
  ],
  "bytecode": "0x60806040523480156200001157600080fd5b506040516060806200542c833981018060405260608110156200003357600080fd5b50805160208083015160409384015184518086018652601181527f46616b6520436f6d706f756e642044616900000000000000000000000000000081850152855180870190965260048087527f634441490000000000000000000000000000000000000000000000000000000094870194909452600160005583546001600160a01b03191633179093556aa56fa5b99019a5c800000060088181559495929491938693869386939291908585858585856000620000f687620002da60201b60201c565b905080156200016657604080517f08c379a000000000000000000000000000000000000000000000000000000000815260206004820152601a60248201527f53657474696e6720636f6d7074726f6c6c6572206661696c6564000000000000604482015290519081900360640190fd5b620001766200046d60201b60201c565b600a55670de0b6b3a7640000600b55620001978662000472602090811b901c565b90508015620001f2576040517f08c379a00000000000000000000000000000000000000000000000000000000081526004018080602001828103825260228152602001806200540a6022913960400191505060405180910390fd5b83516200020790600190602087019062000694565b5082516200021d90600290602086019062000694565b50506003555050601280546001600160a01b0319166001600160a01b038c81169190911791829055604080517f18160ddd00000000000000000000000000000000000000000000000000000000815290519290911694506318160ddd93506004808201935060209291829003018186803b1580156200029b57600080fd5b505afa158015620002b0573d6000803e3d6000fd5b505050506040513d6020811015620002c757600080fd5b50620007369a5050505050505050505050565b6004546000906001600160a01b031633146200030c57620003046001603f6200062460201b60201c565b905062000468565b600654604080517e7e3dd200000000000000000000000000000000000000000000000000000000815290516001600160a01b0392831692851691627e3dd2916004808301926020929190829003018186803b1580156200036b57600080fd5b505afa15801562000380573d6000803e3d6000fd5b505050506040513d60208110156200039757600080fd5b50516200040557604080517f08c379a000000000000000000000000000000000000000000000000000000000815260206004820152601c60248201527f6d61726b6572206d6574686f642072657475726e65642066616c736500000000604482015290519081900360640190fd5b600680546001600160a01b0319166001600160a01b03858116918217909255604080519284168352602083019190915280517f7ac369dbd14fa5ea3f473ed67cc9d598964a77501540ba6751eb0b3decf5870d9281900390910190a160005b9150505b919050565b435b90565b60045460009081906001600160a01b03163314620004a7576200049e600160426200062460201b60201c565b91505062000468565b620004b76200046d60201b60201c565b600a5414620004d4576200049e600a60416200062460201b60201c565b600760009054906101000a90046001600160a01b03169050826001600160a01b0316632191f92a6040518163ffffffff1660e01b815260040160206040518083038186803b1580156200052657600080fd5b505afa1580156200053b573d6000803e3d6000fd5b505050506040513d60208110156200055257600080fd5b5051620005c057604080517f08c379a000000000000000000000000000000000000000000000000000000000815260206004820152601c60248201527f6d61726b6572206d6574686f642072657475726e65642066616c736500000000604482015290519081900360640190fd5b600780546001600160a01b0319166001600160a01b03858116918217909255604080519284168352602083019190915280517fedffc32e068c7c95dfd4bdfd5c4d939a084d6b11c4199eac8436ed234d72f9269281900390910190a1600062000464565b60007f45b96fe442630264581b197e84bbada861235052c5a1aadfff9ea4e40a969aa08360108111156200065457fe5b83604d8111156200066157fe5b604080519283526020830191909152600082820152519081900360600190a18260108111156200068d57fe5b9392505050565b828054600181600116156101000203166002900490600052602060002090601f016020900481019282601f10620006d757805160ff191683800117855562000707565b8280016001018555821562000707579182015b8281111562000707578251825591602001919060010190620006ea565b506200071592915062000719565b5090565b6200046f91905b8082111562000715576000815560010162000720565b614cc480620007466000396000f3fe608060405234801561001057600080fd5b506004361061030a5760003560e01c80638f840ddd1161019c578063c37f68e2116100ee578063f3fdb15a11610097578063f8f9da2811610071578063f8f9da28146107ce578063fca7820b146107d6578063fe9c44ae146107f35761030a565b8063f3fdb15a14610788578063f5e3c46214610790578063f851a440146107c65761030a565b8063dd62ed3e116100c8578063dd62ed3e1461072c578063e9c714f21461075a578063f2b3abbd146107625761030a565b8063c37f68e2146106a6578063c5ebeaec146106f2578063db006a751461070f5761030a565b8063a9059cbb11610150578063b2a02ff11161012a578063b2a02ff114610642578063b71d1a0c14610678578063bd6d894d1461069e5761030a565b8063a9059cbb14610606578063aa5af0fd14610632578063ae9d70b01461063a5761030a565b806395dd91931161018157806395dd9193146105bb578063a0712d68146105e1578063a6afed95146105fe5761030a565b80638f840ddd146105ab57806395d89b41146105b35761030a565b80633af9e66911610260578063675d972c1161020957806370a08231116101e357806370a082311461056057806373acee9814610586578063852a12e31461058e5761030a565b8063675d972c146105485780636c540baf146105505780636f307dc3146105585761030a565b806347bd37181161023a57806347bd37181461051b5780635fe3b56714610523578063601a0bf11461052b5761030a565b80633af9e669146104c75780633b1d21a2146104ed5780634576b5db146104f55761030a565b806318160ddd116102c25780632608f8181161029c5780632608f8181461046f578063267822471461049b578063313ce567146104bf5761030a565b806318160ddd14610429578063182df0f51461043157806323b872dd146104395761030a565b80630e752702116102f35780630e752702146103cc578063173b9904146103fb57806317bfdfbc146104035761030a565b806306fdde031461030f578063095ea7b31461038c575b600080fd5b6103176107fb565b6040805160208082528351818301528351919283929083019185019080838360005b83811015610351578181015183820152602001610339565b50505050905090810190601f16801561037e5780820380516001836020036101000a031916815260200191505b509250505060405180910390f35b6103b8600480360360408110156103a257600080fd5b506001600160a01b038135169060200135610888565b604080519115158252519081900360200190f35b6103e9600480360360208110156103e257600080fd5b50356108f5565b60408051918252519081900360200190f35b6103e9610908565b6103e96004803603602081101561041957600080fd5b50356001600160a01b031661090e565b6103e96109d1565b6103e96109d7565b6103b86004803603606081101561044f57600080fd5b506001600160a01b03813581169160208101359091169060400135610a3d565b6103e96004803603604081101561048557600080fd5b506001600160a01b038135169060200135610aa9565b6104a3610abc565b604080516001600160a01b039092168252519081900360200190f35b6103e9610acb565b6103e9600480360360208110156104dd57600080fd5b50356001600160a01b0316610ad1565b6103e9610b3f565b6103e96004803603602081101561050b57600080fd5b50356001600160a01b0316610b4e565b6103e9610cc6565b6104a3610ccc565b6103e96004803603602081101561054157600080fd5b5035610cdb565b6103e9610d69565b6103e9610d6f565b6104a3610d75565b6103e96004803603602081101561057657600080fd5b50356001600160a01b0316610d84565b6103e9610d9f565b6103e9600480360360208110156105a457600080fd5b5035610e59565b6103e9610e64565b610317610e6a565b6103e9600480360360208110156105d157600080fd5b50356001600160a01b0316610ec2565b6103e9600480360360208110156105f757600080fd5b5035610f22565b6103e9610f2d565b6103b86004803603604081101561061c57600080fd5b506001600160a01b038135169060200135611329565b6103e9611394565b6103e961139a565b6103e96004803603606081101561065857600080fd5b506001600160a01b03813581169160208101359091169060400135611674565b6103e96004803603602081101561068e57600080fd5b50356001600160a01b031661196f565b6103e9611a03565b6106cc600480360360208110156106bc57600080fd5b50356001600160a01b0316611abe565b604080519485526020850193909352838301919091526060830152519081900360800190f35b6103e96004803603602081101561070857600080fd5b5035611b53565b6103e96004803603602081101561072557600080fd5b5035611b5e565b6103e96004803603604081101561074257600080fd5b506001600160a01b0381358116916020013516611b69565b6103e9611b94565b6103e96004803603602081101561077857600080fd5b50356001600160a01b0316611c90565b6104a3611cca565b6103e9600480360360608110156107a657600080fd5b506001600160a01b03813581169160208101359160409091013516611cd9565b6104a3611ce6565b6103e9611cf5565b6103e9600480360360208110156107ec57600080fd5b5035611dd4565b6103b8611e0e565b60018054604080516020600284861615610100026000190190941693909304601f810184900484028201840190925281815292918301828280156108805780601f1061085557610100808354040283529160200191610880565b820191906000526020600020905b81548152906001019060200180831161086357829003601f168201915b505050505081565b3360008181526010602090815260408083206001600160a01b03871680855290835281842086905581518681529151939493909284927f8c5be1e5ebec7d5bd14f71427d1e84f3dd0314c0f7b2291e5b200ac8c7c3b925929081900390910190a360019150505b92915050565b600061090082611e13565b90505b919050565b60095481565b6000805460010180825581610921610f2d565b146109765760408051600160e51b62461bcd02815260206004820152601660248201527f61636372756520696e746572657374206661696c656400000000000000000000604482015290519081900360640190fd5b61097f83610ec2565b91505b60005481146109cb5760408051600160e51b62461bcd02815260206004820152600a6024820152600160b21b691c994b595b9d195c995902604482015290519081900360640190fd5b50919050565b600e5481565b60008060006109e4611e4f565b909250905060008260038111156109f757fe5b14610a3657604051600160e51b62461bcd028152600401808060200182810382526035815260200180614c0c6035913960400191505060405180910390fd5b9150505b90565b6000805460010180825581610a5433878787611efd565b1491505b6000548114610aa15760408051600160e51b62461bcd02815260206004820152600a6024820152600160b21b691c994b595b9d195c995902604482015290519081900360640190fd5b509392505050565b6000610ab5838361224f565b9392505050565b6005546001600160a01b031681565b60035481565b6000610adb614985565b6040518060200160405280610aee611a03565b90526001600160a01b0384166000908152600f6020526040812054919250908190610b1a9084906122df565b90925090506000826003811115610b2d57fe5b14610b3757600080fd5b949350505050565b6000610b49612333565b905090565b6004546000906001600160a01b03163314610b7657610b6f6001603f6123cc565b9050610903565b600654604080517e7e3dd200000000000000000000000000000000000000000000000000000000815290516001600160a01b0392831692851691627e3dd2916004808301926020929190829003018186803b158015610bd457600080fd5b505afa158015610be8573d6000803e3d6000fd5b505050506040513d6020811015610bfe57600080fd5b5051610c545760408051600160e51b62461bcd02815260206004820152601c60248201527f6d61726b6572206d6574686f642072657475726e65642066616c736500000000604482015290519081900360640190fd5b6006805473ffffffffffffffffffffffffffffffffffffffff19166001600160a01b03858116918217909255604080519284168352602083019190915280517f7ac369dbd14fa5ea3f473ed67cc9d598964a77501540ba6751eb0b3decf5870d9281900390910190a160009392505050565b600c5481565b6006546001600160a01b031681565b6000805460010180825581610cee610f2d565b90508015610d1457610d0c816010811115610d0557fe5b60306123cc565b925050610982565b610d1d84612432565b92505060005481146109cb5760408051600160e51b62461bcd02815260206004820152600a6024820152600160b21b691c994b595b9d195c995902604482015290519081900360640190fd5b60085481565b600a5481565b6012546001600160a01b031681565b6001600160a01b03166000908152600f602052604090205490565b6000805460010180825581610db2610f2d565b14610e075760408051600160e51b62461bcd02815260206004820152601660248201527f61636372756520696e746572657374206661696c656400000000000000000000604482015290519081900360640190fd5b600c5491506000548114610e555760408051600160e51b62461bcd02815260206004820152600a6024820152600160b21b691c994b595b9d195c995902604482015290519081900360640190fd5b5090565b6000610900826125b6565b600d5481565b6002805460408051602060018416156101000260001901909316849004601f810184900484028201840190925281815292918301828280156108805780601f1061085557610100808354040283529160200191610880565b6000806000610ed0846125f3565b90925090506000826003811115610ee357fe5b14610ab557604051600160e51b62461bcd028152600401808060200182810382526037815260200180614b006037913960400191505060405180910390fd5b6000610900826126a7565b6000610f37614998565b6007546001600160a01b03166315f24053610f50612333565b600c54600d546040518463ffffffff1660e01b8152600401808481526020018381526020018281526020019350505050604080518083038186803b158015610f9757600080fd5b505afa158015610fab573d6000803e3d6000fd5b505050506040513d6040811015610fc157600080fd5b50805160209182015160408401819052918301526601c6bf5263400010156110335760408051600160e51b62461bcd02815260206004820152601c60248201527f626f72726f772072617465206973206162737572646c79206869676800000000604482015290519081900360640190fd5b6020810151156110565761104e6005600283602001516126e2565b915050610a3a565b61105e612748565b60608201819052600a54611072919061274c565b608083018190528282600381111561108657fe5b600381111561109157fe5b90525060009050815160038111156110a557fe5b146110ac57fe5b6110cc60405180602001604052808360400151815250826080015161276f565b60a08301819052828260038111156110e057fe5b60038111156110eb57fe5b90525060009050815160038111156110ff57fe5b146111205761104e600960068360000151600381111561111b57fe5b6126e2565b6111308160a00151600c546122df565b60c083018190528282600381111561114457fe5b600381111561114f57fe5b905250600090508151600381111561116357fe5b1461117f5761104e600960018360000151600381111561111b57fe5b61118f8160c00151600c546127d7565b60e08301819052828260038111156111a357fe5b60038111156111ae57fe5b90525060009050815160038111156111c257fe5b146111de5761104e600960048360000151600381111561111b57fe5b6111ff60405180602001604052806009548152508260c00151600d546127fd565b61010083018190528282600381111561121457fe5b600381111561121f57fe5b905250600090508151600381111561123357fe5b1461124f5761104e600960058360000151600381111561111b57fe5b6112628160a00151600b54600b546127fd565b61012083018190528282600381111561127757fe5b600381111561128257fe5b905250600090508151600381111561129657fe5b146112b25761104e600960038360000151600381111561111b57fe5b606080820151600a55610120820151600b81905560e0830151600c819055610100840151600d5560c08401516040805191825260208201939093528083019190915290517f875352fb3fadeb8c0be7cbbe8ff761b308fa7033470cd0287f02f3436fd76cb9929181900390910190a1600091505090565b600080546001018082558161134033338787611efd565b1491505b600054811461138d5760408051600160e51b62461bcd02815260206004820152600a6024820152600160b21b691c994b595b9d195c995902604482015290519081900360640190fd5b5092915050565b600b5481565b6000806113a56109d7565b60075490915060009081906001600160a01b03166315f240536113c6612333565b600c54600d546040518463ffffffff1660e01b8152600401808481526020018381526020018281526020019350505050604080518083038186803b15801561140d57600080fd5b505afa158015611421573d6000803e3d6000fd5b505050506040513d604081101561143757600080fd5b5080516020909101519092509050811561148557604051600160e51b62461bcd028152600401808060200182810382526031815260200180614b9f6031913960400191505060405180910390fd5b600061148f614985565b6114a9604051806020016040528087815250600e5461276f565b909250905060008260038111156114bc57fe5b146114fb57604051600160e51b62461bcd028152600401808060200182810382526031815260200180614b376031913960400191505060405180910390fd5b6000611505614985565b611511600c5484612859565b9092509050600082600381111561152457fe5b1461156357604051600160e51b62461bcd028152600401808060200182810382526031815260200180614a7b6031913960400191505060405180910390fd5b600061156d614985565b61159d6040518060200160405280670de0b6b3a764000081525060405180602001604052806009548152506128b8565b909250905060008260038111156115b057fe5b146115ef57604051600160e51b62461bcd02815260040180806020018281038252603c815260200180614bd0603c913960400191505060405180910390fd5b60006115f9614985565b61161260405180602001604052808b81525084876128f2565b9092509050600082600381111561162557fe5b1461166457604051600160e51b62461bcd028152600401808060200182810382526031815260200180614acf6031913960400191505060405180910390fd5b519a505050505050505050505090565b60008054600101808255600654604080517fd02f73510000000000000000000000000000000000000000000000000000000081523060048201523360248201526001600160a01b03888116604483015287811660648301526084820187905291518593929092169163d02f73519160a48082019260209290919082900301818787803b15801561170357600080fd5b505af1158015611717573d6000803e3d6000fd5b505050506040513d602081101561172d57600080fd5b50519050801561174c576117446003601b836126e2565b925050610a58565b856001600160a01b0316856001600160a01b03161415611772576117446006601c6123cc565b6001600160a01b0385166000908152600f602052604081205481908190611799908861274c565b909350915060008360038111156117ac57fe5b146117cf576117c46009601a85600381111561111b57fe5b955050505050610a58565b6001600160a01b0389166000908152600f60205260409020546117f290886127d7565b9093509050600083600381111561180557fe5b1461181d576117c46009601985600381111561111b57fe5b6001600160a01b038089166000818152600f60209081526040808320879055938d168083529184902085905583518b8152935191937fddf252ad1be2c89b69c2b068fc378daa952ba7f163c4a11628f55a4df523b3ef929081900390910190a3600654604080517f6d35bf910000000000000000000000000000000000000000000000000000000081523060048201523360248201526001600160a01b038c811660448301528b81166064830152608482018b905291519190921691636d35bf919160a480830192600092919082900301818387803b1580156118ff57600080fd5b505af1158015611913573d6000803e3d6000fd5b5060009250611920915050565b9550505050506000548114610aa15760408051600160e51b62461bcd02815260206004820152600a6024820152600160b21b691c994b595b9d195c995902604482015290519081900360640190fd5b6004546000906001600160a01b0316331461199057610b6f600160456123cc565b600580546001600160a01b0384811673ffffffffffffffffffffffffffffffffffffffff19831681179093556040805191909216808252602082019390935281517fca4f2f25d0898edd99413412fb94012f9e54ec8142f9b093e7720646a95b16a9929181900390910190a16000610ab5565b6000805460010180825581611a16610f2d565b14611a6b5760408051600160e51b62461bcd02815260206004820152601660248201527f61636372756520696e746572657374206661696c656400000000000000000000604482015290519081900360640190fd5b611a736109d7565b91506000548114610e555760408051600160e51b62461bcd02815260206004820152600a6024820152600160b21b691c994b595b9d195c995902604482015290519081900360640190fd5b6001600160a01b0381166000908152600f6020526040812054819081908190818080611ae9896125f3565b935090506000816003811115611afb57fe5b14611b195760095b975060009650869550859450611b4c9350505050565b611b21611e4f565b925090506000816003811115611b3357fe5b14611b3f576009611b03565b5060009650919450925090505b9193509193565b60006109008261293c565b600061090082612977565b6001600160a01b03918216600090815260106020908152604080832093909416825291909152205490565b6005546000906001600160a01b031633141580611baf575033155b15611bc757611bc0600160006123cc565b9050610a3a565b60048054600580546001600160a01b0380821673ffffffffffffffffffffffffffffffffffffffff1980861682179687905590921690925560408051938316808552949092166020840152815190927ff9ffabca9c8276e99321725bcb43fb076a6c66a54b7f21c4e8146d8519b417dc92908290030190a1600554604080516001600160a01b038085168252909216602083015280517fca4f2f25d0898edd99413412fb94012f9e54ec8142f9b093e7720646a95b16a99281900390910190a160009250505090565b600080611c9b610f2d565b90508015611cc157611cb9816010811115611cb257fe5b60406123cc565b915050610903565b610ab5836129ad565b6007546001600160a01b031681565b6000610b37848484612b2d565b6004546001600160a01b031681565b600754600090819081906001600160a01b03166315f24053611d15612333565b600c54600d546040518463ffffffff1660e01b8152600401808481526020018381526020018281526020019350505050604080518083038186803b158015611d5c57600080fd5b505afa158015611d70573d6000803e3d6000fd5b505050506040513d6040811015611d8657600080fd5b50805160209091015190925090508115610a3657604051600160e51b62461bcd028152600401808060200182810382526037815260200180614b686037913960400191505060405180910390fd5b6000805460010180825581611de7610f2d565b90508015611e0557610d0c816010811115611dfe57fe5b60466123cc565b610d1d84612c3b565b600181565b6000805460010180825581611e26610f2d565b90508015611e4457610d0c816010811115611e3d57fe5b60366123cc565b610d1d333386612cde565b600080600e5460001415611e6a575050600854600090611ef9565b6000611e74612333565b90506000611e80614985565b6000611e9184600c54600d54613166565b935090506000816003811115611ea357fe5b14611eb757945060009350611ef992505050565b611ec383600e546131a4565b925090506000816003811115611ed557fe5b14611ee957945060009350611ef992505050565b5051600094509250611ef9915050565b9091565b600654604080517fbdcdc2580000000000000000000000000000000000000000000000000000000081523060048201526001600160a01b03868116602483015285811660448301526064820185905291516000938493169163bdcdc25891608480830192602092919082900301818787803b158015611f7b57600080fd5b505af1158015611f8f573d6000803e3d6000fd5b505050506040513d6020811015611fa557600080fd5b505190508015611fc457611fbc6003604a836126e2565b915050610b37565b836001600160a01b0316856001600160a01b03161415611fea57611fbc6002604b6123cc565b60006001600160a01b0387811690871614156120095750600019612031565b506001600160a01b038086166000908152601060209081526040808320938a16835292905220545b600080600080612041858961274c565b9094509250600084600381111561205457fe5b14612072576120656009604b6123cc565b9650505050505050610b37565b6001600160a01b038a166000908152600f6020526040902054612095908961274c565b909450915060008460038111156120a857fe5b146120b9576120656009604c6123cc565b6001600160a01b0389166000908152600f60205260409020546120dc90896127d7565b909450905060008460038111156120ef57fe5b14612100576120656009604d6123cc565b6001600160a01b03808b166000908152600f6020526040808220859055918b168152208190556000198514612158576001600160a01b03808b166000908152601060209081526040808320938f168352929052208390555b886001600160a01b03168a6001600160a01b03167fddf252ad1be2c89b69c2b068fc378daa952ba7f163c4a11628f55a4df523b3ef8a6040518082815260200191505060405180910390a3600654604080517f6a56947e0000000000000000000000000000000000000000000000000000000081523060048201526001600160a01b038d811660248301528c81166044830152606482018c905291519190921691636a56947e91608480830192600092919082900301818387803b15801561221f57600080fd5b505af1158015612233573d6000803e3d6000fd5b5060009250612240915050565b9b9a5050505050505050505050565b6000805460010180825581612262610f2d565b905080156122885761228081601081111561227957fe5b60356123cc565b925050611344565b612293338686612cde565b925050600054811461138d5760408051600160e51b62461bcd02815260206004820152600a6024820152600160b21b691c994b595b9d195c995902604482015290519081900360640190fd5b60008060006122ec614985565b6122f6868661276f565b9092509050600082600381111561230957fe5b1461231a575091506000905061232c565b600061232582613254565b9350935050505b9250929050565b601254604080517f70a0823100000000000000000000000000000000000000000000000000000000815230600482015290516000926001600160a01b03169182916370a0823191602480820192602092909190829003018186803b15801561239a57600080fd5b505afa1580156123ae573d6000803e3d6000fd5b505050506040513d60208110156123c457600080fd5b505191505090565b60007f45b96fe442630264581b197e84bbada861235052c5a1aadfff9ea4e40a969aa08360108111156123fb57fe5b83604d81111561240757fe5b604080519283526020830191909152600082820152519081900360600190a1826010811115610ab557fe5b600454600090819081906001600160a01b0316331461246057612457600160316123cc565b92505050610903565b612468612748565b600a541461247c57612457600a60336123cc565b83612485612333565b101561249757612457600e60326123cc565b600d548411156124ad57612457600260346123cc565b50600d54838103908111156124f657604051600160e51b62461bcd028152600401808060200182810382526024815260200180614c756024913960400191505060405180910390fd5b600d819055600454612511906001600160a01b031685613263565b9150600082601081111561252157fe5b1461256057604051600160e51b62461bcd028152600401808060200182810382526023815260200180614aac6023913960400191505060405180910390fd5b600454604080516001600160a01b03909216825260208201869052818101839052517f3bad0c59cf2f06e7314077049f48a93578cd16f5ef92329f1dab1420a99c177e9181900360600190a16000949350505050565b60008054600101808255816125c9610f2d565b905080156125e757610d0c8160108111156125e057fe5b60276123cc565b610d1d33600086613338565b6001600160a01b03811660009081526011602052604081208054829182918291829161262a5750600094508493506126a292505050565b61263a8160000154600b5461388b565b9094509250600084600381111561264d57fe5b146126625750919350600092506126a2915050565b6126708382600101546138ca565b9094509150600084600381111561268357fe5b146126985750919350600092506126a2915050565b5060009450925050505b915091565b60008054600101808255816126ba610f2d565b905080156126d857610d0c8160108111156126d157fe5b601e6123cc565b610d1d33856138f5565b60007f45b96fe442630264581b197e84bbada861235052c5a1aadfff9ea4e40a969aa084601081111561271157fe5b84604d81111561271d57fe5b604080519283526020830191909152818101859052519081900360600190a1836010811115610b3757fe5b4390565b60008083831161276357506000905081830361232c565b5060039050600061232c565b6000612779614985565b60008061278a86600001518661388b565b9092509050600082600381111561279d57fe5b146127bc5750604080516020810190915260008152909250905061232c565b60408051602081019091529081526000969095509350505050565b6000808383018481106127ef5760009250905061232c565b50600291506000905061232c565b600080600061280a614985565b612814878761276f565b9092509050600082600381111561282757fe5b146128385750915060009050612851565b61284a61284482613254565b866127d7565b9350935050505b935093915050565b6000612863614985565b600080612878670de0b6b3a76400008761388b565b9092509050600082600381111561288b57fe5b146128aa5750604080516020810190915260008152909250905061232c565b6123258186600001516131a4565b60006128c2614985565b6000806128d78660000151866000015161274c565b60408051602081019091529081529097909650945050505050565b60006128fc614985565b6000612906614985565b6129108787613d81565b9092509050600082600381111561292357fe5b14612932579092509050612851565b61284a8186613d81565b600080546001018082558161294f610f2d565b9050801561296d57610d0c81601081111561296657fe5b60086123cc565b610d1d3385613e6a565b600080546001018082558161298a610f2d565b905080156129a157610d0c8160108111156125e057fe5b610d1d33856000613338565b60045460009081906001600160a01b031633146129d057611cb9600160426123cc565b6129d8612748565b600a54146129ec57611cb9600a60416123cc565b600760009054906101000a90046001600160a01b03169050826001600160a01b0316632191f92a6040518163ffffffff1660e01b815260040160206040518083038186803b158015612a3d57600080fd5b505afa158015612a51573d6000803e3d6000fd5b505050506040513d6020811015612a6757600080fd5b5051612abd5760408051600160e51b62461bcd02815260206004820152601c60248201527f6d61726b6572206d6574686f642072657475726e65642066616c736500000000604482015290519081900360640190fd5b6007805473ffffffffffffffffffffffffffffffffffffffff19166001600160a01b03858116918217909255604080519284168352602083019190915280517fedffc32e068c7c95dfd4bdfd5c4d939a084d6b11c4199eac8436ed234d72f9269281900390910190a16000610ab5565b6000805460010180825581612b40610f2d565b90508015612b5e57611744816010811115612b5757fe5b600f6123cc565b836001600160a01b031663a6afed956040518163ffffffff1660e01b8152600401602060405180830381600087803b158015612b9957600080fd5b505af1158015612bad573d6000803e3d6000fd5b505050506040513d6020811015612bc357600080fd5b505190508015612be357611744816010811115612bdc57fe5b60106123cc565b612bef33878787614205565b9250506000548114610aa15760408051600160e51b62461bcd02815260206004820152600a6024820152600160b21b691c994b595b9d195c995902604482015290519081900360640190fd5b6004546000906001600160a01b03163314612c5c57610b6f600160476123cc565b612c64612748565b600a5414612c7857610b6f600a60486123cc565b670de0b6b3a7640000821115612c9457610b6f600260496123cc565b6009805490839055604080518281526020810185905281517faaa68312e2ea9d50e16af5068410ab56e1a1fd06037b1a35664812c30f821460929181900390910190a16000610ab5565b600654604080517f24008a620000000000000000000000000000000000000000000000000000000081523060048201526001600160a01b0386811660248301528581166044830152606482018590529151600093849316916324008a6291608480830192602092919082900301818787803b158015612d5c57600080fd5b505af1158015612d70573d6000803e3d6000fd5b505050506040513d6020811015612d8657600080fd5b505190508015612da557612d9d60036038836126e2565b915050610ab5565b612dad612748565b600a5414612dc157612d9d600a60396123cc565b612dc96149f2565b6001600160a01b0385166000908152601160205260409020600101546060820152612df3856125f3565b6080830181905260208301826003811115612e0a57fe5b6003811115612e1557fe5b9052506000905081602001516003811115612e2c57fe5b14612e5157612e48600960378360200151600381111561111b57fe5b92505050610ab5565b600019841415612e6a5760808101516040820152612e72565b604081018490525b612e80868260400151614751565b81906010811115612e8d57fe5b90816010811115612e9a57fe5b905250600081516010811115612eac57fe5b14612ebe578051612e4890603c6123cc565b612ed08160800151826040015161274c565b60a0830181905260208301826003811115612ee757fe5b6003811115612ef257fe5b9052506000905081602001516003811115612f0957fe5b14612f2557612e486009603a8360200151600381111561111b57fe5b612f35600c54826040015161274c565b60c0830181905260208301826003811115612f4c57fe5b6003811115612f5757fe5b9052506000905081602001516003811115612f6e57fe5b14612f8a57612e486009603b8360200151600381111561111b57fe5b612f9886826040015161489e565b81906010811115612fa557fe5b90816010811115612fb257fe5b905250600081516010811115612fc457fe5b146130195760408051600160e51b62461bcd02815260206004820152601f60248201527f726570617920626f72726f77207472616e7366657220696e206661696c656400604482015290519081900360640190fd5b60a080820180516001600160a01b03808916600081815260116020908152604091829020948555600b5460019095019490945560c0870151600c8190558188015195518251948e16855294840192909252828101949094526060820192909252608081019190915290517f1a2a22cb034d26d1854bdc6666a5b91fe25efbbb5dcad3b0355478d6f5c362a1929181900390910190a1600654604080830151606084015182517f1ededc910000000000000000000000000000000000000000000000000000000081523060048201526001600160a01b038b811660248301528a81166044830152606482019390935260848101919091529151921691631ededc919160a48082019260009290919082900301818387803b15801561313b57600080fd5b505af115801561314f573d6000803e3d6000fd5b506000925061315c915050565b9695505050505050565b60008060008061317687876127d7565b9092509050600082600381111561318957fe5b1461319a5750915060009050612851565b61284a818661274c565b60006131ae614985565b6000806131c386670de0b6b3a764000061388b565b909250905060008260038111156131d657fe5b146131f55750604080516020810190915260008152909250905061232c565b60008061320283886138ca565b9092509050600082600381111561321557fe5b146132375750604080516020810190915260008152909450925061232c915050565b604080516020810190915290815260009890975095505050505050565b51670de0b6b3a7640000900490565b601254604080517fa9059cbb0000000000000000000000000000000000000000000000000000000081526001600160a01b03858116600483015260248201859052915160009392909216918391839163a9059cbb91604480820192869290919082900301818387803b1580156132d857600080fd5b505af11580156132ec573d6000803e3d6000fd5b505050503d60008114613306576020811461331057600080fd5b600019915061331c565b60206000803e60005191505b508061332d576010925050506108ef565b506000949350505050565b6000821580613345575081155b61338357604051600160e51b62461bcd028152600401808060200182810382526034815260200180614c416034913960400191505060405180910390fd5b61338b6149f2565b613393611e4f565b60408301819052602083018260038111156133aa57fe5b60038111156133b557fe5b90525060009050816020015160038111156133cc57fe5b146133e857612d9d6009602b8360200151600381111561111b57fe5b831561346957606081018490526040805160208101825290820151815261340f90856122df565b608083018190526020830182600381111561342657fe5b600381111561343157fe5b905250600090508160200151600381111561344857fe5b1461346457612d9d600960298360200151600381111561111b57fe5b6134e2565b613485836040518060200160405280846040015181525061496e565b606083018190526020830182600381111561349c57fe5b60038111156134a757fe5b90525060009050816020015160038111156134be57fe5b146134da57612d9d6009602a8360200151600381111561111b57fe5b608081018390525b6006546060820151604080517feabe7d910000000000000000000000000000000000000000000000000000000081523060048201526001600160a01b03898116602483015260448201939093529051600093929092169163eabe7d919160648082019260209290919082900301818787803b15801561356057600080fd5b505af1158015613574573d6000803e3d6000fd5b505050506040513d602081101561358a57600080fd5b5051905080156135a157612e4860036028836126e2565b6135a9612748565b600a54146135bd57612e48600a602c6123cc565b6135cd600e54836060015161274c565b60a08401819052602084018260038111156135e457fe5b60038111156135ef57fe5b905250600090508260200151600381111561360657fe5b1461362257612e486009602e8460200151600381111561111b57fe5b6001600160a01b0386166000908152600f6020526040902054606083015161364a919061274c565b60c084018190526020840182600381111561366157fe5b600381111561366c57fe5b905250600090508260200151600381111561368357fe5b1461369f57612e486009602d8460200151600381111561111b57fe5b81608001516136ac612333565b10156136be57612e48600e602f6123cc565b6136cc868360800151613263565b829060108111156136d957fe5b908160108111156136e657fe5b9052506000825160108111156136f857fe5b1461374d5760408051600160e51b62461bcd02815260206004820152601a60248201527f72656465656d207472616e73666572206f7574206661696c6564000000000000604482015290519081900360640190fd5b60a0820151600e5560c08201516001600160a01b0387166000818152600f60209081526040918290209390935560608501518151908152905130937fddf252ad1be2c89b69c2b068fc378daa952ba7f163c4a11628f55a4df523b3ef928290030190a36080820151606080840151604080516001600160a01b038b168152602081019490945283810191909152517fe5b754fb1abb7f01b499791d0b820ae3b6af3424ac1c59768edb53f4ec31a9299281900390910190a160065460808301516060840151604080517f51dff9890000000000000000000000000000000000000000000000000000000081523060048201526001600160a01b038b81166024830152604482019490945260648101929092525191909216916351dff98991608480830192600092919082900301818387803b15801561313b57600080fd5b6000808361389e5750600090508061232c565b838302838582816138ab57fe5b04146138bf5750600291506000905061232c565b60009250905061232c565b600080826138de575060019050600061232c565b60008385816138e957fe5b04915091509250929050565b600654604080517f4ef4c3e10000000000000000000000000000000000000000000000000000000081523060048201526001600160a01b03858116602483015260448201859052915160009384931691634ef4c3e191606480830192602092919082900301818787803b15801561396b57600080fd5b505af115801561397f573d6000803e3d6000fd5b505050506040513d602081101561399557600080fd5b5051905080156139b4576139ac6003601f836126e2565b9150506108ef565b6139bc612748565b600a54146139d0576139ac600a60226123cc565b6139d8614a30565b6139e28585614751565b819060108111156139ef57fe5b908160108111156139fc57fe5b905250600081516010811115613a0e57fe5b14613a29578051613a209060266123cc565b925050506108ef565b613a31611e4f565b6040830181905260208301826003811115613a4857fe5b6003811115613a5357fe5b9052506000905081602001516003811115613a6a57fe5b14613a8657613a20600960218360200151600381111561111b57fe5b613aa2846040518060200160405280846040015181525061496e565b6060830181905260208301826003811115613ab957fe5b6003811115613ac457fe5b9052506000905081602001516003811115613adb57fe5b14613af757613a20600960208360200151600381111561111b57fe5b613b07600e5482606001516127d7565b6080830181905260208301826003811115613b1e57fe5b6003811115613b2957fe5b9052506000905081602001516003811115613b4057fe5b14613b5c57613a20600960248360200151600381111561111b57fe5b6001600160a01b0385166000908152600f60205260409020546060820151613b8491906127d7565b60a0830181905260208301826003811115613b9b57fe5b6003811115613ba657fe5b9052506000905081602001516003811115613bbd57fe5b14613bd957613a20600960238360200151600381111561111b57fe5b613be3858561489e565b81906010811115613bf057fe5b90816010811115613bfd57fe5b905250600081516010811115613c0f57fe5b14613c21578051613a209060256123cc565b6080810151600e5560a08101516001600160a01b0386166000818152600f602090815260409182902093909355606080850151825193845293830188905282820193909352517f4c209b5fc8ad50758f13e2e1088ba56a560dff690a1c6fef26394f4c03821c4f929181900390910190a1606081015160408051918252516001600160a01b0387169130917fddf252ad1be2c89b69c2b068fc378daa952ba7f163c4a11628f55a4df523b3ef9181900360200190a36006546060820151604080517f41c728b90000000000000000000000000000000000000000000000000000000081523060048201526001600160a01b038981166024830152604482018990526064820193909352905191909216916341c728b991608480830192600092919082900301818387803b158015613d5757600080fd5b505af1158015613d6b573d6000803e3d6000fd5b5060009250613d78915050565b95945050505050565b6000613d8b614985565b600080613da08660000151866000015161388b565b90925090506000826003811115613db357fe5b14613dd25750604080516020810190915260008152909250905061232c565b600080613de76706f05b59d3b20000846127d7565b90925090506000826003811115613dfa57fe5b14613e1c5750604080516020810190915260008152909450925061232c915050565b600080613e3183670de0b6b3a76400006138ca565b90925090506000826003811115613e4457fe5b14613e4b57fe5b604080516020810190915290815260009a909950975050505050505050565b600654604080517fda3d454c0000000000000000000000000000000000000000000000000000000081523060048201526001600160a01b0385811660248301526044820185905291516000938493169163da3d454c91606480830192602092919082900301818787803b158015613ee057600080fd5b505af1158015613ef4573d6000803e3d6000fd5b505050506040513d6020811015613f0a57600080fd5b505190508015613f21576139ac6003600e836126e2565b613f29612748565b600a5414613f3c576139ac600a806123cc565b82613f45612333565b1015613f57576139ac600e60096123cc565b613f5f614a4a565b613f68856125f3565b6040830181905260208301826003811115613f7f57fe5b6003811115613f8a57fe5b9052506000905081602001516003811115613fa157fe5b14613fbd57613a20600960078360200151600381111561111b57fe5b613fcb8160400151856127d7565b6060830181905260208301826003811115613fe257fe5b6003811115613fed57fe5b905250600090508160200151600381111561400457fe5b1461402057613a206009600c8360200151600381111561111b57fe5b61402c600c54856127d7565b608083018190526020830182600381111561404357fe5b600381111561404e57fe5b905250600090508160200151600381111561406557fe5b1461408157613a206009600b8360200151600381111561111b57fe5b61408b8585613263565b8190601081111561409857fe5b908160108111156140a557fe5b9052506000815160108111156140b757fe5b1461410c5760408051600160e51b62461bcd02815260206004820152601a60248201527f626f72726f77207472616e73666572206f7574206661696c6564000000000000604482015290519081900360640190fd5b606080820180516001600160a01b038816600081815260116020908152604091829020938455600b54600190940193909355608080870151600c819055945182519384529383018a9052828201939093529381019290925291517f13ed6866d4e1ee6da46f845c46d7e54120883d75c5ea9a2dacc1c4ca8984ab80929181900390910190a1600654604080517f5c7786050000000000000000000000000000000000000000000000000000000081523060048201526001600160a01b0388811660248301526044820188905291519190921691635c77860591606480830192600092919082900301818387803b158015613d5757600080fd5b600654604080517f5fc7e71e0000000000000000000000000000000000000000000000000000000081523060048201526001600160a01b0384811660248301528781166044830152868116606483015260848201869052915160009384931691635fc7e71e9160a480830192602092919082900301818787803b15801561428b57600080fd5b505af115801561429f573d6000803e3d6000fd5b505050506040513d60208110156142b557600080fd5b5051905080156142cc57611fbc60036012836126e2565b6142d4612748565b600a54146142e857611fbc600a60166123cc565b6142f0612748565b836001600160a01b0316636c540baf6040518163ffffffff1660e01b815260040160206040518083038186803b15801561432957600080fd5b505afa15801561433d573d6000803e3d6000fd5b505050506040513d602081101561435357600080fd5b50511461436657611fbc600a60116123cc565b856001600160a01b0316856001600160a01b0316141561438c57611fbc600660176123cc565b8361439d57611fbc600760156123cc565b6000198414156143b357611fbc600760146123cc565b600654604080517fc488847b0000000000000000000000000000000000000000000000000000000081523060048201526001600160a01b038681166024830152604482018890528251600094859492169263c488847b926064808301939192829003018186803b15801561442657600080fd5b505afa15801561443a573d6000803e3d6000fd5b505050506040513d604081101561445057600080fd5b5080516020909101519092509050811561447b5761447160046013846126e2565b9350505050610b37565b846001600160a01b03166370a08231886040518263ffffffff1660e01b815260040180826001600160a01b03166001600160a01b0316815260200191505060206040518083038186803b1580156144d157600080fd5b505afa1580156144e5573d6000803e3d6000fd5b505050506040513d60208110156144fb57600080fd5b505181111561451057614471600d601d6123cc565b600061451d898989612cde565b905080156145465761453b81601081111561453457fe5b60186123cc565b945050505050610b37565b604080517fb2a02ff10000000000000000000000000000000000000000000000000000000081526001600160a01b038b811660048301528a8116602483015260448201859052915160009289169163b2a02ff191606480830192602092919082900301818787803b1580156145ba57600080fd5b505af11580156145ce573d6000803e3d6000fd5b505050506040513d60208110156145e457600080fd5b50519050801561463e5760408051600160e51b62461bcd02815260206004820152601460248201527f746f6b656e207365697a757265206661696c6564000000000000000000000000604482015290519081900360640190fd5b604080516001600160a01b03808d168252808c1660208301528183018b9052891660608201526080810185905290517f298637f684da70674f26509b10f07ec2fbc77a335ab1e7d6215a4b2484d8bb529181900360a00190a1600654604080517f47ef3b3b0000000000000000000000000000000000000000000000000000000081523060048201526001600160a01b038a811660248301528d811660448301528c81166064830152608482018c905260a48201879052915191909216916347ef3b3b9160c480830192600092919082900301818387803b15801561472257600080fd5b505af1158015614736573d6000803e3d6000fd5b5060009250614743915050565b9a9950505050505050505050565b601254604080517fdd62ed3e0000000000000000000000000000000000000000000000000000000081526001600160a01b038581166004830152306024830152915160009392909216918491839163dd62ed3e91604480820192602092909190829003018186803b1580156147c557600080fd5b505afa1580156147d9573d6000803e3d6000fd5b505050506040513d60208110156147ef57600080fd5b5051101561480157600c9150506108ef565b82816001600160a01b03166370a08231866040518263ffffffff1660e01b815260040180826001600160a01b03166001600160a01b0316815260200191505060206040518083038186803b15801561485857600080fd5b505afa15801561486c573d6000803e3d6000fd5b505050506040513d602081101561488257600080fd5b5051101561489457600d9150506108ef565b5060009392505050565b601254604080517f23b872dd0000000000000000000000000000000000000000000000000000000081526001600160a01b0385811660048301523060248301526044820185905291516000939290921691839183916323b872dd91606480820192869290919082900301818387803b15801561491957600080fd5b505af115801561492d573d6000803e3d6000fd5b505050503d60008114614947576020811461495157600080fd5b600019915061495d565b60206000803e60005191505b508061332d57600f925050506108ef565b600080600061497b614985565b6122f68686612859565b6040518060200160405280600081525090565b6040805161014081019091528060008152602001600081526020016000815260200160008152602001600081526020016149d0614985565b8152602001600081526020016000815260200160008152602001600081525090565b6040805160e0810190915280600081526020016000815260200160008152602001600081526020016000815260200160008152602001600081525090565b6040805160c08101909152806000815260200160006149d0565b6040805160a08101909152806000815260200160008152602001600081526020016000815260200160008152509056fe737570706c7952617465506572426c6f636b3a2063616c63756c6174696e6720626f72726f7773506572206661696c6564726564756365207265736572766573207472616e73666572206f7574206661696c6564737570706c7952617465506572426c6f636b3a2063616c63756c6174696e6720737570706c7952617465206661696c6564626f72726f7742616c616e636553746f7265643a20626f72726f7742616c616e636553746f726564496e7465726e616c206661696c6564737570706c7952617465506572426c6f636b3a2063616c63756c6174696e6720756e6465726c79696e67206661696c6564626f72726f7752617465506572426c6f636b3a20696e746572657374526174654d6f64656c2e626f72726f7752617465206661696c6564737570706c7952617465506572426c6f636b3a2063616c63756c6174696e6720626f72726f7752617465206661696c6564737570706c7952617465506572426c6f636b3a2063616c63756c6174696e67206f6e654d696e757352657365727665466163746f72206661696c656465786368616e67655261746553746f7265643a2065786368616e67655261746553746f726564496e7465726e616c206661696c65646f6e65206f662072656465656d546f6b656e73496e206f722072656465656d416d6f756e74496e206d757374206265207a65726f72656475636520726573657276657320756e657870656374656420756e646572666c6f77a165627a7a723058204adbb8f67e9b6f4523646f8a6dcc4c5b4c8e761c7412fc164b6ec3b3985a9c46002953657474696e6720696e7465726573742072617465206d6f64656c206661696c6564",
  "source": "pragma solidity ^0.5.8;\n\nimport \"./src/CErc20.sol\";\n\ncontract FakeCDai is CErc20 {\n    constructor(\n      address _token,\n      ComptrollerInterface _comptroller,\n      InterestRateModel _interestRateModel\n    )\n    CErc20(\n      _token,\n      _comptroller,\n      _interestRateModel,\n      200000000 * (10 ** 18),\n      \"Fake Compound Dai\",\n      \"cDAI\",\n      8\n    )\n    public\n    {}\n}\n",
  "sourcePath": "/Users/shain/repositories/insta-wealth/compound/contracts/development/Compound/FakeCDai.sol",
  "compiler": {
    "name": "solc",
    "version": "0.5.8+commit.23d335f2.Emscripten.clang"
  },
  "schemaVersion": "3.0.16",
  "updatedAt": "2019-10-21T05:59:28.392Z",
  "devdoc": {
    "methods": {
      "_acceptAdmin()": {
        "details": "Admin function for pending admin to accept role and update admin",
        "return": "uint 0=success, otherwise a failure (see ErrorReporter.sol for details)"
      },
      "_reduceReserves(uint256)": {
        "params": {
          "reduceAmount": "Amount of reduction to reserves"
        },
        "return": "uint 0=success, otherwise a failure (see ErrorReporter.sol for details)"
      },
      "_setComptroller(address)": {
        "details": "Admin function to set a new comptroller",
        "return": "uint 0=success, otherwise a failure (see ErrorReporter.sol for details)"
      },
      "_setInterestRateModel(address)": {
        "details": "Admin function to accrue interest and update the interest rate model",
        "params": {
          "newInterestRateModel": "the new interest rate model to use"
        },
        "return": "uint 0=success, otherwise a failure (see ErrorReporter.sol for details)"
      },
      "_setPendingAdmin(address)": {
        "details": "Admin function to begin change of admin. The newPendingAdmin must call `_acceptAdmin` to finalize the transfer.",
        "params": {
          "newPendingAdmin": "New pending admin."
        },
        "return": "uint 0=success, otherwise a failure (see ErrorReporter.sol for details)      * TODO: Should we add a second arg to verify, like a checksum of `newAdmin` address?"
      },
      "_setReserveFactor(uint256)": {
        "details": "Admin function to accrue interest and set a new reserve factor",
        "return": "uint 0=success, otherwise a failure (see ErrorReporter.sol for details)"
      },
      "accrueInterest()": {
        "details": "This calculates interest accrued from the last checkpointed block     up to the current block and writes new checkpoint to storage."
      },
      "allowance(address,address)": {
        "params": {
          "owner": "The address of the account which owns the tokens to be spent",
          "spender": "The address of the account which may transfer tokens"
        },
        "return": "The number of tokens allowed to be spent (-1 means infinite)"
      },
      "approve(address,uint256)": {
        "details": "This will overwrite the approval amount for `spender` and is subject to issues noted [here](https://eips.ethereum.org/EIPS/eip-20#approve)",
        "params": {
          "amount": "The number of tokens that are approved (-1 means infinite)",
          "spender": "The address of the account which may transfer tokens"
        },
        "return": "Whether or not the approval succeeded"
      },
      "balanceOf(address)": {
        "params": {
          "owner": "The address of the account to query"
        },
        "return": "The number of tokens owned by `owner`"
      },
      "balanceOfUnderlying(address)": {
        "details": "This also accrues interest in a transaction",
        "params": {
          "owner": "The address of the account to query"
        },
        "return": "The amount of underlying owned by `owner`"
      },
      "borrow(uint256)": {
        "params": {
          "borrowAmount": "The amount of the underlying asset to borrow"
        },
        "return": "uint 0=success, otherwise a failure (see ErrorReporter.sol for details)"
      },
      "borrowBalanceCurrent(address)": {
        "params": {
          "account": "The address whose balance should be calculated after updating borrowIndex"
        },
        "return": "The calculated balance"
      },
      "borrowBalanceStored(address)": {
        "params": {
          "account": "The address whose balance should be calculated"
        },
        "return": "The calculated balance"
      },
      "borrowRatePerBlock()": {
        "return": "The borrow interest rate per block, scaled by 1e18"
      },
      "exchangeRateCurrent()": {
        "return": "Calculated exchange rate scaled by 1e18"
      },
      "exchangeRateStored()": {
        "details": "This function does not accrue interest before calculating the exchange rate",
        "return": "Calculated exchange rate scaled by 1e18"
      },
      "getAccountSnapshot(address)": {
        "details": "This is used by comptroller to more efficiently perform liquidity checks.",
        "params": {
          "account": "Address of the account to snapshot"
        },
        "return": "(possible error, token balance, borrow balance, exchange rate mantissa)"
      },
      "getCash()": {
        "return": "The quantity of underlying asset owned by this contract"
      },
      "liquidateBorrow(address,uint256,address)": {
        "params": {
          "borrower": "The borrower of this cToken to be liquidated",
          "cTokenCollateral": "The market in which to seize collateral from the borrower",
          "repayAmount": "The amount of the underlying borrowed asset to repay"
        },
        "return": "uint 0=success, otherwise a failure (see ErrorReporter.sol for details)"
      },
      "mint(uint256)": {
        "details": "Accrues interest whether or not the operation succeeds, unless reverted",
        "params": {
          "mintAmount": "The amount of the underlying asset to supply"
        },
        "return": "uint 0=success, otherwise a failure (see ErrorReporter.sol for details)"
      },
      "redeem(uint256)": {
        "details": "Accrues interest whether or not the operation succeeds, unless reverted",
        "params": {
          "redeemTokens": "The number of cTokens to redeem into underlying"
        },
        "return": "uint 0=success, otherwise a failure (see ErrorReporter.sol for details)"
      },
      "redeemUnderlying(uint256)": {
        "details": "Accrues interest whether or not the operation succeeds, unless reverted",
        "params": {
          "redeemAmount": "The amount of underlying to redeem"
        },
        "return": "uint 0=success, otherwise a failure (see ErrorReporter.sol for details)"
      },
      "repayBorrow(uint256)": {
        "params": {
          "repayAmount": "The amount to repay"
        },
        "return": "uint 0=success, otherwise a failure (see ErrorReporter.sol for details)"
      },
      "repayBorrowBehalf(address,uint256)": {
        "params": {
          "borrower": "the account with the debt being payed off",
          "repayAmount": "The amount to repay"
        },
        "return": "uint 0=success, otherwise a failure (see ErrorReporter.sol for details)"
      },
      "seize(address,address,uint256)": {
        "details": "Will fail unless called by another cToken during the process of liquidation. Its absolutely critical to use msg.sender as the borrowed cToken and not a parameter.",
        "params": {
          "borrower": "The account having collateral seized",
          "liquidator": "The account receiving seized collateral",
          "seizeTokens": "The number of cTokens to seize"
        },
        "return": "uint 0=success, otherwise a failure (see ErrorReporter.sol for details)"
      },
      "supplyRatePerBlock()": {
        "return": "The supply interest rate per block, scaled by 1e18"
      },
      "totalBorrowsCurrent()": {
        "return": "The total borrows with interest"
      },
      "transfer(address,uint256)": {
        "params": {
          "amount": "The number of tokens to transfer",
          "dst": "The address of the destination account"
        },
        "return": "Whether or not the transfer succeeded"
      },
      "transferFrom(address,address,uint256)": {
        "params": {
          "amount": "The number of tokens to transfer",
          "dst": "The address of the destination account",
          "src": "The address of the source account"
        },
        "return": "Whether or not the transfer succeeded"
      }
    }
  },
  "userdoc": {
    "methods": {
      "_acceptAdmin()": {
        "notice": "Accepts transfer of admin rights. msg.sender must be pendingAdmin"
      },
      "_reduceReserves(uint256)": {
        "notice": "Accrues interest and reduces reserves by transferring to admin"
      },
      "_setComptroller(address)": {
        "notice": "Sets a new comptroller for the market"
      },
      "_setInterestRateModel(address)": {
        "notice": "accrues interest and updates the interest rate model using _setInterestRateModelFresh"
      },
      "_setPendingAdmin(address)": {
        "notice": "Begins transfer of admin rights. The newPendingAdmin must call `_acceptAdmin` to finalize the transfer."
      },
      "_setReserveFactor(uint256)": {
        "notice": "accrues interest and sets a new reserve factor for the protocol using _setReserveFactorFresh"
      },
      "accrueInterest()": {
        "notice": "Applies accrued interest to total borrows and reserves."
      },
      "allowance(address,address)": {
        "notice": "Get the current allowance from `owner` for `spender`"
      },
      "approve(address,uint256)": {
        "notice": "Approve `spender` to transfer up to `amount` from `src`"
      },
      "balanceOf(address)": {
        "notice": "Get the token balance of the `owner`"
      },
      "balanceOfUnderlying(address)": {
        "notice": "Get the underlying balance of the `owner`"
      },
      "borrow(uint256)": {
        "notice": "Sender borrows assets from the protocol to their own address"
      },
      "borrowBalanceCurrent(address)": {
        "notice": "Accrue interest to updated borrowIndex and then calculate account's borrow balance using the updated borrowIndex"
      },
      "borrowBalanceStored(address)": {
        "notice": "Return the borrow balance of account based on stored data"
      },
      "borrowRatePerBlock()": {
        "notice": "Returns the current per-block borrow interest rate for this cToken"
      },
      "exchangeRateCurrent()": {
        "notice": "Accrue interest then return the up-to-date exchange rate"
      },
      "exchangeRateStored()": {
        "notice": "Calculates the exchange rate from the underlying to the CToken"
      },
      "getAccountSnapshot(address)": {
        "notice": "Get a snapshot of the account's balances, and the cached exchange rate"
      },
      "getCash()": {
        "notice": "Get cash balance of this cToken in the underlying asset"
      },
      "liquidateBorrow(address,uint256,address)": {
        "notice": "The sender liquidates the borrowers collateral. The collateral seized is transferred to the liquidator."
      },
      "mint(uint256)": {
        "notice": "Sender supplies assets into the market and receives cTokens in exchange"
      },
      "redeem(uint256)": {
        "notice": "Sender redeems cTokens in exchange for the underlying asset"
      },
      "redeemUnderlying(uint256)": {
        "notice": "Sender redeems cTokens in exchange for a specified amount of underlying asset"
      },
      "repayBorrow(uint256)": {
        "notice": "Sender repays their own borrow"
      },
      "repayBorrowBehalf(address,uint256)": {
        "notice": "Sender repays a borrow belonging to borrower"
      },
      "seize(address,address,uint256)": {
        "notice": "Transfers collateral tokens (this market) to the liquidator."
      },
      "supplyRatePerBlock()": {
        "notice": "Returns the current per-block supply interest rate for this cToken"
      },
      "totalBorrowsCurrent()": {
        "notice": "Returns the current total borrows plus accrued interest"
      },
      "transfer(address,uint256)": {
        "notice": "Transfer `amount` tokens from `msg.sender` to `dst`"
      },
      "transferFrom(address,address,uint256)": {
        "notice": "Transfer `amount` tokens from `src` to `dst`"
      }
    }
  }
}