{
  "contractName": "Funds",
  "abi": [
    {
      "inputs": [
        {
          "internalType": "contract ERC20",
          "name": "token_",
          "type": "address"
        },
        {
          "internalType": "uint256",
          "name": "decimals_",
          "type": "uint256"
        }
      ],
      "payable": false,
      "stateMutability": "nonpayable",
      "type": "constructor"
    },
    {
      "anonymous": false,
      "inputs": [
        {
          "indexed": false,
          "internalType": "bytes32",
          "name": "fund",
          "type": "bytes32"
        }
      ],
      "name": "Create",
      "type": "event"
    },
    {
      "constant": true,
      "inputs": [],
      "name": "DEFAULT_LIQUIDATION_PENALTY",
      "outputs": [
        {
          "internalType": "uint256",
          "name": "",
          "type": "uint256"
        }
      ],
      "payable": false,
      "stateMutability": "view",
      "type": "function"
    },
    {
      "constant": true,
      "inputs": [],
      "name": "DEFAULT_LIQUIDATION_RATIO",
      "outputs": [
        {
          "internalType": "uint256",
          "name": "",
          "type": "uint256"
        }
      ],
      "payable": false,
      "stateMutability": "view",
      "type": "function"
    },
    {
      "constant": true,
      "inputs": [],
      "name": "DEFAULT_MAX_LOAN_AMT",
      "outputs": [
        {
          "internalType": "uint256",
          "name": "",
          "type": "uint256"
        }
      ],
      "payable": false,
      "stateMutability": "view",
      "type": "function"
    },
    {
      "constant": true,
      "inputs": [],
      "name": "DEFAULT_MIN_LOAN_AMT",
      "outputs": [
        {
          "internalType": "uint256",
          "name": "",
          "type": "uint256"
        }
      ],
      "payable": false,
      "stateMutability": "view",
      "type": "function"
    },
    {
      "constant": true,
      "inputs": [],
      "name": "DEFAULT_MIN_LOAN_DUR",
      "outputs": [
        {
          "internalType": "uint256",
          "name": "",
          "type": "uint256"
        }
      ],
      "payable": false,
      "stateMutability": "view",
      "type": "function"
    },
    {
      "constant": true,
      "inputs": [],
      "name": "NUM_SECONDS_IN_YEAR",
      "outputs": [
        {
          "internalType": "uint256",
          "name": "",
          "type": "uint256"
        }
      ],
      "payable": false,
      "stateMutability": "view",
      "type": "function"
    },
    {
      "constant": true,
      "inputs": [
        {
          "internalType": "bytes32",
          "name": "",
          "type": "bytes32"
        }
      ],
      "name": "bools",
      "outputs": [
        {
          "internalType": "bool",
          "name": "custom",
          "type": "bool"
        },
        {
          "internalType": "bool",
          "name": "compoundEnabled",
          "type": "bool"
        }
      ],
      "payable": false,
      "stateMutability": "view",
      "type": "function"
    },
    {
      "constant": true,
      "inputs": [],
      "name": "cToken",
      "outputs": [
        {
          "internalType": "contract CTokenInterface",
          "name": "",
          "type": "address"
        }
      ],
      "payable": false,
      "stateMutability": "view",
      "type": "function"
    },
    {
      "constant": true,
      "inputs": [],
      "name": "cTokenMarketLiquidity",
      "outputs": [
        {
          "internalType": "uint256",
          "name": "",
          "type": "uint256"
        }
      ],
      "payable": false,
      "stateMutability": "view",
      "type": "function"
    },
    {
      "constant": true,
      "inputs": [
        {
          "internalType": "uint256",
          "name": "x",
          "type": "uint256"
        },
        {
          "internalType": "uint256",
          "name": "y",
          "type": "uint256"
        }
      ],
      "name": "cmul",
      "outputs": [
        {
          "internalType": "uint256",
          "name": "z",
          "type": "uint256"
        }
      ],
      "payable": false,
      "stateMutability": "pure",
      "type": "function"
    },
    {
      "constant": true,
      "inputs": [],
      "name": "comptroller",
      "outputs": [
        {
          "internalType": "address",
          "name": "",
          "type": "address"
        }
      ],
      "payable": false,
      "stateMutability": "view",
      "type": "function"
    },
    {
      "constant": true,
      "inputs": [],
      "name": "decimals",
      "outputs": [
        {
          "internalType": "uint256",
          "name": "",
          "type": "uint256"
        }
      ],
      "payable": false,
      "stateMutability": "view",
      "type": "function"
    },
    {
      "constant": true,
      "inputs": [],
      "name": "defaultArbiterFee",
      "outputs": [
        {
          "internalType": "uint256",
          "name": "",
          "type": "uint256"
        }
      ],
      "payable": false,
      "stateMutability": "view",
      "type": "function"
    },
    {
      "constant": true,
      "inputs": [],
      "name": "fundIndex",
      "outputs": [
        {
          "internalType": "uint256",
          "name": "",
          "type": "uint256"
        }
      ],
      "payable": false,
      "stateMutability": "view",
      "type": "function"
    },
    {
      "constant": true,
      "inputs": [
        {
          "internalType": "address",
          "name": "",
          "type": "address"
        }
      ],
      "name": "fundOwner",
      "outputs": [
        {
          "internalType": "bytes32",
          "name": "",
          "type": "bytes32"
        }
      ],
      "payable": false,
      "stateMutability": "view",
      "type": "function"
    },
    {
      "constant": true,
      "inputs": [
        {
          "internalType": "bytes32",
          "name": "",
          "type": "bytes32"
        }
      ],
      "name": "funds",
      "outputs": [
        {
          "internalType": "address",
          "name": "lender",
          "type": "address"
        },
        {
          "internalType": "uint256",
          "name": "minLoanAmt",
          "type": "uint256"
        },
        {
          "internalType": "uint256",
          "name": "maxLoanAmt",
          "type": "uint256"
        },
        {
          "internalType": "uint256",
          "name": "minLoanDur",
          "type": "uint256"
        },
        {
          "internalType": "uint256",
          "name": "maxLoanDur",
          "type": "uint256"
        },
        {
          "internalType": "uint256",
          "name": "fundExpiry",
          "type": "uint256"
        },
        {
          "internalType": "uint256",
          "name": "interest",
          "type": "uint256"
        },
        {
          "internalType": "uint256",
          "name": "penalty",
          "type": "uint256"
        },
        {
          "internalType": "uint256",
          "name": "fee",
          "type": "uint256"
        },
        {
          "internalType": "uint256",
          "name": "liquidationRatio",
          "type": "uint256"
        },
        {
          "internalType": "address",
          "name": "arbiter",
          "type": "address"
        },
        {
          "internalType": "uint256",
          "name": "balance",
          "type": "uint256"
        },
        {
          "internalType": "uint256",
          "name": "cBalance",
          "type": "uint256"
        }
      ],
      "payable": false,
      "stateMutability": "view",
      "type": "function"
    },
    {
      "constant": true,
      "inputs": [],
      "name": "getComptrollerAddress",
      "outputs": [
        {
          "internalType": "address",
          "name": "",
          "type": "address"
        }
      ],
      "payable": false,
      "stateMutability": "view",
      "type": "function"
    },
    {
      "constant": true,
      "inputs": [],
      "name": "globalInterestRate",
      "outputs": [
        {
          "internalType": "uint256",
          "name": "",
          "type": "uint256"
        }
      ],
      "payable": false,
      "stateMutability": "view",
      "type": "function"
    },
    {
      "constant": true,
      "inputs": [],
      "name": "globalInterestRateNumerator",
      "outputs": [
        {
          "internalType": "uint256",
          "name": "",
          "type": "uint256"
        }
      ],
      "payable": false,
      "stateMutability": "view",
      "type": "function"
    },
    {
      "constant": true,
      "inputs": [],
      "name": "interestUpdateDelay",
      "outputs": [
        {
          "internalType": "uint256",
          "name": "",
          "type": "uint256"
        }
      ],
      "payable": false,
      "stateMutability": "view",
      "type": "function"
    },
    {
      "constant": true,
      "inputs": [],
      "name": "lastGlobalInterestUpdated",
      "outputs": [
        {
          "internalType": "uint256",
          "name": "",
          "type": "uint256"
        }
      ],
      "payable": false,
      "stateMutability": "view",
      "type": "function"
    },
    {
      "constant": true,
      "inputs": [],
      "name": "lastUtilizationRatio",
      "outputs": [
        {
          "internalType": "uint256",
          "name": "",
          "type": "uint256"
        }
      ],
      "payable": false,
      "stateMutability": "view",
      "type": "function"
    },
    {
      "constant": true,
      "inputs": [],
      "name": "marketLiquidity",
      "outputs": [
        {
          "internalType": "uint256",
          "name": "",
          "type": "uint256"
        }
      ],
      "payable": false,
      "stateMutability": "view",
      "type": "function"
    },
    {
      "constant": true,
      "inputs": [],
      "name": "maxInterestRateNumerator",
      "outputs": [
        {
          "internalType": "uint256",
          "name": "",
          "type": "uint256"
        }
      ],
      "payable": false,
      "stateMutability": "view",
      "type": "function"
    },
    {
      "constant": true,
      "inputs": [],
      "name": "maxUtilizationDelta",
      "outputs": [
        {
          "internalType": "uint256",
          "name": "",
          "type": "uint256"
        }
      ],
      "payable": false,
      "stateMutability": "view",
      "type": "function"
    },
    {
      "constant": true,
      "inputs": [],
      "name": "minInterestRateNumerator",
      "outputs": [
        {
          "internalType": "uint256",
          "name": "",
          "type": "uint256"
        }
      ],
      "payable": false,
      "stateMutability": "view",
      "type": "function"
    },
    {
      "constant": true,
      "inputs": [
        {
          "internalType": "address",
          "name": "",
          "type": "address"
        }
      ],
      "name": "pubKeys",
      "outputs": [
        {
          "internalType": "bytes",
          "name": "",
          "type": "bytes"
        }
      ],
      "payable": false,
      "stateMutability": "view",
      "type": "function"
    },
    {
      "constant": true,
      "inputs": [
        {
          "internalType": "address",
          "name": "",
          "type": "address"
        }
      ],
      "name": "secretHashIndex",
      "outputs": [
        {
          "internalType": "uint256",
          "name": "",
          "type": "uint256"
        }
      ],
      "payable": false,
      "stateMutability": "view",
      "type": "function"
    },
    {
      "constant": true,
      "inputs": [
        {
          "internalType": "address",
          "name": "",
          "type": "address"
        },
        {
          "internalType": "uint256",
          "name": "",
          "type": "uint256"
        }
      ],
      "name": "secretHashes",
      "outputs": [
        {
          "internalType": "bytes32",
          "name": "",
          "type": "bytes32"
        }
      ],
      "payable": false,
      "stateMutability": "view",
      "type": "function"
    },
    {
      "constant": true,
      "inputs": [],
      "name": "token",
      "outputs": [
        {
          "internalType": "contract ERC20",
          "name": "",
          "type": "address"
        }
      ],
      "payable": false,
      "stateMutability": "view",
      "type": "function"
    },
    {
      "constant": true,
      "inputs": [],
      "name": "tokenMarketLiquidity",
      "outputs": [
        {
          "internalType": "uint256",
          "name": "",
          "type": "uint256"
        }
      ],
      "payable": false,
      "stateMutability": "view",
      "type": "function"
    },
    {
      "constant": true,
      "inputs": [],
      "name": "totalBorrow",
      "outputs": [
        {
          "internalType": "uint256",
          "name": "",
          "type": "uint256"
        }
      ],
      "payable": false,
      "stateMutability": "view",
      "type": "function"
    },
    {
      "constant": true,
      "inputs": [],
      "name": "utilizationInterestDivisor",
      "outputs": [
        {
          "internalType": "uint256",
          "name": "",
          "type": "uint256"
        }
      ],
      "payable": false,
      "stateMutability": "view",
      "type": "function"
    },
    {
      "constant": false,
      "inputs": [
        {
          "internalType": "contract Loans",
          "name": "loans_",
          "type": "address"
        }
      ],
      "name": "setLoans",
      "outputs": [],
      "payable": false,
      "stateMutability": "nonpayable",
      "type": "function"
    },
    {
      "constant": false,
      "inputs": [
        {
          "internalType": "contract CTokenInterface",
          "name": "cToken_",
          "type": "address"
        },
        {
          "internalType": "address",
          "name": "comptroller_",
          "type": "address"
        }
      ],
      "name": "setCompound",
      "outputs": [],
      "payable": false,
      "stateMutability": "nonpayable",
      "type": "function"
    },
    {
      "constant": false,
      "inputs": [
        {
          "internalType": "uint256",
          "name": "utilizationInterestDivisor_",
          "type": "uint256"
        }
      ],
      "name": "setUtilizationInterestDivisor",
      "outputs": [],
      "payable": false,
      "stateMutability": "nonpayable",
      "type": "function"
    },
    {
      "constant": false,
      "inputs": [
        {
          "internalType": "uint256",
          "name": "maxUtilizationDelta_",
          "type": "uint256"
        }
      ],
      "name": "setMaxUtilizationDelta",
      "outputs": [],
      "payable": false,
      "stateMutability": "nonpayable",
      "type": "function"
    },
    {
      "constant": false,
      "inputs": [
        {
          "internalType": "uint256",
          "name": "globalInterestRateNumerator_",
          "type": "uint256"
        }
      ],
      "name": "setGlobalInterestRateNumerator",
      "outputs": [],
      "payable": false,
      "stateMutability": "nonpayable",
      "type": "function"
    },
    {
      "constant": false,
      "inputs": [
        {
          "internalType": "uint256",
          "name": "globalInterestRate_",
          "type": "uint256"
        }
      ],
      "name": "setGlobalInterestRate",
      "outputs": [],
      "payable": false,
      "stateMutability": "nonpayable",
      "type": "function"
    },
    {
      "constant": false,
      "inputs": [
        {
          "internalType": "uint256",
          "name": "maxInterestRateNumerator_",
          "type": "uint256"
        }
      ],
      "name": "setMaxInterestRateNumerator",
      "outputs": [],
      "payable": false,
      "stateMutability": "nonpayable",
      "type": "function"
    },
    {
      "constant": false,
      "inputs": [
        {
          "internalType": "uint256",
          "name": "minInterestRateNumerator_",
          "type": "uint256"
        }
      ],
      "name": "setMinInterestRateNumerator",
      "outputs": [],
      "payable": false,
      "stateMutability": "nonpayable",
      "type": "function"
    },
    {
      "constant": false,
      "inputs": [
        {
          "internalType": "uint256",
          "name": "interestUpdateDelay_",
          "type": "uint256"
        }
      ],
      "name": "setInterestUpdateDelay",
      "outputs": [],
      "payable": false,
      "stateMutability": "nonpayable",
      "type": "function"
    },
    {
      "constant": false,
      "inputs": [
        {
          "internalType": "uint256",
          "name": "defaultArbiterFee_",
          "type": "uint256"
        }
      ],
      "name": "setDefaultArbiterFee",
      "outputs": [],
      "payable": false,
      "stateMutability": "nonpayable",
      "type": "function"
    },
    {
      "constant": true,
      "inputs": [
        {
          "internalType": "bytes32",
          "name": "fund",
          "type": "bytes32"
        }
      ],
      "name": "lender",
      "outputs": [
        {
          "internalType": "address",
          "name": "",
          "type": "address"
        }
      ],
      "payable": false,
      "stateMutability": "view",
      "type": "function"
    },
    {
      "constant": true,
      "inputs": [
        {
          "internalType": "bytes32",
          "name": "fund",
          "type": "bytes32"
        }
      ],
      "name": "minLoanAmt",
      "outputs": [
        {
          "internalType": "uint256",
          "name": "",
          "type": "uint256"
        }
      ],
      "payable": false,
      "stateMutability": "view",
      "type": "function"
    },
    {
      "constant": true,
      "inputs": [
        {
          "internalType": "bytes32",
          "name": "fund",
          "type": "bytes32"
        }
      ],
      "name": "maxLoanAmt",
      "outputs": [
        {
          "internalType": "uint256",
          "name": "",
          "type": "uint256"
        }
      ],
      "payable": false,
      "stateMutability": "view",
      "type": "function"
    },
    {
      "constant": true,
      "inputs": [
        {
          "internalType": "bytes32",
          "name": "fund",
          "type": "bytes32"
        }
      ],
      "name": "minLoanDur",
      "outputs": [
        {
          "internalType": "uint256",
          "name": "",
          "type": "uint256"
        }
      ],
      "payable": false,
      "stateMutability": "view",
      "type": "function"
    },
    {
      "constant": true,
      "inputs": [
        {
          "internalType": "bytes32",
          "name": "fund",
          "type": "bytes32"
        }
      ],
      "name": "maxLoanDur",
      "outputs": [
        {
          "internalType": "uint256",
          "name": "",
          "type": "uint256"
        }
      ],
      "payable": false,
      "stateMutability": "view",
      "type": "function"
    },
    {
      "constant": true,
      "inputs": [
        {
          "internalType": "bytes32",
          "name": "fund",
          "type": "bytes32"
        }
      ],
      "name": "fundExpiry",
      "outputs": [
        {
          "internalType": "uint256",
          "name": "",
          "type": "uint256"
        }
      ],
      "payable": false,
      "stateMutability": "view",
      "type": "function"
    },
    {
      "constant": true,
      "inputs": [
        {
          "internalType": "bytes32",
          "name": "fund",
          "type": "bytes32"
        }
      ],
      "name": "interest",
      "outputs": [
        {
          "internalType": "uint256",
          "name": "",
          "type": "uint256"
        }
      ],
      "payable": false,
      "stateMutability": "view",
      "type": "function"
    },
    {
      "constant": true,
      "inputs": [
        {
          "internalType": "bytes32",
          "name": "fund",
          "type": "bytes32"
        }
      ],
      "name": "penalty",
      "outputs": [
        {
          "internalType": "uint256",
          "name": "",
          "type": "uint256"
        }
      ],
      "payable": false,
      "stateMutability": "view",
      "type": "function"
    },
    {
      "constant": true,
      "inputs": [
        {
          "internalType": "bytes32",
          "name": "fund",
          "type": "bytes32"
        }
      ],
      "name": "fee",
      "outputs": [
        {
          "internalType": "uint256",
          "name": "",
          "type": "uint256"
        }
      ],
      "payable": false,
      "stateMutability": "view",
      "type": "function"
    },
    {
      "constant": true,
      "inputs": [
        {
          "internalType": "bytes32",
          "name": "fund",
          "type": "bytes32"
        }
      ],
      "name": "liquidationRatio",
      "outputs": [
        {
          "internalType": "uint256",
          "name": "",
          "type": "uint256"
        }
      ],
      "payable": false,
      "stateMutability": "view",
      "type": "function"
    },
    {
      "constant": true,
      "inputs": [
        {
          "internalType": "bytes32",
          "name": "fund",
          "type": "bytes32"
        }
      ],
      "name": "arbiter",
      "outputs": [
        {
          "internalType": "address",
          "name": "",
          "type": "address"
        }
      ],
      "payable": false,
      "stateMutability": "view",
      "type": "function"
    },
    {
      "constant": false,
      "inputs": [
        {
          "internalType": "bytes32",
          "name": "fund",
          "type": "bytes32"
        }
      ],
      "name": "balance",
      "outputs": [
        {
          "internalType": "uint256",
          "name": "",
          "type": "uint256"
        }
      ],
      "payable": false,
      "stateMutability": "nonpayable",
      "type": "function"
    },
    {
      "constant": true,
      "inputs": [
        {
          "internalType": "bytes32",
          "name": "fund",
          "type": "bytes32"
        }
      ],
      "name": "custom",
      "outputs": [
        {
          "internalType": "bool",
          "name": "",
          "type": "bool"
        }
      ],
      "payable": false,
      "stateMutability": "view",
      "type": "function"
    },
    {
      "constant": true,
      "inputs": [
        {
          "internalType": "address",
          "name": "addr_",
          "type": "address"
        }
      ],
      "name": "secretHashesCount",
      "outputs": [
        {
          "internalType": "uint256",
          "name": "",
          "type": "uint256"
        }
      ],
      "payable": false,
      "stateMutability": "view",
      "type": "function"
    },
    {
      "constant": false,
      "inputs": [
        {
          "internalType": "uint256",
          "name": "maxLoanDur_",
          "type": "uint256"
        },
        {
          "internalType": "uint256",
          "name": "fundExpiry_",
          "type": "uint256"
        },
        {
          "internalType": "address",
          "name": "arbiter_",
          "type": "address"
        },
        {
          "internalType": "bool",
          "name": "compoundEnabled_",
          "type": "bool"
        },
        {
          "internalType": "uint256",
          "name": "amount_",
          "type": "uint256"
        }
      ],
      "name": "create",
      "outputs": [
        {
          "internalType": "bytes32",
          "name": "fund",
          "type": "bytes32"
        }
      ],
      "payable": false,
      "stateMutability": "nonpayable",
      "type": "function"
    },
    {
      "constant": false,
      "inputs": [
        {
          "internalType": "uint256",
          "name": "minLoanAmt_",
          "type": "uint256"
        },
        {
          "internalType": "uint256",
          "name": "maxLoanAmt_",
          "type": "uint256"
        },
        {
          "internalType": "uint256",
          "name": "minLoanDur_",
          "type": "uint256"
        },
        {
          "internalType": "uint256",
          "name": "maxLoanDur_",
          "type": "uint256"
        },
        {
          "internalType": "uint256",
          "name": "fundExpiry_",
          "type": "uint256"
        },
        {
          "internalType": "uint256",
          "name": "liquidationRatio_",
          "type": "uint256"
        },
        {
          "internalType": "uint256",
          "name": "interest_",
          "type": "uint256"
        },
        {
          "internalType": "uint256",
          "name": "penalty_",
          "type": "uint256"
        },
        {
          "internalType": "uint256",
          "name": "fee_",
          "type": "uint256"
        },
        {
          "internalType": "address",
          "name": "arbiter_",
          "type": "address"
        },
        {
          "internalType": "bool",
          "name": "compoundEnabled_",
          "type": "bool"
        },
        {
          "internalType": "uint256",
          "name": "amount_",
          "type": "uint256"
        }
      ],
      "name": "createCustom",
      "outputs": [
        {
          "internalType": "bytes32",
          "name": "fund",
          "type": "bytes32"
        }
      ],
      "payable": false,
      "stateMutability": "nonpayable",
      "type": "function"
    },
    {
      "constant": false,
      "inputs": [
        {
          "internalType": "bytes32",
          "name": "fund",
          "type": "bytes32"
        },
        {
          "internalType": "uint256",
          "name": "amount",
          "type": "uint256"
        }
      ],
      "name": "deposit",
      "outputs": [],
      "payable": false,
      "stateMutability": "nonpayable",
      "type": "function"
    },
    {
      "constant": false,
      "inputs": [
        {
          "internalType": "bytes32",
          "name": "fund",
          "type": "bytes32"
        },
        {
          "internalType": "uint256",
          "name": "maxLoanDur_",
          "type": "uint256"
        },
        {
          "internalType": "uint256",
          "name": "fundExpiry_",
          "type": "uint256"
        },
        {
          "internalType": "address",
          "name": "arbiter_",
          "type": "address"
        }
      ],
      "name": "update",
      "outputs": [],
      "payable": false,
      "stateMutability": "nonpayable",
      "type": "function"
    },
    {
      "constant": false,
      "inputs": [
        {
          "internalType": "bytes32",
          "name": "fund",
          "type": "bytes32"
        },
        {
          "internalType": "uint256",
          "name": "minLoanAmt_",
          "type": "uint256"
        },
        {
          "internalType": "uint256",
          "name": "maxLoanAmt_",
          "type": "uint256"
        },
        {
          "internalType": "uint256",
          "name": "minLoanDur_",
          "type": "uint256"
        },
        {
          "internalType": "uint256",
          "name": "maxLoanDur_",
          "type": "uint256"
        },
        {
          "internalType": "uint256",
          "name": "fundExpiry_",
          "type": "uint256"
        },
        {
          "internalType": "uint256",
          "name": "interest_",
          "type": "uint256"
        },
        {
          "internalType": "uint256",
          "name": "penalty_",
          "type": "uint256"
        },
        {
          "internalType": "uint256",
          "name": "fee_",
          "type": "uint256"
        },
        {
          "internalType": "uint256",
          "name": "liquidationRatio_",
          "type": "uint256"
        },
        {
          "internalType": "address",
          "name": "arbiter_",
          "type": "address"
        }
      ],
      "name": "updateCustom",
      "outputs": [],
      "payable": false,
      "stateMutability": "nonpayable",
      "type": "function"
    },
    {
      "constant": false,
      "inputs": [
        {
          "internalType": "bytes32",
          "name": "fund",
          "type": "bytes32"
        },
        {
          "internalType": "address",
          "name": "borrower_",
          "type": "address"
        },
        {
          "internalType": "uint256",
          "name": "amount_",
          "type": "uint256"
        },
        {
          "internalType": "uint256",
          "name": "collateral_",
          "type": "uint256"
        },
        {
          "internalType": "uint256",
          "name": "loanDur_",
          "type": "uint256"
        },
        {
          "internalType": "uint256",
          "name": "requestTimestamp_",
          "type": "uint256"
        },
        {
          "internalType": "bytes32[8]",
          "name": "secretHashes_",
          "type": "bytes32[8]"
        },
        {
          "internalType": "bytes",
          "name": "pubKeyA_",
          "type": "bytes"
        },
        {
          "internalType": "bytes",
          "name": "pubKeyB_",
          "type": "bytes"
        }
      ],
      "name": "request",
      "outputs": [
        {
          "internalType": "bytes32",
          "name": "loanIndex",
          "type": "bytes32"
        }
      ],
      "payable": false,
      "stateMutability": "nonpayable",
      "type": "function"
    },
    {
      "constant": false,
      "inputs": [
        {
          "internalType": "bytes32",
          "name": "fund",
          "type": "bytes32"
        },
        {
          "internalType": "uint256",
          "name": "amount",
          "type": "uint256"
        }
      ],
      "name": "withdraw",
      "outputs": [],
      "payable": false,
      "stateMutability": "nonpayable",
      "type": "function"
    },
    {
      "constant": false,
      "inputs": [
        {
          "internalType": "bytes32",
          "name": "fund",
          "type": "bytes32"
        },
        {
          "internalType": "uint256",
          "name": "amount",
          "type": "uint256"
        },
        {
          "internalType": "address",
          "name": "recipient",
          "type": "address"
        }
      ],
      "name": "withdrawTo",
      "outputs": [],
      "payable": false,
      "stateMutability": "nonpayable",
      "type": "function"
    },
    {
      "constant": false,
      "inputs": [
        {
          "internalType": "bytes32[]",
          "name": "secretHashes_",
          "type": "bytes32[]"
        }
      ],
      "name": "generate",
      "outputs": [],
      "payable": false,
      "stateMutability": "nonpayable",
      "type": "function"
    },
    {
      "constant": false,
      "inputs": [
        {
          "internalType": "bytes",
          "name": "pubKey",
          "type": "bytes"
        }
      ],
      "name": "setPubKey",
      "outputs": [],
      "payable": false,
      "stateMutability": "nonpayable",
      "type": "function"
    },
    {
      "constant": false,
      "inputs": [
        {
          "internalType": "bytes32",
          "name": "fund",
          "type": "bytes32"
        }
      ],
      "name": "enableCompound",
      "outputs": [],
      "payable": false,
      "stateMutability": "nonpayable",
      "type": "function"
    },
    {
      "constant": false,
      "inputs": [
        {
          "internalType": "bytes32",
          "name": "fund",
          "type": "bytes32"
        }
      ],
      "name": "disableCompound",
      "outputs": [],
      "payable": false,
      "stateMutability": "nonpayable",
      "type": "function"
    },
    {
      "constant": false,
      "inputs": [
        {
          "internalType": "uint256",
          "name": "amount",
          "type": "uint256"
        }
      ],
      "name": "decreaseTotalBorrow",
      "outputs": [],
      "payable": false,
      "stateMutability": "nonpayable",
      "type": "function"
    },
    {
      "constant": false,
      "inputs": [],
      "name": "calcGlobalInterest",
      "outputs": [],
      "payable": false,
      "stateMutability": "nonpayable",
      "type": "function"
    },
    {
      "constant": true,
      "inputs": [
        {
          "internalType": "uint256",
          "name": "amount",
          "type": "uint256"
        },
        {
          "internalType": "uint256",
          "name": "rate",
          "type": "uint256"
        },
        {
          "internalType": "uint256",
          "name": "loanDur",
          "type": "uint256"
        }
      ],
      "name": "calcInterest",
      "outputs": [
        {
          "internalType": "uint256",
          "name": "",
          "type": "uint256"
        }
      ],
      "payable": false,
      "stateMutability": "pure",
      "type": "function"
    },
    {
      "constant": true,
      "inputs": [
        {
          "internalType": "uint256",
          "name": "value",
          "type": "uint256"
        }
      ],
      "name": "ensureNotZero",
      "outputs": [
        {
          "internalType": "uint256",
          "name": "",
          "type": "uint256"
        }
      ],
      "payable": false,
      "stateMutability": "pure",
      "type": "function"
    }
  ],
  "bytecode": "0x60806040523480156200001157600080fd5b5060405162003cc538038062003cc5833981810160405260408110156200003757600080fd5b508051602090910151601a8054336001600160a01b031991821617909155601780549091166001600160a01b03841617905560188190556b22079eda249d327c677048096012556a4ed6b7353f71d0a0f402496011819055600e8190556a96d0176d4a7d47fc102c6f6013556a146cdd36157a9553e20f0a601455620151806015556b033b2e3ca31a444ebbf023c4601655620000fb906b033b2e3c9fd0803ce800000090620000ec906301e1338062000107565b6001600160e01b036200012816565b601055506200013f9050565b60008082116200011657600080fd5b8183816200012057fe5b049392505050565b808201828110156200013957600080fd5b92915050565b613b76806200014f6000396000f3fe608060405234801561001057600080fd5b50600436106104c35760003560e01c806376a0b16611610286578063d1b8b4bf1161016b578063e4933256116100e3578063f61d02d311610097578063fa3bfb171161007c578063fa3bfb1714610ed3578063fc0c546a14610ef0578063fdd5aab114610ef8576104c3565b8063f61d02d314610e41578063f7837eb714610eb0576104c3565b8063eae1c2cf116100c8578063eae1c2cf14610d39578063f05541be14610d41578063f59bf27314610d49576104c3565b8063e493325614610cff578063e91d14a414610d1c576104c3565b8063d9d0a2d11161013a578063db9b376c1161011f578063db9b376c14610c55578063e179e77114610c5d578063e32d291314610c8f576104c3565b8063d9d0a2d114610c1f578063da2c5c5b14610c4d576104c3565b8063d1b8b4bf14610ad1578063d39a2c0c14610b6c578063d4785d2914610b92578063d73b906214610baf576104c3565b8063a2c70b6b116101fe578063b2d61071116101cd578063bf12f43d116101b2578063bf12f43d14610aa4578063ccb99d5514610ac1578063ce26d44b14610ac9576104c3565b8063b2d6107114610a7f578063ba617eef14610a87576104c3565b8063a2c70b6b14610a20578063a5a7096514610a3d578063a5fa670614610a45578063a634baf214610a62576104c3565b80638c5d5268116102555780639d06bcea1161023a5780639d06bcea146109ac5780639fc3f02f146109d2578063a18e4a80146109ef576104c3565b80638c5d526814610966578063994871fa14610983576104c3565b806376a0b166146109075780637e25a221146109245780638285ef401461094157806389eba42114610949576104c3565b806342febf0c116103ac5780635b873ffa1161032457806369e527da116102f35780636a7bb32c116102d85780636a7bb32c146108725780636e1719a6146108b2578063712d8e6a146108ea576104c3565b806369e527da146107d15780636a29a620146107d9576104c3565b80635b873ffa146107b15780635fe3b567146107b9578063612ef80b146107c1578063689c76ef146107c9576104c3565b80634ee9159a1161037b57806351391674116103605780635139167414610702578063516dbe241461076857806354e39f9014610785576104c3565b80634ee9159a146106f25780634f9bc9d5146106fa576104c3565b806342febf0c1461065c57806344b6ba951461067957806347ca7716146106b25780634c9fb84a146106ba576104c3565b80631bb736971161043f57806326fc75901161040e5780632eb1ad73116103f35780632eb1ad7314610644578063313ce5671461064c57806333549b1b14610654576104c3565b806326fc75901461060a57806327cdab0614610627576104c3565b80631bb736971461059c5780631beec294146105a45780631de26e16146105c157806321fd933b146105e4576104c3565b806304e9ef031161049657806316df840a1161047b57806316df840a1461056f5780631723cfa5146105775780631873fe501461057f576104c3565b806304e9ef031461054a5780630e9511be14610552576104c3565b806301937d04146104c8578063031558e51461050057806303b69d1814610508578063040cf02014610525575b600080fd5b6104ee600480360360208110156104de57600080fd5b50356001600160a01b0316610f00565b60408051918252519081900360200190f35b6104ee610f12565b6104ee6004803603602081101561051e57600080fd5b5035610f18565b6105486004803603604081101561053b57600080fd5b5080359060200135610f70565b005b6104ee610f7f565b6104ee6004803603602081101561056857600080fd5b5035610f85565b6104ee610f9c565b6104ee610fa2565b6105486004803603602081101561059557600080fd5b5035610fb2565b6104ee610fe7565b610548600480360360208110156105ba57600080fd5b5035610fed565b610548600480360360408110156105d757600080fd5b5080359060200135611009565b6104ee600480360360208110156105fa57600080fd5b50356001600160a01b0316611236565b6104ee6004803603602081101561062057600080fd5b5035611248565b6104ee6004803603602081101561063d57600080fd5b503561128a565b6104ee6112c2565b6104ee6112c8565b6105486112ce565b6104ee6004803603602081101561067257600080fd5b503561144b565b6106966004803603602081101561068f57600080fd5b5035611483565b604080516001600160a01b039092168252519081900360200190f35b6104ee6114a1565b610548600480360360808110156106d057600080fd5b50803590602081013590604081013590606001356001600160a01b03166114ad565b61069661153e565b6104ee61154e565b610548600480360361016081101561071957600080fd5b5080359060208101359060408101359060608101359060808101359060a08101359060c08101359060e081013590610100810135906101208101359061014001356001600160a01b0316611554565b6105486004803603602081101561077e57600080fd5b50356115ba565b6104ee6004803603604081101561079b57600080fd5b506001600160a01b0381351690602001356115d6565b6104ee611604565b61069661160a565b6104ee611619565b6104ee61161f565b610696611625565b6107f6600480360360208110156107ef57600080fd5b5035611634565b604080516001600160a01b039e8f168152602081019d909d528c81019b909b5260608c019990995260808b019790975260a08a019590955260c089019390935260e08801919091526101008701526101208601529094166101408401526101608301939093526101808201929092529051908190036101a00190f35b6104ee600480360360a081101561088857600080fd5b508035906020810135906001600160a01b03604082013516906060810135151590608001356116a8565b6108cf600480360360208110156108c857600080fd5b5035611839565b60408051921515835290151560208301528051918290030190f35b6104ee6004803603602081101561090057600080fd5b5035611857565b6104ee6004803603602081101561091d57600080fd5b503561186c565b6105486004803603602081101561093a57600080fd5b50356118ae565b6104ee611a87565b6104ee6004803603602081101561095f57600080fd5b5035611a8d565b6105486004803603602081101561097c57600080fd5b5035611b1d565b6104ee6004803603606081101561099957600080fd5b5080359060208101359060400135611b39565b610548600480360360208110156109c257600080fd5b50356001600160a01b0316611b5f565b610696600480360360208110156109e857600080fd5b5035611c30565b610a0c60048036036020811015610a0557600080fd5b5035611c4b565b604080519115158252519081900360200190f35b61054860048036036020811015610a3657600080fd5b5035611c60565b6104ee611c7c565b61054860048036036020811015610a5b57600080fd5b5035611c82565b6104ee60048036036020811015610a7857600080fd5b5035611e7e565b6104ee611eb6565b6104ee60048036036020811015610a9d57600080fd5b5035611ebc565b61054860048036036020811015610aba57600080fd5b5035611ed2565b6104ee611eee565b6104ee611efe565b610af760048036036020811015610ae757600080fd5b50356001600160a01b0316611f04565b6040805160208082528351818301528351919283929083019185019080838360005b83811015610b31578181015183820152602001610b19565b50505050905090810190601f168015610b5e5780820380516001836020036101000a031916815260200191505b509250505060405180910390f35b6104ee60048036036020811015610b8257600080fd5b50356001600160a01b0316611f9f565b61054860048036036020811015610ba857600080fd5b5035611fba565b61054860048036036020811015610bc557600080fd5b810190602081018135640100000000811115610be057600080fd5b820183602082011115610bf257600080fd5b80359060200191846020830284011164010000000083111715610c1457600080fd5b509092509050611fd6565b61054860048036036040811015610c3557600080fd5b506001600160a01b038135811691602001351661202b565b6104ee6120b2565b6104ee6120ba565b61054860048036036060811015610c7357600080fd5b50803590602081013590604001356001600160a01b03166120c0565b61054860048036036020811015610ca557600080fd5b810190602081018135640100000000811115610cc057600080fd5b820183602082011115610cd257600080fd5b80359060200191846001830284011164010000000083111715610cf457600080fd5b5090925090506123f8565b61054860048036036020811015610d1557600080fd5b5035612412565b6104ee60048036036020811015610d3257600080fd5b503561243b565b6104ee612473565b6104ee612479565b6104ee6004803603610200811015610d6057600080fd5b8135916001600160a01b036020820135169160408201359160608101359160808201359160a08101359160c0820191908101906101e081016101c0820135640100000000811115610db057600080fd5b820183602082011115610dc257600080fd5b80359060200191846001830284011164010000000083111715610de457600080fd5b919390929091602081019035640100000000811115610e0257600080fd5b820183602082011115610e1457600080fd5b80359060200191846001830284011164010000000083111715610e3657600080fd5b50909250905061247f565b6104ee6004803603610180811015610e5857600080fd5b5080359060208101359060408101359060608101359060808101359060a08101359060c08101359060e081013590610100810135906001600160a01b0361012082013516906101408101351515906101600135612670565b6104ee60048036036040811015610ec657600080fd5b508035906020013561283d565b61054860048036036020811015610ee957600080fd5b503561286e565b61069661288a565b6104ee612899565b60036020526000908152604090205481565b60115481565b60008181526007602052604081205460ff1615610f475750600081815260056020526040902060010154610f6b565b610f68678ac7230489e80000610f60601260185461289f565b600a0a6128b5565b90505b919050565b610f7b8282336120c0565b5050565b60165481565b600081610f955750600019610f6b565b5080610f6b565b600b5481565b6b04860d8812f0b3887800000081565b601a546001600160a01b03163314610fc957600080fd5b6b033b2e3ca43176a9d2dfd0a5811115610fe257600080fd5b601655565b600e5481565b601a546001600160a01b0316331461100457600080fd5b600e55565b601754604080517f23b872dd0000000000000000000000000000000000000000000000000000000081523360048201523060248201526044810184905290516001600160a01b03909216916323b872dd916064808201926020929091908290030181600087803b15801561107c57600080fd5b505af1158015611090573d6000803e3d6000fd5b505050506040513d60208110156110a657600080fd5b50516110b157600080fd5b600082815260076020526040902054610100900460ff16156111d6576017546019546110ea916001600160a01b039081169116836128cc565b600061118261110183670de0b6b3a76400006129e6565b601960009054906101000a90046001600160a01b03166001600160a01b031663bd6d894d6040518163ffffffff1660e01b8152600401602060405180830381600087803b15801561115157600080fd5b505af1158015611165573d6000803e3d6000fd5b505050506040513d602081101561117b57600080fd5b50516128b5565b6000848152600560205260409020600c01549091506111a19082612a0a565b6000848152600560205260409020600c01556111bc83611c4b565b6111d0576111cc600b5482612a0a565b600b555b50611221565b6000828152600560205260409020600b01546111f29082612a0a565b6000838152600560205260409020600b015561120d82611c4b565b6112215761121d600a5482612a0a565b600a555b61122a82611c4b565b610f7b57610f7b6112ce565b60066020526000908152604090205481565b60008181526007602052604081205460ff16156112775750600081815260056020526040902060070154610f6b565b506b033b2e3cacd278c7503e82c1610f6b565b60008181526007602052604081205460ff16156112b95750600081815260056020526040902060080154610f6b565b50601654610f6b565b60095481565b60185481565b611360600a5461135b600b54601960009054906101000a90046001600160a01b03166001600160a01b031663bd6d894d6040518163ffffffff1660e01b8152600401602060405180830381600087803b15801561132a57600080fd5b505af115801561133e573d6000803e3d6000fd5b505050506040513d602081101561135457600080fd5b5051612a1a565b612a0a565b600c5560155460095401421115611449576000600d5460001461139957611396600d54611391600c54600d54612a0a565b612a42565b90505b600f548111156113e45760006113b182600f5461289f565b90506113db6013546113d6600e5461135b6113ce60115487612a66565b601254612a42565b612a66565b600e555061141e565b60006113f2600f548361289f565b9050611419601454611414600e5461140f6113ce60115487612a66565b61289f565b612a7f565b600e55505b61143e6b033b2e3c9fd0803ce800000061135b600e546301e133806128b5565b60105542600955600f555b565b60008181526007602052604081205460ff161561147a5750600081815260056020526040902060020154610f6b565b50600019610f6b565b6000908152600560205260409020600a01546001600160a01b031690565b678ac7230489e8000081565b6114b684611c30565b6001600160a01b0316336001600160a01b0316146114d357600080fd5b6114dc83610f85565b6000191415806114f657506114f082610f85565b60001914155b6114ff57600080fd5b6000938452600560208190526040909420600481019390935592820155600a0180546001600160a01b0319166001600160a01b03909216919091179055565b6000546001600160a01b03165b90565b60125481565b60008b81526007602052604090205460ff1661156f57600080fd5b61157b8b8888846114ad565b506000998a5260056020526040909920600181019890985560028801969096556003870194909455600686015550506007830155600882015560090155565b601a546001600160a01b031633146115d157600080fd5b601555565b600260205281600052604060002081815481106115ef57fe5b90600052602060002001600091509150505481565b60105481565b6000546001600160a01b031681565b600c5481565b60145481565b6019546001600160a01b031681565b600560208190526000918252604090912080546001820154600283015460038401546004850154958501546006860154600787015460088801546009890154600a8a0154600b8b0154600c909b01546001600160a01b039a8b169c999b989a9799989697959694959394929390911691908d565b336000818152600660209081526040808320548352600590915281205490916001600160a01b039091161415806116e95750601a546001600160a01b031633145b6116f257600080fd5b6116fb86610f85565b600019141580611715575061170f85610f85565b60001914155b61171e57600080fd5b601954600160a01b900460ff1661173a57821561173a57600080fd5b6117476008546001612a0a565b6008819055600081815260056020526040902080546001600160a01b03191633179055905061177586610f85565b60008281526005602052604090206004015561179085610f85565b600082815260056020818152604080842092830194909455600a90910180546001600160a01b0319166001600160a01b03891617905560078152828220805461ffff19166101008815150217905560085433835260069091529190205581156117fd576117fd8183611009565b6040805182815290517fa7857d7da6974b0157f3bf7dd25a745bd7d81d845bb525ee0b316a87541a5c319181900360200190a195945050505050565b60076020526000908152604090205460ff8082169161010090041682565b60009081526005602052604090206004015490565b60008181526007602052604081205460ff161561189b5750600081815260056020526040902060090154610f6b565b506b04860d8812f0b38878000000610f6b565b600081815260076020526040902054610100900460ff166118ce57600080fd5b6118d781611c30565b6001600160a01b0316336001600160a01b0316146118f457600080fd5b601754604080516370a0823160e01b815230600482015290516000926001600160a01b0316916370a08231916024808301926020929190829003018186803b15801561193f57600080fd5b505afa158015611953573d6000803e3d6000fd5b505050506040513d602081101561196957600080fd5b50516019546000848152600560205260409020600c0154919250611998916001600160a01b0390911690612a8f565b601754604080516370a0823160e01b815230600482015290516000926001600160a01b0316916370a08231916024808301926020929190829003018186803b1580156119e357600080fd5b505afa1580156119f7573d6000803e3d6000fd5b505050506040513d6020811015611a0d57600080fd5b505190506000611a1d828461289f565b9050611a2b600a5482612a0a565b600a55600b546000858152600560205260409020600c0154611a4d919061289f565b600b9081556000948552600760209081526040808720805461ff001916905560059091528520600c81019590955593909301929092555050565b600d5481565b600081815260076020526040812054610100900460ff1615611b05576000828152600560209081526040808320600c0154601954825163bd6d894d60e01b81529251610f689592946001600160a01b039092169363bd6d894d9360048083019493928390030190829087803b15801561132a57600080fd5b506000818152600560205260409020600b0154610f6b565b601a546001600160a01b03163314611b3457600080fd5b601055565b6000611b57611b5185611b4c8686612be8565b612c42565b8561289f565b949350505050565b601a546001600160a01b03163314611b7657600080fd5b6001546001600160a01b031615611b8c57600080fd5b600180546001600160a01b0319166001600160a01b038381169182179092556017546040805163095ea7b360e01b8152600481019390935260001960248401525192169163095ea7b3916044808201926020929091908290030181600087803b158015611bf857600080fd5b505af1158015611c0c573d6000803e3d6000fd5b505050506040513d6020811015611c2257600080fd5b5051611c2d57600080fd5b50565b6000908152600560205260409020546001600160a01b031690565b60009081526007602052604090205460ff1690565b601a546001600160a01b03163314611c7757600080fd5b601155565b60085481565b601954600160a01b900460ff16611c9857600080fd5b600081815260076020526040902054610100900460ff1615611cb957600080fd5b611cc281611c30565b6001600160a01b0316336001600160a01b031614611cdf57600080fd5b601954604080516370a0823160e01b815230600482015290516000926001600160a01b0316916370a08231916024808301926020929190829003018186803b158015611d2a57600080fd5b505afa158015611d3e573d6000803e3d6000fd5b505050506040513d6020811015611d5457600080fd5b50516017546019546000858152600560205260409020600b0154929350611d8a926001600160a01b0392831692909116906128cc565b601954604080516370a0823160e01b815230600482015290516000926001600160a01b0316916370a08231916024808301926020929190829003018186803b158015611dd557600080fd5b505afa158015611de9573d6000803e3d6000fd5b505050506040513d6020811015611dff57600080fd5b505190506000611e0f828461289f565b600a546000868152600560205260409020600b0154919250611e309161289f565b600a55600b54611e409082612a0a565b600b9081556000948552600760209081526040808720805461ff0019166101001790556005909152852090810194909455600c909301929092555050565b60008181526007602052604081205460ff1615611ead5750600081815260056020526040902060030154610f6b565b50615460610f6b565b61546081565b6000908152600560208190526040909120015490565b601a546001600160a01b03163314611ee957600080fd5b601255565b6b033b2e3cacd278c7503e82c181565b60001981565b60046020908152600091825260409182902080548351601f600260001961010060018616150201909316929092049182018490048402810184019094528084529091830182828015611f975780601f10611f6c57610100808354040283529160200191611f97565b820191906000526020600020905b815481529060010190602001808311611f7a57829003601f168201915b505050505081565b6001600160a01b031660009081526002602052604090205490565b601a546001600160a01b03163314611fd157600080fd5b601455565b60005b8181101561202657336000908152600260205260409020838383818110611ffc57fe5b83546001808201865560009586526020958690209290950293909301359201919091555001611fd9565b505050565b601a546001600160a01b0316331461204257600080fd5b601954600160a01b900460ff161561205957600080fd5b60198054600080546001600160a01b039485166001600160a01b0319918216179091557fffffffffffffffffffffff00ffffffffffffffffffffffffffffffffffffffff9390941693169290921716600160a01b179055565b6301e1338081565b60155481565b6120c983611c30565b6001600160a01b0316336001600160a01b0316146120e657600080fd5b816120f084611a8d565b10156120fb57600080fd5b600083815260076020526040902054610100900460ff161561230d57601954604080516370a0823160e01b815230600482015290516000926001600160a01b0316916370a08231916024808301926020929190829003018186803b15801561216257600080fd5b505afa158015612176573d6000803e3d6000fd5b505050506040513d602081101561218c57600080fd5b50516019549091506121a7906001600160a01b031684612c72565b601954604080516370a0823160e01b815230600482015290516000926001600160a01b0316916370a08231916024808301926020929190829003018186803b1580156121f257600080fd5b505afa158015612206573d6000803e3d6000fd5b505050506040513d602081101561221c57600080fd5b50519050600061222c838361289f565b6000878152600560205260409020600c015490915061224b908261289f565b6000878152600560209081526040808320600c0193909355601754835163a9059cbb60e01b81526001600160a01b038981166004830152602482018b90529451949091169363a9059cbb93604480840194938390030190829087803b1580156122b357600080fd5b505af11580156122c7573d6000803e3d6000fd5b505050506040513d60208110156122dd57600080fd5b50516122e857600080fd5b6122f186611c4b565b61230557612301600b548261289f565b600b555b5050506123e3565b6000838152600560205260409020600b0154612329908361289f565b6000848152600560209081526040808320600b0193909355601754835163a9059cbb60e01b81526001600160a01b038681166004830152602482018890529451949091169363a9059cbb93604480840194938390030190829087803b15801561239157600080fd5b505af11580156123a5573d6000803e3d6000fd5b505050506040513d60208110156123bb57600080fd5b50516123c657600080fd5b6123cf83611c4b565b6123e3576123df600a548361289f565b600a555b6123ec83611c4b565b612026576120266112ce565b336000908152600460205260409020612026908383613a8b565b6001546001600160a01b0316331461242957600080fd5b612435600d548261289f565b600d5550565b60008181526007602052604081205460ff161561246a5750600081815260056020526040902060060154610f6b565b50601054610f6b565b60135481565b600f5481565b600061248a8c611c30565b6001600160a01b0316336001600160a01b0316146124a757600080fd5b6124b08c611a8d565b8a11156124bc57600080fd5b6124c58c610f18565b8a10156124d157600080fd5b6124da8c61144b565b8a11156124e657600080fd5b6124ef8c611e7e565b8810156124fb57600080fd5b61250d6125078d611ebc565b4261289f565b881115801561252457506125208c611857565b8811155b61252d57600080fd5b61253b8c8c8c8c8c8c612e2e565b90506125d98c8288600880602002604051908101604052809291908260086020028082843760009201919091525050604080516020601f8c018190048102820181019092528a815291508a908a908190840183828082843760009201919091525050604080516020601f8c018190048102820181019092528a815292508a9150899081908401838280828437600092019190915250612fdb92505050565b6125e38c8b6132ce565b600154604080517fbf14c1190000000000000000000000000000000000000000000000000000000081526004810184905290516001600160a01b039092169163bf14c1199160248082019260009290919082900301818387803b15801561264957600080fd5b505af115801561265d573d6000803e3d6000fd5b505050509b9a5050505050505050505050565b336000818152600660209081526040808320548352600590915281205490916001600160a01b039091161415806126b15750601a546001600160a01b031633145b6126ba57600080fd5b6126c38a610f85565b6000191415806126dd57506126d789610f85565b60001914155b6126e657600080fd5b601954600160a01b900460ff1661270257821561270257600080fd5b61270f6008546001612a0a565b6008819055600081815260056020526040902080546001600160a01b03191633178155600181018f9055600281018e90556003018c905590506127518a610f85565b60008281526005602052604090206004015561276c89610f85565b60008281526005602081815260408084209283019490945560068083018c905560078084018c905560088085018c9055600985018f9055600a90940180546001600160a01b0319166001600160a01b038c161790558252848420805460ff191660011761ff0019166101008a15150217905591543384529190529190205581156127fa576127fa8183611009565b6040805182815290517fa7857d7da6974b0157f3bf7dd25a745bd7d81d845bb525ee0b316a87541a5c319181900360200190a19c9b505050505050505050505050565b60006305f5e10061285f61285185856129e6565b60026305f5e1005b04612a0a565b8161286657fe5b049392505050565b601a546001600160a01b0316331461288557600080fd5b601355565b6017546001600160a01b031681565b600a5481565b808203828111156128af57600080fd5b92915050565b60008082116128c357600080fd5b81838161286657fe5b6128d5826134c4565b604080516370a0823160e01b8152306004820152905184916000916001600160a01b038416916370a08231916024808301926020929190829003018186803b15801561292057600080fd5b505afa158015612934573d6000803e3d6000fd5b505050506040513d602081101561294a57600080fd5b50519050828111156129595750815b836129658683836137fd565b806001600160a01b031663a0712d68836040518263ffffffff1660e01b815260040180828152602001915050602060405180830381600087803b1580156129ab57600080fd5b505af11580156129bf573d6000803e3d6000fd5b505050506040513d60208110156129d557600080fd5b5051156129de57fe5b505050505050565b6000811580612a01575050808202828282816129fe57fe5b04145b6128af57600080fd5b808201828110156128af57600080fd5b6000670de0b6b3a764000061285f612a3285856129e6565b6002670de0b6b3a7640000612859565b60008161285f612a5e856b033b2e3c9fd0803ce80000006129e6565b600285612859565b600081831115612a765781612a78565b825b9392505050565b600081831015612a765781612a78565b604080516370a0823160e01b8152306004820152905183916000916001600160a01b038416916370a08231916024808301926020929190829003018186803b158015612ada57600080fd5b505afa158015612aee573d6000803e3d6000fd5b505050506040513d6020811015612b0457600080fd5b5051905082811115612b135750815b612b1e8482866137fd565b816001600160a01b031663db006a75826040518263ffffffff1660e01b815260040180828152602001915050602060405180830381600087803b158015612b6457600080fd5b505af1158015612b78573d6000803e3d6000fd5b505050506040513d6020811015612b8e57600080fd5b505115612be2576040805162461bcd60e51b815260206004820152601460248201527f736f6d657468696e672077656e742077726f6e67000000000000000000000000604482015290519081900360640190fd5b50505050565b600060028206612c04576b033b2e3c9fd0803ce8000000612c06565b825b90506002820491505b81156128af57612c1f8384612c42565b92506002820615612c3757612c348184612c42565b90505b600282049150612c0f565b60006b033b2e3c9fd0803ce800000061285f612c5e85856129e6565b60026b033b2e3c9fd0803ce8000000612859565b81612c938174446c3b15f9926687d2c40534fdb564000000000000816137fd565b604080516370a0823160e01b815230600482015290516000916001600160a01b038416916370a0823191602480820192602092909190829003018186803b158015612cdd57600080fd5b505afa158015612cf1573d6000803e3d6000fd5b505050506040513d6020811015612d0757600080fd5b50516040805163bd6d894d60e01b81529051919250600091612d569184916001600160a01b0387169163bd6d894d91600480830192602092919082900301818987803b15801561132a57600080fd5b905083811115612d635750825b826001600160a01b031663852a12e3826040518263ffffffff1660e01b815260040180828152602001915050602060405180830381600087803b158015612da957600080fd5b505af1158015612dbd573d6000803e3d6000fd5b505050506040513d6020811015612dd357600080fd5b505115612e27576040805162461bcd60e51b815260206004820152601460248201527f736f6d657468696e672077656e742077726f6e67000000000000000000000000604482015290519081900360640190fd5b5050505050565b60015460408051606081019091526001600160a01b03878116825260009216906310375921904286019060208101612e658c611c30565b6001600160a01b03908116825260008d815260056020908152604091829020600a015490921692820192909252815160e081019092528a82528101612eb38b612ead8f61243b565b8b611b39565b8152602001612ec58b612ead8f611248565b8152602001612ed78b612ead8f61128a565b8152602001898152602001612eeb8d61186c565b81526020018790526040517fffffffff0000000000000000000000000000000000000000000000000000000060e086901b168152600481018481528d9160240184606080838360005b83811015612f4c578181015183820152602001612f34565b5050505090500183600760200280838360005b83811015612f77578181015183820152602001612f5f565b50505050905001828152602001945050505050602060405180830381600087803b158015612fa457600080fd5b505af1158015612fb8573d6000803e3d6000fd5b505050506040513d6020811015612fce57600080fd5b5051979650505050505050565b600154604080516080808201835286518252602080880151818401528784015183850152606080890151908401528351808301855291880151825260a0880151908201526001600160a01b039093169263ee79b12b92889291908101886006602002015181526020018860076008811061305157fe5b602002015190526130696130648b611483565b613931565b8787600460006130788f611483565b6001600160a01b03166001600160a01b031681526020019081526020016000206040518863ffffffff1660e01b81526004018088815260200187600460200280838360005b838110156130d55781810151838201526020016130bd565b5050505090500186600460200280838360005b838110156131005781810151838201526020016130e8565b5050505090500185600460200280838360005b8381101561312b578181015183820152602001613113565b50505050905001806020018060200180602001848103845287818151815260200191508051906020019080838360005b8381101561317357818101518382015260200161315b565b50505050905090810190601f1680156131a05780820380516001836020036101000a031916815260200191505b50848103835286518152865160209182019188019080838360005b838110156131d35781810151838201526020016131bb565b50505050905090810190601f1680156132005780820380516001836020036101000a031916815260200191505b508481038252855460026000196101006001841615020190911604808252602090910190869080156132735780601f1061324857610100808354040283529160200191613273565b820191906000526020600020905b81548152906001019060200180831161325657829003601f168201915b50509a5050505050505050505050602060405180830381600087803b15801561329b57600080fd5b505af11580156132af573d6000803e3d6000fd5b505050506040513d60208110156132c557600080fd5b50505050505050565b600082815260076020526040902054610100900460ff161561345557601954604080516370a0823160e01b815230600482015290516000926001600160a01b0316916370a08231916024808301926020929190829003018186803b15801561333557600080fd5b505afa158015613349573d6000803e3d6000fd5b505050506040513d602081101561335f57600080fd5b505160195490915061337a906001600160a01b031683612c72565b601954604080516370a0823160e01b815230600482015290516000926001600160a01b0316916370a08231916024808301926020929190829003018186803b1580156133c557600080fd5b505afa1580156133d9573d6000803e3d6000fd5b505050506040513d60208110156133ef57600080fd5b5051905060006133ff838361289f565b6000868152600560205260409020600c015490915061341e908261289f565b6000868152600560205260409020600c015561343985611c4b565b61344d57613449600b548261289f565b600b555b5050506134a0565b6000828152600560205260409020600b0154613471908261289f565b6000838152600560205260409020600b015561348c82611c4b565b6134a05761349c600a548261289f565b600a555b6134a982611c4b565b610f7b576134b9600d5482612a0a565b600d55610f7b6112ce565b60006134ce61153e565b604080517fabfceffc00000000000000000000000000000000000000000000000000000000815230600482015290519192506060916001600160a01b0384169163abfceffc916024808301926000929190829003018186803b15801561353357600080fd5b505afa158015613547573d6000803e3d6000fd5b505050506040513d6000823e601f3d908101601f19168201604052602081101561357057600080fd5b810190808051604051939291908464010000000082111561359057600080fd5b9083019060208201858111156135a557600080fd5b82518660208202830111640100000000821117156135c257600080fd5b82525081516020918201928201910280838360005b838110156135ef5781810151838201526020016135d7565b50505050919091016040525092935060009250829150505b825181101561364a57846001600160a01b031683828151811061362657fe5b60200260200101516001600160a01b0316141561364257600191505b600101613607565b5080612be25760408051600180825281830190925260609160208083019080388339019050509050848160008151811061368057fe5b6001600160a01b039283166020918202929092018101919091526040517fc2998238000000000000000000000000000000000000000000000000000000008152600481018281528451602483015284519388169363c29982389386938392604490910191858101910280838360005b838110156137075781810151838201526020016136ef565b5050505090500192505050600060405180830381600087803b15801561372c57600080fd5b505af1158015613740573d6000803e3d6000fd5b505050506040513d6000823e601f3d908101601f19168201604052602081101561376957600080fd5b810190808051604051939291908464010000000082111561378957600080fd5b90830190602082018581111561379e57600080fd5b82518660208202830111640100000000821117156137bb57600080fd5b82525081516020918201928201910280838360005b838110156137e85781810151838201526020016137d0565b50505050905001604052505050505050505050565b604080517fdd62ed3e0000000000000000000000000000000000000000000000000000000081523060048201526001600160a01b038381166024830152915185926000929084169163dd62ed3e91604480820192602092909190829003018186803b15801561386b57600080fd5b505afa15801561387f573d6000803e3d6000fd5b505050506040513d602081101561389557600080fd5b5051905080841115612e27576040805163095ea7b360e01b81526001600160a01b0385811660048301527f8000000000000000000000000000000000000000000000000000000000000000602483015291519184169163095ea7b39160448082019260009290919082900301818387803b15801561391257600080fd5b505af1158015613926573d6000803e3d6000fd5b505050505050505050565b613939613b09565b6001600160a01b03821660009081526003602052604090205461395d906004612a0a565b6001600160a01b03831660009081526003602081815260408084208590558051608081018252600283529320919052909182919061399c90600461289f565b815481106139a657fe5b600091825260208083209091015483526001600160a01b03861682526002815260408083206003808452919093205493909101926139e39161289f565b815481106139ed57fe5b600091825260208083209091015483526001600160a01b038616825260028082526040808420600384529320549390910192613a289161289f565b81548110613a3257fe5b600091825260208083209091015483526001600160a01b038616825260028152604080832060038352922054920191613a6c90600161289f565b81548110613a7657fe5b90600052602060002001548152509050919050565b828054600181600116156101000203166002900490600052602060002090601f016020900481019282601f10613acc5782800160ff19823516178555613af9565b82800160010185558215613af9579182015b82811115613af9578235825591602001919060010190613ade565b50613b05929150613b27565b5090565b60405180608001604052806004906020820280388339509192915050565b61154b91905b80821115613b055760008155600101613b2d56fea265627a7a723158200f2688ab0d881c750bc122143b3dc817742d82f38b698d38d8625c536b0f609f64736f6c634300050c0032",
  "source": "import 'openzeppelin-solidity/contracts/token/ERC20/ERC20.sol';\nimport 'openzeppelin-solidity/contracts/math/SafeMath.sol';\n\nimport './Loans.sol';\nimport './CompoundHelper.sol';\n\npragma solidity ^0.5.8;\n\ncontract Funds is DSMath, CompoundHelper {\n    Loans loans;\n\n    uint256 public constant DEFAULT_LIQUIDATION_RATIO = 1400000000000000000000000000;   // 140% (1.4x in RAY) minimum collateralization ratio\n    uint256 public constant DEFAULT_LIQUIDATION_PENALTY = 1000000000937303470807876289; // 3% (3 in RAY) liquidation penalty\n    uint256 public constant DEFAULT_MIN_LOAN_AMT = 10 ether; // Min 10 WAD\n    uint256 public constant DEFAULT_MAX_LOAN_AMT = 2**256-1; // Max 2**256\n    uint256 public constant DEFAULT_MIN_LOAN_DUR = 6 hours;  // 6 hours\n    uint256 public constant NUM_SECONDS_IN_YEAR = 365 days;\n\n    mapping (address => bytes32[]) public secretHashes;    // User secret hashes\n    mapping (address => uint256)   public secretHashIndex; // User secret hash index\n\n    mapping (address => bytes)     public pubKeys;  // User A Coin PubKeys\n\n    mapping (bytes32 => Fund)      public funds;\n    mapping (address => bytes32)   public fundOwner;\n    mapping (bytes32 => Bools)     public bools;\n    uint256                        public fundIndex;\n\n    uint256 public lastGlobalInterestUpdated;\n    uint256 public tokenMarketLiquidity;\n    uint256 public cTokenMarketLiquidity;\n    uint256 public marketLiquidity;\n    uint256 public totalBorrow;\n    uint256 public globalInterestRateNumerator;\n    uint256 public lastUtilizationRatio;\n    uint256 public globalInterestRate;\n    uint256 public maxUtilizationDelta;\n    uint256 public utilizationInterestDivisor;\n    uint256 public maxInterestRateNumerator;\n    uint256 public minInterestRateNumerator;\n    uint256 public interestUpdateDelay;\n    uint256 public defaultArbiterFee;\n\n    ERC20 public token;\n    uint256 public decimals;\n    CTokenInterface public cToken;\n    bool compoundSet;\n\n    address deployer;\n\n    /**\n     * @notice Container for Loan Fund information\n     * @member lender Loan Fund Owner\n     * @member minLoanAmt Minimum Loan Amount that can be requested by a 'borrower'\n     * @member maxLoanAmt Maximum Loan Amount that can be requested by a 'borrower'\n     * @member minLoanDur Minimum Loan Duration that can be requested by a 'borrower'\n     * @member maxLoanDur Maximum Loan Duration that can be requested by a 'borrower'\n     * @member interest Interest Rate of Loan Fund in RAY per second\n     * @member penalty Liquidation Penalty Rate of Loan Fund in RAY per second\n     * @member fee Optional Automation Fee Rate of Loan Fund in RAY per second\n     * @member liquidationRatio Liquidation Ratio of Loan Fund in RAY\n     * @member arbiter Optional address of Automator Arbiter\n     * @member balance Amount of non-borrowed tokens in Loan Fund\n     * @member cBalance Amount of non-borrowed cTokens in Loan Fund\n     * @member custom Indicator that this Loan Fund is custom and does not use global settings\n     * @member compoundEnabled Indicator that this Loan Fund lends non-borrowed tokens on Compound\n     */\n    struct Fund {\n        address  lender;\n        uint256  minLoanAmt;\n        uint256  maxLoanAmt;\n        uint256  minLoanDur;\n        uint256  maxLoanDur;\n        uint256  fundExpiry;\n        uint256  interest;\n        uint256  penalty;\n        uint256  fee;\n        uint256  liquidationRatio;\n        address  arbiter;\n        uint256  balance;\n        uint256  cBalance;\n    }\n\n    struct Bools {\n        bool     custom;\n        bool     compoundEnabled;\n    }\n\n    event Create(bytes32 fund);\n\n    constructor(\n        ERC20   token_,\n        uint256 decimals_\n    ) public {\n        deployer = msg.sender;\n        token = token_;\n        decimals = decimals_;\n        utilizationInterestDivisor = 10531702972595856680093239305; // 10.53 in RAY (~10:1 ratio for % change in utilization ratio to % change in interest rate)\n        maxUtilizationDelta = 95310179948351216961192521; // Global Interest Rate Numerator can change up to 9.53% in RAY (~10% change in utilization ratio = ~1% change in interest rate)\n        globalInterestRateNumerator =  95310179948351216961192521; // ~10%  ( (e^(ln(1.100)/(60*60*24*365)) - 1) * (60*60*24*365) )\n        maxInterestRateNumerator    = 182321557320989604265864303; // ~20%  ( (e^(ln(1.200)/(60*60*24*365)) - 1) * (60*60*24*365) )\n        minInterestRateNumerator    =  24692612600038629323181834; // ~2.5% ( (e^(ln(1.025)/(60*60*24*365)) - 1) * (60*60*24*365) )\n        interestUpdateDelay = 86400; // 1 DAY\n        defaultArbiterFee = 1000000000236936036262880196; // 0.75% (0.75 in RAY) optional arbiter fee\n        globalInterestRate = add(RAY, div(globalInterestRateNumerator, NUM_SECONDS_IN_YEAR)); // Interest rate per second\n\n        // utilizationInterestDivisor calculation (this is aiming for utilizationInterestDivisor to allow max change from 10% APR to be 11% APR despite using compound interest)\n        // 1 + (globalInterestRateNumerator + (maxUtilizationDelta * RAY) / utilizationInterestDivisor) / NUM_SECONDS_IN_YEAR = 11% interest per second\n        // utilizationInterestDivisor = (maxUtilizationDelta * RAY) / ( (11% interest per second - 1)(NUM_SECONDS_IN_YEAR) - globalInterestRateNumerator )\n        // utilizationInterestDivisor = ((e^(ln(1.100)/(60*60*24*365)) - 1) * (60*60*24*365) * (10^27)) / ( (( e^(ln(1.110)/(60*60*24*365)) -1 ) * ( 60*60*24*365 )) - ((e^(ln(1.100)/(60*60*24*365)) - 1) * (60*60*24*365)))\n    }\n\n    /**\n     * @dev Sets Loans contract\n     * @param loans_ Address of Loans contract\n     */\n    function setLoans(Loans loans_) public {\n        require(msg.sender == deployer);\n        require(address(loans) == address(0));\n        loans = loans_;\n        require(token.approve(address(loans_), 2**256-1));\n    }\n\n    /**\n     * @dev Enables assets in loan fund that haven't been borrowed to be lent on Compound\n     * @param cToken_ The address of the Compound Token\n     * @param comptroller_ The address of the Compound Comptroller\n     */\n    function setCompound(CTokenInterface cToken_, address comptroller_) public {\n        require(msg.sender == deployer);\n        require(!compoundSet);\n        cToken = cToken_;\n        comptroller = comptroller_;\n        compoundSet = true;\n    }\n\n    // NOTE: THE FOLLOWING FUNCTIONS ALLOW VARIABLES TO BE MODIFIED BY THE\n    //       DEPLOYER, SINCE THE ALGORITHM FOR CALCULATING GLOBAL INTEREST\n    //       RATE IS UNTESTED WITH A DECENTRALIZED PROTOCOL, AND MAY NEED TO\n    //       BE UPDATED IN THE CASE THAT RATES DO NOT UPDATE AS INTENDED. A\n    //       FUTURE ITERATION OF THE PROTOCOL WILL REMOVE THESE FUNCTIONS. IF\n    //       YOU WISH TO OPT OUT OF GLOBAL APR YOU CAN CREATE A CUSTOM LOAN FUND\n    // ======================================================================\n\n    /**\n     * @dev Sets the Utilization Interest Divisor\n     */\n    function setUtilizationInterestDivisor(uint256 utilizationInterestDivisor_) external {\n        require(msg.sender == deployer);\n        utilizationInterestDivisor = utilizationInterestDivisor_;\n    }\n\n    /**\n     * @dev Sets the Max Utilization Delta\n     */\n    function setMaxUtilizationDelta(uint256 maxUtilizationDelta_) external {\n        require(msg.sender == deployer);\n        maxUtilizationDelta = maxUtilizationDelta_;\n    }\n\n    /**\n     * @dev Sets the Global Interest Rate Numerator\n     */\n    function setGlobalInterestRateNumerator(uint256 globalInterestRateNumerator_) external {\n        require(msg.sender == deployer);\n        globalInterestRateNumerator = globalInterestRateNumerator_;\n    }\n\n    /**\n     * @dev Sets the Global Interest Rate\n     */\n    function setGlobalInterestRate(uint256 globalInterestRate_) external {\n        require(msg.sender == deployer);\n        globalInterestRate = globalInterestRate_;\n    }\n\n    /**\n     * @dev Sets the Maximum Interest Rate Numerator\n     */\n    function setMaxInterestRateNumerator(uint256 maxInterestRateNumerator_) external {\n        require(msg.sender == deployer);\n        maxInterestRateNumerator = maxInterestRateNumerator_;\n    }\n\n    /**\n     * @dev Sets the Minimum Interest Rate Numerator\n     */\n    function setMinInterestRateNumerator(uint256 minInterestRateNumerator_) external {\n        require(msg.sender == deployer);\n        minInterestRateNumerator = minInterestRateNumerator_;\n    }\n\n    /**\n     * @dev Sets the Interest Update Delay\n     */\n    function setInterestUpdateDelay(uint256 interestUpdateDelay_) external {\n        require(msg.sender == deployer);\n        interestUpdateDelay = interestUpdateDelay_;\n    }\n\n    /**\n     * @dev Sets the Default Arbiter Fee\n     */\n    function setDefaultArbiterFee(uint256 defaultArbiterFee_) external {\n        require(msg.sender == deployer);\n        require(defaultArbiterFee_ <= 1000000000315522921573372069); // ~1%\n        defaultArbiterFee = defaultArbiterFee_;\n    }\n    // ======================================================================\n\n    /**\n     * @notice Get the lender of a Loan Fund\n     * @param fund The Id of a Loan Fund\n     * @return Owner address of Loan Fund\n     */\n    function lender(bytes32 fund) public view returns (address) {\n        return funds[fund].lender;\n    }\n\n    /**\n     * @notice Get minimum loan amount able to be requested by a 'borrower'\n     * @param fund The Id of a Loan Fund\n     * @return The minimum amount of tokens that can be requested from a Loan Fund\n     */\n    function minLoanAmt(bytes32 fund) public view returns (uint256) {\n        if (bools[fund].custom) { return funds[fund].minLoanAmt; }\n        else                    { return div(DEFAULT_MIN_LOAN_AMT, (10 ** sub(18, decimals))); }\n    }\n\n    /**\n     * @notice Get maximum loan amount able to be requested by a 'borrower'\n     * @param fund The Id of a Loan Fund\n     * @return The maximum amount of tokens that can be requested from a Loan Fund\n     */\n    function maxLoanAmt(bytes32 fund) public view returns (uint256) {\n        if (bools[fund].custom) { return funds[fund].maxLoanAmt; }\n        else                    { return DEFAULT_MAX_LOAN_AMT; }\n    }\n\n    /**\n     * @notice Get minimum loan duration able to be requested by a 'borrower'\n     * @param fund The Id of a Loan Fund\n     * @return The minimum duration loan that can be requested from a Loan Fund\n     */\n    function minLoanDur(bytes32 fund) public view returns (uint256) {\n        if (bools[fund].custom) { return funds[fund].minLoanDur; }\n        else                    { return DEFAULT_MIN_LOAN_DUR; }\n    }\n\n    /**\n     * @notice Get maximum loan duration able to be requested by a 'borrower'\n     * @param fund The Id of a Loan Fund\n     * @return The maximum duration loan that can be requested from a Loan Fund\n     */\n    function maxLoanDur(bytes32 fund) public view returns (uint256) {\n        return funds[fund].maxLoanDur;\n    }\n\n    /**\n     * @notice Get maximum loan duration able to be requested by a 'borrower'\n     * @param fund The Id of a Loan Fund\n     * @return The maximum duration loan that can be requested from a Loan Fund\n     */\n    function fundExpiry(bytes32 fund) public view returns (uint256) {\n        return funds[fund].fundExpiry;\n    }\n\n    /**\n     * @notice Get the interest rate for a Loan Fund\n     * @param fund The Id of a Loan Fund\n     * @return The interest rate per second for a Loan Fund in RAY per second\n     */\n    function interest(bytes32 fund) public view returns (uint256) {\n        if (bools[fund].custom) { return funds[fund].interest; }\n        else                    { return globalInterestRate; }\n    }\n\n    /**\n     * @notice Get the liquidation penalty rate for a Loan Fund\n     * @param fund The Id of a Loan Fund\n     * @return The liquidation penalty rate per second for a Loan Fund in RAY per second\n     */\n    function penalty(bytes32 fund) public view returns (uint256) {\n        if (bools[fund].custom) { return funds[fund].penalty; }\n        else                    { return DEFAULT_LIQUIDATION_PENALTY; }\n    }\n\n    /**\n     * @notice Get the optional automation fee for a Loan Fund\n     * @param fund The Id of a Loan Fund\n     * @return The optional automation fee rate of Loan Fund in RAY per second\n     */\n    function fee(bytes32 fund) public view returns (uint256) {\n        if (bools[fund].custom) { return funds[fund].fee; }\n        else                    { return defaultArbiterFee; }\n    }\n\n    /**\n     * @notice Get the liquidation ratio of a Loan Fund\n     * @param fund The Id of a Loan Fund\n     * @return The liquidation ratio of Loan Fund in RAY\n     */\n    function liquidationRatio(bytes32 fund) public view returns (uint256) {\n        if (bools[fund].custom) { return funds[fund].liquidationRatio; }\n        else                    { return DEFAULT_LIQUIDATION_RATIO; }\n    }\n\n    /**\n     * @notice Get the arbiter for a Loan Fund\n     * @param fund The Id of a Loan Fund\n     * @return The address of the arbiter for a Loan fund\n     */\n    function arbiter(bytes32 fund)   public view returns (address) {\n        return funds[fund].arbiter;\n    }\n\n    /**\n     * @notice Get the current balance of a Loan Fund in tokens\n     * @param fund The Id of a Loan Fund\n     * @return The amount of tokens remaining in Loan Fund\n     */\n    function balance(bytes32 fund) public returns (uint256) {\n        if (bools[fund].compoundEnabled) {\n            return wmul(funds[fund].cBalance, cToken.exchangeRateCurrent());\n        } else {\n            return funds[fund].balance;\n        }\n    }\n\n    /**\n     * @notice Get the custom indicator for a Loan Fund\n     * @param fund The Id of a Loan Fund\n     * @return The indicator of whether a Loan Fund is custom or not\n     */\n    function custom(bytes32 fund) public view returns (bool) {\n        return bools[fund].custom;\n    }\n\n    /**\n     * @notice Get the number of secretHashes provided per address\n     * @param addr_ The address of the user\n     * @return The length of the secretHashes array for user address\n     */\n    function secretHashesCount(address addr_) external view returns (uint256) {\n        return secretHashes[addr_].length;\n    }\n\n    /**\n     * @notice Lenders create Loan Fund using Global Protocol parameters and deposit assets\n     * @param maxLoanDur_ Max Loan Duration of Loan Fund in seconds\n     * @param arbiter_  Optional address of arbiter\n     * @param compoundEnabled_ Indicator whether excess funds should be lent on Compound\n     * @param amount_ Amount of tokens to be deposited on creation\n     * @return The Id of a Loan Fund\n     *\n     *         Note: Only one loan fund is allowed per ethereum address.\n     *               Exception is made for the deployer for testing.\n     */\n    function create(\n        uint256  maxLoanDur_,\n        uint256  fundExpiry_,\n        address  arbiter_,\n        bool     compoundEnabled_,\n        uint256  amount_\n    ) external returns (bytes32 fund) {\n        require(funds[fundOwner[msg.sender]].lender != msg.sender || msg.sender == deployer); // Only allow one loan fund per address\n        require(ensureNotZero(maxLoanDur_) != 2**256-1 || ensureNotZero(fundExpiry_) != 2**256-1); // Make sure someone can't request a loan for eternity\n        if (!compoundSet) { require(compoundEnabled_ == false); }\n        fundIndex = add(fundIndex, 1);\n        fund = bytes32(fundIndex);\n        funds[fund].lender           = msg.sender;\n        funds[fund].maxLoanDur       = ensureNotZero(maxLoanDur_);\n        funds[fund].fundExpiry       = ensureNotZero(fundExpiry_);\n        funds[fund].arbiter          = arbiter_;\n        bools[fund].custom           = false;\n        bools[fund].compoundEnabled  = compoundEnabled_;\n        fundOwner[msg.sender]        = bytes32(fundIndex);\n        if (amount_ > 0) { deposit(fund, amount_); }\n\n        emit Create(fund);\n    }\n\n    /**\n     * @notice Lenders create Loan Fund using Custom parameters and deposit assets\n     * @param minLoanAmt_ Minimum amount of tokens that can be borrowed from Loan Fund\n     * @param maxLoanAmt_ Maximum amount of tokens that can be borrowed from Loan Fund\n     * @param minLoanDur_ Minimum length of loan that can be requested from Loan Fund in seconds\n     * @param maxLoanDur_ Maximum length of loan that can be requested from Loan Fund in seconds\n     * @param arbiter_  Optional address of arbiter\n     * @param compoundEnabled_ Indicator whether excess funds should be lent on Compound\n     * @param amount_ Amount of tokens to be deposited on creation\n     * @return The Id of a Loan Fund\n     *\n     *         Note: Only one loan fund is allowed per ethereum address.\n     *               Exception is made for the deployer for testing.\n     */\n    function createCustom(\n        uint256  minLoanAmt_,\n        uint256  maxLoanAmt_,\n        uint256  minLoanDur_,\n        uint256  maxLoanDur_,\n        uint256  fundExpiry_,\n        uint256  liquidationRatio_,\n        uint256  interest_,\n        uint256  penalty_,\n        uint256  fee_,\n        address  arbiter_,\n        bool     compoundEnabled_,\n        uint256  amount_\n    ) external returns (bytes32 fund) {\n        require(funds[fundOwner[msg.sender]].lender != msg.sender || msg.sender == deployer); // Only allow one loan fund per address\n        require(ensureNotZero(maxLoanDur_) != 2**256-1 || ensureNotZero(fundExpiry_) != 2**256-1); // Make sure someone can't request a loan for eternity\n        if (!compoundSet) { require(compoundEnabled_ == false); }\n        fundIndex = add(fundIndex, 1);\n        fund = bytes32(fundIndex);\n        funds[fund].lender           = msg.sender;\n        funds[fund].minLoanAmt       = minLoanAmt_;\n        funds[fund].maxLoanAmt       = maxLoanAmt_;\n        funds[fund].minLoanDur       = minLoanDur_;\n        funds[fund].maxLoanDur       = ensureNotZero(maxLoanDur_);\n        funds[fund].fundExpiry       = ensureNotZero(fundExpiry_);\n        funds[fund].interest         = interest_;\n        funds[fund].penalty          = penalty_;\n        funds[fund].fee              = fee_;\n        funds[fund].liquidationRatio = liquidationRatio_;\n        funds[fund].arbiter          = arbiter_;\n        bools[fund].custom           = true;\n        bools[fund].compoundEnabled  = compoundEnabled_;\n        fundOwner[msg.sender]        = bytes32(fundIndex);\n        if (amount_ > 0) { deposit(fund, amount_); }\n\n        emit Create(fund);\n    }\n\n    /**\n     * @notice Lenders deposit tokens in Loan Fund\n     * @param fund The Id of a Loan Fund\n     * @param amount Amount of tokens to deposit\n     *\n     *        Note: Anyone can deposit tokens into a Loan Fund\n     */\n    function deposit(bytes32 fund, uint256 amount) public {\n        require(token.transferFrom(msg.sender, address(this), amount));\n        if (bools[fund].compoundEnabled) {\n            mintCToken(address(token), address(cToken), amount);\n            uint256 cTokenToAdd = div(mul(amount, WAD), cToken.exchangeRateCurrent());\n            funds[fund].cBalance = add(funds[fund].cBalance, cTokenToAdd);\n            if (!custom(fund)) { cTokenMarketLiquidity = add(cTokenMarketLiquidity, cTokenToAdd); }\n        } else {\n            funds[fund].balance = add(funds[fund].balance, amount);\n            if (!custom(fund)) { tokenMarketLiquidity = add(tokenMarketLiquidity, amount); }\n        }\n        if (!custom(fund)) { calcGlobalInterest(); }\n    }\n\n    /**\n     * @notice Users update Loan Fund settings\n     * @param fund The Id of a Loan Fund\n     * @param maxLoanDur_ Maximum length of loan that can be requested from Loan Fund in seconds\n     * @param fundExpiry_ Timestamp when all funds should be removable from Loan Fund\n     * @param arbiter_ The address of the arbiter for a Loan fund\n     *\n     *        Note: msg.sender must be the lender of the Loan Fund\n     */\n    function update(\n        bytes32  fund,\n        uint256  maxLoanDur_,\n        uint256  fundExpiry_,\n        address  arbiter_\n    ) public {\n        require(msg.sender == lender(fund));\n        require(ensureNotZero(maxLoanDur_) != 2**256-1 || ensureNotZero(fundExpiry_) != 2**256-1); // Make sure someone can't request a loan for eternity\n        funds[fund].maxLoanDur       = maxLoanDur_;\n        funds[fund].fundExpiry       = fundExpiry_;\n        funds[fund].arbiter          = arbiter_;\n    }\n\n    /**\n     * @notice Users update custom Loan Fund settings\n     * @param fund The Id of a Loan Fund\n     * @param minLoanAmt_ Minimum amount of tokens that can be borrowed from Loan Fund\n     * @param maxLoanAmt_ Maximum amount of tokens that can be borrowed from Loan Fund\n     * @param minLoanDur_ Minimum length of loan that can be requested from Loan Fund in seconds\n     * @param maxLoanDur_ Maximum length of loan that can be requested from Loan Fund in seconds\n     * @param fundExpiry_ Timestamp when all funds should be removable from Loan Fund\n     * @param interest_ The interest rate per second for a Loan Fund in RAY per second\n     * @param penalty_ The liquidation penalty rate per second for a Loan Fund in RAY per second\n     * @param fee_ The optional automation fee rate of Loan Fund in RAY per second\n     * @param liquidationRatio_ The liquidation ratio of Loan Fund in RAY\n     * @param arbiter_ The address of the arbiter for a Loan fund\n     *\n     *        Note: msg.sender must be the lender of the Loan Fund\n     */\n    function updateCustom(\n        bytes32  fund,\n        uint256  minLoanAmt_,\n        uint256  maxLoanAmt_,\n        uint256  minLoanDur_,\n        uint256  maxLoanDur_,\n        uint256  fundExpiry_,\n        uint256  interest_,\n        uint256  penalty_,\n        uint256  fee_,\n        uint256  liquidationRatio_,\n        address  arbiter_\n    ) external {\n        require(bools[fund].custom);\n        update(fund, maxLoanDur_, fundExpiry_, arbiter_);\n        funds[fund].minLoanAmt       = minLoanAmt_;\n        funds[fund].maxLoanAmt       = maxLoanAmt_;\n        funds[fund].minLoanDur       = minLoanDur_;\n        funds[fund].interest         = interest_;\n        funds[fund].penalty          = penalty_;\n        funds[fund].fee              = fee_;\n        funds[fund].liquidationRatio = liquidationRatio_;\n    }\n\n    /**\n     * @notice Lenders request loan from Loan Fund on behalf of Borrower\n     * @param fund The Id of a Loan Fund\n     * @param amount_ Amount of tokens to request\n     * @param collateral_ Amount of collateral to deposit in satoshis\n     * @param loanDur_ Length of loan request in seconds\n     * @param secretHashes_ 4 Borrower Secret Hashes and 4 Lender Secret Hashes\n     * @param pubKeyA_ Borrower Bitcoin public key to use for refunding collateral\n     * @param pubKeyB_ Lender Bitcoin public key to use for refunding collateral\n     *\n     *        Note: Borrower client should verify params after Ethereum tx\n     *              confirmation before locking Bitcoin.\n     *\n     */\n    function request(\n        bytes32             fund,\n        address             borrower_,\n        uint256             amount_,\n        uint256             collateral_,\n        uint256             loanDur_,\n        uint256             requestTimestamp_,\n        bytes32[8] calldata secretHashes_,\n        bytes      calldata pubKeyA_,\n        bytes      calldata pubKeyB_\n    ) external returns (bytes32 loanIndex) {\n        require(msg.sender == lender(fund));\n        require(amount_    <= balance(fund));\n        require(amount_    >= minLoanAmt(fund));\n        require(amount_    <= maxLoanAmt(fund));\n        require(loanDur_   >= minLoanDur(fund));\n        require(loanDur_   <= sub(fundExpiry(fund), now) && loanDur_ <= maxLoanDur(fund));\n\n        loanIndex = createLoan(fund, borrower_, amount_, collateral_, loanDur_, requestTimestamp_);\n        loanSetSecretHashes(fund, loanIndex, secretHashes_, pubKeyA_, pubKeyB_);\n        loanUpdateMarketLiquidity(fund, amount_);\n        loans.fund(loanIndex);\n    }\n\n    /**\n     * @notice Lenders withdraw tokens in Loan Fund\n     * @param fund The Id of a Loan Fund\n     * @param amount Amount of tokens to withdraw\n     */\n    function withdraw(bytes32 fund, uint256 amount) external {\n        withdrawTo(fund, amount, msg.sender);\n    }\n\n    /**\n     * @notice Lenders withdraw tokens in Loan Fund\n     * @param fund The Id of a Loan Fund\n     * @param amount Amount of tokens to withdraw\n     * @param recipient Address that should receive the funds\n     */\n    function withdrawTo(bytes32 fund, uint256 amount, address recipient) public {\n        require(msg.sender     == lender(fund));\n        require(balance(fund)  >= amount);\n        if (bools[fund].compoundEnabled) {\n            uint256 cBalanceBefore = cToken.balanceOf(address(this));\n            redeemUnderlying(address(cToken), amount);\n            uint256 cBalanceAfter = cToken.balanceOf(address(this));\n            uint256 cTokenToRemove = sub(cBalanceBefore, cBalanceAfter);\n            funds[fund].cBalance = sub(funds[fund].cBalance, cTokenToRemove);\n            require(token.transfer(recipient, amount));\n            if (!custom(fund)) { cTokenMarketLiquidity = sub(cTokenMarketLiquidity, cTokenToRemove); }\n        } else {\n            funds[fund].balance = sub(funds[fund].balance, amount);\n            require(token.transfer(recipient, amount));\n            if (!custom(fund)) { tokenMarketLiquidity = sub(tokenMarketLiquidity, amount); }\n        }\n        if (!custom(fund)) { calcGlobalInterest(); }\n    }\n\n    /**\n     * @notice Submit secretHashes to be used with future loans\n     * @param secretHashes_ List of secretHashes\n     */\n    function generate(bytes32[] calldata secretHashes_) external {\n        for (uint i = 0; i < secretHashes_.length; i++) {\n            secretHashes[msg.sender].push(secretHashes_[i]);\n        }\n    }\n\n    /**\n     * @notice Set Lender or Arbiter Bitcoin Public Key\n     * @param pubKey Bitcoin Public Key\n     */\n    function setPubKey(bytes calldata pubKey) external { // Set PubKey for Fund\n        pubKeys[msg.sender] = pubKey;\n    }\n\n    /**\n     * @notice Enable Compound for Loan Fund\n     * @param fund The Id of a Loan Fund\n     */\n    function enableCompound(bytes32 fund) external {\n        require(compoundSet);\n        require(bools[fund].compoundEnabled == false);\n        require(msg.sender == lender(fund));\n        uint256 cBalanceBefore = cToken.balanceOf(address(this));\n        mintCToken(address(token), address(cToken), funds[fund].balance);\n        uint256 cBalanceAfter = cToken.balanceOf(address(this));\n        uint256 cTokenToReturn = sub(cBalanceAfter, cBalanceBefore);\n        tokenMarketLiquidity = sub(tokenMarketLiquidity, funds[fund].balance);\n        cTokenMarketLiquidity = add(cTokenMarketLiquidity, cTokenToReturn);\n        bools[fund].compoundEnabled = true;\n        funds[fund].balance = 0;\n        funds[fund].cBalance = cTokenToReturn;\n    }\n\n    /**\n     * @notice Disable Compound for Loan Fund\n     * @param fund The Id of a Loan Fund\n     */\n    function disableCompound(bytes32 fund) external {\n        require(bools[fund].compoundEnabled);\n        require(msg.sender == lender(fund));\n        uint256 balanceBefore = token.balanceOf(address(this));\n        redeemCToken(address(cToken), funds[fund].cBalance);\n        uint256 balanceAfter = token.balanceOf(address(this));\n        uint256 tokenToReturn = sub(balanceAfter, balanceBefore);\n        tokenMarketLiquidity = add(tokenMarketLiquidity, tokenToReturn);\n        cTokenMarketLiquidity = sub(cTokenMarketLiquidity, funds[fund].cBalance);\n        bools[fund].compoundEnabled = false;\n        funds[fund].cBalance = 0;\n        funds[fund].balance = tokenToReturn;\n    }\n\n    /**\n     * @notice Decrease Total Borrow by Loans contract\n     * @param amount The amount of tokens to decrease totalBorrow by\n     */\n    function decreaseTotalBorrow(uint256 amount) external {\n        require(msg.sender == address(loans));\n        totalBorrow = sub(totalBorrow, amount);\n    }\n\n    /**\n     * @notice Calculate and update Global Interest Rate\n     * @dev Implementation returns Global Interest Rate per second in RAY\n     *\n     *      Note: Only updates interest rate if interestUpdateDelay has passed since last update\n     *            if utilizationRatio increases newAPR = oldAPR + (min(10%, utilizationRatio) / 10)\n     *            if utilizationRatio decreases newAPR = oldAPR - (max(10%, utilizationRatio) / 10)\n     *            APR should be less than or equal to 1%\n     *            For every 10% change in utilization ratio, the interest rate will change a maximum of 1%\n     *            i.e. newAPR = 11.5% + (10% / 10) = 12.5%\n     *\n     */\n    function calcGlobalInterest() public {\n        marketLiquidity = add(tokenMarketLiquidity, wmul(cTokenMarketLiquidity, cToken.exchangeRateCurrent()));\n\n        if (now > (lastGlobalInterestUpdated + interestUpdateDelay)) {\n            uint256 utilizationRatio;\n            if (totalBorrow != 0) { utilizationRatio = rdiv(totalBorrow, add(marketLiquidity, totalBorrow)); }\n\n            if (utilizationRatio > lastUtilizationRatio) {\n                uint256 changeUtilizationRatio = sub(utilizationRatio, lastUtilizationRatio);\n                globalInterestRateNumerator = min(maxInterestRateNumerator, add(globalInterestRateNumerator, rdiv(min(maxUtilizationDelta, changeUtilizationRatio), utilizationInterestDivisor)));\n            } else {\n                uint256 changeUtilizationRatio = sub(lastUtilizationRatio, utilizationRatio);\n                globalInterestRateNumerator = max(minInterestRateNumerator, sub(globalInterestRateNumerator, rdiv(min(maxUtilizationDelta, changeUtilizationRatio), utilizationInterestDivisor)));\n            }\n\n            globalInterestRate = add(RAY, div(globalInterestRateNumerator, NUM_SECONDS_IN_YEAR));\n\n            lastGlobalInterestUpdated = now;\n            lastUtilizationRatio = utilizationRatio;\n        }\n    }\n\n    /*\n     * @notice Calculate compound interest for a length of time\n     * @param amount The amount of tokens\n     * @param rate The interest rate in seconds\n     * @param loanDur The loan duration in seconds\n     */\n    function calcInterest(uint256 amount, uint256 rate, uint256 loanDur) public pure returns (uint256) {\n        return sub(rmul(amount, rpow(rate, loanDur)), amount);\n    }\n\n    /*\n     * @dev Ensure null values for fundExpiry and maxLoanDur are set to 2**256-1\n     * @param value The value to be sanity checked\n     */\n    function ensureNotZero(uint256 value) public pure returns (uint256) {\n        if (value == 0) { return 2**256-1; }\n        else            { return value; }\n    }\n\n    /*\n     * @dev Takes loan request parameters, creates loan, and returns loanIndex\n     * @param fund The Id of a Loan Fund\n     * @param amount_ Amount of tokens to request\n     * @param collateral_ Amount of collateral to deposit in satoshis\n     * @param loanDur_ Length of loan request in seconds\n     */\n    function createLoan(\n        bytes32  fund,\n        address  borrower_,\n        uint256  amount_,\n        uint256  collateral_,\n        uint256  loanDur_,\n        uint256  requestTimestamp_\n    ) private returns (bytes32 loanIndex) {\n        loanIndex = loans.create(\n            now + loanDur_,\n            [ borrower_, lender(fund), funds[fund].arbiter],\n            [ amount_, calcInterest(amount_, interest(fund), loanDur_), calcInterest(amount_, penalty(fund), loanDur_), calcInterest(amount_, fee(fund), loanDur_), collateral_, liquidationRatio(fund), requestTimestamp_],\n            fund\n        );\n    }\n\n    /*\n     * @dev Takes loan request Bitcoin parameters, sets loan Public Keys and Secret Hashes\n     * @param fund The Id of the Loan Fund\n     * @param loan The Id of the Loan\n     * @param secretHashes_ 4 Borrower Secret Hashes and 4 Lender Secret Hashes\n     * @param pubKeyA_ Borrower Bitcoin public key to use for refunding collateral\n     * @param pubKeyB_ Lender Bitcoin public key to use for refunding collateral\n     */\n    function loanSetSecretHashes(\n        bytes32           fund,\n        bytes32           loan,\n        bytes32[8] memory secretHashes_,\n        bytes      memory pubKeyA_,\n        bytes      memory pubKeyB_\n    ) private {\n        loans.setSecretHashes(\n            loan,\n            [ secretHashes_[0], secretHashes_[1], secretHashes_[2], secretHashes_[3] ],\n            [ secretHashes_[4], secretHashes_[5], secretHashes_[6], secretHashes_[7] ],\n            getSecretHashesForLoan(arbiter(fund)),\n            pubKeyA_,\n            pubKeyB_,\n            pubKeys[arbiter(fund)]\n        );\n    }\n\n    /*\n     * @dev Updates market liquidity based on amount of tokens being requested to borrow\n     * @param fund Loan Id of the Loan Fund\n     * @param amount The amount of tokens that are being requested\n     */\n    function loanUpdateMarketLiquidity(bytes32 fund, uint256 amount) private {\n        if (bools[fund].compoundEnabled) {\n            uint256 cBalanceBefore = cToken.balanceOf(address(this));\n            redeemUnderlying(address(cToken), amount);\n            uint256 cBalanceAfter = cToken.balanceOf(address(this));\n            uint256 cTokenToRemove = sub(cBalanceBefore, cBalanceAfter);\n            funds[fund].cBalance = sub(funds[fund].cBalance, cTokenToRemove);\n            if (!custom(fund)) { cTokenMarketLiquidity = sub(cTokenMarketLiquidity, cTokenToRemove); }\n        } else {\n            funds[fund].balance = sub(funds[fund].balance, amount);\n            if (!custom(fund)) { tokenMarketLiquidity = sub(tokenMarketLiquidity, amount); }\n        }\n        if (!custom(fund)) {\n            totalBorrow = add(totalBorrow, amount);\n            calcGlobalInterest();\n        }\n    }\n\n    /*\n     * @dev Get the next 4 secret hashes required for loan\n     * @param addr Address of Lender or Arbiter\n     */\n    function getSecretHashesForLoan(address addr) private returns (bytes32[4] memory) {\n        secretHashIndex[addr] = add(secretHashIndex[addr], 4);\n        return [\n            secretHashes[addr][sub(secretHashIndex[addr], 4)],\n            secretHashes[addr][sub(secretHashIndex[addr], 3)],\n            secretHashes[addr][sub(secretHashIndex[addr], 2)],\n            secretHashes[addr][sub(secretHashIndex[addr], 1)]\n        ];\n    }\n}\n",
  "sourcePath": "/Users/shain/repositories/insta-wealth/contracts/Funds.sol",
  "compiler": {
    "name": "solc",
    "version": "0.5.12+commit.7709ece9.Emscripten.clang"
  },
  "schemaVersion": "3.0.16",
  "updatedAt": "2019-10-22T23:22:54.238Z",
  "devdoc": {
    "methods": {
      "arbiter(bytes32)": {
        "params": {
          "fund": "The Id of a Loan Fund"
        },
        "return": "The address of the arbiter for a Loan fund"
      },
      "balance(bytes32)": {
        "params": {
          "fund": "The Id of a Loan Fund"
        },
        "return": "The amount of tokens remaining in Loan Fund"
      },
      "calcGlobalInterest()": {
        "details": "Implementation returns Global Interest Rate per second in RAY     *      Note: Only updates interest rate if interestUpdateDelay has passed since last update           if utilizationRatio increases newAPR = oldAPR + (min(10%, utilizationRatio) / 10)           if utilizationRatio decreases newAPR = oldAPR - (max(10%, utilizationRatio) / 10)           APR should be less than or equal to 1%           For every 10% change in utilization ratio, the interest rate will change a maximum of 1%           i.e. newAPR = 11.5% + (10% / 10) = 12.5%     "
      },
      "create(uint256,uint256,address,bool,uint256)": {
        "params": {
          "amount_": "Amount of tokens to be deposited on creation",
          "arbiter_": "Optional address of arbiter",
          "compoundEnabled_": "Indicator whether excess funds should be lent on Compound",
          "maxLoanDur_": "Max Loan Duration of Loan Fund in seconds"
        },
        "return": "The Id of a Loan Fund     *         Note: Only one loan fund is allowed per ethereum address.              Exception is made for the deployer for testing."
      },
      "createCustom(uint256,uint256,uint256,uint256,uint256,uint256,uint256,uint256,uint256,address,bool,uint256)": {
        "params": {
          "amount_": "Amount of tokens to be deposited on creation",
          "arbiter_": "Optional address of arbiter",
          "compoundEnabled_": "Indicator whether excess funds should be lent on Compound",
          "maxLoanAmt_": "Maximum amount of tokens that can be borrowed from Loan Fund",
          "maxLoanDur_": "Maximum length of loan that can be requested from Loan Fund in seconds",
          "minLoanAmt_": "Minimum amount of tokens that can be borrowed from Loan Fund",
          "minLoanDur_": "Minimum length of loan that can be requested from Loan Fund in seconds"
        },
        "return": "The Id of a Loan Fund     *         Note: Only one loan fund is allowed per ethereum address.              Exception is made for the deployer for testing."
      },
      "custom(bytes32)": {
        "params": {
          "fund": "The Id of a Loan Fund"
        },
        "return": "The indicator of whether a Loan Fund is custom or not"
      },
      "decreaseTotalBorrow(uint256)": {
        "params": {
          "amount": "The amount of tokens to decrease totalBorrow by"
        }
      },
      "deposit(bytes32,uint256)": {
        "params": {
          "amount": "Amount of tokens to deposit     *        Note: Anyone can deposit tokens into a Loan Fund",
          "fund": "The Id of a Loan Fund"
        }
      },
      "disableCompound(bytes32)": {
        "params": {
          "fund": "The Id of a Loan Fund"
        }
      },
      "enableCompound(bytes32)": {
        "params": {
          "fund": "The Id of a Loan Fund"
        }
      },
      "fee(bytes32)": {
        "params": {
          "fund": "The Id of a Loan Fund"
        },
        "return": "The optional automation fee rate of Loan Fund in RAY per second"
      },
      "fundExpiry(bytes32)": {
        "params": {
          "fund": "The Id of a Loan Fund"
        },
        "return": "The maximum duration loan that can be requested from a Loan Fund"
      },
      "generate(bytes32[])": {
        "params": {
          "secretHashes_": "List of secretHashes"
        }
      },
      "getComptrollerAddress()": {
        "details": "get Compound Comptroller Address"
      },
      "interest(bytes32)": {
        "params": {
          "fund": "The Id of a Loan Fund"
        },
        "return": "The interest rate per second for a Loan Fund in RAY per second"
      },
      "lender(bytes32)": {
        "params": {
          "fund": "The Id of a Loan Fund"
        },
        "return": "Owner address of Loan Fund"
      },
      "liquidationRatio(bytes32)": {
        "params": {
          "fund": "The Id of a Loan Fund"
        },
        "return": "The liquidation ratio of Loan Fund in RAY"
      },
      "maxLoanAmt(bytes32)": {
        "params": {
          "fund": "The Id of a Loan Fund"
        },
        "return": "The maximum amount of tokens that can be requested from a Loan Fund"
      },
      "maxLoanDur(bytes32)": {
        "params": {
          "fund": "The Id of a Loan Fund"
        },
        "return": "The maximum duration loan that can be requested from a Loan Fund"
      },
      "minLoanAmt(bytes32)": {
        "params": {
          "fund": "The Id of a Loan Fund"
        },
        "return": "The minimum amount of tokens that can be requested from a Loan Fund"
      },
      "minLoanDur(bytes32)": {
        "params": {
          "fund": "The Id of a Loan Fund"
        },
        "return": "The minimum duration loan that can be requested from a Loan Fund"
      },
      "penalty(bytes32)": {
        "params": {
          "fund": "The Id of a Loan Fund"
        },
        "return": "The liquidation penalty rate per second for a Loan Fund in RAY per second"
      },
      "request(bytes32,address,uint256,uint256,uint256,uint256,bytes32[8],bytes,bytes)": {
        "params": {
          "amount_": "Amount of tokens to request",
          "collateral_": "Amount of collateral to deposit in satoshis",
          "fund": "The Id of a Loan Fund",
          "loanDur_": "Length of loan request in seconds",
          "pubKeyA_": "Borrower Bitcoin public key to use for refunding collateral",
          "pubKeyB_": "Lender Bitcoin public key to use for refunding collateral     *        Note: Borrower client should verify params after Ethereum tx             confirmation before locking Bitcoin.     ",
          "secretHashes_": "4 Borrower Secret Hashes and 4 Lender Secret Hashes"
        }
      },
      "secretHashesCount(address)": {
        "params": {
          "addr_": "The address of the user"
        },
        "return": "The length of the secretHashes array for user address"
      },
      "setCompound(address,address)": {
        "details": "Enables assets in loan fund that haven't been borrowed to be lent on Compound",
        "params": {
          "cToken_": "The address of the Compound Token",
          "comptroller_": "The address of the Compound Comptroller"
        }
      },
      "setDefaultArbiterFee(uint256)": {
        "details": "Sets the Default Arbiter Fee"
      },
      "setGlobalInterestRate(uint256)": {
        "details": "Sets the Global Interest Rate"
      },
      "setGlobalInterestRateNumerator(uint256)": {
        "details": "Sets the Global Interest Rate Numerator"
      },
      "setInterestUpdateDelay(uint256)": {
        "details": "Sets the Interest Update Delay"
      },
      "setLoans(address)": {
        "details": "Sets Loans contract",
        "params": {
          "loans_": "Address of Loans contract"
        }
      },
      "setMaxInterestRateNumerator(uint256)": {
        "details": "Sets the Maximum Interest Rate Numerator"
      },
      "setMaxUtilizationDelta(uint256)": {
        "details": "Sets the Max Utilization Delta"
      },
      "setMinInterestRateNumerator(uint256)": {
        "details": "Sets the Minimum Interest Rate Numerator"
      },
      "setPubKey(bytes)": {
        "params": {
          "pubKey": "Bitcoin Public Key"
        }
      },
      "setUtilizationInterestDivisor(uint256)": {
        "details": "Sets the Utilization Interest Divisor"
      },
      "update(bytes32,uint256,uint256,address)": {
        "params": {
          "arbiter_": "The address of the arbiter for a Loan fund     *        Note: msg.sender must be the lender of the Loan Fund",
          "fund": "The Id of a Loan Fund",
          "fundExpiry_": "Timestamp when all funds should be removable from Loan Fund",
          "maxLoanDur_": "Maximum length of loan that can be requested from Loan Fund in seconds"
        }
      },
      "updateCustom(bytes32,uint256,uint256,uint256,uint256,uint256,uint256,uint256,uint256,uint256,address)": {
        "params": {
          "arbiter_": "The address of the arbiter for a Loan fund     *        Note: msg.sender must be the lender of the Loan Fund",
          "fee_": "The optional automation fee rate of Loan Fund in RAY per second",
          "fund": "The Id of a Loan Fund",
          "fundExpiry_": "Timestamp when all funds should be removable from Loan Fund",
          "interest_": "The interest rate per second for a Loan Fund in RAY per second",
          "liquidationRatio_": "The liquidation ratio of Loan Fund in RAY",
          "maxLoanAmt_": "Maximum amount of tokens that can be borrowed from Loan Fund",
          "maxLoanDur_": "Maximum length of loan that can be requested from Loan Fund in seconds",
          "minLoanAmt_": "Minimum amount of tokens that can be borrowed from Loan Fund",
          "minLoanDur_": "Minimum length of loan that can be requested from Loan Fund in seconds",
          "penalty_": "The liquidation penalty rate per second for a Loan Fund in RAY per second"
        }
      },
      "withdraw(bytes32,uint256)": {
        "params": {
          "amount": "Amount of tokens to withdraw",
          "fund": "The Id of a Loan Fund"
        }
      },
      "withdrawTo(bytes32,uint256,address)": {
        "params": {
          "amount": "Amount of tokens to withdraw",
          "fund": "The Id of a Loan Fund",
          "recipient": "Address that should receive the funds"
        }
      }
    }
  },
  "userdoc": {
    "methods": {
      "arbiter(bytes32)": {
        "notice": "Get the arbiter for a Loan Fund"
      },
      "balance(bytes32)": {
        "notice": "Get the current balance of a Loan Fund in tokens"
      },
      "calcGlobalInterest()": {
        "notice": "Calculate and update Global Interest Rate"
      },
      "create(uint256,uint256,address,bool,uint256)": {
        "notice": "Lenders create Loan Fund using Global Protocol parameters and deposit assets"
      },
      "createCustom(uint256,uint256,uint256,uint256,uint256,uint256,uint256,uint256,uint256,address,bool,uint256)": {
        "notice": "Lenders create Loan Fund using Custom parameters and deposit assets"
      },
      "custom(bytes32)": {
        "notice": "Get the custom indicator for a Loan Fund"
      },
      "decreaseTotalBorrow(uint256)": {
        "notice": "Decrease Total Borrow by Loans contract"
      },
      "deposit(bytes32,uint256)": {
        "notice": "Lenders deposit tokens in Loan Fund"
      },
      "disableCompound(bytes32)": {
        "notice": "Disable Compound for Loan Fund"
      },
      "enableCompound(bytes32)": {
        "notice": "Enable Compound for Loan Fund"
      },
      "fee(bytes32)": {
        "notice": "Get the optional automation fee for a Loan Fund"
      },
      "fundExpiry(bytes32)": {
        "notice": "Get maximum loan duration able to be requested by a 'borrower'"
      },
      "generate(bytes32[])": {
        "notice": "Submit secretHashes to be used with future loans"
      },
      "interest(bytes32)": {
        "notice": "Get the interest rate for a Loan Fund"
      },
      "lender(bytes32)": {
        "notice": "Get the lender of a Loan Fund"
      },
      "liquidationRatio(bytes32)": {
        "notice": "Get the liquidation ratio of a Loan Fund"
      },
      "maxLoanAmt(bytes32)": {
        "notice": "Get maximum loan amount able to be requested by a 'borrower'"
      },
      "maxLoanDur(bytes32)": {
        "notice": "Get maximum loan duration able to be requested by a 'borrower'"
      },
      "minLoanAmt(bytes32)": {
        "notice": "Get minimum loan amount able to be requested by a 'borrower'"
      },
      "minLoanDur(bytes32)": {
        "notice": "Get minimum loan duration able to be requested by a 'borrower'"
      },
      "penalty(bytes32)": {
        "notice": "Get the liquidation penalty rate for a Loan Fund"
      },
      "request(bytes32,address,uint256,uint256,uint256,uint256,bytes32[8],bytes,bytes)": {
        "notice": "Lenders request loan from Loan Fund on behalf of Borrower"
      },
      "secretHashesCount(address)": {
        "notice": "Get the number of secretHashes provided per address"
      },
      "setPubKey(bytes)": {
        "notice": "Set Lender or Arbiter Bitcoin Public Key"
      },
      "update(bytes32,uint256,uint256,address)": {
        "notice": "Users update Loan Fund settings"
      },
      "updateCustom(bytes32,uint256,uint256,uint256,uint256,uint256,uint256,uint256,uint256,uint256,address)": {
        "notice": "Users update custom Loan Fund settings"
      },
      "withdraw(bytes32,uint256)": {
        "notice": "Lenders withdraw tokens in Loan Fund"
      },
      "withdrawTo(bytes32,uint256,address)": {
        "notice": "Lenders withdraw tokens in Loan Fund"
      }
    }
  }
}