{
  "contractName": "Loans",
  "abi": [
    {
      "inputs": [
        {
          "internalType": "contract FundsInterface",
          "name": "funds_",
          "type": "address"
        },
        {
          "internalType": "contract Medianizer",
          "name": "med_",
          "type": "address"
        },
        {
          "internalType": "contract ERC20",
          "name": "token_",
          "type": "address"
        },
        {
          "internalType": "uint256",
          "name": "decimals_",
          "type": "uint256"
        }
      ],
      "payable": false,
      "stateMutability": "nonpayable",
      "type": "constructor"
    },
    {
      "anonymous": false,
      "inputs": [
        {
          "indexed": false,
          "internalType": "bytes32",
          "name": "loan",
          "type": "bytes32"
        }
      ],
      "name": "Create",
      "type": "event"
    },
    {
      "constant": true,
      "inputs": [],
      "name": "ACCEPT_EXP_THRESHOLD",
      "outputs": [
        {
          "internalType": "uint256",
          "name": "",
          "type": "uint256"
        }
      ],
      "payable": false,
      "stateMutability": "view",
      "type": "function"
    },
    {
      "constant": true,
      "inputs": [],
      "name": "APPROVE_EXP_THRESHOLD",
      "outputs": [
        {
          "internalType": "uint256",
          "name": "",
          "type": "uint256"
        }
      ],
      "payable": false,
      "stateMutability": "view",
      "type": "function"
    },
    {
      "constant": true,
      "inputs": [],
      "name": "LIQUIDATION_DISCOUNT",
      "outputs": [
        {
          "internalType": "uint256",
          "name": "",
          "type": "uint256"
        }
      ],
      "payable": false,
      "stateMutability": "view",
      "type": "function"
    },
    {
      "constant": true,
      "inputs": [],
      "name": "LIQUIDATION_EXP_THRESHOLD",
      "outputs": [
        {
          "internalType": "uint256",
          "name": "",
          "type": "uint256"
        }
      ],
      "payable": false,
      "stateMutability": "view",
      "type": "function"
    },
    {
      "constant": true,
      "inputs": [],
      "name": "SEIZURE_EXP_THRESHOLD",
      "outputs": [
        {
          "internalType": "uint256",
          "name": "",
          "type": "uint256"
        }
      ],
      "payable": false,
      "stateMutability": "view",
      "type": "function"
    },
    {
      "constant": true,
      "inputs": [
        {
          "internalType": "bytes32",
          "name": "",
          "type": "bytes32"
        }
      ],
      "name": "bools",
      "outputs": [
        {
          "internalType": "bool",
          "name": "funded",
          "type": "bool"
        },
        {
          "internalType": "bool",
          "name": "approved",
          "type": "bool"
        },
        {
          "internalType": "bool",
          "name": "withdrawn",
          "type": "bool"
        },
        {
          "internalType": "bool",
          "name": "sale",
          "type": "bool"
        },
        {
          "internalType": "bool",
          "name": "paid",
          "type": "bool"
        },
        {
          "internalType": "bool",
          "name": "off",
          "type": "bool"
        }
      ],
      "payable": false,
      "stateMutability": "view",
      "type": "function"
    },
    {
      "constant": true,
      "inputs": [
        {
          "internalType": "address",
          "name": "",
          "type": "address"
        },
        {
          "internalType": "uint256",
          "name": "",
          "type": "uint256"
        }
      ],
      "name": "borrowerLoans",
      "outputs": [
        {
          "internalType": "bytes32",
          "name": "",
          "type": "bytes32"
        }
      ],
      "payable": false,
      "stateMutability": "view",
      "type": "function"
    },
    {
      "constant": true,
      "inputs": [
        {
          "internalType": "uint256",
          "name": "x",
          "type": "uint256"
        },
        {
          "internalType": "uint256",
          "name": "y",
          "type": "uint256"
        }
      ],
      "name": "cmul",
      "outputs": [
        {
          "internalType": "uint256",
          "name": "z",
          "type": "uint256"
        }
      ],
      "payable": false,
      "stateMutability": "pure",
      "type": "function"
    },
    {
      "constant": true,
      "inputs": [],
      "name": "decimals",
      "outputs": [
        {
          "internalType": "uint256",
          "name": "",
          "type": "uint256"
        }
      ],
      "payable": false,
      "stateMutability": "view",
      "type": "function"
    },
    {
      "constant": true,
      "inputs": [
        {
          "internalType": "bytes32",
          "name": "",
          "type": "bytes32"
        }
      ],
      "name": "fundIndex",
      "outputs": [
        {
          "internalType": "bytes32",
          "name": "",
          "type": "bytes32"
        }
      ],
      "payable": false,
      "stateMutability": "view",
      "type": "function"
    },
    {
      "constant": true,
      "inputs": [
        {
          "internalType": "address",
          "name": "",
          "type": "address"
        },
        {
          "internalType": "uint256",
          "name": "",
          "type": "uint256"
        }
      ],
      "name": "lenderLoans",
      "outputs": [
        {
          "internalType": "bytes32",
          "name": "",
          "type": "bytes32"
        }
      ],
      "payable": false,
      "stateMutability": "view",
      "type": "function"
    },
    {
      "constant": true,
      "inputs": [],
      "name": "loanIndex",
      "outputs": [
        {
          "internalType": "uint256",
          "name": "",
          "type": "uint256"
        }
      ],
      "payable": false,
      "stateMutability": "view",
      "type": "function"
    },
    {
      "constant": true,
      "inputs": [
        {
          "internalType": "bytes32",
          "name": "",
          "type": "bytes32"
        }
      ],
      "name": "loans",
      "outputs": [
        {
          "internalType": "address",
          "name": "borrower",
          "type": "address"
        },
        {
          "internalType": "address",
          "name": "lender",
          "type": "address"
        },
        {
          "internalType": "address",
          "name": "arbiter",
          "type": "address"
        },
        {
          "internalType": "uint256",
          "name": "createdAt",
          "type": "uint256"
        },
        {
          "internalType": "uint256",
          "name": "loanExpiration",
          "type": "uint256"
        },
        {
          "internalType": "uint256",
          "name": "requestTimestamp",
          "type": "uint256"
        },
        {
          "internalType": "uint256",
          "name": "closedTimestamp",
          "type": "uint256"
        },
        {
          "internalType": "uint256",
          "name": "principal",
          "type": "uint256"
        },
        {
          "internalType": "uint256",
          "name": "interest",
          "type": "uint256"
        },
        {
          "internalType": "uint256",
          "name": "penalty",
          "type": "uint256"
        },
        {
          "internalType": "uint256",
          "name": "fee",
          "type": "uint256"
        },
        {
          "internalType": "uint256",
          "name": "collateral",
          "type": "uint256"
        },
        {
          "internalType": "uint256",
          "name": "liquidationRatio",
          "type": "uint256"
        }
      ],
      "payable": false,
      "stateMutability": "view",
      "type": "function"
    },
    {
      "constant": true,
      "inputs": [
        {
          "internalType": "bytes32",
          "name": "",
          "type": "bytes32"
        }
      ],
      "name": "pubKeys",
      "outputs": [
        {
          "internalType": "bytes",
          "name": "borrowerPubKey",
          "type": "bytes"
        },
        {
          "internalType": "bytes",
          "name": "lenderPubKey",
          "type": "bytes"
        },
        {
          "internalType": "bytes",
          "name": "arbiterPubKey",
          "type": "bytes"
        }
      ],
      "payable": false,
      "stateMutability": "view",
      "type": "function"
    },
    {
      "constant": true,
      "inputs": [
        {
          "internalType": "bytes32",
          "name": "",
          "type": "bytes32"
        }
      ],
      "name": "repayments",
      "outputs": [
        {
          "internalType": "uint256",
          "name": "",
          "type": "uint256"
        }
      ],
      "payable": false,
      "stateMutability": "view",
      "type": "function"
    },
    {
      "constant": true,
      "inputs": [
        {
          "internalType": "bytes32",
          "name": "",
          "type": "bytes32"
        }
      ],
      "name": "secretHashes",
      "outputs": [
        {
          "internalType": "bytes32",
          "name": "secretHashA1",
          "type": "bytes32"
        },
        {
          "internalType": "bytes32",
          "name": "secretHashB1",
          "type": "bytes32"
        },
        {
          "internalType": "bytes32",
          "name": "secretHashC1",
          "type": "bytes32"
        },
        {
          "internalType": "bytes32",
          "name": "withdrawSecret",
          "type": "bytes32"
        },
        {
          "internalType": "bytes32",
          "name": "acceptSecret",
          "type": "bytes32"
        },
        {
          "internalType": "bool",
          "name": "set",
          "type": "bool"
        }
      ],
      "payable": false,
      "stateMutability": "view",
      "type": "function"
    },
    {
      "constant": true,
      "inputs": [],
      "name": "token",
      "outputs": [
        {
          "internalType": "contract ERC20",
          "name": "",
          "type": "address"
        }
      ],
      "payable": false,
      "stateMutability": "view",
      "type": "function"
    },
    {
      "constant": true,
      "inputs": [
        {
          "internalType": "bytes32",
          "name": "",
          "type": "bytes32"
        }
      ],
      "name": "tokes",
      "outputs": [
        {
          "internalType": "contract ERC20",
          "name": "",
          "type": "address"
        }
      ],
      "payable": false,
      "stateMutability": "view",
      "type": "function"
    },
    {
      "constant": true,
      "inputs": [
        {
          "internalType": "bytes32",
          "name": "loan",
          "type": "bytes32"
        }
      ],
      "name": "borrower",
      "outputs": [
        {
          "internalType": "address",
          "name": "",
          "type": "address"
        }
      ],
      "payable": false,
      "stateMutability": "view",
      "type": "function"
    },
    {
      "constant": true,
      "inputs": [
        {
          "internalType": "bytes32",
          "name": "loan",
          "type": "bytes32"
        }
      ],
      "name": "lender",
      "outputs": [
        {
          "internalType": "address",
          "name": "",
          "type": "address"
        }
      ],
      "payable": false,
      "stateMutability": "view",
      "type": "function"
    },
    {
      "constant": true,
      "inputs": [
        {
          "internalType": "bytes32",
          "name": "loan",
          "type": "bytes32"
        }
      ],
      "name": "arbiter",
      "outputs": [
        {
          "internalType": "address",
          "name": "",
          "type": "address"
        }
      ],
      "payable": false,
      "stateMutability": "view",
      "type": "function"
    },
    {
      "constant": true,
      "inputs": [
        {
          "internalType": "bytes32",
          "name": "loan",
          "type": "bytes32"
        }
      ],
      "name": "approveExpiration",
      "outputs": [
        {
          "internalType": "uint256",
          "name": "",
          "type": "uint256"
        }
      ],
      "payable": false,
      "stateMutability": "view",
      "type": "function"
    },
    {
      "constant": true,
      "inputs": [
        {
          "internalType": "bytes32",
          "name": "loan",
          "type": "bytes32"
        }
      ],
      "name": "acceptExpiration",
      "outputs": [
        {
          "internalType": "uint256",
          "name": "",
          "type": "uint256"
        }
      ],
      "payable": false,
      "stateMutability": "view",
      "type": "function"
    },
    {
      "constant": true,
      "inputs": [
        {
          "internalType": "bytes32",
          "name": "loan",
          "type": "bytes32"
        }
      ],
      "name": "liquidationExpiration",
      "outputs": [
        {
          "internalType": "uint256",
          "name": "",
          "type": "uint256"
        }
      ],
      "payable": false,
      "stateMutability": "view",
      "type": "function"
    },
    {
      "constant": true,
      "inputs": [
        {
          "internalType": "bytes32",
          "name": "loan",
          "type": "bytes32"
        }
      ],
      "name": "seizureExpiration",
      "outputs": [
        {
          "internalType": "uint256",
          "name": "",
          "type": "uint256"
        }
      ],
      "payable": false,
      "stateMutability": "view",
      "type": "function"
    },
    {
      "constant": true,
      "inputs": [
        {
          "internalType": "bytes32",
          "name": "loan",
          "type": "bytes32"
        }
      ],
      "name": "principal",
      "outputs": [
        {
          "internalType": "uint256",
          "name": "",
          "type": "uint256"
        }
      ],
      "payable": false,
      "stateMutability": "view",
      "type": "function"
    },
    {
      "constant": true,
      "inputs": [
        {
          "internalType": "bytes32",
          "name": "loan",
          "type": "bytes32"
        }
      ],
      "name": "interest",
      "outputs": [
        {
          "internalType": "uint256",
          "name": "",
          "type": "uint256"
        }
      ],
      "payable": false,
      "stateMutability": "view",
      "type": "function"
    },
    {
      "constant": true,
      "inputs": [
        {
          "internalType": "bytes32",
          "name": "loan",
          "type": "bytes32"
        }
      ],
      "name": "fee",
      "outputs": [
        {
          "internalType": "uint256",
          "name": "",
          "type": "uint256"
        }
      ],
      "payable": false,
      "stateMutability": "view",
      "type": "function"
    },
    {
      "constant": true,
      "inputs": [
        {
          "internalType": "bytes32",
          "name": "loan",
          "type": "bytes32"
        }
      ],
      "name": "penalty",
      "outputs": [
        {
          "internalType": "uint256",
          "name": "",
          "type": "uint256"
        }
      ],
      "payable": false,
      "stateMutability": "view",
      "type": "function"
    },
    {
      "constant": true,
      "inputs": [
        {
          "internalType": "bytes32",
          "name": "loan",
          "type": "bytes32"
        }
      ],
      "name": "collateral",
      "outputs": [
        {
          "internalType": "uint256",
          "name": "",
          "type": "uint256"
        }
      ],
      "payable": false,
      "stateMutability": "view",
      "type": "function"
    },
    {
      "constant": true,
      "inputs": [
        {
          "internalType": "bytes32",
          "name": "loan",
          "type": "bytes32"
        }
      ],
      "name": "repaid",
      "outputs": [
        {
          "internalType": "uint256",
          "name": "",
          "type": "uint256"
        }
      ],
      "payable": false,
      "stateMutability": "view",
      "type": "function"
    },
    {
      "constant": true,
      "inputs": [
        {
          "internalType": "bytes32",
          "name": "loan",
          "type": "bytes32"
        }
      ],
      "name": "liquidationRatio",
      "outputs": [
        {
          "internalType": "uint256",
          "name": "",
          "type": "uint256"
        }
      ],
      "payable": false,
      "stateMutability": "view",
      "type": "function"
    },
    {
      "constant": true,
      "inputs": [
        {
          "internalType": "bytes32",
          "name": "loan",
          "type": "bytes32"
        }
      ],
      "name": "owedToLender",
      "outputs": [
        {
          "internalType": "uint256",
          "name": "",
          "type": "uint256"
        }
      ],
      "payable": false,
      "stateMutability": "view",
      "type": "function"
    },
    {
      "constant": true,
      "inputs": [
        {
          "internalType": "bytes32",
          "name": "loan",
          "type": "bytes32"
        }
      ],
      "name": "owedForLoan",
      "outputs": [
        {
          "internalType": "uint256",
          "name": "",
          "type": "uint256"
        }
      ],
      "payable": false,
      "stateMutability": "view",
      "type": "function"
    },
    {
      "constant": true,
      "inputs": [
        {
          "internalType": "bytes32",
          "name": "loan",
          "type": "bytes32"
        }
      ],
      "name": "owedForLiquidation",
      "outputs": [
        {
          "internalType": "uint256",
          "name": "",
          "type": "uint256"
        }
      ],
      "payable": false,
      "stateMutability": "view",
      "type": "function"
    },
    {
      "constant": true,
      "inputs": [
        {
          "internalType": "bytes32",
          "name": "loan",
          "type": "bytes32"
        }
      ],
      "name": "owing",
      "outputs": [
        {
          "internalType": "uint256",
          "name": "",
          "type": "uint256"
        }
      ],
      "payable": false,
      "stateMutability": "view",
      "type": "function"
    },
    {
      "constant": true,
      "inputs": [
        {
          "internalType": "bytes32",
          "name": "loan",
          "type": "bytes32"
        }
      ],
      "name": "funded",
      "outputs": [
        {
          "internalType": "bool",
          "name": "",
          "type": "bool"
        }
      ],
      "payable": false,
      "stateMutability": "view",
      "type": "function"
    },
    {
      "constant": true,
      "inputs": [
        {
          "internalType": "bytes32",
          "name": "loan",
          "type": "bytes32"
        }
      ],
      "name": "approved",
      "outputs": [
        {
          "internalType": "bool",
          "name": "",
          "type": "bool"
        }
      ],
      "payable": false,
      "stateMutability": "view",
      "type": "function"
    },
    {
      "constant": true,
      "inputs": [
        {
          "internalType": "bytes32",
          "name": "loan",
          "type": "bytes32"
        }
      ],
      "name": "withdrawn",
      "outputs": [
        {
          "internalType": "bool",
          "name": "",
          "type": "bool"
        }
      ],
      "payable": false,
      "stateMutability": "view",
      "type": "function"
    },
    {
      "constant": true,
      "inputs": [
        {
          "internalType": "bytes32",
          "name": "loan",
          "type": "bytes32"
        }
      ],
      "name": "sale",
      "outputs": [
        {
          "internalType": "bool",
          "name": "",
          "type": "bool"
        }
      ],
      "payable": false,
      "stateMutability": "view",
      "type": "function"
    },
    {
      "constant": true,
      "inputs": [
        {
          "internalType": "bytes32",
          "name": "loan",
          "type": "bytes32"
        }
      ],
      "name": "paid",
      "outputs": [
        {
          "internalType": "bool",
          "name": "",
          "type": "bool"
        }
      ],
      "payable": false,
      "stateMutability": "view",
      "type": "function"
    },
    {
      "constant": true,
      "inputs": [
        {
          "internalType": "bytes32",
          "name": "loan",
          "type": "bytes32"
        }
      ],
      "name": "off",
      "outputs": [
        {
          "internalType": "bool",
          "name": "",
          "type": "bool"
        }
      ],
      "payable": false,
      "stateMutability": "view",
      "type": "function"
    },
    {
      "constant": true,
      "inputs": [
        {
          "internalType": "uint256",
          "name": "x",
          "type": "uint256"
        }
      ],
      "name": "dmul",
      "outputs": [
        {
          "internalType": "uint256",
          "name": "",
          "type": "uint256"
        }
      ],
      "payable": false,
      "stateMutability": "view",
      "type": "function"
    },
    {
      "constant": true,
      "inputs": [
        {
          "internalType": "uint256",
          "name": "x",
          "type": "uint256"
        }
      ],
      "name": "ddiv",
      "outputs": [
        {
          "internalType": "uint256",
          "name": "",
          "type": "uint256"
        }
      ],
      "payable": false,
      "stateMutability": "view",
      "type": "function"
    },
    {
      "constant": true,
      "inputs": [
        {
          "internalType": "address",
          "name": "borrower_",
          "type": "address"
        }
      ],
      "name": "borrowerLoanCount",
      "outputs": [
        {
          "internalType": "uint256",
          "name": "",
          "type": "uint256"
        }
      ],
      "payable": false,
      "stateMutability": "view",
      "type": "function"
    },
    {
      "constant": true,
      "inputs": [
        {
          "internalType": "address",
          "name": "lender_",
          "type": "address"
        }
      ],
      "name": "lenderLoanCount",
      "outputs": [
        {
          "internalType": "uint256",
          "name": "",
          "type": "uint256"
        }
      ],
      "payable": false,
      "stateMutability": "view",
      "type": "function"
    },
    {
      "constant": true,
      "inputs": [
        {
          "internalType": "bytes32",
          "name": "loan",
          "type": "bytes32"
        }
      ],
      "name": "collateralValue",
      "outputs": [
        {
          "internalType": "uint256",
          "name": "",
          "type": "uint256"
        }
      ],
      "payable": false,
      "stateMutability": "view",
      "type": "function"
    },
    {
      "constant": true,
      "inputs": [
        {
          "internalType": "bytes32",
          "name": "loan",
          "type": "bytes32"
        }
      ],
      "name": "minCollateralValue",
      "outputs": [
        {
          "internalType": "uint256",
          "name": "",
          "type": "uint256"
        }
      ],
      "payable": false,
      "stateMutability": "view",
      "type": "function"
    },
    {
      "constant": true,
      "inputs": [
        {
          "internalType": "bytes32",
          "name": "loan",
          "type": "bytes32"
        }
      ],
      "name": "discountCollateralValue",
      "outputs": [
        {
          "internalType": "uint256",
          "name": "",
          "type": "uint256"
        }
      ],
      "payable": false,
      "stateMutability": "view",
      "type": "function"
    },
    {
      "constant": true,
      "inputs": [
        {
          "internalType": "bytes32",
          "name": "loan",
          "type": "bytes32"
        }
      ],
      "name": "safe",
      "outputs": [
        {
          "internalType": "bool",
          "name": "",
          "type": "bool"
        }
      ],
      "payable": false,
      "stateMutability": "view",
      "type": "function"
    },
    {
      "constant": false,
      "inputs": [
        {
          "internalType": "contract SalesInterface",
          "name": "sales_",
          "type": "address"
        }
      ],
      "name": "setSales",
      "outputs": [],
      "payable": false,
      "stateMutability": "nonpayable",
      "type": "function"
    },
    {
      "constant": false,
      "inputs": [
        {
          "internalType": "uint256",
          "name": "loanExpiration_",
          "type": "uint256"
        },
        {
          "internalType": "address[3]",
          "name": "usrs_",
          "type": "address[3]"
        },
        {
          "internalType": "uint256[7]",
          "name": "vals_",
          "type": "uint256[7]"
        },
        {
          "internalType": "bytes32",
          "name": "fundIndex_",
          "type": "bytes32"
        }
      ],
      "name": "create",
      "outputs": [
        {
          "internalType": "bytes32",
          "name": "loan",
          "type": "bytes32"
        }
      ],
      "payable": false,
      "stateMutability": "nonpayable",
      "type": "function"
    },
    {
      "constant": false,
      "inputs": [
        {
          "internalType": "bytes32",
          "name": "loan",
          "type": "bytes32"
        },
        {
          "internalType": "bytes32[4]",
          "name": "borrowerSecretHashes",
          "type": "bytes32[4]"
        },
        {
          "internalType": "bytes32[4]",
          "name": "lenderSecretHashes",
          "type": "bytes32[4]"
        },
        {
          "internalType": "bytes32[4]",
          "name": "arbiterSecretHashes",
          "type": "bytes32[4]"
        },
        {
          "internalType": "bytes",
          "name": "borrowerPubKey_",
          "type": "bytes"
        },
        {
          "internalType": "bytes",
          "name": "lenderPubKey_",
          "type": "bytes"
        },
        {
          "internalType": "bytes",
          "name": "arbiterPubKey_",
          "type": "bytes"
        }
      ],
      "name": "setSecretHashes",
      "outputs": [
        {
          "internalType": "bool",
          "name": "",
          "type": "bool"
        }
      ],
      "payable": false,
      "stateMutability": "nonpayable",
      "type": "function"
    },
    {
      "constant": false,
      "inputs": [
        {
          "internalType": "bytes32",
          "name": "loan",
          "type": "bytes32"
        }
      ],
      "name": "fund",
      "outputs": [],
      "payable": false,
      "stateMutability": "nonpayable",
      "type": "function"
    },
    {
      "constant": false,
      "inputs": [
        {
          "internalType": "bytes32",
          "name": "loan",
          "type": "bytes32"
        }
      ],
      "name": "approve",
      "outputs": [],
      "payable": false,
      "stateMutability": "nonpayable",
      "type": "function"
    },
    {
      "constant": false,
      "inputs": [
        {
          "internalType": "bytes32",
          "name": "loan",
          "type": "bytes32"
        },
        {
          "internalType": "bytes32",
          "name": "secretA1",
          "type": "bytes32"
        }
      ],
      "name": "withdraw",
      "outputs": [],
      "payable": false,
      "stateMutability": "nonpayable",
      "type": "function"
    },
    {
      "constant": false,
      "inputs": [
        {
          "internalType": "bytes32",
          "name": "loan",
          "type": "bytes32"
        },
        {
          "internalType": "uint256",
          "name": "amount",
          "type": "uint256"
        }
      ],
      "name": "repay",
      "outputs": [],
      "payable": false,
      "stateMutability": "nonpayable",
      "type": "function"
    },
    {
      "constant": false,
      "inputs": [
        {
          "internalType": "bytes32",
          "name": "loan",
          "type": "bytes32"
        }
      ],
      "name": "refund",
      "outputs": [],
      "payable": false,
      "stateMutability": "nonpayable",
      "type": "function"
    },
    {
      "constant": false,
      "inputs": [
        {
          "internalType": "bytes32",
          "name": "loan",
          "type": "bytes32"
        },
        {
          "internalType": "bytes32",
          "name": "secret",
          "type": "bytes32"
        }
      ],
      "name": "cancel",
      "outputs": [],
      "payable": false,
      "stateMutability": "nonpayable",
      "type": "function"
    },
    {
      "constant": false,
      "inputs": [
        {
          "internalType": "bytes32",
          "name": "loan",
          "type": "bytes32"
        },
        {
          "internalType": "bytes32",
          "name": "secret",
          "type": "bytes32"
        }
      ],
      "name": "accept",
      "outputs": [],
      "payable": false,
      "stateMutability": "nonpayable",
      "type": "function"
    },
    {
      "constant": false,
      "inputs": [
        {
          "internalType": "bytes32",
          "name": "loan",
          "type": "bytes32"
        },
        {
          "internalType": "bytes32",
          "name": "secretHash",
          "type": "bytes32"
        },
        {
          "internalType": "bytes20",
          "name": "pubKeyHash",
          "type": "bytes20"
        }
      ],
      "name": "liquidate",
      "outputs": [
        {
          "internalType": "bytes32",
          "name": "sale_",
          "type": "bytes32"
        }
      ],
      "payable": false,
      "stateMutability": "nonpayable",
      "type": "function"
    }
  ],
  "bytecode": "0x60806040523480156200001157600080fd5b50604051620037a5380380620037a5833981810160405260808110156200003757600080fd5b508051602080830151604080850151606090950151600f8054336001600160a01b0319918216179091556000805482166001600160a01b0380891691909117808355600180548516838916179055600d8054909416828b161793849055600e85905585517f095ea7b3000000000000000000000000000000000000000000000000000000008152908216600482015260001960248201529451979895979596939592169363095ea7b393604480830194919391928390030190829087803b1580156200010257600080fd5b505af115801562000117573d6000803e3d6000fd5b505050506040513d60208110156200012e57600080fd5b50516200013a57600080fd5b50505050613657806200014e6000396000f3fe608060405234801561001057600080fd5b50600436106103ae5760003560e01c80637a8cfcb4116101f4578063c52c0c981161011a578063e95823ad116100ad578063f69736e01161007c578063f69736e014610d85578063f7837eb714610da2578063fc0c546a14610dc5578063fcfd860514610dcd576103ae565b8063e95823ad14610bfb578063ebd1f26a14610c18578063ec7a4f4314610c35578063ee79b12b14610c58576103ae565b8063df90997b116100e9578063df90997b14610b78578063e3ed190214610b95578063e3eff40814610bc1578063e91d14a414610bde576103ae565b8063c52c0c9814610ae3578063c71230bf14610b00578063c82e428d1461093d578063d357691d14610b26576103ae565b80639fc3f02f11610192578063add89bb211610161578063add89bb214610a10578063ba38c83e14610a2d578063bf14c11914610a35578063c4a9081514610a52576103ae565b80639fc3f02f1461099c578063a53a1adf146109b9578063a5d9dc7b146109d6578063a6327307146109f3576103ae565b806397bd506d116101ce57806397bd506d1461093d5780639b33997c146109455780639e7c565e146109625780639f9b3d3b1461097f576103ae565b80637a8cfcb4146109105780637ff6fecc1461091857806383f4ca7b14610935576103ae565b80633cdb72f1116102d957806363615149116102775780637865c3ad116102465780637865c3ad1461074f578063787a969c1461076c5780637888938b146108cd5780637a2e18fd146108ea576103ae565b8063636151491461069c5780636e1719a6146106bf5780637249fbb61461071557806376a0b16614610732576103ae565b806344b6ba95116102b357806344b6ba95146106225780634672d7bf1461063f578063531f4c401461065c57806359949df41461067f576103ae565b80633cdb72f1146105b35780633e4b2a29146105df5780633f6aff31146105fc576103ae565b806327cdab0611610351578063313ce56711610320578063313ce5671461055557806332025b691461055d5780633823d66c1461057a5780633aaffb78146105ab576103ae565b806327cdab06146104c65780632a428754146104e35780632cdc3c12146105005780632e3b81eb1461051d576103ae565b8063103759211161038d57806310375921146104405780631594bbbe1461046f5780631abc4a781461048c57806326fc7590146104a9576103ae565b8062f989ad146103b35780630be1880f146103d85780630e11247614610411575b600080fd5b6103d6600480360360408110156103c957600080fd5b5080359060200135610dea565b005b6103f5600480360360208110156103ee57600080fd5b5035610f89565b604080516001600160a01b039092168252519081900360200190f35b61042e6004803603602081101561042757600080fd5b5035610fa4565b60408051918252519081900360200190f35b61042e600480360361018081101561045757600080fd5b50803590602081019060808101906101600135611054565b61042e6004803603602081101561048557600080fd5b503561128d565b61042e600480360360208110156104a257600080fd5b50356112b2565b61042e600480360360208110156104bf57600080fd5b50356112d0565b61042e600480360360208110156104dc57600080fd5b50356112e5565b6103f5600480360360208110156104f957600080fd5b50356112fa565b61042e6004803603602081101561051657600080fd5b5035611315565b61042e6004803603606081101561053357600080fd5b50803590602081013590604001356bffffffffffffffffffffffff1916611334565b61042e611d74565b61042e6004803603602081101561057357600080fd5b5035611d7a565b6105976004803603602081101561059057600080fd5b5035611d91565b604080519115158252519081900360200190f35b61042e611dac565b61042e600480360360408110156105c957600080fd5b506001600160a01b038135169060200135611db3565b61042e600480360360208110156105f557600080fd5b5035611de1565b61042e6004803603602081101561061257600080fd5b50356001600160a01b0316611df3565b6103f56004803603602081101561063857600080fd5b5035611e0e565b6105976004803603602081101561065557600080fd5b5035611e2c565b6103d66004803603604081101561067257600080fd5b5080359060200135611e48565b6105976004803603602081101561069557600080fd5b5035612689565b6103d6600480360360408110156106b257600080fd5b50803590602001356126a7565b6106dc600480360360208110156106d557600080fd5b50356128ca565b604080519615158752941515602087015292151585850152901515606085015215156080840152151560a0830152519081900360c00190f35b6103d66004803603602081101561072b57600080fd5b5035612912565b61042e6004803603602081101561074857600080fd5b5035612bc9565b6105976004803603602081101561076557600080fd5b5035612bde565b6107896004803603602081101561078257600080fd5b5035612bf8565b60405180806020018060200180602001848103845287818151815260200191508051906020019080838360005b838110156107ce5781810151838201526020016107b6565b50505050905090810190601f1680156107fb5780820380516001836020036101000a031916815260200191505b50848103835286518152865160209182019188019080838360005b8381101561082e578181015183820152602001610816565b50505050905090810190601f16801561085b5780820380516001836020036101000a031916815260200191505b50848103825285518152855160209182019187019080838360005b8381101561088e578181015183820152602001610876565b50505050905090810190601f1680156108bb5780820380516001836020036101000a031916815260200191505b50965050505050505060405180910390f35b61042e600480360360208110156108e357600080fd5b5035612dc9565b6103d66004803603602081101561090057600080fd5b50356001600160a01b0316612de5565b61042e612e41565b61042e6004803603602081101561092e57600080fd5b5035612e47565b61042e612e62565b61042e612e6e565b61042e6004803603602081101561095b57600080fd5b5035612e75565b61042e6004803603602081101561097857600080fd5b5035612e8c565b6105976004803603602081101561099557600080fd5b5035612ea1565b6103f5600480360360208110156109b257600080fd5b5035612eb6565b6103d6600480360360208110156109cf57600080fd5b5035612ed4565b61042e600480360360208110156109ec57600080fd5b5035612f4c565b61042e60048036036020811015610a0957600080fd5b5035612f5e565b61059760048036036020811015610a2657600080fd5b5035612f7a565b61042e612f97565b6103d660048036036020811015610a4b57600080fd5b5035612f9d565b610a6f60048036036020811015610a6857600080fd5b50356130ab565b604080516001600160a01b039e8f1681529c8e1660208e01529a909c168b8b015260608b019890985260808a019690965260a089019490945260c088019290925260e08701526101008601526101208501526101408401526101608301526101808201929092529051908190036101a00190f35b61042e60048036036020811015610af957600080fd5b5035613122565b61042e60048036036020811015610b1657600080fd5b50356001600160a01b0316613139565b610b4360048036036020811015610b3c57600080fd5b5035613154565b6040805196875260208701959095528585019390935260608501919091526080840152151560a0830152519081900360c00190f35b61042e60048036036020811015610b8e57600080fd5b503561318c565b61042e60048036036040811015610bab57600080fd5b506001600160a01b0381351690602001356131bc565b61042e60048036036020811015610bd757600080fd5b50356131d5565b61042e60048036036020811015610bf457600080fd5b50356131ea565b61059760048036036020811015610c1157600080fd5b50356131ff565b61042e60048036036020811015610c2e57600080fd5b503561321b565b6103d660048036036040811015610c4b57600080fd5b508035906020013561322d565b6105976004803603610200811015610c6f57600080fd5b813591602081019160a08201916101208101918101906101c081016101a0820135640100000000811115610ca257600080fd5b820183602082011115610cb457600080fd5b80359060200191846001830284011164010000000083111715610cd657600080fd5b919390929091602081019035640100000000811115610cf457600080fd5b820183602082011115610d0657600080fd5b80359060200191846001830284011164010000000083111715610d2857600080fd5b919390929091602081019035640100000000811115610d4657600080fd5b820183602082011115610d5857600080fd5b80359060200191846001830284011164010000000083111715610d7a57600080fd5b509092509050613237565b61042e60048036036020811015610d9b57600080fd5b5035613434565b61042e60048036036040811015610db857600080fd5b508035906020013561344b565b6103f561347c565b61042e60048036036020811015610de357600080fd5b503561348b565b610df382612689565b15610dfd57600080fd5b610e0682611e2c565b15610e1057600080fd5b60008281526006602052604090205462010000900460ff161515600114610e3657600080fd5b600082815260036020526040902060040154421115610e5457600080fd5b610e5d82611d7a565b610e6f82610e6a85611de1565b6134a6565b1115610e7a57600080fd5b600d54604080517f23b872dd0000000000000000000000000000000000000000000000000000000081523360048201523060248201526044810184905290516001600160a01b03909216916323b872dd916064808201926020929091908290030181600087803b158015610eed57600080fd5b505af1158015610f01573d6000803e3d6000fd5b505050506040513d6020811015610f1757600080fd5b5051610f2257600080fd5b600082815260096020526040902054610f3c9082906134a6565b600083815260096020526040902055610f5482611d7a565b610f5d83611de1565b1415610f85576000828152600660205260409020805464ff0000000019166401000000001790555b5050565b6000908152600360205260409020546001600160a01b031690565b6000806000600160009054906101000a90046001600160a01b03166001600160a01b03166359e02dd76040518163ffffffff1660e01b8152600401604080518083038186803b158015610ff657600080fd5b505afa15801561100a573d6000803e3d6000fd5b505050506040513d604081101561102057600080fd5b50805160209091015190925090508061103857600080fd5b8161104b8161104687612e8c565b61344b565b95945050505050565b6000811561110357600054604080517f9fc3f02f0000000000000000000000000000000000000000000000000000000081526004810185905290516020878101356001600160a01b03908116941692639fc3f02f9260248083019392829003018186803b1580156110c457600080fd5b505afa1580156110d8573d6000803e3d6000fd5b505050506040513d60208110156110ee57600080fd5b50516001600160a01b03161461110357600080fd5b611110600a5460016134a6565b600a8190556000818152600360208181526040928390204281840155600481018a9055805473ffffffffffffffffffffffffffffffffffffffff199081166001600160a01b038b35811691909117835560018301805483168c86013583161790556002830180549092168b8701359091161790558735600782015590870135600882015591860135600990920191909155909150839060008381526003602090815260408083209382029490940135600a808501919091556080880135600b8086019190915560a0890135600c8087019190915560c08a013560059687015560078452868520899055948352858420600e01805460ff191690556001600160a01b038a3581168552908352858420825481546001818101845592875285872001558a84013590911684529382528483209054815494850182559083529181902090920155815183815291517fa7857d7da6974b0157f3bf7dd25a745bd7d81d845bb525ee0b316a87541a5c319281900390910190a1949350505050565b6000818152600360205260408120600401546112ac906202a3006134a6565b92915050565b6000818152600360208190526040822001546112ac90611c206134a6565b60009081526003602052604090206009015490565b6000908152600360205260409020600a015490565b6008602052600090815260409020546001600160a01b031681565b6000818152600360205260408120600401546112ac9062093a806134a6565b600061133f84612689565b1561134957600080fd5b60008481526006602052604090205462010000900460ff16151560011461136f57600080fd5b6000848152600360205260409020546001600160a01b031633148015906113b057506000848152600360205260409020600101546001600160a01b03163314155b6113b957600080fd5b600254604080516302d3af5b60e01b81526004810187905290516001600160a01b03909216916302d3af5b91602480820192602092909190829003018186803b15801561140557600080fd5b505afa158015611419573d6000803e3d6000fd5b505050506040513d602081101561142f57600080fd5b50516115e35760008481526003602052604090206004015442111561147757600084815260066020526040902054640100000000900460ff161561147257600080fd5b61148a565b611480846131ff565b1561148a57600080fd5b60008054858252600760209081526040928390205483516301431c9560e71b8152600481019190915292516001600160a01b039092169263a18e4a809260248083019392829003018186803b1580156114e257600080fd5b505afa1580156114f6573d6000803e3d6000fd5b505050506040513d602081101561150c57600080fd5b50516115de576000805485825260036020526040808320600701548151637249992b60e11b8152600481019190915290516001600160a01b039092169263e49332569260248084019382900301818387803b15801561156a57600080fd5b505af115801561157e573d6000803e3d6000fd5b505060008054604080516333549b1b60e01b815290516001600160a01b0390921694506333549b1b9350600480820193929182900301818387803b1580156115c557600080fd5b505af11580156115d9573d6000803e3d6000fd5b505050505b61194c565b600254604080516302d3af5b60e01b81526004810187905290516003926001600160a01b0316916302d3af5b916024808301926020929190829003018186803b15801561162f57600080fd5b505afa158015611643573d6000803e3d6000fd5b505050506040513d602081101561165957600080fd5b50511061166557600080fd5b600254604080516302d3af5b60e01b81526004810187905290516001600160a01b039092169163a6b7d54e918391631a81dcab91899160019185916302d3af5b91602480820192602092909190829003018186803b1580156116c657600080fd5b505afa1580156116da573d6000803e3d6000fd5b505050506040513d60208110156116f057600080fd5b5051604080516001600160e01b031960e087901b168152600481019490945291900360248301525160448083019260209291908290030181600087803b15801561173957600080fd5b505af115801561174d573d6000803e3d6000fd5b505050506040513d602081101561176357600080fd5b5051604080516001600160e01b031960e085901b1681526004810192909252516024808301926020929190829003018186803b1580156117a257600080fd5b505afa1580156117b6573d6000803e3d6000fd5b505050506040513d60208110156117cc57600080fd5b505142116117d957600080fd5b600254604080516302d3af5b60e01b81526004810187905290516001600160a01b0390921691638642afd1918391631a81dcab91899160019185916302d3af5b91602480820192602092909190829003018186803b15801561183a57600080fd5b505afa15801561184e573d6000803e3d6000fd5b505050506040513d602081101561186457600080fd5b5051604080516001600160e01b031960e087901b168152600481019490945291900360248301525160448083019260209291908290030181600087803b1580156118ad57600080fd5b505af11580156118c1573d6000803e3d6000fd5b505050506040513d60208110156118d757600080fd5b5051604080516001600160e01b031960e085901b1681526004810192909252516024808301926020929190829003018186803b15801561191657600080fd5b505afa15801561192a573d6000803e3d6000fd5b505050506040513d602081101561194057600080fd5b50511561194c57600080fd5b61195d61195885612dc9565b612e47565b600d54604080517f70a0823100000000000000000000000000000000000000000000000000000000815233600482015290516001600160a01b03909216916370a0823191602480820192602092909190829003018186803b1580156119c157600080fd5b505afa1580156119d5573d6000803e3d6000fd5b505050506040513d60208110156119eb57600080fd5b505110156119f857600080fd5b600d546002546001600160a01b03918216916323b872dd91339116611a1f61195889612dc9565b6040518463ffffffff1660e01b815260040180846001600160a01b03166001600160a01b03168152602001836001600160a01b03166001600160a01b031681526020018281526020019350505050602060405180830381600087803b158015611a8757600080fd5b505af1158015611a9b573d6000803e3d6000fd5b505050506040513d6020811015611ab157600080fd5b5051611abc57600080fd5b600084815260056020908152604080832060025482516302d3af5b60e01b8152600481018a905292519194936001600160a01b03909116926302d3af5b9260248083019392829003018186803b158015611b1557600080fd5b505afa158015611b29573d6000803e3d6000fd5b505050506040513d6020811015611b3f57600080fd5b5051600280546000898152600360208190526040909120805460018083015492909501549596506001600160a01b0393841695630c4afecf958d959283169493831693929091169133918a019089908110611b9657fe5b0154896005018960038110611ba757fe5b01548a6009018a60038110611bb857fe5b0154604080516001600160e01b031960e08c901b16815260048101999099526001600160a01b0397881660248a01529587166044890152938616606488015291909416608486015260a485019390935260c484019290925260e483019190915261010482018990526bffffffffffffffffffffffff198816610124830152516101448083019260209291908290030181600087803b158015611c5957600080fd5b505af1158015611c6d573d6000803e3d6000fd5b505050506040513d6020811015611c8357600080fd5b50516000878152600660205260409020549093506301000000900460ff16611d4b57600d546002546001600160a01b039182169163a9059cbb9116611cc789611de1565b6040518363ffffffff1660e01b815260040180836001600160a01b03166001600160a01b0316815260200182815260200192505050602060405180830381600087803b158015611d1657600080fd5b505af1158015611d2a573d6000803e3d6000fd5b505050506040513d6020811015611d4057600080fd5b5051611d4b57600080fd5b5050600093845260066020526040909320805463ff000000191663010000001790555090919050565b600e5481565b60006112ac611d8883613434565b610e6a846112e5565b60009081526006602052604090205462010000900460ff1690565b62093a8081565b600c6020528160005260406000208181548110611dcc57fe5b90600052602060002001600091509150505481565b60009081526009602052604090205490565b6001600160a01b03166000908152600c602052604090205490565b6000908152600360205260409020600201546001600160a01b031690565b6000908152600660205260409020546301000000900460ff1690565b611e5182612689565b15611e5b57600080fd5b60008281526006602052604090205462010000900460ff161580611e9a5750600082815260066020526040902054640100000000900460ff1615156001145b611ea357600080fd5b6000828152600360205260409020600101546001600160a01b0316331480611ee457506000828152600360205260409020600201546001600160a01b031633145b611eed57600080fd5b6005600083815260200190815260200160002060040154600282604051602001808281526020019150506040516020818303038152906040526040518082805190602001908083835b60208310611f555780518252601f199092019160209182019101611f36565b51815160209384036101000a60001901801990921691161790526040519190930194509192505080830381855afa158015611f94573d6000803e3d6000fd5b5050506040513d6020811015611fa957600080fd5b5051148061207257506005600083815260200190815260200160002060080154600282604051602001808281526020019150506040516020818303038152906040526040518082805190602001908083835b6020831061201a5780518252601f199092019160209182019101611ffb565b51815160209384036101000a60001901801990921691161790526040519190930194509192505080830381855afa158015612059573d6000803e3d6000fd5b5050506040513d602081101561206e57600080fd5b5051145b61207b57600080fd5b6120848261128d565b42111561209057600080fd5b6000828152600660205260409020546301000000900460ff16156120b357600080fd5b6000828152600660208181526040808420805465ff0000000000191665010000000000178155600383528185204290850155600583529320600d01849055525462010000900460ff16612369576000828152600760205260409020546121d157600d546000838152600360209081526040808320600181015460079091015482517fa9059cbb0000000000000000000000000000000000000000000000000000000081526001600160a01b0392831660048201526024810191909152915194169363a9059cbb93604480840194938390030190829087803b15801561219757600080fd5b505af11580156121ab573d6000803e3d6000fd5b505050506040513d60208110156121c157600080fd5b50516121cc57600080fd5b612364565b60008054838252600760209081526040928390205483516301431c9560e71b8152600481019190915292516001600160a01b039092169263a18e4a809260248083019392829003018186803b15801561222957600080fd5b505afa15801561223d573d6000803e3d6000fd5b505050506040513d602081101561225357600080fd5b50516122ca576000805483825260036020526040808320600701548151637249992b60e11b8152600481019190915290516001600160a01b039092169263e49332569260248084019382900301818387803b1580156122b157600080fd5b505af11580156122c5573d6000803e3d6000fd5b505050505b600080548382526007602081815260408085205460039092528085209092015482517f1de26e160000000000000000000000000000000000000000000000000000000081526004810192909252602482015290516001600160a01b0390921692631de26e169260448084019382900301818387803b15801561234b57600080fd5b505af115801561235f573d6000803e3d6000fd5b505050505b610f85565b60008281526006602052604090205462010000900460ff16151560011415610f855760008281526007602052604090205461245857600d546000838152600360205260409020600101546001600160a01b039182169163a9059cbb91166123cf85613434565b6040518363ffffffff1660e01b815260040180836001600160a01b03166001600160a01b0316815260200182815260200192505050602060405180830381600087803b15801561241e57600080fd5b505af1158015612432573d6000803e3d6000fd5b505050506040513d602081101561244857600080fd5b505161245357600080fd5b6125d4565b60008054838252600760209081526040928390205483516301431c9560e71b8152600481019190915292516001600160a01b039092169263a18e4a809260248083019392829003018186803b1580156124b057600080fd5b505afa1580156124c4573d6000803e3d6000fd5b505050506040513d60208110156124da57600080fd5b5051612551576000805483825260036020526040808320600701548151637249992b60e11b8152600481019190915290516001600160a01b039092169263e49332569260248084019382900301818387803b15801561253857600080fd5b505af115801561254c573d6000803e3d6000fd5b505050505b6000805483825260076020526040909120546001600160a01b0390911690631de26e169061257e85613434565b6040518363ffffffff1660e01b81526004018083815260200182815260200192505050600060405180830381600087803b1580156125bb57600080fd5b505af11580156125cf573d6000803e3d6000fd5b505050505b600d546000838152600360205260409020600201546001600160a01b039182169163a9059cbb9116612605856112e5565b6040518363ffffffff1660e01b815260040180836001600160a01b03166001600160a01b0316815260200182815260200192505050602060405180830381600087803b15801561265457600080fd5b505af1158015612668573d6000803e3d6000fd5b505050506040513d602081101561267e57600080fd5b5051610f8557600080fd5b60009081526006602052604090205465010000000000900460ff1690565b6126b082612689565b156126ba57600080fd5b60008281526006602052604090205460ff1615156001146126da57600080fd5b60008281526006602052604090205460ff61010090910416151560011461270057600080fd5b60008281526006602052604090205462010000900460ff161561272257600080fd5b6005600083815260200190815260200160002060000154600282604051602001808281526020019150506040516020818303038152906040526040518082805190602001908083835b6020831061278a5780518252601f19909201916020918201910161276b565b51815160209384036101000a60001901801990921691161790526040519190930194509192505080830381855afa1580156127c9573d6000803e3d6000fd5b5050506040513d60208110156127de57600080fd5b5051146127ea57600080fd5b600d546000838152600360205260409020546001600160a01b039182169163a9059cbb9116612818856131d5565b6040518363ffffffff1660e01b815260040180836001600160a01b03166001600160a01b0316815260200182815260200192505050602060405180830381600087803b15801561286757600080fd5b505af115801561287b573d6000803e3d6000fd5b505050506040513d602081101561289157600080fd5b505161289c57600080fd5b6000918252600660209081526040808420805462ff00001916620100001790556005909152909120600c0155565b60066020526000908152604090205460ff8082169161010081048216916201000082048116916301000000810482169164010000000082048116916501000000000090041686565b61291b81612689565b1561292557600080fd5b61292e81611e2c565b1561293857600080fd5b6129418161128d565b421161294c57600080fd5b600081815260066020526040902054640100000000900460ff16151560011461297457600080fd5b6000818152600360205260409020546001600160a01b0316331461299757600080fd5b6000818152600660208181526040808420805465ff000000000019166501000000000017905560039091529091204291810191909155600d5490546001600160a01b039182169163a9059cbb91166129ee84611d7a565b6040518363ffffffff1660e01b815260040180836001600160a01b03166001600160a01b0316815260200182815260200192505050602060405180830381600087803b158015612a3d57600080fd5b505af1158015612a51573d6000803e3d6000fd5b505050506040513d6020811015612a6757600080fd5b5051612a7257600080fd5b60008054828252600760209081526040928390205483516301431c9560e71b8152600481019190915292516001600160a01b039092169263a18e4a809260248083019392829003018186803b158015612aca57600080fd5b505afa158015612ade573d6000803e3d6000fd5b505050506040513d6020811015612af457600080fd5b5051612bc6576000805482825260036020526040808320600701548151637249992b60e11b8152600481019190915290516001600160a01b039092169263e49332569260248084019382900301818387803b158015612b5257600080fd5b505af1158015612b66573d6000803e3d6000fd5b505060008054604080516333549b1b60e01b815290516001600160a01b0390921694506333549b1b9350600480820193929182900301818387803b158015612bad57600080fd5b505af1158015612bc1573d6000803e3d6000fd5b505050505b50565b6000908152600360205260409020600c015490565b600090815260066020526040902054610100900460ff1690565b60046020908152600091825260409182902080548351601f60026000196101006001861615020190931692909204918201849004840281018401909452808452909291839190830182828015612c8f5780601f10612c6457610100808354040283529160200191612c8f565b820191906000526020600020905b815481529060010190602001808311612c7257829003601f168201915b505050505090806001018054600181600116156101000203166002900480601f016020809104026020016040519081016040528092919081815260200182805460018160011615610100020316600290048015612d2d5780601f10612d0257610100808354040283529160200191612d2d565b820191906000526020600020905b815481529060010190602001808311612d1057829003601f168201915b50505060028085018054604080516020601f6000196101006001871615020190941695909504928301859004850281018501909152818152959695945090925090830182828015612dbf5780601f10612d9457610100808354040283529160200191612dbf565b820191906000526020600020905b815481529060010190602001808311612da257829003601f168201915b5050505050905083565b60006112ac612dd783610fa4565b670ce80612991d00006134b6565b600f546001600160a01b03163314612dfc57600080fd5b6002546001600160a01b031615612e1257600080fd5b6002805473ffffffffffffffffffffffffffffffffffffffff19166001600160a01b0392909216919091179055565b600a5481565b60006112ac82612e5a6012600e546134de565b600a0a6134ee565b670ce80612991d000081565b6202a30081565b60006112ac612e8383611d7a565b610e6a846112d0565b6000908152600360205260409020600b015490565b60009081526006602052604090205460ff1690565b6000908152600360205260409020600101546001600160a01b031690565b60008181526006602052604090205460ff161515600114612ef457600080fd5b6000818152600360205260409020600101546001600160a01b03163314612f1a57600080fd5b612f23816112b2565b421115612f2f57600080fd5b6000908152600660205260409020805461ff001916610100179055565b60076020526000908152604090205481565b60006112ac612f6c83611d7a565b612f7584611de1565b6134de565b600090815260066020526040902054640100000000900460ff1690565b611c2081565b6000818152600560205260409020600e015460ff16612fbb57600080fd5b60008181526006602052604090205460ff1615612fd757600080fd5b600d546001600160a01b03166323b872dd3330612ff3856131d5565b6040518463ffffffff1660e01b815260040180846001600160a01b03166001600160a01b03168152602001836001600160a01b03166001600160a01b031681526020018281526020019350505050602060405180830381600087803b15801561305b57600080fd5b505af115801561306f573d6000803e3d6000fd5b505050506040513d602081101561308557600080fd5b505161309057600080fd5b6000908152600660205260409020805460ff19166001179055565b600360208190526000918252604090912080546001820154600283015493830154600484015460058501546006860154600787015460088801546009890154600a8a0154600b8b0154600c909b01546001600160a01b039a8b169c998b169b99909a1699979896979596949593949293919290918d565b60006112ac61313083611315565b6202a3006134a6565b6001600160a01b03166000908152600b602052604090205490565b6005602052600090815260409020805460048201546008830154600c840154600d850154600e90950154939492939192909160ff1686565b60006112ac6131ae6131a96131a0856131d5565b612f7586611de1565b61348b565b6131b784612bc9565b613505565b600b6020528160005260406000208181548110611dcc57fe5b60009081526003602052604090206007015490565b60009081526003602052604090206008015490565b600061320a8261318c565b61321383610fa4565b101592915050565b60096020526000908152604090205481565b610f858282611e48565b60008a8152600560205260408120600e015460ff161561325657600080fd5b60008b8152600360205260409020546001600160a01b0316331480613294575060008b8152600360205260409020600101546001600160a01b031633145b806132a957506000546001600160a01b031633145b6132b257600080fd5b60008b8152600560209081526040918290208c35905581516060810183528c82013581528c830135918101919091529081018b60036020020135815250600560008d8152602001908152602001600020600101906003613313929190613559565b5060008b81526005602081815260408084208d3560048201558151606080820184528f85013582528f840135828601528f013592810192909252938f90529082905261336492909101906003613559565b5060008b81526005602081815260408084208c3560088201558151606080820184528e85013582528e840135828601528e013592810192909252938f90529190526133b491600901906003613559565b5060008b81526004602052604090206133ce908888613597565b5060008b81526004602052604090206133eb906001018686613597565b5060008b8152600460205260409020613408906002018484613597565b5060009a8b5260056020526040909a20600e01805460ff19166001179055509798975050505050505050565b60006112ac613442836131d5565b610e6a846131ea565b60006305f5e10061346d61345f8585613535565b60026305f5e1005b046134a6565b8161347457fe5b049392505050565b600d546001600160a01b031681565b60006112ac8261349e6012600e546134de565b600a0a613535565b808201828110156112ac57600080fd5b6000670de0b6b3a764000061346d6134ce8585613535565b6002670de0b6b3a7640000613467565b808203828111156112ac57600080fd5b60008082116134fc57600080fd5b81838161347457fe5b60006b033b2e3c9fd0803ce800000061346d6135218585613535565b60026b033b2e3c9fd0803ce8000000613467565b60008115806135505750508082028282828161354d57fe5b04145b6112ac57600080fd5b8260038101928215613587579160200282015b8281111561358757825182559160200191906001019061356c565b50613593929150613605565b5090565b828054600181600116156101000203166002900490600052602060002090601f016020900481019282601f106135d85782800160ff19823516178555613587565b82800160010185558215613587579182015b828111156135875782358255916020019190600101906135ea565b61361f91905b80821115613593576000815560010161360b565b9056fea265627a7a72315820d48676d4b0541539fafa9972c17e025476b7deae6ccf2d5d43990064dd67332764736f6c634300050c0032",
  "source": "import 'openzeppelin-solidity/contracts/token/ERC20/ERC20.sol';\nimport 'openzeppelin-solidity/contracts/math/SafeMath.sol';\n\nimport './FundsInterface.sol';\nimport './SalesInterface.sol';\nimport './DSMath.sol';\nimport './Medianizer.sol';\n\npragma solidity ^0.5.8;\n\ncontract Loans is DSMath {\n    FundsInterface funds;\n    Medianizer med;\n    SalesInterface sales;\n\n    uint256 public constant APPROVE_EXP_THRESHOLD = 2 hours;    // approval expiration threshold\n    uint256 public constant ACCEPT_EXP_THRESHOLD = 2 days;      // acceptance expiration threshold\n    uint256 public constant LIQUIDATION_EXP_THRESHOLD = 7 days; // liquidation expiration threshold\n    uint256 public constant SEIZURE_EXP_THRESHOLD = 2 days;     // seizable expiration threshold\n    uint256 public constant LIQUIDATION_DISCOUNT = 930000000000000000; // 93% (7% discount)\n\n    mapping (bytes32 => Loan)         public loans;\n    mapping (bytes32 => PubKeys)      public pubKeys;      // PubKeys\n    mapping (bytes32 => SecretHashes) public secretHashes; // Secret Hashes\n    mapping (bytes32 => Bools)        public bools;        // Boolean state of Loan\n    mapping (bytes32 => bytes32)      public fundIndex;    // Mapping of Loan Index to Fund Index\n    mapping (bytes32 => ERC20)        public tokes;        // Mapping of Loan index to Token contract\n    mapping (bytes32 => uint256)      public repayments;   // Amount paid back in a Loan\n    uint256                           public loanIndex;    // Current Loan Index\n\n    mapping (address => bytes32[])    public borrowerLoans;\n    mapping (address => bytes32[])    public lenderLoans;\n\n    ERC20 public token; // ERC20 Debt Stablecoin\n    uint256 public decimals;\n\n    address deployer;\n\n    /**\n     * @notice Container for loan information\n     * @member borrower The address of the borrower\n     * @member lender The address of the lender\n     * @member arbiter The address of the arbiter\n     * @member createAt The creation timestamp of the loan\n     * @member loanExpiration The timestamp for the end of the loan\n     * @member principal The amount of principal in tokens to be paid back at the end of the loan\n     * @member interest The amount of interest in tokens to be paid back by the end of the loan\n     * @member penalty The amount of tokens to be paid as a penalty for defaulting or allowing the loan to be liquidated\n     * @member fee The amount of tokens paid to the arbiter\n     * @member collateral The amount of collateral in satoshis\n     * @member liquidationRatio The ratio of collateral to debt where the loan can be liquidated\n     */\n    struct Loan {\n    \taddress borrower;\n        address lender;\n        address arbiter;\n        uint256 createdAt;\n        uint256 loanExpiration;\n        uint256 requestTimestamp;\n        uint256 closedTimestamp;\n        uint256 principal;\n        uint256 interest;\n        uint256 penalty;\n        uint256 fee;\n        uint256 collateral;\n        uint256 liquidationRatio;\n    }\n\n    /**\n     * @notice Container for Bitcoin public key information\n     * @member borrowerPubKey Borrower Bitcoin Public Key\n     * @member lenderPubKey Lender Bitcoin Public Key\n     * @member arbiterPubKey Arbiter Bitcoin Public Key\n     *\n     *         Note: This struct is unnecessary for the Ethereum\n     *               contract itself, but is used as a point of \n     *               reference for generating the correct P2SH for\n     *               locking Bitcoin collateral\n     */\n    struct PubKeys {\n        bytes   borrowerPubKey;\n        bytes   lenderPubKey;\n        bytes   arbiterPubKey;\n    }\n\n    /**\n     * @notice Container for borrower, lender, and arbiter Secret Hashes\n     * @member secretHashA1 Borrower Secret Hash for the loan\n     * @member secretHashAs Borrower Secret Hashes for up to three liquidations\n     * @member secretHashB1 Lender Secret Hash for the loan\n     * @member secretHashBs Lender Secret Hashes for up to three liquidations\n     * @member secretHashC1 Arbiter Secret Hash for the loan\n     * @member secretHashCs Arbiter Secret Hashes for up to three liquidations\n     * @member withdrawSecret Secret A1 when revealed by borrower\n     * @member acceptSecret Secret B1 or Secret C1 when revelaed by the lender or arbiter\n     * @member set Secret Hashes set for particular loan\n     */\n    struct SecretHashes {\n    \tbytes32    secretHashA1;\n    \tbytes32[3] secretHashAs;\n    \tbytes32    secretHashB1;\n    \tbytes32[3] secretHashBs;\n    \tbytes32    secretHashC1;\n    \tbytes32[3] secretHashCs;\n        bytes32    withdrawSecret;\n        bytes32    acceptSecret;\n    \tbool       set;\n    }\n\n    /**\n     * @notice Container for states of loan agreement\n     * @member funded Indicates that the loan has been funded with tokens\n     * @member approved Indicates that the lender has approved locking of the Bitcoin collateral\n     * @member withdrawn Indicates that the borrower has withdrawn the tokens from the contract\n     * @member sale Indicates that the collateral liquidation process has started\n     * @member paid Indicates that the loan has been repaid\n     * @member off Indicates that the loan has been cancelled or the loan repayment has been accepted\n     */\n    struct Bools {\n    \tbool funded;\n    \tbool approved;\n    \tbool withdrawn;\n    \tbool sale;\n    \tbool paid;\n    \tbool off;\n    }\n\n    event Create(bytes32 loan);\n\n    function borrower(bytes32 loan) public view returns (address) {\n        return loans[loan].borrower;\n    }\n\n    function lender(bytes32 loan) public view returns (address) {\n        return loans[loan].lender;\n    }\n\n    function arbiter(bytes32 loan)  public view returns (address) {\n        return loans[loan].arbiter;\n    }\n\n    function approveExpiration(bytes32 loan) public view returns (uint256) { // Approval Expiration\n        return add(loans[loan].createdAt, APPROVE_EXP_THRESHOLD);\n    }\n\n    // TODO: add loanExpiration\n\n    function acceptExpiration(bytes32 loan) public view returns (uint256) { // Acceptance Expiration\n        return add(loans[loan].loanExpiration, ACCEPT_EXP_THRESHOLD);\n    }\n\n    function liquidationExpiration(bytes32 loan) public view returns (uint256) { // Liquidation Expiration\n        return add(loans[loan].loanExpiration, LIQUIDATION_EXP_THRESHOLD);\n    }\n\n    function seizureExpiration(bytes32 loan) public view returns (uint256) {\n        return add(liquidationExpiration(loan), SEIZURE_EXP_THRESHOLD);\n    }\n\n    function principal(bytes32 loan) public view returns (uint256) {\n        return loans[loan].principal;\n    }\n\n    function interest(bytes32 loan) public view returns (uint256) {\n        return loans[loan].interest;\n    }\n\n    function fee(bytes32 loan) public view returns (uint256) {\n        return loans[loan].fee;\n    }\n\n    function penalty(bytes32 loan) public view returns (uint256) {\n        return loans[loan].penalty;\n    }\n\n    function collateral(bytes32 loan) public view returns (uint256) {\n        return loans[loan].collateral;\n    }\n\n    function repaid(bytes32 loan) public view returns (uint256) { // Amount paid back for loan\n        return repayments[loan];\n    }\n\n    function liquidationRatio(bytes32 loan) public view returns (uint256) {\n        return loans[loan].liquidationRatio;\n    }\n\n    function owedToLender(bytes32 loan) public view returns (uint256) { // Amount lent by Lender\n        return add(principal(loan), interest(loan));\n    }\n\n    function owedForLoan(bytes32 loan) public view returns (uint256) { // Amount owed\n        return add(owedToLender(loan), fee(loan));\n    }\n\n    function owedForLiquidation(bytes32 loan) public view returns (uint256) { // Deductible amount from collateral\n        return add(owedForLoan(loan), penalty(loan));\n    }\n\n    function owing(bytes32 loan) public view returns (uint256) {\n        return sub(owedForLoan(loan), repaid(loan));\n    }\n\n    function funded(bytes32 loan) public view returns (bool) {\n        return bools[loan].funded;\n    }\n\n    function approved(bytes32 loan) public view returns (bool) {\n        return bools[loan].approved;\n    }\n\n    function withdrawn(bytes32 loan) public view returns (bool) {\n        return bools[loan].withdrawn;\n    }\n\n    function sale(bytes32 loan) public view returns (bool) {\n        return bools[loan].sale;\n    }\n\n    function paid(bytes32 loan) public view returns (bool) {\n        return bools[loan].paid;\n    }\n\n    function off(bytes32 loan) public view returns (bool) {\n        return bools[loan].off;\n    }\n\n    function dmul(uint x) public view returns (uint256) {\n        return mul(x, (10 ** sub(18, decimals)));\n    }\n\n    function ddiv(uint x) public view returns (uint256) {\n        return div(x, (10 ** sub(18, decimals)));\n    }\n\n    function borrowerLoanCount(address borrower_) public view returns (uint256) {\n        return borrowerLoans[borrower_].length;\n    }\n\n    function lenderLoanCount(address lender_) public view returns (uint256) {\n        return lenderLoans[lender_].length;\n    }\n\n    function collateralValue(bytes32 loan) public view returns (uint256) { // Current Collateral Value\n        (bytes32 val, bool set) = med.peek();\n        require(set);\n        uint256 price = uint(val);\n        return cmul(price, collateral(loan)); // Multiply value dependent on number of decimals with currency\n    }\n\n    function minCollateralValue(bytes32 loan) public view returns (uint256) {  // Minimum Collateral Value\n        return rmul(dmul(sub(principal(loan), repaid(loan))), liquidationRatio(loan));\n    }\n\n    function discountCollateralValue(bytes32 loan) public view returns (uint256) {\n        return wmul(collateralValue(loan), LIQUIDATION_DISCOUNT);\n    }\n\n    function safe(bytes32 loan) public view returns (bool) { // Loan is safe from Liquidation\n        return collateralValue(loan) >= minCollateralValue(loan);\n    }\n\n    constructor (FundsInterface funds_, Medianizer med_, ERC20 token_, uint256 decimals_) public {\n        deployer = msg.sender;\n    \tfunds    = funds_;\n    \tmed      = med_;\n        token    = token_;\n        decimals = decimals_;\n        require(token.approve(address(funds), 2**256-1));\n    }\n\n    /**\n     * @dev Sets Sales contract\n     * @param sales_ Address of Sales contract\n     */\n    function setSales(SalesInterface sales_) external {\n        require(msg.sender == deployer);\n        require(address(sales) == address(0));\n        sales = sales_;\n    }\n    \n    /**\n     * @notice Creates a new loan agreement\n     * @param loanExpiration_ The timestamp for the end of the loan\n     * @param usrs_ Array of three addresses containing the borrower, lender, and optional arbiter address\n     * @param vals_ Array of six uints containing loan principal, interest, liquidation penalty, optional arbiter fee, collateral amount, liquidation ratio\n     * @param fundIndex_ The optional Fund Index\n     */\n    function create(\n        uint256             loanExpiration_,\n        address[3] calldata usrs_,\n        uint256[7] calldata vals_,\n        bytes32             fundIndex_\n    ) external returns (bytes32 loan) {\n        if (fundIndex_ != bytes32(0)) { require(funds.lender(fundIndex_) == usrs_[1]); }\n        loanIndex = add(loanIndex, 1);\n        loan = bytes32(loanIndex);\n        loans[loan].createdAt        = now;\n        loans[loan].loanExpiration   = loanExpiration_;\n        loans[loan].borrower         = usrs_[0];\n        loans[loan].lender           = usrs_[1];\n        loans[loan].arbiter          = usrs_[2];\n        loans[loan].principal        = vals_[0];\n        loans[loan].interest         = vals_[1];\n        loans[loan].penalty          = vals_[2];\n        loans[loan].fee              = vals_[3];\n        loans[loan].collateral       = vals_[4];\n        loans[loan].liquidationRatio = vals_[5];\n        loans[loan].requestTimestamp = vals_[6];\n        fundIndex[loan]              = fundIndex_;\n        secretHashes[loan].set       = false;\n        borrowerLoans[usrs_[0]].push(bytes32(loanIndex));\n        lenderLoans[usrs_[1]].push(bytes32(loanIndex));\n\n        emit Create(loan);\n    }\n\n    /**\n     * @notice Set Secret Hashes for loan agreement\n     * @param loan The Id of the Loan\n     * @param borrowerSecretHashes Borrower secret hashes\n     * @param lenderSecretHashes Lender secret hashes\n     * @param arbiterSecretHashes Arbiter secret hashes\n     * @param borrowerPubKey_ Borrower Bitcoin Public Key\n     * @param lenderPubKey_ Lender Bitcoin Public Key\n     * @param arbiterPubKey_ Arbiter Bitcoin Public Key\n     */\n    function setSecretHashes(\n    \tbytes32             loan,\n        bytes32[4] calldata borrowerSecretHashes,\n        bytes32[4] calldata lenderSecretHashes,\n        bytes32[4] calldata arbiterSecretHashes,\n\t\tbytes      calldata borrowerPubKey_,\n        bytes      calldata lenderPubKey_,\n        bytes      calldata arbiterPubKey_\n\t) external returns (bool) {\n\t\trequire(!secretHashes[loan].set);\n\t\trequire(msg.sender == loans[loan].borrower || msg.sender == loans[loan].lender || msg.sender == address(funds));\n\t\tsecretHashes[loan].secretHashA1 = borrowerSecretHashes[0];\n\t\tsecretHashes[loan].secretHashAs = [ borrowerSecretHashes[1], borrowerSecretHashes[2], borrowerSecretHashes[3] ];\n\t\tsecretHashes[loan].secretHashB1 = lenderSecretHashes[0];\n\t\tsecretHashes[loan].secretHashBs = [ lenderSecretHashes[1], lenderSecretHashes[2], lenderSecretHashes[3] ];\n\t\tsecretHashes[loan].secretHashC1 = arbiterSecretHashes[0];\n\t\tsecretHashes[loan].secretHashCs = [ arbiterSecretHashes[1], arbiterSecretHashes[2], arbiterSecretHashes[3] ];\n\t\tpubKeys[loan].borrowerPubKey    = borrowerPubKey_;\n\t\tpubKeys[loan].lenderPubKey      = lenderPubKey_;\n        pubKeys[loan].arbiterPubKey       = arbiterPubKey_;\n        secretHashes[loan].set          = true;\n\t}\n\n    /**\n     * @notice Lender sends tokens to the loan agreement\n     * @param loan The Id of the Loan\n     */\n\tfunction fund(bytes32 loan) external {\n\t\trequire(secretHashes[loan].set);\n    \trequire(bools[loan].funded == false);\n    \trequire(token.transferFrom(msg.sender, address(this), principal(loan)));\n    \tbools[loan].funded = true;\n    }\n\n    /**\n     * @notice Lender approves locking of Bitcoin collateral\n     * @param loan The Id of the Loan\n     */\n    function approve(bytes32 loan) external { // Approve locking of collateral\n    \trequire(bools[loan].funded == true);\n    \trequire(loans[loan].lender == msg.sender);\n    \trequire(now                <= approveExpiration(loan));\n    \tbools[loan].approved = true;\n    }\n\n    /**\n     * @notice Borrower withdraws loan\n     * @param loan The Id of the Loan\n     * @param secretA1 Secret A1 provided by the borrower\n     */\n    function withdraw(bytes32 loan, bytes32 secretA1) external {\n    \trequire(!off(loan));\n    \trequire(bools[loan].funded == true);\n    \trequire(bools[loan].approved == true);\n        require(bools[loan].withdrawn == false);\n    \trequire(sha256(abi.encodePacked(secretA1)) == secretHashes[loan].secretHashA1);\n    \trequire(token.transfer(loans[loan].borrower, principal(loan)));\n    \tbools[loan].withdrawn = true;\n        secretHashes[loan].withdrawSecret = secretA1;\n    }\n\n    /**\n     * @notice Lender sends tokens to the loan agreement\n     * @param loan The Id of the Loan\n     * @param amount The amount of tokens to repay\n     *\n     *        Note: Anyone can repay the loan\n     */\n    function repay(bytes32 loan, uint256 amount) external {\n    \trequire(!off(loan));\n        require(!sale(loan));\n    \trequire(bools[loan].withdrawn     == true);\n    \trequire(now                       <= loans[loan].loanExpiration);\n        require(add(amount, repaid(loan)) <= owedForLoan(loan));\n    \trequire(token.transferFrom(msg.sender, address(this), amount));\n    \trepayments[loan] = add(amount, repayments[loan]);\n    \tif (repaid(loan) == owedForLoan(loan)) {\n    \t\tbools[loan].paid = true;\n    \t}\n    }\n\n    /**\n     * @notice Borrower refunds tokens in the case that Lender doesn't accept loan repayment\n     * @dev Send tokens back to the Borrower, and close Loan\n     * @param loan The Id of the Loan\n     *\n     *        Note: If Lender does not accept repayment, liquidation cannot occur\n     */\n    function refund(bytes32 loan) external {\n    \trequire(!off(loan));\n        require(!sale(loan));\n    \trequire(now              >  acceptExpiration(loan));\n    \trequire(bools[loan].paid == true);\n    \trequire(msg.sender       == loans[loan].borrower);\n        bools[loan].off = true;\n        loans[loan].closedTimestamp = now;\n    \trequire(token.transfer(loans[loan].borrower, owedForLoan(loan)));\n        if (funds.custom(fundIndex[loan]) == false) {\n            funds.decreaseTotalBorrow(loans[loan].principal);\n            funds.calcGlobalInterest();\n        }\n    }\n\n    /**\n     * @notice Lender cancels loan after Borrower locks collateral\n     * @dev Lender cancels loan and principal is sent back to the Lender / Loan Fund\n     * @param loan The Id of the Loan\n     * @param secret Secret B1 revealed by the Lender\n     */\n    function cancel(bytes32 loan, bytes32 secret) external {\n        accept(loan, secret);\n    }\n\n    /**\n     * @notice Lender accepts loan repayment\n     * @dev Lender accepts loan repayment and principal + interest are sent back to the Lender / Loan Fund\n     * @param loan The Id of the Loan\n     * @param secret Secret B1 revealed by the Lender\n     */\n    function accept(bytes32 loan, bytes32 secret) public {\n        require(!off(loan));\n        require(bools[loan].withdrawn == false   || bools[loan].paid == true);\n        require(msg.sender == loans[loan].lender || msg.sender == loans[loan].arbiter);\n        require(sha256(abi.encodePacked(secret)) == secretHashes[loan].secretHashB1 || sha256(abi.encodePacked(secret)) == secretHashes[loan].secretHashC1);\n        require(now                              <= acceptExpiration(loan));\n        require(bools[loan].sale                 == false);\n        bools[loan].off = true;\n        loans[loan].closedTimestamp = now;\n        secretHashes[loan].acceptSecret = secret;\n        if (bools[loan].withdrawn == false) {\n            if (fundIndex[loan] == bytes32(0)) {\n                require(token.transfer(loans[loan].lender, loans[loan].principal));\n            } else {\n                if (funds.custom(fundIndex[loan]) == false) {\n                    funds.decreaseTotalBorrow(loans[loan].principal);\n                }\n                funds.deposit(fundIndex[loan], loans[loan].principal);\n            }\n        } else if (bools[loan].withdrawn == true) {\n            if (fundIndex[loan] == bytes32(0)) {\n                require(token.transfer(loans[loan].lender, owedToLender(loan)));\n            } else {\n                if (funds.custom(fundIndex[loan]) == false) {\n                    funds.decreaseTotalBorrow(loans[loan].principal);\n                }\n                funds.deposit(fundIndex[loan], owedToLender(loan));\n            }\n            require(token.transfer(loans[loan].arbiter, fee(loan)));\n        }\n    }\n\n    /**\n     * @notice Any third party starts liquidation of the Bitcoin collateral by providing tokens with the intention to buy at a discount\n     * @param loan The Id of the Loan\n     * @param secretHash The Secret Hash D1 provided by the liquidator\n     * @param pubKeyHash The Bitcoin Public Key Hash of the liquidator\n     * @return sale_ The Id of the Sale (Liquidation)\n     */\n    function liquidate(bytes32 loan, bytes32 secretHash, bytes20 pubKeyHash) external returns (bytes32 sale_) {\n    \trequire(!off(loan));\n        require(bools[loan].withdrawn == true);\n        require(msg.sender != loans[loan].borrower && msg.sender != loans[loan].lender);\n    \tif (sales.next(loan) == 0) {\n    \t\tif (now > loans[loan].loanExpiration) {\n\t    \t\trequire(bools[loan].paid == false);\n\t\t\t} else {\n\t\t\t\trequire(!safe(loan));\n\t\t\t}\n            if (funds.custom(fundIndex[loan]) == false) {\n                funds.decreaseTotalBorrow(loans[loan].principal);\n                funds.calcGlobalInterest();\n            }\n\t\t} else {\n\t\t\trequire(sales.next(loan) < 3);\n            require(now > sales.settlementExpiration(sales.saleIndexByLoan(loan, sales.next(loan) - 1))); // Can only start liquidation after settlement expiration of pervious liquidation\n            require(!sales.accepted(sales.saleIndexByLoan(loan, sales.next(loan) - 1))); // Can only start liquidation again if previous liquidation discountBuy wasn't taken\n\t\t}\n        require(token.balanceOf(msg.sender) >= ddiv(discountCollateralValue(loan)));\n        require(token.transferFrom(msg.sender, address(sales), ddiv(discountCollateralValue(loan))));\n        SecretHashes storage h = secretHashes[loan];\n        uint256 i = sales.next(loan);\n\t\tsale_ = sales.create(loan, loans[loan].borrower, loans[loan].lender, loans[loan].arbiter, msg.sender, h.secretHashAs[i], h.secretHashBs[i], h.secretHashCs[i], secretHash, pubKeyHash);\n        if (bools[loan].sale == false) { require(token.transfer(address(sales), repaid(loan))); }\n\t\tbools[loan].sale = true;\n    }\n}\n",
  "sourcePath": "/Users/shain/repositories/insta-wealth/contracts/Loans.sol",
  "compiler": {
    "name": "solc",
    "version": "0.5.12+commit.7709ece9.Emscripten.clang"
  },
  "schemaVersion": "3.0.16",
  "updatedAt": "2019-10-22T23:22:54.304Z",
  "devdoc": {
    "methods": {
      "accept(bytes32,bytes32)": {
        "details": "Lender accepts loan repayment and principal + interest are sent back to the Lender / Loan Fund",
        "params": {
          "loan": "The Id of the Loan",
          "secret": "Secret B1 revealed by the Lender"
        }
      },
      "approve(bytes32)": {
        "params": {
          "loan": "The Id of the Loan"
        }
      },
      "cancel(bytes32,bytes32)": {
        "details": "Lender cancels loan and principal is sent back to the Lender / Loan Fund",
        "params": {
          "loan": "The Id of the Loan",
          "secret": "Secret B1 revealed by the Lender"
        }
      },
      "create(uint256,address[3],uint256[7],bytes32)": {
        "params": {
          "fundIndex_": "The optional Fund Index",
          "loanExpiration_": "The timestamp for the end of the loan",
          "usrs_": "Array of three addresses containing the borrower, lender, and optional arbiter address",
          "vals_": "Array of six uints containing loan principal, interest, liquidation penalty, optional arbiter fee, collateral amount, liquidation ratio"
        }
      },
      "fund(bytes32)": {
        "params": {
          "loan": "The Id of the Loan"
        }
      },
      "liquidate(bytes32,bytes32,bytes20)": {
        "params": {
          "loan": "The Id of the Loan",
          "pubKeyHash": "The Bitcoin Public Key Hash of the liquidator",
          "secretHash": "The Secret Hash D1 provided by the liquidator"
        },
        "return": "sale_ The Id of the Sale (Liquidation)"
      },
      "refund(bytes32)": {
        "details": "Send tokens back to the Borrower, and close Loan",
        "params": {
          "loan": "The Id of the Loan     *        Note: If Lender does not accept repayment, liquidation cannot occur"
        }
      },
      "repay(bytes32,uint256)": {
        "params": {
          "amount": "The amount of tokens to repay     *        Note: Anyone can repay the loan",
          "loan": "The Id of the Loan"
        }
      },
      "setSales(address)": {
        "details": "Sets Sales contract",
        "params": {
          "sales_": "Address of Sales contract"
        }
      },
      "setSecretHashes(bytes32,bytes32[4],bytes32[4],bytes32[4],bytes,bytes,bytes)": {
        "params": {
          "arbiterPubKey_": "Arbiter Bitcoin Public Key",
          "arbiterSecretHashes": "Arbiter secret hashes",
          "borrowerPubKey_": "Borrower Bitcoin Public Key",
          "borrowerSecretHashes": "Borrower secret hashes",
          "lenderPubKey_": "Lender Bitcoin Public Key",
          "lenderSecretHashes": "Lender secret hashes",
          "loan": "The Id of the Loan"
        }
      },
      "withdraw(bytes32,bytes32)": {
        "params": {
          "loan": "The Id of the Loan",
          "secretA1": "Secret A1 provided by the borrower"
        }
      }
    }
  },
  "userdoc": {
    "methods": {
      "accept(bytes32,bytes32)": {
        "notice": "Lender accepts loan repayment"
      },
      "approve(bytes32)": {
        "notice": "Lender approves locking of Bitcoin collateral"
      },
      "cancel(bytes32,bytes32)": {
        "notice": "Lender cancels loan after Borrower locks collateral"
      },
      "create(uint256,address[3],uint256[7],bytes32)": {
        "notice": "Creates a new loan agreement"
      },
      "fund(bytes32)": {
        "notice": "Lender sends tokens to the loan agreement"
      },
      "liquidate(bytes32,bytes32,bytes20)": {
        "notice": "Any third party starts liquidation of the Bitcoin collateral by providing tokens with the intention to buy at a discount"
      },
      "refund(bytes32)": {
        "notice": "Borrower refunds tokens in the case that Lender doesn't accept loan repayment"
      },
      "repay(bytes32,uint256)": {
        "notice": "Lender sends tokens to the loan agreement"
      },
      "setSecretHashes(bytes32,bytes32[4],bytes32[4],bytes32[4],bytes,bytes,bytes)": {
        "notice": "Set Secret Hashes for loan agreement"
      },
      "withdraw(bytes32,bytes32)": {
        "notice": "Borrower withdraws loan"
      }
    }
  }
}