{
  "contractName": "PriceOracleProxy",
  "abi": [
    {
      "inputs": [
        {
          "internalType": "address",
          "name": "comptroller_",
          "type": "address"
        },
        {
          "internalType": "address",
          "name": "v1PriceOracle_",
          "type": "address"
        },
        {
          "internalType": "address",
          "name": "cEtherAddress_",
          "type": "address"
        }
      ],
      "payable": false,
      "stateMutability": "nonpayable",
      "type": "constructor"
    },
    {
      "constant": true,
      "inputs": [],
      "name": "cEtherAddress",
      "outputs": [
        {
          "internalType": "address",
          "name": "",
          "type": "address"
        }
      ],
      "payable": false,
      "stateMutability": "view",
      "type": "function"
    },
    {
      "constant": true,
      "inputs": [],
      "name": "comptroller",
      "outputs": [
        {
          "internalType": "contract Comptroller",
          "name": "",
          "type": "address"
        }
      ],
      "payable": false,
      "stateMutability": "view",
      "type": "function"
    },
    {
      "constant": true,
      "inputs": [],
      "name": "isPriceOracle",
      "outputs": [
        {
          "internalType": "bool",
          "name": "",
          "type": "bool"
        }
      ],
      "payable": false,
      "stateMutability": "view",
      "type": "function"
    },
    {
      "constant": true,
      "inputs": [],
      "name": "v1PriceOracle",
      "outputs": [
        {
          "internalType": "contract V1PriceOracleInterface",
          "name": "",
          "type": "address"
        }
      ],
      "payable": false,
      "stateMutability": "view",
      "type": "function"
    },
    {
      "constant": true,
      "inputs": [
        {
          "internalType": "contract CToken",
          "name": "cToken",
          "type": "address"
        }
      ],
      "name": "getUnderlyingPrice",
      "outputs": [
        {
          "internalType": "uint256",
          "name": "",
          "type": "uint256"
        }
      ],
      "payable": false,
      "stateMutability": "view",
      "type": "function"
    }
  ],
  "bytecode": "0x608060405234801561001057600080fd5b506040516103c43803806103c48339818101604052606081101561003357600080fd5b5080516020820151604090920151600180546001600160a01b039384166001600160a01b03199182161790915560008054948416948216949094179093556002805492909116919092161790556103358061008f6000396000f3fe608060405234801561001057600080fd5b50600436106100675760003560e01c8063de836acf11610050578063de836acf146100ac578063fc57d4df146100b4578063fe10c98d146100ec57610067565b80635fe3b5671461006c57806366331bba14610090575b600080fd5b6100746100f4565b604080516001600160a01b039092168252519081900360200190f35b610098610103565b604080519115158252519081900360200190f35b610074610108565b6100da600480360360208110156100ca57600080fd5b50356001600160a01b0316610117565b60408051918252519081900360200190f35b6100746102f1565b6001546001600160a01b031681565b600181565b6002546001600160a01b031681565b600154604080517f8e8f294b0000000000000000000000000000000000000000000000000000000081526001600160a01b0380851660048301528251600094869486949390911692638e8f294b9260248083019392829003018186803b15801561018057600080fd5b505afa158015610194573d6000803e3d6000fd5b505050506040513d60408110156101aa57600080fd5b50519050806101be576000925050506102ec565b6002546001600160a01b03838116911614156101e657670de0b6b3a7640000925050506102ec565b6000826001600160a01b0316636f307dc36040518163ffffffff1660e01b815260040160206040518083038186803b15801561022157600080fd5b505afa158015610235573d6000803e3d6000fd5b505050506040513d602081101561024b57600080fd5b5051600054604080517f5e9a523c0000000000000000000000000000000000000000000000000000000081526001600160a01b0380851660048301529151939450911691635e9a523c91602480820192602092909190829003018186803b1580156102b557600080fd5b505afa1580156102c9573d6000803e3d6000fd5b505050506040513d60208110156102df57600080fd5b505193506102ec92505050565b919050565b6000546001600160a01b03168156fea265627a7a723158204e7bb8af7e6dc8d044eca3b92fc164d5f772c4822bd56b68a0b9aad5af947da064736f6c634300050c0032",
  "source": "import './Comptroller.sol';\nimport './PriceOracle.sol';\nimport './CErc20.sol';\n\npragma solidity ^0.5.8;\n\ninterface V1PriceOracleInterface {\n    function assetPrices(address asset) external view returns (uint);\n}\n\ncontract PriceOracleProxy is PriceOracle {\n    /**\n     * @notice The v1 price oracle, which will continue to serve prices\n     * prices for v1 assets\n     */\n    V1PriceOracleInterface public v1PriceOracle;\n\n    /**\n     * @notice The active comptroller, which will be checked for listing status\n     * to short circuit and return 0 for unlisted assets.\n     *\n     * @dev Listed markets are not part of the comptroller interface used by\n     * cTokens, so we assumena an instance of v1 comptroller.sol instead\n     */\n    Comptroller public comptroller;\n\n    /**\n     * @notice address of the cEther contract, which has a constant price\n     */\n    address public cEtherAddress;\n\n    /**\n     * @notice Indicator that this is a PriceOracle contract (for inspection)\n     */\n    bool public constant isPriceOracle = true;\n\n    /**\n     * @param comptroller_ The address of the active comptroller, which will\n     * be consulted for market listing status.\n     * @param v1PriceOracle_ The address of the v1 price oracle, which will\n     * continue to operate and hold prices for collateral assets.\n     * @param cEtherAddress_ The address of the cEther contract, which will\n     * return a constant 1e18, since all prices relative to ether\n     */\n    constructor(address comptroller_, address v1PriceOracle_, address cEtherAddress_) public {\n        comptroller = Comptroller(comptroller_);\n        v1PriceOracle = V1PriceOracleInterface(v1PriceOracle_);\n        cEtherAddress = cEtherAddress_;\n    }\n\n    /**\n     * @notice Get the underlying price of a listed cToken asset\n     * @return The underlying asset price mantissa (scaled by 1e18).\n     *  Zero means the price is unavailable.\n     */\n    function getUnderlyingPrice(CToken cToken) public view returns (uint) {\n        address cTokenAddress = address(cToken);\n        (bool isListed, ) = comptroller.markets(cTokenAddress);\n\n        if (!isListed) {\n            // not listed, worthless\n            return 0;\n        } else if (cTokenAddress == cEtherAddress) {\n            // ether always worth 1\n            return 1e18;\n        } else {\n            // read from v1 oracle\n            address underlying = CErc20(cTokenAddress).underlying();\n            return v1PriceOracle.assetPrices(underlying);\n        }\n    }\n}",
  "sourcePath": "/Users/shain/repositories/insta-wealth/contracts/Compound/PriceOracleProxy.sol",
  "compiler": {
    "name": "solc",
    "version": "0.5.12+commit.7709ece9.Emscripten.clang"
  },
  "schemaVersion": "3.0.16",
  "updatedAt": "2019-10-22T23:22:54.489Z",
  "devdoc": {
    "methods": {
      "constructor": {
        "params": {
          "cEtherAddress_": "The address of the cEther contract, which will return a constant 1e18, since all prices relative to ether",
          "comptroller_": "The address of the active comptroller, which will be consulted for market listing status.",
          "v1PriceOracle_": "The address of the v1 price oracle, which will continue to operate and hold prices for collateral assets."
        }
      },
      "getUnderlyingPrice(address)": {
        "return": "The underlying asset price mantissa (scaled by 1e18). Zero means the price is unavailable."
      }
    }
  },
  "userdoc": {
    "methods": {
      "getUnderlyingPrice(address)": {
        "notice": "Get the underlying price of a listed cToken asset"
      }
    }
  }
}