{
  "contractName": "Sales",
  "abi": [
    {
      "inputs": [
        {
          "internalType": "contract Loans",
          "name": "loans_",
          "type": "address"
        },
        {
          "internalType": "contract Medianizer",
          "name": "med_",
          "type": "address"
        },
        {
          "internalType": "contract ERC20",
          "name": "token_",
          "type": "address"
        }
      ],
      "payable": false,
      "stateMutability": "nonpayable",
      "type": "constructor"
    },
    {
      "constant": true,
      "inputs": [],
      "name": "SETTLEMENT_EXP",
      "outputs": [
        {
          "internalType": "uint256",
          "name": "",
          "type": "uint256"
        }
      ],
      "payable": false,
      "stateMutability": "view",
      "type": "function"
    },
    {
      "constant": true,
      "inputs": [],
      "name": "SWAP_EXP",
      "outputs": [
        {
          "internalType": "uint256",
          "name": "",
          "type": "uint256"
        }
      ],
      "payable": false,
      "stateMutability": "view",
      "type": "function"
    },
    {
      "constant": true,
      "inputs": [
        {
          "internalType": "bytes32",
          "name": "",
          "type": "bytes32"
        }
      ],
      "name": "arbiterSigs",
      "outputs": [
        {
          "internalType": "bytes",
          "name": "refundableSig",
          "type": "bytes"
        },
        {
          "internalType": "bytes",
          "name": "seizableSig",
          "type": "bytes"
        }
      ],
      "payable": false,
      "stateMutability": "view",
      "type": "function"
    },
    {
      "constant": true,
      "inputs": [
        {
          "internalType": "bytes32",
          "name": "",
          "type": "bytes32"
        }
      ],
      "name": "borrowerSigs",
      "outputs": [
        {
          "internalType": "bytes",
          "name": "refundableSig",
          "type": "bytes"
        },
        {
          "internalType": "bytes",
          "name": "seizableSig",
          "type": "bytes"
        }
      ],
      "payable": false,
      "stateMutability": "view",
      "type": "function"
    },
    {
      "constant": true,
      "inputs": [
        {
          "internalType": "uint256",
          "name": "x",
          "type": "uint256"
        },
        {
          "internalType": "uint256",
          "name": "y",
          "type": "uint256"
        }
      ],
      "name": "cmul",
      "outputs": [
        {
          "internalType": "uint256",
          "name": "z",
          "type": "uint256"
        }
      ],
      "payable": false,
      "stateMutability": "pure",
      "type": "function"
    },
    {
      "constant": true,
      "inputs": [],
      "name": "deployer",
      "outputs": [
        {
          "internalType": "address",
          "name": "",
          "type": "address"
        }
      ],
      "payable": false,
      "stateMutability": "view",
      "type": "function"
    },
    {
      "constant": true,
      "inputs": [
        {
          "internalType": "bytes32",
          "name": "",
          "type": "bytes32"
        }
      ],
      "name": "lenderSigs",
      "outputs": [
        {
          "internalType": "bytes",
          "name": "refundableSig",
          "type": "bytes"
        },
        {
          "internalType": "bytes",
          "name": "seizableSig",
          "type": "bytes"
        }
      ],
      "payable": false,
      "stateMutability": "view",
      "type": "function"
    },
    {
      "constant": true,
      "inputs": [],
      "name": "saleIndex",
      "outputs": [
        {
          "internalType": "uint256",
          "name": "",
          "type": "uint256"
        }
      ],
      "payable": false,
      "stateMutability": "view",
      "type": "function"
    },
    {
      "constant": true,
      "inputs": [
        {
          "internalType": "bytes32",
          "name": "",
          "type": "bytes32"
        },
        {
          "internalType": "uint256",
          "name": "",
          "type": "uint256"
        }
      ],
      "name": "saleIndexByLoan",
      "outputs": [
        {
          "internalType": "bytes32",
          "name": "",
          "type": "bytes32"
        }
      ],
      "payable": false,
      "stateMutability": "view",
      "type": "function"
    },
    {
      "constant": true,
      "inputs": [
        {
          "internalType": "bytes32",
          "name": "",
          "type": "bytes32"
        }
      ],
      "name": "sales",
      "outputs": [
        {
          "internalType": "bytes32",
          "name": "loanIndex",
          "type": "bytes32"
        },
        {
          "internalType": "uint256",
          "name": "discountBuy",
          "type": "uint256"
        },
        {
          "internalType": "address",
          "name": "liquidator",
          "type": "address"
        },
        {
          "internalType": "address",
          "name": "borrower",
          "type": "address"
        },
        {
          "internalType": "address",
          "name": "lender",
          "type": "address"
        },
        {
          "internalType": "address",
          "name": "arbiter",
          "type": "address"
        },
        {
          "internalType": "uint256",
          "name": "createdAt",
          "type": "uint256"
        },
        {
          "internalType": "bytes20",
          "name": "pubKeyHash",
          "type": "bytes20"
        },
        {
          "internalType": "bool",
          "name": "set",
          "type": "bool"
        },
        {
          "internalType": "bool",
          "name": "accepted",
          "type": "bool"
        },
        {
          "internalType": "bool",
          "name": "off",
          "type": "bool"
        }
      ],
      "payable": false,
      "stateMutability": "view",
      "type": "function"
    },
    {
      "constant": true,
      "inputs": [
        {
          "internalType": "bytes32",
          "name": "",
          "type": "bytes32"
        }
      ],
      "name": "secretHashes",
      "outputs": [
        {
          "internalType": "bytes32",
          "name": "secretHashA",
          "type": "bytes32"
        },
        {
          "internalType": "bytes32",
          "name": "secretA",
          "type": "bytes32"
        },
        {
          "internalType": "bytes32",
          "name": "secretHashB",
          "type": "bytes32"
        },
        {
          "internalType": "bytes32",
          "name": "secretB",
          "type": "bytes32"
        },
        {
          "internalType": "bytes32",
          "name": "secretHashC",
          "type": "bytes32"
        },
        {
          "internalType": "bytes32",
          "name": "secretC",
          "type": "bytes32"
        },
        {
          "internalType": "bytes32",
          "name": "secretHashD",
          "type": "bytes32"
        },
        {
          "internalType": "bytes32",
          "name": "secretD",
          "type": "bytes32"
        }
      ],
      "payable": false,
      "stateMutability": "view",
      "type": "function"
    },
    {
      "constant": true,
      "inputs": [],
      "name": "token",
      "outputs": [
        {
          "internalType": "contract ERC20",
          "name": "",
          "type": "address"
        }
      ],
      "payable": false,
      "stateMutability": "view",
      "type": "function"
    },
    {
      "constant": true,
      "inputs": [
        {
          "internalType": "bytes32",
          "name": "sale",
          "type": "bytes32"
        }
      ],
      "name": "discountBuy",
      "outputs": [
        {
          "internalType": "uint256",
          "name": "",
          "type": "uint256"
        }
      ],
      "payable": false,
      "stateMutability": "view",
      "type": "function"
    },
    {
      "constant": true,
      "inputs": [
        {
          "internalType": "bytes32",
          "name": "sale",
          "type": "bytes32"
        }
      ],
      "name": "swapExpiration",
      "outputs": [
        {
          "internalType": "uint256",
          "name": "",
          "type": "uint256"
        }
      ],
      "payable": false,
      "stateMutability": "view",
      "type": "function"
    },
    {
      "constant": true,
      "inputs": [
        {
          "internalType": "bytes32",
          "name": "sale",
          "type": "bytes32"
        }
      ],
      "name": "settlementExpiration",
      "outputs": [
        {
          "internalType": "uint256",
          "name": "",
          "type": "uint256"
        }
      ],
      "payable": false,
      "stateMutability": "view",
      "type": "function"
    },
    {
      "constant": true,
      "inputs": [
        {
          "internalType": "bytes32",
          "name": "sale",
          "type": "bytes32"
        }
      ],
      "name": "accepted",
      "outputs": [
        {
          "internalType": "bool",
          "name": "",
          "type": "bool"
        }
      ],
      "payable": false,
      "stateMutability": "view",
      "type": "function"
    },
    {
      "constant": true,
      "inputs": [
        {
          "internalType": "bytes32",
          "name": "sale",
          "type": "bytes32"
        }
      ],
      "name": "off",
      "outputs": [
        {
          "internalType": "bool",
          "name": "",
          "type": "bool"
        }
      ],
      "payable": false,
      "stateMutability": "view",
      "type": "function"
    },
    {
      "constant": true,
      "inputs": [
        {
          "internalType": "bytes32",
          "name": "loan",
          "type": "bytes32"
        }
      ],
      "name": "next",
      "outputs": [
        {
          "internalType": "uint256",
          "name": "",
          "type": "uint256"
        }
      ],
      "payable": false,
      "stateMutability": "view",
      "type": "function"
    },
    {
      "constant": false,
      "inputs": [
        {
          "internalType": "bytes32",
          "name": "loanIndex",
          "type": "bytes32"
        },
        {
          "internalType": "address",
          "name": "borrower",
          "type": "address"
        },
        {
          "internalType": "address",
          "name": "lender",
          "type": "address"
        },
        {
          "internalType": "address",
          "name": "arbiter",
          "type": "address"
        },
        {
          "internalType": "address",
          "name": "liquidator",
          "type": "address"
        },
        {
          "internalType": "bytes32",
          "name": "secretHashA",
          "type": "bytes32"
        },
        {
          "internalType": "bytes32",
          "name": "secretHashB",
          "type": "bytes32"
        },
        {
          "internalType": "bytes32",
          "name": "secretHashC",
          "type": "bytes32"
        },
        {
          "internalType": "bytes32",
          "name": "secretHashD",
          "type": "bytes32"
        },
        {
          "internalType": "bytes20",
          "name": "pubKeyHash",
          "type": "bytes20"
        }
      ],
      "name": "create",
      "outputs": [
        {
          "internalType": "bytes32",
          "name": "sale",
          "type": "bytes32"
        }
      ],
      "payable": false,
      "stateMutability": "nonpayable",
      "type": "function"
    },
    {
      "constant": false,
      "inputs": [
        {
          "internalType": "bytes32",
          "name": "sale",
          "type": "bytes32"
        },
        {
          "internalType": "bytes",
          "name": "refundableSig",
          "type": "bytes"
        },
        {
          "internalType": "bytes",
          "name": "seizableSig",
          "type": "bytes"
        }
      ],
      "name": "provideSig",
      "outputs": [],
      "payable": false,
      "stateMutability": "nonpayable",
      "type": "function"
    },
    {
      "constant": false,
      "inputs": [
        {
          "internalType": "bytes32",
          "name": "sale",
          "type": "bytes32"
        },
        {
          "internalType": "bytes32",
          "name": "secret_",
          "type": "bytes32"
        }
      ],
      "name": "provideSecret",
      "outputs": [],
      "payable": false,
      "stateMutability": "nonpayable",
      "type": "function"
    },
    {
      "constant": true,
      "inputs": [
        {
          "internalType": "bytes32",
          "name": "sale",
          "type": "bytes32"
        }
      ],
      "name": "hasSecrets",
      "outputs": [
        {
          "internalType": "bool",
          "name": "",
          "type": "bool"
        }
      ],
      "payable": false,
      "stateMutability": "view",
      "type": "function"
    },
    {
      "constant": false,
      "inputs": [
        {
          "internalType": "bytes32",
          "name": "sale",
          "type": "bytes32"
        }
      ],
      "name": "accept",
      "outputs": [],
      "payable": false,
      "stateMutability": "nonpayable",
      "type": "function"
    },
    {
      "constant": false,
      "inputs": [
        {
          "internalType": "bytes32",
          "name": "sale",
          "type": "bytes32"
        },
        {
          "internalType": "bytes32[3]",
          "name": "secrets_",
          "type": "bytes32[3]"
        }
      ],
      "name": "provideSecretsAndAccept",
      "outputs": [],
      "payable": false,
      "stateMutability": "nonpayable",
      "type": "function"
    },
    {
      "constant": false,
      "inputs": [
        {
          "internalType": "bytes32",
          "name": "sale",
          "type": "bytes32"
        }
      ],
      "name": "refund",
      "outputs": [],
      "payable": false,
      "stateMutability": "nonpayable",
      "type": "function"
    }
  ],
  "bytecode": "0x608060405234801561001057600080fd5b50604051611fa1380380611fa18339818101604052606081101561003357600080fd5b5080516020820151604090920151600280546001600160a01b039384166001600160a01b031991821681179092556000805482169092179091556001805494841694821694909417909355600b80549290911691909216179055611f058061009c6000396000f3fe608060405234801561001057600080fd5b50600436106101a35760003560e01c80637249fbb6116100ee578063d357691d11610097578063e34abe4c11610071578063e34abe4c146106bc578063e4725ba1146106c4578063f7837eb7146106e1578063fc0c546a14610704576101a3565b8063d357691d1461061d578063d4b7a0721461067b578063d5f3948814610698576101a3565b8063a6b7d54e116100c8578063a6b7d54e1461051a578063b9b8b1fe14610537578063d34ca8ff14610600576101a3565b80637249fbb6146103e557806383cd9fbf146104025780638642afd1146104fd576101a3565b80632dab9da3116101505780636c636ca51161012a5780636c636ca5146103a35780636ec012e7146103c05780636f6d99ab146103c8576101a3565b80632dab9da31461033f57806359949df414610364578063602a73f214610381576101a3565b80631a81dcab116101815780631a81dcab146102e35780631b9e0f8f146103065780632d33c55314610337576101a3565b806302d3af5b146101a85780630c2afd72146101d75780630c4afecf1461026c575b600080fd5b6101c5600480360360208110156101be57600080fd5b503561070c565b60408051918252519081900360200190f35b6101f4600480360360208110156101ed57600080fd5b503561071e565b604080519b8c5260208c019a909a526001600160a01b039889168b8b015296881660608b015294871660808a01529290951660a088015260c08701526bffffffffffffffffffffffff1990931660e0860152911515610100850152901515610120840152151561014083015251908190036101600190f35b6101c5600480360361014081101561028357600080fd5b5080359060208101356001600160a01b03908116916040810135821691606082013581169160808101359091169060a08101359060c08101359060e0810135906101008101359061012001356bffffffffffffffffffffffff191661079a565b6101c5600480360360408110156102f957600080fd5b5080359060200135610ac4565b6103236004803603602081101561031c57600080fd5b5035610af2565b604080519115158252519081900360200190f35b6101c5610b81565b6103626004803603604081101561035557600080fd5b5080359060200135610b87565b005b6103236004803603602081101561037a57600080fd5b5035610d2b565b6103626004803603608081101561039757600080fd5b50803590602001610d4a565b6101c5600480360360208110156103b957600080fd5b5035610d81565b6101c5610d96565b6101c5600480360360208110156103de57600080fd5b5035610d9c565b610362600480360360208110156103fb57600080fd5b5035610db5565b61041f6004803603602081101561041857600080fd5b503561101b565b604051808060200180602001838103835285818151815260200191508051906020019080838360005b83811015610460578181015183820152602001610448565b50505050905090810190601f16801561048d5780820380516001836020036101000a031916815260200191505b50838103825284518152845160209182019186019080838360005b838110156104c05781810151838201526020016104a8565b50505050905090810190601f1680156104ed5780820380516001836020036101000a031916815260200191505b5094505050505060405180910390f35b6103236004803603602081101561051357600080fd5b503561115a565b6101c56004803603602081101561053057600080fd5b5035611179565b6103626004803603606081101561054d57600080fd5b8135919081019060408101602082013564010000000081111561056f57600080fd5b82018360208201111561058157600080fd5b803590602001918460018302840111640100000000831117156105a357600080fd5b9193909290916020810190356401000000008111156105c157600080fd5b8201836020820111156105d357600080fd5b803590602001918460018302840111640100000000831117156105f557600080fd5b509092509050611192565b61041f6004803603602081101561061657600080fd5b50356112e1565b61063a6004803603602081101561063357600080fd5b503561134d565b604080519889526020890197909752878701959095526060870193909352608086019190915260a085015260c084015260e083015251908190036101000190f35b61041f6004803603602081101561069157600080fd5b5035611395565b6106a0611401565b604080516001600160a01b039092168252519081900360200190f35b6101c5611410565b610362600480360360208110156106da57600080fd5b5035611416565b6101c5600480360360408110156106f757600080fd5b5080359060200135611d96565b6106a0611dc3565b60009081526009602052604090205490565b600360208190526000918252604090912080546001820154600283015493830154600484015460058501546006860154600790960154949693956001600160a01b03948516959385169492831693919092169190606081901b9060ff600160a01b8204811691600160a81b8104821691600160b01b909104168b565b600080546001600160a01b031633146107b257600080fd5b6107bf6008546001611dd2565b60088190555060085460001b90508a6003600083815260200190815260200160002060000181905550896003600083815260200190815260200160002060030160006101000a8154816001600160a01b0302191690836001600160a01b03160217905550886003600083815260200190815260200160002060040160006101000a8154816001600160a01b0302191690836001600160a01b03160217905550876003600083815260200190815260200160002060050160006101000a8154816001600160a01b0302191690836001600160a01b03160217905550866003600083815260200190815260200160002060020160006101000a8154816001600160a01b0302191690836001600160a01b03160217905550426003600083815260200190815260200160002060060181905550816003600083815260200190815260200160002060070160006101000a8154816001600160a01b03021916908360601c02179055506000809054906101000a90046001600160a01b03166001600160a01b0316637ff6fecc6000809054906101000a90046001600160a01b03166001600160a01b0316637888938b8e6040518263ffffffff1660e01b81526004018082815260200191505060206040518083038186803b15801561099f57600080fd5b505afa1580156109b3573d6000803e3d6000fd5b505050506040513d60208110156109c957600080fd5b5051604080516001600160e01b031960e085901b1681526004810192909252516024808301926020929190829003018186803b158015610a0857600080fd5b505afa158015610a1c573d6000803e3d6000fd5b505050506040513d6020811015610a3257600080fd5b50516000828152600360209081526040808320600180820195909555600790810180547fffffffffffffffffffffff00ffffffffffffffffffffffffffffffffffffffff16600160a01b1790558252808320998a5560028a0198909855600489019690965560069097019390935599855250600982529183208054928301815583529091200185905550929392505050565b60096020528160005260406000208181548110610add57fe5b90600052602060002001600091509150505481565b6000818152600760209081526040808320548352600a909152812054819060ff1615610b1c576001015b6000838152600760209081526040808320600201548352600a90915290205460ff1615610b47576001015b6000838152600760209081526040808320600401548352600a90915290205460ff1615610b72576001015b600260ff909116101592915050565b61384081565b600082815260036020526040902060070154600160a01b900460ff16610bac57600080fd5b6000600282604051602001808281526020019150506040516020818303038152906040526040518082805190602001908083835b60208310610bff5780518252601f199092019160209182019101610be0565b51815160209384036101000a60001901801990921691161790526040519190930194509192505080830381855afa158015610c3e573d6000803e3d6000fd5b5050506040513d6020811015610c5357600080fd5b50516000818152600a60209081526040808320805460ff191660011790558683526007909152902054909150811415610c9b5760008381526007602052604090206001018290555b600083815260076020526040902060020154811415610cc95760008381526007602052604090206003018290555b600083815260076020526040902060040154811415610cf75760008381526007602052604090206005018290555b600083815260076020526040902060060154811415610d26576000838152600760208190526040909120018290555b505050565b600090815260036020526040902060070154600160b01b900460ff1690565b610d5c828260005b6020020135610b87565b610d6882826001610d52565b610d7482826002610d52565b610d7d82611416565b5050565b60009081526003602052604090206001015490565b60085481565b600090815260036020526040902060060154611c200190565b610dbe8161115a565b15610dc857600080fd5b610dd181610d2b565b15610ddb57600080fd5b610de481611179565b4211610def57600080fd5b600081815260036020526040902060010154610e0a57600080fd5b60008181526003602090815260408083206007810180547fffffffffffffffffff00ffffffffffffffffffffffffffffffffffffffffffff16600160b01b179055600b54600282015460019290920154835163a9059cbb60e01b81526001600160a01b0393841660048201526024810191909152925191169363a9059cbb93604480850194919392918390030190829087803b158015610ea957600080fd5b505af1158015610ebd573d6000803e3d6000fd5b505050506040513d6020811015610ed357600080fd5b5051610ede57600080fd5b600081815260036020526040902054610ef69061070c565b6003141561101857600b54600082815260036020818152604080842092830154935492548151633e4b2a2960e01b8152600481019190915290516001600160a01b039586169563a9059cbb958116941692633e4b2a299260248082019391829003018186803b158015610f6857600080fd5b505afa158015610f7c573d6000803e3d6000fd5b505050506040513d6020811015610f9257600080fd5b5051604080516001600160e01b031960e086901b1681526001600160a01b03909316600484015260248301919091525160448083019260209291908290030181600087803b158015610fe357600080fd5b505af1158015610ff7573d6000803e3d6000fd5b505050506040513d602081101561100d57600080fd5b505161101857600080fd5b50565b60066020908152600091825260409182902080548351601f600260001961010060018616150201909316929092049182018490048402810184019094528084529092918391908301828280156110b25780601f10611087576101008083540402835291602001916110b2565b820191906000526020600020905b81548152906001019060200180831161109557829003601f168201915b505050505090806001018054600181600116156101000203166002900480601f0160208091040260200160405190810160405280929190818152602001828054600181600116156101000203166002900480156111505780601f1061112557610100808354040283529160200191611150565b820191906000526020600020905b81548152906001019060200180831161113357829003601f168201915b5050505050905082565b600090815260036020526040902060070154600160a81b900460ff1690565b6000908152600360205260409020600601546138400190565b600085815260036020526040902060070154600160a01b900460ff166111b757600080fd5b6111c085611179565b42106111cb57600080fd5b600085815260036020819052604090912001546001600160a01b031633141561122a576000858152600460205260409020611207908585611e35565b506000858152600460205260409020611224906001018383611e35565b506112da565b6000858152600360205260409020600401546001600160a01b0316331415611282576000858152600560205260409020611265908585611e35565b506000858152600560205260409020611224906001018383611e35565b6000858152600360205260409020600501546001600160a01b03163314156101a35760008581526006602052604090206112bd908585611e35565b506000858152600660205260409020611224906001018383611e35565b5050505050565b60056020908152600091825260409182902080548351601f600260001961010060018616150201909316929092049182018490048402810184019094528084529092918391908301828280156110b25780601f10611087576101008083540402835291602001916110b2565b60076020528060005260406000206000915090508060000154908060010154908060020154908060030154908060040154908060050154908060060154908060070154905088565b60046020908152600091825260409182902080548351601f600260001961010060018616150201909316929092049182018490048402810184019094528084529092918391908301828280156110b25780601f10611087576101008083540402835291602001916110b2565b6002546001600160a01b031681565b611c2081565b61141f8161115a565b1561142957600080fd5b61143281610d2b565b1561143c57600080fd5b61144581610af2565b61144e57600080fd5b6000818152600760209081526040808320600601548352600a90915290205460ff1661147957600080fd5b60008181526003602090815260408083206007810180547fffffffffffffffffffff00ffffffffffffffffffffffffffffffffffffffffff16600160a81b1790556001810154845491548351633e4b2a2960e01b81526004810191909152925161153e9491936001600160a01b0390931692633e4b2a29926024808301939192829003018186803b15801561150d57600080fd5b505afa158015611521573d6000803e3d6000fd5b505050506040513d602081101561153757600080fd5b5051611dd2565b600080548482526003602090815260408084205481517ff69736e00000000000000000000000000000000000000000000000000000000081526004810191909152905194955092936115e79386936001600160a01b03169263f69736e092602480840193829003018186803b1580156115b657600080fd5b505afa1580156115ca573d6000803e3d6000fd5b505050506040513d60208110156115e057600080fd5b5051611de8565b600b546000858152600360209081526040808320600490810154825163a9059cbb60e01b81526001600160a01b039182169281019290925260248201879052915195965093169363a9059cbb93604480820194918390030190829087803b15801561165157600080fd5b505af1158015611665573d6000803e3d6000fd5b505050506040513d602081101561167b57600080fd5b505161168657600080fd5b6116908282611e01565b60008054858252600360209081526040928390205483516313e6d58360e11b815260048101919091529251939550611773936001600160a01b03909216926327cdab069260248083019392829003018186803b1580156116ef57600080fd5b505afa158015611703573d6000803e3d6000fd5b505050506040513d602081101561171957600080fd5b5051600080548682526003602090815260409283902054835163026fc75960e41b8152600481019190915292516001600160a01b03909216926326fc75909260248083019392829003018186803b15801561150d57600080fd5b8210611bbe576000838152600360205260409020600501546001600160a01b0316156118b657600b54600084815260036020908152604080832060058101549354905482516313e6d58360e11b8152600481019190915291516001600160a01b039586169563a9059cbb958116949216926327cdab06926024808301939192829003018186803b15801561180657600080fd5b505afa15801561181a573d6000803e3d6000fd5b505050506040513d602081101561183057600080fd5b5051604080516001600160e01b031960e086901b1681526001600160a01b03909316600484015260248301919091525160448083019260209291908290030181600087803b15801561188157600080fd5b505af1158015611895573d6000803e3d6000fd5b505050506040513d60208110156118ab57600080fd5b50516118b657600080fd5b600b54600154600080548682526003602090815260409283902054835163026fc75960e41b8152600481019190915292516001600160a01b039586169563095ea7b3958116949316926326fc7590926024808301939192829003018186803b15801561192157600080fd5b505afa158015611935573d6000803e3d6000fd5b505050506040513d602081101561194b57600080fd5b5051604080516001600160e01b031960e086901b1681526001600160a01b03909316600484015260248301919091525160448083019260209291908290030181600087803b15801561199c57600080fd5b505af11580156119b0573d6000803e3d6000fd5b505050506040513d60208110156119c657600080fd5b50516119d157600080fd5b600154600080548582526003602090815260409283902054835163026fc75960e41b8152600481019190915292516001600160a01b039485169463eee92395949316926326fc7590926024808301939192829003018186803b158015611a3657600080fd5b505afa158015611a4a573d6000803e3d6000fd5b505050506040513d6020811015611a6057600080fd5b5051600b54604080516001600160e01b031960e086901b16815260048101939093526001600160a01b03909116602483015251604480830192600092919082900301818387803b158015611ab357600080fd5b505af1158015611ac7573d6000803e3d6000fd5b505060008054868252600360209081526040928390205483516313e6d58360e11b815260048101919091529251611bb79550879450611bb2936001600160a01b03909316926327cdab06926024808301939192829003018186803b158015611b2e57600080fd5b505afa158015611b42573d6000803e3d6000fd5b505050506040513d6020811015611b5857600080fd5b5051600080548882526003602090815260409283902054835163026fc75960e41b8152600481019190915292516001600160a01b03909216926326fc75909260248083019392829003018186803b15801561150d57600080fd5b611e01565b9150611cf9565b8115611cf957600b54600154604080517f095ea7b30000000000000000000000000000000000000000000000000000000081526001600160a01b039283166004820152602481018690529051919092169163095ea7b39160448083019260209291908290030181600087803b158015611c3657600080fd5b505af1158015611c4a573d6000803e3d6000fd5b505050506040513d6020811015611c6057600080fd5b5051611c6b57600080fd5b600154600b54604080517feee92395000000000000000000000000000000000000000000000000000000008152600481018690526001600160a01b0392831660248201529051919092169163eee9239591604480830192600092919082900301818387803b158015611cdc57600080fd5b505af1158015611cf0573d6000803e3d6000fd5b50505050600091505b8115610d2657600b54600084815260036020818152604080842090920154825163a9059cbb60e01b81526001600160a01b03918216600482015260248101889052925194169363a9059cbb936044808501948390030190829087803b158015611d6157600080fd5b505af1158015611d75573d6000803e3d6000fd5b505050506040513d6020811015611d8b57600080fd5b5051610d2657600080fd5b60006305f5e100611db4611daa8585611e11565b6302faf080611dd2565b81611dbb57fe5b049392505050565b600b546001600160a01b031681565b80820182811015611de257600080fd5b92915050565b600081831115611df85781611dfa565b825b9392505050565b80820382811115611de257600080fd5b6000811580611e2c57505080820282828281611e2957fe5b04145b611de257600080fd5b828054600181600116156101000203166002900490600052602060002090601f016020900481019282601f10611e765782800160ff19823516178555611ea3565b82800160010185558215611ea3579182015b82811115611ea3578235825591602001919060010190611e88565b50611eaf929150611eb3565b5090565b611ecd91905b80821115611eaf5760008155600101611eb9565b9056fea265627a7a7231582053bdbe57a975b29fbec4bf073e658db66d7c9c8d93b240baeccdf157ca9dcb3164736f6c634300050c0032",
  "source": "import 'openzeppelin-solidity/contracts/token/ERC20/ERC20.sol';\nimport 'openzeppelin-solidity/contracts/math/SafeMath.sol';\n\nimport './Loans.sol';\nimport './Medianizer.sol';\nimport './DSMath.sol';\n\npragma solidity ^0.5.8;\n\ncontract Sales is DSMath {\n\tLoans loans;\n\tMedianizer med;\n\n    uint256 public constant SWAP_EXP = 2 hours;       // Swap Expiration\n    uint256 public constant SETTLEMENT_EXP = 4 hours; // Settlement Expiration\n\n\taddress public deployer; // Only the Loans contract can edit data\n\n\tmapping (bytes32 => Sale)       public sales;        // Auctions\n\tmapping (bytes32 => Sig)        public borrowerSigs; // Borrower Signatures\n\tmapping (bytes32 => Sig)        public lenderSigs;   // Lender Signatures\n\tmapping (bytes32 => Sig)        public arbiterSigs;  // Lender Signatures\n\tmapping (bytes32 => SecretHash) public secretHashes; // Auction Secret Hashes\n    uint256                         public saleIndex;    // Auction Index\n\n    mapping (bytes32 => bytes32[])  public saleIndexByLoan; // Loan Auctions (find by loanIndex)\n\n    mapping(bytes32 => bool) revealed;\n\n    ERC20 public token;\n\n    /**\n     * @notice Container for the sale information\n     * @member loanIndex The Id of the loan\n     * @member discountBuy The amount in tokens that the Bitcoin collateral was bought for at discount\n     * @member liquidator The address of the liquidator (party that buys the Bitcoin collateral at a discount)\n     * @member borrower The address of the borrower\n     * @member lender The address of the lender\n     * @member arbiter The address of the arbiter\n     * @member createAt The creation timestamp of the sale\n     * @member pubKeyHash The Bitcoin Public Key Hash of the liquidator\n     * @member set Indicates that the sale at this specific index has been opened\n     * @member accepted Indicates that the discountBuy has been accepted\n     * @member off Indicates that the is failed\n     */\n    struct Sale {\n        bytes32    loanIndex;\n        uint256    discountBuy;\n        address    liquidator;\n        address    borrower;\n        address    lender;\n        address    arbiter;\n        uint256    createdAt;\n        bytes20    pubKeyHash;\n        bool       set;\n        bool       accepted;\n        bool       off;\n    }\n\n    /**\n     * @notice Container for the Bitcoin refundable and seizable signature information\n     * @member refundableSig The Bitcoin refundable signature to move collateral to swap P2SH\n     * @member seizableSig The Bitcoin seizable signature to move collateral to swap P2SH\n     */\n    struct Sig {\n        bytes refundableSig;\n        bytes seizableSig;\n    }\n\n    /**\n     * @notice Container for the Bitcoin Secret and Secret Hashes information\n     */\n    struct SecretHash {\n        bytes32 secretHashA; // Secret Hash A\n        bytes32 secretA;     // Secret A\n        bytes32 secretHashB; // Secret Hash B\n        bytes32 secretB;     // Secret B\n        bytes32 secretHashC; // Secret Hash C\n        bytes32 secretC;     // Secret C\n        bytes32 secretHashD; // Secret Hash D\n        bytes32 secretD;     // Secret D\n    }\n\n    function discountBuy(bytes32 sale) public view returns (uint256) {\n        return sales[sale].discountBuy;\n    }\n\n    function swapExpiration(bytes32 sale) public view returns (uint256) {\n        return sales[sale].createdAt + SWAP_EXP;\n    }\n\n    function settlementExpiration(bytes32 sale) public view returns (uint256) {\n        return sales[sale].createdAt + SETTLEMENT_EXP;\n    }\n\n    function accepted(bytes32 sale) public view returns (bool) {\n        return sales[sale].accepted;\n    }\n\n    function off(bytes32 sale) public view returns (bool) {\n        return sales[sale].off;\n    }\n\n    constructor (Loans loans_, Medianizer med_, ERC20 token_) public {\n    \tdeployer = address(loans_);\n    \tloans    = loans_;\n    \tmed      = med_;\n        token    = token_;\n    }\n\n    function next(bytes32 loan) public view returns (uint256) {\n    \treturn saleIndexByLoan[loan].length;\n    }\n\n    /**\n     * @dev Creates a new sale (called by the Loans contract)\n     * @param loanIndex The Id of the Loan\n     * @param borrower The address of the borrower\n     * @param lender The address of the lender\n     * @param arbiter The address of the arbiter\n     * @param liquidator The address of the liquidator\n     * @param secretHashA The Secret Hash of the Borrower for the current sale number\n     * @param secretHashB The Secret Hash of the Lender for the current sale number\n     * @param secretHashC The Secret Hash of the Arbiter for the current sale number\n     * @param secretHashD the Secret Hash of the Liquidator\n     * @param pubKeyHash The Bitcoin Public Key Hash of the Liquidator\n     * @return sale The Id of the sale\n     */\n    function create(\n    \tbytes32 loanIndex,\n    \taddress borrower,\n    \taddress lender,\n        address arbiter,\n        address liquidator,\n    \tbytes32 secretHashA,\n    \tbytes32 secretHashB,\n    \tbytes32 secretHashC,\n        bytes32 secretHashD,\n        bytes20 pubKeyHash\n\t) external returns(bytes32 sale) {\n    \trequire(msg.sender == address(loans));\n    \tsaleIndex = add(saleIndex, 1);\n        sale = bytes32(saleIndex);\n        sales[sale].loanIndex   = loanIndex;\n        sales[sale].borrower    = borrower;\n        sales[sale].lender      = lender;\n        sales[sale].arbiter       = arbiter;\n        sales[sale].liquidator  = liquidator;\n        sales[sale].createdAt   = now;\n        sales[sale].pubKeyHash  = pubKeyHash;\n        sales[sale].discountBuy = loans.ddiv(loans.discountCollateralValue(loanIndex));\n        sales[sale].set         = true;\n        secretHashes[sale].secretHashA = secretHashA;\n        secretHashes[sale].secretHashB = secretHashB;\n        secretHashes[sale].secretHashC = secretHashC;\n        secretHashes[sale].secretHashD = secretHashD;\n        saleIndexByLoan[loanIndex].push(sale);\n    }\n\n    /**\n     * @notice Provide Bitcoin signatures for moving collateral to collateral swap script\n     * @param sale The Id of the sale\n     * @param refundableSig The Bitcoin refundable collateral signature\n     * @param seizableSig The Bitcoin seizable collateral signature\n     *\n     *         Note: More info on the collateral swap script can be seen here:\n                     https://github.com/AtomicLoans/chainabstractionlayer-loans\n     */\n\tfunction provideSig(\n\t\tbytes32        sale,\n\t\tbytes calldata refundableSig,\n\t\tbytes calldata seizableSig\n\t) external {\n\t\trequire(sales[sale].set);\n\t\trequire(now < settlementExpiration(sale));\n\t\tif (msg.sender == sales[sale].borrower) {\n\t\t\tborrowerSigs[sale].refundableSig = refundableSig;\n\t\t\tborrowerSigs[sale].seizableSig   = seizableSig;\n\t\t} else if (msg.sender == sales[sale].lender) {\n\t\t\tlenderSigs[sale].refundableSig = refundableSig;\n\t\t\tlenderSigs[sale].seizableSig   = seizableSig;\n\t\t} else if (msg.sender == sales[sale].arbiter) {\n\t\t\tarbiterSigs[sale].refundableSig = refundableSig;\n\t\t\tarbiterSigs[sale].seizableSig   = seizableSig;\n\t\t} else {\n\t\t\trevert();\n\t\t}\n\t}\n\n    /**\n     * @notice Provide secret to enable liquidator to claim collateral\n     * @param secret_ The secret provided by the borrower, lender, arbiter, or liquidator\n     */\n    function provideSecret(bytes32 sale, bytes32 secret_) public {\n        require(sales[sale].set);\n        bytes32 secretHash = sha256(abi.encodePacked(secret_));\n        revealed[secretHash] = true;\n        if (secretHash == secretHashes[sale].secretHashA) { secretHashes[sale].secretA = secret_; }\n        if (secretHash == secretHashes[sale].secretHashB) { secretHashes[sale].secretB = secret_; }\n        if (secretHash == secretHashes[sale].secretHashC) { secretHashes[sale].secretC = secret_; }\n        if (secretHash == secretHashes[sale].secretHashD) { secretHashes[sale].secretD = secret_; }\n    }\n\n    /**\n     * @dev Indicates that two of Secret A, Secret B, Secret C have been submitted\n     * @param sale The Id of the sale\n     */\n    function hasSecrets(bytes32 sale) public view returns (bool) {\n        uint8 numCorrectSecrets = 0;\n        if (revealed[secretHashes[sale].secretHashA]) { numCorrectSecrets += 1; }\n        if (revealed[secretHashes[sale].secretHashB]) { numCorrectSecrets += 1; }\n        if (revealed[secretHashes[sale].secretHashC]) { numCorrectSecrets += 1; }\n        return (numCorrectSecrets >= 2);\n    }\n\n    /**\n     * @notice Accept discount buy by liquidator and disperse funds to rightful parties\n     * @param sale The Id of the sale\n     */\n\tfunction accept(bytes32 sale) public {\n        require(!accepted(sale));\n        require(!off(sale));\n\t\trequire(hasSecrets(sale));\n\t\trequire(revealed[secretHashes[sale].secretHashD]);\n        sales[sale].accepted = true;\n\n        uint256 available = add(sales[sale].discountBuy, loans.repaid(sales[sale].loanIndex));\n        uint256 amount = min(available, loans.owedToLender(sales[sale].loanIndex));\n\n        require(token.transfer(sales[sale].lender, amount));\n        available = sub(available, amount);\n\n        if (available >= add(loans.fee(sales[sale].loanIndex), loans.penalty(sales[sale].loanIndex))) {\n            if (sales[sale].arbiter != address(0)) {\n                require(token.transfer(sales[sale].arbiter, loans.fee(sales[sale].loanIndex)));\n            }\n            require(token.approve(address(med), loans.penalty(sales[sale].loanIndex)));\n            med.fund(loans.penalty(sales[sale].loanIndex), token);\n            available = sub(available, add(loans.fee(sales[sale].loanIndex), loans.penalty(sales[sale].loanIndex)));\n        } else if (available > 0) {\n            require(token.approve(address(med), available));\n            med.fund(available, token);\n            available = 0;\n        }\n\n        if (available > 0) { require(token.transfer(sales[sale].borrower, available)); }\n\t}\n\n    function provideSecretsAndAccept(bytes32 sale, bytes32[3] calldata secrets_) external {\n        provideSecret(sale, secrets_[0]);\n        provideSecret(sale, secrets_[1]);\n        provideSecret(sale, secrets_[2]);\n        accept(sale);\n    }\n\n    /**\n     * @notice Refund discount buy to liquidator\n     * @param sale The Id of the sale\n     */\n\tfunction refund(bytes32 sale) external {\n        require(!accepted(sale));\n        require(!off(sale));\n\t\trequire(now > settlementExpiration(sale));\n\t\trequire(sales[sale].discountBuy > 0);\n        sales[sale].off = true;\n\t\trequire(token.transfer(sales[sale].liquidator, sales[sale].discountBuy));\n        if (next(sales[sale].loanIndex) == 3) {\n            require(token.transfer(sales[sale].borrower, loans.repaid(sales[sale].loanIndex)));\n        }\n\t}\n}",
  "sourcePath": "/Users/shain/repositories/insta-wealth/contracts/Sales.sol",
  "compiler": {
    "name": "solc",
    "version": "0.5.12+commit.7709ece9.Emscripten.clang"
  },
  "schemaVersion": "3.0.16",
  "updatedAt": "2019-10-22T23:22:54.330Z",
  "devdoc": {
    "methods": {
      "accept(bytes32)": {
        "params": {
          "sale": "The Id of the sale"
        }
      },
      "create(bytes32,address,address,address,address,bytes32,bytes32,bytes32,bytes32,bytes20)": {
        "details": "Creates a new sale (called by the Loans contract)",
        "params": {
          "arbiter": "The address of the arbiter",
          "borrower": "The address of the borrower",
          "lender": "The address of the lender",
          "liquidator": "The address of the liquidator",
          "loanIndex": "The Id of the Loan",
          "pubKeyHash": "The Bitcoin Public Key Hash of the Liquidator",
          "secretHashA": "The Secret Hash of the Borrower for the current sale number",
          "secretHashB": "The Secret Hash of the Lender for the current sale number",
          "secretHashC": "The Secret Hash of the Arbiter for the current sale number",
          "secretHashD": "the Secret Hash of the Liquidator"
        },
        "return": "sale The Id of the sale"
      },
      "hasSecrets(bytes32)": {
        "details": "Indicates that two of Secret A, Secret B, Secret C have been submitted",
        "params": {
          "sale": "The Id of the sale"
        }
      },
      "provideSecret(bytes32,bytes32)": {
        "params": {
          "secret_": "The secret provided by the borrower, lender, arbiter, or liquidator"
        }
      },
      "provideSig(bytes32,bytes,bytes)": {
        "params": {
          "refundableSig": "The Bitcoin refundable collateral signature",
          "sale": "The Id of the sale",
          "seizableSig": "The Bitcoin seizable collateral signature     *         Note: More info on the collateral swap script can be seen here: https://github.com/AtomicLoans/chainabstractionlayer-loans"
        }
      },
      "refund(bytes32)": {
        "params": {
          "sale": "The Id of the sale"
        }
      }
    }
  },
  "userdoc": {
    "methods": {
      "accept(bytes32)": {
        "notice": "Accept discount buy by liquidator and disperse funds to rightful parties"
      },
      "provideSecret(bytes32,bytes32)": {
        "notice": "Provide secret to enable liquidator to claim collateral"
      },
      "provideSig(bytes32,bytes,bytes)": {
        "notice": "Provide Bitcoin signatures for moving collateral to collateral swap script"
      },
      "refund(bytes32)": {
        "notice": "Refund discount buy to liquidator"
      }
    }
  }
}