{
  "contractName": "SampleContract",
  "abi": [
    {
      "inputs": [],
      "payable": false,
      "stateMutability": "nonpayable",
      "type": "constructor"
    },
    {
      "anonymous": false,
      "inputs": [
        {
          "indexed": true,
          "internalType": "address",
          "name": "previousOwner",
          "type": "address"
        },
        {
          "indexed": true,
          "internalType": "address",
          "name": "newOwner",
          "type": "address"
        }
      ],
      "name": "OwnershipTransferred",
      "type": "event"
    },
    {
      "anonymous": false,
      "inputs": [
        {
          "indexed": false,
          "internalType": "uint256",
          "name": "value",
          "type": "uint256"
        }
      ],
      "name": "WorkDone",
      "type": "event"
    },
    {
      "constant": true,
      "inputs": [],
      "name": "isOwner",
      "outputs": [
        {
          "internalType": "bool",
          "name": "",
          "type": "bool"
        }
      ],
      "payable": false,
      "stateMutability": "view",
      "type": "function"
    },
    {
      "constant": true,
      "inputs": [],
      "name": "owner",
      "outputs": [
        {
          "internalType": "address",
          "name": "",
          "type": "address"
        }
      ],
      "payable": false,
      "stateMutability": "view",
      "type": "function"
    },
    {
      "constant": false,
      "inputs": [
        {
          "internalType": "address",
          "name": "tokenAddress",
          "type": "address"
        },
        {
          "internalType": "uint256",
          "name": "tokenAmount",
          "type": "uint256"
        }
      ],
      "name": "recoverERC20",
      "outputs": [],
      "payable": false,
      "stateMutability": "nonpayable",
      "type": "function"
    },
    {
      "constant": false,
      "inputs": [],
      "name": "renounceOwnership",
      "outputs": [],
      "payable": false,
      "stateMutability": "nonpayable",
      "type": "function"
    },
    {
      "constant": false,
      "inputs": [
        {
          "internalType": "address",
          "name": "newOwner",
          "type": "address"
        }
      ],
      "name": "transferOwnership",
      "outputs": [],
      "payable": false,
      "stateMutability": "nonpayable",
      "type": "function"
    },
    {
      "constant": true,
      "inputs": [],
      "name": "creator",
      "outputs": [
        {
          "internalType": "address",
          "name": "",
          "type": "address"
        }
      ],
      "payable": false,
      "stateMutability": "view",
      "type": "function"
    },
    {
      "constant": false,
      "inputs": [
        {
          "internalType": "uint256",
          "name": "value",
          "type": "uint256"
        }
      ],
      "name": "creatorDoesWork",
      "outputs": [],
      "payable": false,
      "stateMutability": "nonpayable",
      "type": "function"
    },
    {
      "constant": false,
      "inputs": [
        {
          "internalType": "uint256",
          "name": "value",
          "type": "uint256"
        }
      ],
      "name": "ownerDoesWork",
      "outputs": [],
      "payable": false,
      "stateMutability": "nonpayable",
      "type": "function"
    }
  ],
  "bytecode": "0x608060405234801561001057600080fd5b50600080546001600160a01b03191633178082556040516001600160a01b039190911691907f8be0079c531659141344cd1fd0a4f28419497f9722a3daafe3b4186f6b6457e0908290a361006b6001600160e01b0361009016565b600180546001600160a01b0319166001600160a01b039290921691909117905561009f565b6000546001600160a01b031690565b61054d806100ae6000396000f3fe608060405234801561001057600080fd5b50600436106100885760003560e01c80638980f11f1161005b5780638980f11f146100f55780638da5cb5b146101215780638f32d59b14610129578063f2fde38b1461014557610088565b8063022869ec1461008d57806302d05d3f146100ac5780635c8195b4146100d0578063715018a6146100ed575b600080fd5b6100aa600480360360208110156100a357600080fd5b503561016b565b005b6100b46101fa565b604080516001600160a01b039092168252519081900360200190f35b6100aa600480360360208110156100e657600080fd5b5035610209565b6100aa610220565b6100aa6004803603604081101561010b57600080fd5b506001600160a01b0381351690602001356102d0565b6100b46103c0565b6101316103cf565b604080519115158252519081900360200190f35b6100aa6004803603602081101561015b57600080fd5b50356001600160a01b03166103e0565b6101736103cf565b6101c4576040805162461bcd60e51b815260206004820181905260248201527f4f776e61626c653a2063616c6c6572206973206e6f7420746865206f776e6572604482015290519081900360640190fd5b6040805182815290517f94004e969cf8e2abdf779ed70428912ad0533a0a23c6cb25188997bbad9d771f9181900360200190a150565b6001546001600160a01b031690565b6001546001600160a01b031633146101c457600080fd5b6102286103cf565b610279576040805162461bcd60e51b815260206004820181905260248201527f4f776e61626c653a2063616c6c6572206973206e6f7420746865206f776e6572604482015290519081900360640190fd5b600080546040516001600160a01b03909116907f8be0079c531659141344cd1fd0a4f28419497f9722a3daafe3b4186f6b6457e0908390a36000805473ffffffffffffffffffffffffffffffffffffffff19169055565b6102d86103cf565b610329576040805162461bcd60e51b815260206004820181905260248201527f4f776e61626c653a2063616c6c6572206973206e6f7420746865206f776e6572604482015290519081900360640190fd5b816001600160a01b031663a9059cbb6103406103c0565b836040518363ffffffff1660e01b815260040180836001600160a01b03166001600160a01b0316815260200182815260200192505050602060405180830381600087803b15801561039057600080fd5b505af11580156103a4573d6000803e3d6000fd5b505050506040513d60208110156103ba57600080fd5b50505050565b6000546001600160a01b031690565b6000546001600160a01b0316331490565b6103e86103cf565b610439576040805162461bcd60e51b815260206004820181905260248201527f4f776e61626c653a2063616c6c6572206973206e6f7420746865206f776e6572604482015290519081900360640190fd5b61044281610445565b50565b6001600160a01b03811661048a5760405162461bcd60e51b81526004018080602001828103825260268152602001806104f36026913960400191505060405180910390fd5b600080546040516001600160a01b03808516939216917f8be0079c531659141344cd1fd0a4f28419497f9722a3daafe3b4186f6b6457e091a36000805473ffffffffffffffffffffffffffffffffffffffff19166001600160a01b039290921691909117905556fe4f776e61626c653a206e6577206f776e657220697320746865207a65726f2061646472657373a265627a7a72315820aed4a4304de1124067c306937ab1ef9b784849e9abaf7b2c49e539bdf9a2c16f64736f6c634300050c0032",
  "source": "pragma solidity ^0.5.12;\n\nimport \"eth-token-recover/contracts/TokenRecover.sol\";\n\ncontract SampleContract is TokenRecover {\n    event WorkDone(uint256 value);\n\n    address private _creator;\n\n    modifier onlyCreator() {\n        require(msg.sender == _creator);\n        _;\n    }\n\n    constructor() public {\n        _creator = owner();\n    }\n\n    function creator() public view returns (address) {\n        return _creator;\n    }\n\n    function creatorDoesWork(uint256 value) public onlyCreator {\n        emit WorkDone(value);\n    }\n\n    function ownerDoesWork(uint256 value) public onlyOwner {\n        emit WorkDone(value);\n    }\n}\n",
  "sourcePath": "/Users/shain/repositories/insta-wealth/contracts/SampleContract.sol",
  "compiler": {
    "name": "solc",
    "version": "0.5.12+commit.7709ece9.Emscripten.clang"
  },
  "schemaVersion": "3.0.16",
  "updatedAt": "2019-10-22T23:22:42.272Z",
  "devdoc": {
    "methods": {
      "isOwner()": {
        "details": "Returns true if the caller is the current owner."
      },
      "owner()": {
        "details": "Returns the address of the current owner."
      },
      "recoverERC20(address,uint256)": {
        "details": "Remember that only owner can call so be careful when use on contracts generated from other contracts.",
        "params": {
          "tokenAddress": "The token contract address",
          "tokenAmount": "Number of tokens to be sent"
        }
      },
      "renounceOwnership()": {
        "details": "Leaves the contract without owner. It will not be possible to call `onlyOwner` functions anymore. Can only be called by the current owner.     * > Note: Renouncing ownership will leave the contract without an owner, thereby removing any functionality that is only available to the owner."
      },
      "transferOwnership(address)": {
        "details": "Transfers ownership of the contract to a new account (`newOwner`). Can only be called by the current owner."
      }
    }
  },
  "userdoc": {
    "methods": {}
  }
}