{
  "contractName": "USDCInterestRateModel",
  "abi": [
    {
      "inputs": [
        {
          "internalType": "uint256",
          "name": "baseRate_",
          "type": "uint256"
        },
        {
          "internalType": "uint256",
          "name": "multiplier_",
          "type": "uint256"
        }
      ],
      "payable": false,
      "stateMutability": "nonpayable",
      "type": "constructor"
    },
    {
      "constant": true,
      "inputs": [],
      "name": "baseRate",
      "outputs": [
        {
          "internalType": "uint256",
          "name": "",
          "type": "uint256"
        }
      ],
      "payable": false,
      "stateMutability": "view",
      "type": "function"
    },
    {
      "constant": true,
      "inputs": [],
      "name": "blocksPerYear",
      "outputs": [
        {
          "internalType": "uint256",
          "name": "",
          "type": "uint256"
        }
      ],
      "payable": false,
      "stateMutability": "view",
      "type": "function"
    },
    {
      "constant": true,
      "inputs": [],
      "name": "isInterestRateModel",
      "outputs": [
        {
          "internalType": "bool",
          "name": "",
          "type": "bool"
        }
      ],
      "payable": false,
      "stateMutability": "view",
      "type": "function"
    },
    {
      "constant": true,
      "inputs": [],
      "name": "multiplier",
      "outputs": [
        {
          "internalType": "uint256",
          "name": "",
          "type": "uint256"
        }
      ],
      "payable": false,
      "stateMutability": "view",
      "type": "function"
    },
    {
      "constant": true,
      "inputs": [
        {
          "internalType": "uint256",
          "name": "cash",
          "type": "uint256"
        },
        {
          "internalType": "uint256",
          "name": "borrows",
          "type": "uint256"
        },
        {
          "internalType": "uint256",
          "name": "_reserves",
          "type": "uint256"
        }
      ],
      "name": "getBorrowRate",
      "outputs": [
        {
          "internalType": "uint256",
          "name": "",
          "type": "uint256"
        },
        {
          "internalType": "uint256",
          "name": "",
          "type": "uint256"
        }
      ],
      "payable": false,
      "stateMutability": "view",
      "type": "function"
    }
  ],
  "bytecode": "0x608060405234801561001057600080fd5b5060405161067f38038061067f8339818101604052604081101561003357600080fd5b50805160209091015160019190915560005561062b806100546000396000f3fe608060405234801561001057600080fd5b50600436106100675760003560e01c80631f68f20a116100505780631f68f20a146100c85780632191f92a146100d0578063a385fb96146100ec57610067565b806315f240531461006c5780631b3ed722146100ae575b600080fd5b6100956004803603606081101561008257600080fd5b50803590602081013590604001356100f4565b6040805192835260208301919091528051918290030190f35b6100b661018d565b60408051918252519081900360200190f35b6100b6610193565b6100d8610199565b604080519115158252519081900360200190f35b6100b661019e565b60008060006101016105e3565b6101096105e3565b61011388886101a5565b91945092509050600083600481111561012857fe5b146101485782600481111561013957fe5b94506000935061018592505050565b60006101526105e3565b61015f8362201480610322565b9092509050600082600381111561017257fe5b1461017957fe5b51600096509450505050505b935093915050565b60005481565b60015481565b600181565b6220148081565b60006101af6105e3565b6101b76105e3565b60006101c16105e3565b6101cb878761038c565b909250905060008260048111156101de57fe5b1461020c5750604080516020808201835260008083528351918201909352918252919450909250905061031b565b60006102166105e3565b6102228360005461044e565b9092509050600082600381111561023557fe5b14610267575050604080516020808201835260008083528351918201909352918252600396509450925061031b915050565b60006102716105e3565b61028383670de0b6b3a7640000610322565b9092509050600082600381111561029657fe5b1461029d57fe5b60006102a76105e3565b6102c1836040518060200160405280600154815250610469565b909250905060008260038111156102d457fe5b1461030a57505060408051602080820183526000808352835191820190935291825260049a509850965061031b95505050505050565b60009a509598509496505050505050505b9250925092565b600061032c6105e3565b60008061033d8660000151866104a3565b9092509050600082600381111561035057fe5b1461036f57506040805160208101909152600081529092509050610385565b6040805160208101909152908152600093509150505b9250929050565b60006103966105e3565b826103b35750506040805160208101909152600080825290610385565b6000806103c086866104ce565b909250905060008260038111156103d357fe5b146103f4575050604080516020810190915260008152600192509050610385565b60006103fe6105e3565b61040887846104f4565b9092509050600082600381111561041b57fe5b1461043f575050604080516020810190915260008152600294509250610385915050565b60009890975095505050505050565b60006104586105e3565b60008061033d8660000151866105a4565b60006104736105e3565b600080610488866000015186600001516104ce565b60408051602081019091529081529097909650945050505050565b600080826104b75750600190506000610385565b60008385816104c257fe5b04915091509250929050565b6000808383018481106104e657600092509050610385565b506002915060009050610385565b60006104fe6105e3565b60008061051386670de0b6b3a76400006105a4565b9092509050600082600381111561052657fe5b1461054557506040805160208101909152600081529092509050610385565b60008061055283886104a3565b9092509050600082600381111561056557fe5b1461058757506040805160208101909152600081529094509250610385915050565b604080516020810190915290815260009890975095505050505050565b600080836105b757506000905080610385565b838302838582816105c457fe5b04146105d857506002915060009050610385565b600092509050610385565b604051806020016040528060008152509056fea265627a7a72315820cec9c0939e29f4c8c19acc493cf77837b2ea5a5e15510f846aeae583219803b364736f6c634300050c0032",
  "source": "import './InterestRateModel.sol';\nimport './Exponential.sol';\n\npragma solidity ^0.5.8;\n\n/**\n  * @title The Compound Standard Interest Rate Model with pluggable constants\n  * @author Compound\n  * @notice See Section 2.4 of the Compound Whitepaper\n  */\ncontract USDCInterestRateModel is InterestRateModel, Exponential {\n    /**\n     * @notice Indicator that this is an InterestRateModel contract (for inspection)\n     */\n    bool public constant isInterestRateModel = true;\n\n    /**\n     * @notice The multiplier of utilization rate that gives the slope of the interest rate\n     */\n    uint public multiplier;\n\n    /**\n     * @notice The base interest rate which is the y-intercept when utilization rate is 0\n     */\n    uint public baseRate;\n\n    /**\n     * @notice The approximate number of blocks per year that is assumed by the interest rate model\n     */\n    uint public constant blocksPerYear = 2102400;\n\n    constructor(uint baseRate_, uint multiplier_) public {\n        baseRate = baseRate_;\n        multiplier = multiplier_;\n    }\n\n    enum IRError {\n        NO_ERROR,\n        FAILED_TO_ADD_CASH_PLUS_BORROWS,\n        FAILED_TO_GET_EXP,\n        FAILED_TO_MUL_UTILIZATION_RATE,\n        FAILED_TO_ADD_BASE_RATE\n    }\n\n    /*\n     * @dev Calculates the utilization rate (borrows / (cash + borrows)) as an Exp\n     */\n    function getUtilizationRate(uint cash, uint borrows) pure internal returns (IRError, Exp memory) {\n        if (borrows == 0) {\n            // Utilization rate is zero when there's no borrows\n            return (IRError.NO_ERROR, Exp({mantissa: 0}));\n        }\n\n        (MathError err0, uint cashPlusBorrows) = addUInt(cash, borrows);\n        if (err0 != MathError.NO_ERROR) {\n            return (IRError.FAILED_TO_ADD_CASH_PLUS_BORROWS, Exp({mantissa: 0}));\n        }\n\n        (MathError err1, Exp memory utilizationRate) = getExp(borrows, cashPlusBorrows);\n        if (err1 != MathError.NO_ERROR) {\n            return (IRError.FAILED_TO_GET_EXP, Exp({mantissa: 0}));\n        }\n\n        return (IRError.NO_ERROR, utilizationRate);\n    }\n\n    /*\n     * @dev Calculates the utilization and borrow rates for use by getBorrowRate function\n     */\n    function getUtilizationAndAnnualBorrowRate(uint cash, uint borrows) view internal returns (IRError, Exp memory, Exp memory) {\n        (IRError err0, Exp memory utilizationRate) = getUtilizationRate(cash, borrows);\n        if (err0 != IRError.NO_ERROR) {\n            return (err0, Exp({mantissa: 0}), Exp({mantissa: 0}));\n        }\n\n        // Borrow Rate is 5% + UtilizationRate * 45% (baseRate + UtilizationRate * multiplier);\n        // 45% of utilizationRate, is `rate * 45 / 100`\n        (MathError err1, Exp memory utilizationRateMuled) = mulScalar(utilizationRate, multiplier);\n        // `mulScalar` only overflows when the product is >= 2^256.\n        // utilizationRate is a real number on the interval [0,1], which means that\n        // utilizationRate.mantissa is in the interval [0e18,1e18], which means that 45 times\n        // that is in the interval [0e18,45e18]. That interval has no intersection with 2^256, and therefore\n        // this can never overflow for the standard rates.\n        if (err1 != MathError.NO_ERROR) {\n            return (IRError.FAILED_TO_MUL_UTILIZATION_RATE, Exp({mantissa: 0}), Exp({mantissa: 0}));\n        }\n\n        (MathError err2, Exp memory utilizationRateScaled) = divScalar(utilizationRateMuled, mantissaOne);\n        // 100 is a constant, and therefore cannot be zero, which is the only error case of divScalar.\n        assert(err2 == MathError.NO_ERROR);\n\n        // Add the 5% for (5% + 45% * Ua)\n        (MathError err3, Exp memory annualBorrowRate) = addExp(utilizationRateScaled, Exp({mantissa: baseRate}));\n        // `addExp` only fails when the addition of mantissas overflow.\n        // As per above, utilizationRateMuled is capped at 45e18,\n        // and utilizationRateScaled is capped at 4.5e17. mantissaFivePercent = 0.5e17, and thus the addition\n        // is capped at 5e17, which is less than 2^256. This only applies to the standard rates\n        if (err3 != MathError.NO_ERROR) {\n            return (IRError.FAILED_TO_ADD_BASE_RATE, Exp({mantissa: 0}), Exp({mantissa: 0}));\n        }\n\n        return (IRError.NO_ERROR, utilizationRate, annualBorrowRate);\n    }\n\n    /**\n      * @notice Gets the current borrow interest rate based on the given asset, total cash, total borrows\n      *         and total reserves.\n      * @dev The return value should be scaled by 1e18, thus a return value of\n      *      `(true, 1000000000000)` implies an interest rate of 0.000001 or 0.0001% *per block*.\n      * @param cash The total cash of the underlying asset in the CToken\n      * @param borrows The total borrows of the underlying asset in the CToken\n      * @param _reserves The total reserves of the underlying asset in the CToken\n      * @return Success or failure and the borrow interest rate per block scaled by 10e18\n      */\n    function getBorrowRate(uint cash, uint borrows, uint _reserves) public view returns (uint, uint) {\n        _reserves; // pragma ignore unused argument\n\n        (IRError err0, Exp memory _utilizationRate, Exp memory annualBorrowRate) = getUtilizationAndAnnualBorrowRate(cash, borrows);\n        if (err0 != IRError.NO_ERROR) {\n            return (uint(err0), 0);\n        }\n\n        // And then divide down by blocks per year.\n        (MathError err1, Exp memory borrowRate) = divScalar(annualBorrowRate, blocksPerYear); // basis points * blocks per year\n        // divScalar only fails when divisor is zero. This is clearly not the case.\n        assert(err1 == MathError.NO_ERROR);\n\n        _utilizationRate; // pragma ignore unused variable\n\n        // Note: mantissa is the rate scaled 1e18, which matches the expected result\n        return (uint(IRError.NO_ERROR), borrowRate.mantissa);\n    }\n}\n",
  "sourcePath": "/Users/shain/repositories/insta-wealth/contracts/Compound/USDCInterestRateModel.sol",
  "compiler": {
    "name": "solc",
    "version": "0.5.12+commit.7709ece9.Emscripten.clang"
  },
  "schemaVersion": "3.0.16",
  "updatedAt": "2019-10-22T23:22:54.352Z",
  "devdoc": {
    "author": "Compound",
    "methods": {
      "getBorrowRate(uint256,uint256,uint256)": {
        "details": "The return value should be scaled by 1e18, thus a return value of     `(true, 1000000000000)` implies an interest rate of 0.000001 or 0.0001% *per block*.",
        "params": {
          "_reserves": "The total reserves of the underlying asset in the CToken",
          "borrows": "The total borrows of the underlying asset in the CToken",
          "cash": "The total cash of the underlying asset in the CToken"
        },
        "return": "Success or failure and the borrow interest rate per block scaled by 10e18"
      }
    },
    "title": "The Compound Standard Interest Rate Model with pluggable constants"
  },
  "userdoc": {
    "methods": {
      "getBorrowRate(uint256,uint256,uint256)": {
        "notice": "Gets the current borrow interest rate based on the given asset, total cash, total borrows        and total reserves."
      }
    },
    "notice": "See Section 2.4 of the Compound Whitepaper"
  }
}